{
	"contracts/FFP.sol": {
		"FinancialFairPlayTransfers": {
			"abi": [
				{
					"inputs": [],
					"stateMutability": "nonpayable",
					"type": "constructor"
				},
				{
					"inputs": [
						{
							"internalType": "address",
							"name": "owner",
							"type": "address"
						}
					],
					"name": "OwnableInvalidOwner",
					"type": "error"
				},
				{
					"inputs": [
						{
							"internalType": "address",
							"name": "account",
							"type": "address"
						}
					],
					"name": "OwnableUnauthorizedAccount",
					"type": "error"
				},
				{
					"anonymous": false,
					"inputs": [
						{
							"indexed": true,
							"internalType": "address",
							"name": "previousOwner",
							"type": "address"
						},
						{
							"indexed": true,
							"internalType": "address",
							"name": "newOwner",
							"type": "address"
						}
					],
					"name": "OwnershipTransferred",
					"type": "event"
				},
				{
					"anonymous": false,
					"inputs": [
						{
							"indexed": true,
							"internalType": "address",
							"name": "from",
							"type": "address"
						},
						{
							"indexed": true,
							"internalType": "address",
							"name": "to",
							"type": "address"
						},
						{
							"indexed": false,
							"internalType": "uint256",
							"name": "amount",
							"type": "uint256"
						},
						{
							"indexed": false,
							"internalType": "string",
							"name": "transactionType",
							"type": "string"
						}
					],
					"name": "TransferExecuted",
					"type": "event"
				},
				{
					"anonymous": false,
					"inputs": [
						{
							"indexed": true,
							"internalType": "address",
							"name": "wallet",
							"type": "address"
						},
						{
							"indexed": false,
							"internalType": "string",
							"name": "walletType",
							"type": "string"
						}
					],
					"name": "WalletRegistered",
					"type": "event"
				},
				{
					"anonymous": false,
					"inputs": [
						{
							"indexed": true,
							"internalType": "address",
							"name": "wallet",
							"type": "address"
						},
						{
							"indexed": false,
							"internalType": "uint256",
							"name": "amount",
							"type": "uint256"
						}
					],
					"name": "Withdrawal",
					"type": "event"
				},
				{
					"inputs": [
						{
							"internalType": "address",
							"name": "",
							"type": "address"
						}
					],
					"name": "currentclubRevenue",
					"outputs": [
						{
							"internalType": "uint256",
							"name": "",
							"type": "uint256"
						}
					],
					"stateMutability": "view",
					"type": "function"
				},
				{
					"inputs": [],
					"name": "deposit",
					"outputs": [],
					"stateMutability": "payable",
					"type": "function"
				},
				{
					"inputs": [],
					"name": "getBalance",
					"outputs": [
						{
							"internalType": "uint256",
							"name": "",
							"type": "uint256"
						}
					],
					"stateMutability": "view",
					"type": "function"
				},
				{
					"inputs": [],
					"name": "owner",
					"outputs": [
						{
							"internalType": "address",
							"name": "",
							"type": "address"
						}
					],
					"stateMutability": "view",
					"type": "function"
				},
				{
					"inputs": [
						{
							"internalType": "address",
							"name": "wallet",
							"type": "address"
						},
						{
							"internalType": "string",
							"name": "walletType",
							"type": "string"
						}
					],
					"name": "registerWallet",
					"outputs": [],
					"stateMutability": "nonpayable",
					"type": "function"
				},
				{
					"inputs": [],
					"name": "renounceOwnership",
					"outputs": [],
					"stateMutability": "nonpayable",
					"type": "function"
				},
				{
					"inputs": [
						{
							"internalType": "address",
							"name": "",
							"type": "address"
						}
					],
					"name": "spentClubRevenue",
					"outputs": [
						{
							"internalType": "uint256",
							"name": "",
							"type": "uint256"
						}
					],
					"stateMutability": "view",
					"type": "function"
				},
				{
					"inputs": [
						{
							"internalType": "address",
							"name": "to",
							"type": "address"
						},
						{
							"internalType": "uint256",
							"name": "amount",
							"type": "uint256"
						},
						{
							"internalType": "string",
							"name": "transactionType",
							"type": "string"
						}
					],
					"name": "transfer",
					"outputs": [],
					"stateMutability": "nonpayable",
					"type": "function"
				},
				{
					"inputs": [
						{
							"internalType": "address",
							"name": "newOwner",
							"type": "address"
						}
					],
					"name": "transferOwnership",
					"outputs": [],
					"stateMutability": "nonpayable",
					"type": "function"
				},
				{
					"inputs": [
						{
							"internalType": "address",
							"name": "",
							"type": "address"
						}
					],
					"name": "wallets",
					"outputs": [
						{
							"internalType": "string",
							"name": "walletType",
							"type": "string"
						},
						{
							"internalType": "uint256",
							"name": "balance",
							"type": "uint256"
						}
					],
					"stateMutability": "view",
					"type": "function"
				},
				{
					"inputs": [
						{
							"internalType": "uint256",
							"name": "amount",
							"type": "uint256"
						}
					],
					"name": "withdraw",
					"outputs": [],
					"stateMutability": "nonpayable",
					"type": "function"
				}
			],
			"devdoc": {
				"errors": {
					"OwnableInvalidOwner(address)": [
						{
							"details": "The owner is not a valid owner account. (eg. `address(0)`)"
						}
					],
					"OwnableUnauthorizedAccount(address)": [
						{
							"details": "The caller account is not authorized to perform an operation."
						}
					]
				},
				"kind": "dev",
				"methods": {
					"owner()": {
						"details": "Returns the address of the current owner."
					},
					"renounceOwnership()": {
						"details": "Leaves the contract without owner. It will not be possible to call `onlyOwner` functions. Can only be called by the current owner. NOTE: Renouncing ownership will leave the contract without an owner, thereby disabling any functionality that is only available to the owner."
					},
					"transferOwnership(address)": {
						"details": "Transfers ownership of the contract to a new account (`newOwner`). Can only be called by the current owner."
					}
				},
				"version": 1
			},
			"evm": {
				"assembly": "    /* \"contracts/FFP.sol\":116:3903  contract FinancialFairPlayTransfers is Ownable {... */\n  mstore(0x40, 0x80)\n    /* \"contracts/FFP.sol\":170:206  constructor() Ownable(msg.sender) {} */\n  callvalue\n  dup1\n  iszero\n  tag_1\n  jumpi\n  0x00\n  dup1\n  revert\ntag_1:\n  pop\n    /* \"contracts/FFP.sol\":192:202  msg.sender */\n  caller\n    /* \"@openzeppelin/contracts/access/Ownable.sol\":1297:1298  0 */\n  0x00\n    /* \"@openzeppelin/contracts/access/Ownable.sol\":1273:1299  initialOwner == address(0) */\n  0xffffffffffffffffffffffffffffffffffffffff\n  and\n    /* \"@openzeppelin/contracts/access/Ownable.sol\":1273:1285  initialOwner */\n  dup2\n    /* \"@openzeppelin/contracts/access/Ownable.sol\":1273:1299  initialOwner == address(0) */\n  0xffffffffffffffffffffffffffffffffffffffff\n  and\n  sub\n    /* \"@openzeppelin/contracts/access/Ownable.sol\":1269:1364  if (initialOwner == address(0)) {... */\n  tag_5\n  jumpi\n    /* \"@openzeppelin/contracts/access/Ownable.sol\":1350:1351  0 */\n  0x00\n    /* \"@openzeppelin/contracts/access/Ownable.sol\":1322:1353  OwnableInvalidOwner(address(0)) */\n  mload(0x40)\n  0x1e4fbdf700000000000000000000000000000000000000000000000000000000\n  dup2\n  mstore\n  0x04\n  add\n  tag_6\n  swap2\n  swap1\n  tag_7\n  jump\t// in\ntag_6:\n  mload(0x40)\n  dup1\n  swap2\n  sub\n  swap1\n  revert\n    /* \"@openzeppelin/contracts/access/Ownable.sol\":1269:1364  if (initialOwner == address(0)) {... */\ntag_5:\n    /* \"@openzeppelin/contracts/access/Ownable.sol\":1373:1405  _transferOwnership(initialOwner) */\n  tag_8\n    /* \"@openzeppelin/contracts/access/Ownable.sol\":1392:1404  initialOwner */\n  dup2\n    /* \"@openzeppelin/contracts/access/Ownable.sol\":1373:1391  _transferOwnership */\n  shl(0x20, tag_9)\n    /* \"@openzeppelin/contracts/access/Ownable.sol\":1373:1405  _transferOwnership(initialOwner) */\n  0x20\n  shr\n  jump\t// in\ntag_8:\n    /* \"@openzeppelin/contracts/access/Ownable.sol\":1225:1412  constructor(address initialOwner) {... */\n  pop\n    /* \"contracts/FFP.sol\":116:3903  contract FinancialFairPlayTransfers is Ownable {... */\n  jump(tag_11)\n    /* \"@openzeppelin/contracts/access/Ownable.sol\":2912:3099  function _transferOwnership(address newOwner) internal virtual {... */\ntag_9:\n    /* \"@openzeppelin/contracts/access/Ownable.sol\":2985:3001  address oldOwner */\n  0x00\n    /* \"@openzeppelin/contracts/access/Ownable.sol\":3004:3010  _owner */\n  dup1\n  0x00\n  swap1\n  sload\n  swap1\n  0x0100\n  exp\n  swap1\n  div\n  0xffffffffffffffffffffffffffffffffffffffff\n  and\n    /* \"@openzeppelin/contracts/access/Ownable.sol\":2985:3010  address oldOwner = _owner */\n  swap1\n  pop\n    /* \"@openzeppelin/contracts/access/Ownable.sol\":3029:3037  newOwner */\n  dup2\n    /* \"@openzeppelin/contracts/access/Ownable.sol\":3020:3026  _owner */\n  0x00\n  dup1\n    /* \"@openzeppelin/contracts/access/Ownable.sol\":3020:3037  _owner = newOwner */\n  0x0100\n  exp\n  dup2\n  sload\n  dup2\n  0xffffffffffffffffffffffffffffffffffffffff\n  mul\n  not\n  and\n  swap1\n  dup4\n  0xffffffffffffffffffffffffffffffffffffffff\n  and\n  mul\n  or\n  swap1\n  sstore\n  pop\n    /* \"@openzeppelin/contracts/access/Ownable.sol\":3083:3091  newOwner */\n  dup2\n    /* \"@openzeppelin/contracts/access/Ownable.sol\":3052:3092  OwnershipTransferred(oldOwner, newOwner) */\n  0xffffffffffffffffffffffffffffffffffffffff\n  and\n    /* \"@openzeppelin/contracts/access/Ownable.sol\":3073:3081  oldOwner */\n  dup2\n    /* \"@openzeppelin/contracts/access/Ownable.sol\":3052:3092  OwnershipTransferred(oldOwner, newOwner) */\n  0xffffffffffffffffffffffffffffffffffffffff\n  and\n  0x8be0079c531659141344cd1fd0a4f28419497f9722a3daafe3b4186f6b6457e0\n  mload(0x40)\n  mload(0x40)\n  dup1\n  swap2\n  sub\n  swap1\n  log3\n    /* \"@openzeppelin/contracts/access/Ownable.sol\":2975:3099  {... */\n  pop\n    /* \"@openzeppelin/contracts/access/Ownable.sol\":2912:3099  function _transferOwnership(address newOwner) internal virtual {... */\n  pop\n  jump\t// out\n    /* \"#utility.yul\":7:133   */\ntag_13:\n    /* \"#utility.yul\":44:51   */\n  0x00\n    /* \"#utility.yul\":84:126   */\n  0xffffffffffffffffffffffffffffffffffffffff\n    /* \"#utility.yul\":77:82   */\n  dup3\n    /* \"#utility.yul\":73:127   */\n  and\n    /* \"#utility.yul\":62:127   */\n  swap1\n  pop\n    /* \"#utility.yul\":7:133   */\n  swap2\n  swap1\n  pop\n  jump\t// out\n    /* \"#utility.yul\":139:235   */\ntag_14:\n    /* \"#utility.yul\":176:183   */\n  0x00\n    /* \"#utility.yul\":205:229   */\n  tag_19\n    /* \"#utility.yul\":223:228   */\n  dup3\n    /* \"#utility.yul\":205:229   */\n  tag_13\n  jump\t// in\ntag_19:\n    /* \"#utility.yul\":194:229   */\n  swap1\n  pop\n    /* \"#utility.yul\":139:235   */\n  swap2\n  swap1\n  pop\n  jump\t// out\n    /* \"#utility.yul\":241:359   */\ntag_15:\n    /* \"#utility.yul\":328:352   */\n  tag_21\n    /* \"#utility.yul\":346:351   */\n  dup2\n    /* \"#utility.yul\":328:352   */\n  tag_14\n  jump\t// in\ntag_21:\n    /* \"#utility.yul\":323:326   */\n  dup3\n    /* \"#utility.yul\":316:353   */\n  mstore\n    /* \"#utility.yul\":241:359   */\n  pop\n  pop\n  jump\t// out\n    /* \"#utility.yul\":365:587   */\ntag_7:\n    /* \"#utility.yul\":458:462   */\n  0x00\n    /* \"#utility.yul\":496:498   */\n  0x20\n    /* \"#utility.yul\":485:494   */\n  dup3\n    /* \"#utility.yul\":481:499   */\n  add\n    /* \"#utility.yul\":473:499   */\n  swap1\n  pop\n    /* \"#utility.yul\":509:580   */\n  tag_23\n    /* \"#utility.yul\":577:578   */\n  0x00\n    /* \"#utility.yul\":566:575   */\n  dup4\n    /* \"#utility.yul\":562:579   */\n  add\n    /* \"#utility.yul\":553:559   */\n  dup5\n    /* \"#utility.yul\":509:580   */\n  tag_15\n  jump\t// in\ntag_23:\n    /* \"#utility.yul\":365:587   */\n  swap3\n  swap2\n  pop\n  pop\n  jump\t// out\n    /* \"contracts/FFP.sol\":116:3903  contract FinancialFairPlayTransfers is Ownable {... */\ntag_11:\n  dataSize(sub_0)\n  dup1\n  dataOffset(sub_0)\n  0x00\n  codecopy\n  0x00\n  return\nstop\n\nsub_0: assembly {\n        /* \"contracts/FFP.sol\":116:3903  contract FinancialFairPlayTransfers is Ownable {... */\n      mstore(0x40, 0x80)\n      jumpi(tag_1, lt(calldatasize, 0x04))\n      shr(0xe0, calldataload(0x00))\n      dup1\n      0x89b08f11\n      gt\n      tag_13\n      jumpi\n      dup1\n      0x89b08f11\n      eq\n      tag_7\n      jumpi\n      dup1\n      0x8da5cb5b\n      eq\n      tag_8\n      jumpi\n      dup1\n      0xc0bc2bdf\n      eq\n      tag_9\n      jumpi\n      dup1\n      0xd0e30db0\n      eq\n      tag_10\n      jumpi\n      dup1\n      0xd7cf5ff5\n      eq\n      tag_11\n      jumpi\n      dup1\n      0xf2fde38b\n      eq\n      tag_12\n      jumpi\n      jump(tag_1)\n    tag_13:\n      dup1\n      0x12065fe0\n      eq\n      tag_2\n      jumpi\n      dup1\n      0x2e1a7d4d\n      eq\n      tag_3\n      jumpi\n      dup1\n      0x50bd9941\n      eq\n      tag_4\n      jumpi\n      dup1\n      0x56b8c724\n      eq\n      tag_5\n      jumpi\n      dup1\n      0x715018a6\n      eq\n      tag_6\n      jumpi\n    tag_1:\n      0x00\n      dup1\n      revert\n        /* \"contracts/FFP.sol\":3793:3900  function getBalance() external view returns (uint256) {... */\n    tag_2:\n      callvalue\n      dup1\n      iszero\n      tag_14\n      jumpi\n      0x00\n      dup1\n      revert\n    tag_14:\n      pop\n      tag_15\n      tag_16\n      jump\t// in\n    tag_15:\n      mload(0x40)\n      tag_17\n      swap2\n      swap1\n      tag_18\n      jump\t// in\n    tag_17:\n      mload(0x40)\n      dup1\n      swap2\n      sub\n      swap1\n      return\n        /* \"contracts/FFP.sol\":1564:1920  function withdraw(uint256 amount) external {... */\n    tag_3:\n      callvalue\n      dup1\n      iszero\n      tag_19\n      jumpi\n      0x00\n      dup1\n      revert\n    tag_19:\n      pop\n      tag_20\n      0x04\n      dup1\n      calldatasize\n      sub\n      dup2\n      add\n      swap1\n      tag_21\n      swap2\n      swap1\n      tag_22\n      jump\t// in\n    tag_21:\n      tag_23\n      jump\t// in\n    tag_20:\n      stop\n        /* \"contracts/FFP.sol\":441:492  mapping(address => uint256) public spentClubRevenue */\n    tag_4:\n      callvalue\n      dup1\n      iszero\n      tag_24\n      jumpi\n      0x00\n      dup1\n      revert\n    tag_24:\n      pop\n      tag_25\n      0x04\n      dup1\n      calldatasize\n      sub\n      dup2\n      add\n      swap1\n      tag_26\n      swap2\n      swap1\n      tag_27\n      jump\t// in\n    tag_26:\n      tag_28\n      jump\t// in\n    tag_25:\n      mload(0x40)\n      tag_29\n      swap2\n      swap1\n      tag_18\n      jump\t// in\n    tag_29:\n      mload(0x40)\n      dup1\n      swap2\n      sub\n      swap1\n      return\n        /* \"contracts/FFP.sol\":1928:3783  function transfer(address to, uint256 amount, string memory transactionType) external {... */\n    tag_5:\n      callvalue\n      dup1\n      iszero\n      tag_30\n      jumpi\n      0x00\n      dup1\n      revert\n    tag_30:\n      pop\n      tag_31\n      0x04\n      dup1\n      calldatasize\n      sub\n      dup2\n      add\n      swap1\n      tag_32\n      swap2\n      swap1\n      tag_33\n      jump\t// in\n    tag_32:\n      tag_34\n      jump\t// in\n    tag_31:\n      stop\n        /* \"@openzeppelin/contracts/access/Ownable.sol\":2293:2394  function renounceOwnership() public virtual onlyOwner {... */\n    tag_6:\n      callvalue\n      dup1\n      iszero\n      tag_35\n      jumpi\n      0x00\n      dup1\n      revert\n    tag_35:\n      pop\n      tag_36\n      tag_37\n      jump\t// in\n    tag_36:\n      stop\n        /* \"contracts/FFP.sol\":333:374  mapping(address => Wallet) public wallets */\n    tag_7:\n      callvalue\n      dup1\n      iszero\n      tag_38\n      jumpi\n      0x00\n      dup1\n      revert\n    tag_38:\n      pop\n      tag_39\n      0x04\n      dup1\n      calldatasize\n      sub\n      dup2\n      add\n      swap1\n      tag_40\n      swap2\n      swap1\n      tag_27\n      jump\t// in\n    tag_40:\n      tag_41\n      jump\t// in\n    tag_39:\n      mload(0x40)\n      tag_42\n      swap3\n      swap2\n      swap1\n      tag_43\n      jump\t// in\n    tag_42:\n      mload(0x40)\n      dup1\n      swap2\n      sub\n      swap1\n      return\n        /* \"@openzeppelin/contracts/access/Ownable.sol\":1638:1723  function owner() public view virtual returns (address) {... */\n    tag_8:\n      callvalue\n      dup1\n      iszero\n      tag_44\n      jumpi\n      0x00\n      dup1\n      revert\n    tag_44:\n      pop\n      tag_45\n      tag_46\n      jump\t// in\n    tag_45:\n      mload(0x40)\n      tag_47\n      swap2\n      swap1\n      tag_48\n      jump\t// in\n    tag_47:\n      mload(0x40)\n      dup1\n      swap2\n      sub\n      swap1\n      return\n        /* \"contracts/FFP.sol\":792:1306  function registerWallet(address wallet, string memory walletType) external onlyOwner {... */\n    tag_9:\n      callvalue\n      dup1\n      iszero\n      tag_49\n      jumpi\n      0x00\n      dup1\n      revert\n    tag_49:\n      pop\n      tag_50\n      0x04\n      dup1\n      calldatasize\n      sub\n      dup2\n      add\n      swap1\n      tag_51\n      swap2\n      swap1\n      tag_52\n      jump\t// in\n    tag_51:\n      tag_53\n      jump\t// in\n    tag_50:\n      stop\n        /* \"contracts/FFP.sol\":1314:1556  function deposit() external payable {... */\n    tag_10:\n      tag_54\n      tag_55\n      jump\t// in\n    tag_54:\n      stop\n        /* \"contracts/FFP.sol\":381:434  mapping(address => uint256) public currentclubRevenue */\n    tag_11:\n      callvalue\n      dup1\n      iszero\n      tag_56\n      jumpi\n      0x00\n      dup1\n      revert\n    tag_56:\n      pop\n      tag_57\n      0x04\n      dup1\n      calldatasize\n      sub\n      dup2\n      add\n      swap1\n      tag_58\n      swap2\n      swap1\n      tag_27\n      jump\t// in\n    tag_58:\n      tag_59\n      jump\t// in\n    tag_57:\n      mload(0x40)\n      tag_60\n      swap2\n      swap1\n      tag_18\n      jump\t// in\n    tag_60:\n      mload(0x40)\n      dup1\n      swap2\n      sub\n      swap1\n      return\n        /* \"@openzeppelin/contracts/access/Ownable.sol\":2543:2758  function transferOwnership(address newOwner) public virtual onlyOwner {... */\n    tag_12:\n      callvalue\n      dup1\n      iszero\n      tag_61\n      jumpi\n      0x00\n      dup1\n      revert\n    tag_61:\n      pop\n      tag_62\n      0x04\n      dup1\n      calldatasize\n      sub\n      dup2\n      add\n      swap1\n      tag_63\n      swap2\n      swap1\n      tag_27\n      jump\t// in\n    tag_63:\n      tag_64\n      jump\t// in\n    tag_62:\n      stop\n        /* \"contracts/FFP.sol\":3793:3900  function getBalance() external view returns (uint256) {... */\n    tag_16:\n        /* \"contracts/FFP.sol\":3838:3845  uint256 */\n      0x00\n        /* \"contracts/FFP.sol\":3865:3872  wallets */\n      0x01\n        /* \"contracts/FFP.sol\":3865:3884  wallets[msg.sender] */\n      0x00\n        /* \"contracts/FFP.sol\":3873:3883  msg.sender */\n      caller\n        /* \"contracts/FFP.sol\":3865:3884  wallets[msg.sender] */\n      0xffffffffffffffffffffffffffffffffffffffff\n      and\n      0xffffffffffffffffffffffffffffffffffffffff\n      and\n      dup2\n      mstore\n      0x20\n      add\n      swap1\n      dup2\n      mstore\n      0x20\n      add\n      0x00\n      keccak256\n        /* \"contracts/FFP.sol\":3865:3892  wallets[msg.sender].balance */\n      0x01\n      add\n      sload\n        /* \"contracts/FFP.sol\":3858:3892  return wallets[msg.sender].balance */\n      swap1\n      pop\n        /* \"contracts/FFP.sol\":3793:3900  function getBalance() external view returns (uint256) {... */\n      swap1\n      jump\t// out\n        /* \"contracts/FFP.sol\":1564:1920  function withdraw(uint256 amount) external {... */\n    tag_23:\n        /* \"contracts/FFP.sol\":1657:1663  amount */\n      dup1\n        /* \"contracts/FFP.sol\":1626:1633  wallets */\n      0x01\n        /* \"contracts/FFP.sol\":1626:1645  wallets[msg.sender] */\n      0x00\n        /* \"contracts/FFP.sol\":1634:1644  msg.sender */\n      caller\n        /* \"contracts/FFP.sol\":1626:1645  wallets[msg.sender] */\n      0xffffffffffffffffffffffffffffffffffffffff\n      and\n      0xffffffffffffffffffffffffffffffffffffffff\n      and\n      dup2\n      mstore\n      0x20\n      add\n      swap1\n      dup2\n      mstore\n      0x20\n      add\n      0x00\n      keccak256\n        /* \"contracts/FFP.sol\":1626:1653  wallets[msg.sender].balance */\n      0x01\n      add\n      sload\n        /* \"contracts/FFP.sol\":1626:1663  wallets[msg.sender].balance >= amount */\n      lt\n      iszero\n        /* \"contracts/FFP.sol\":1618:1688  require(wallets[msg.sender].balance >= amount, \"Insufficient balance\") */\n      tag_67\n      jumpi\n      mload(0x40)\n      0x08c379a000000000000000000000000000000000000000000000000000000000\n      dup2\n      mstore\n      0x04\n      add\n      tag_68\n      swap1\n      tag_69\n      jump\t// in\n    tag_68:\n      mload(0x40)\n      dup1\n      swap2\n      sub\n      swap1\n      revert\n    tag_67:\n        /* \"contracts/FFP.sol\":1730:1736  amount */\n      dup1\n        /* \"contracts/FFP.sol\":1699:1706  wallets */\n      0x01\n        /* \"contracts/FFP.sol\":1699:1718  wallets[msg.sender] */\n      0x00\n        /* \"contracts/FFP.sol\":1707:1717  msg.sender */\n      caller\n        /* \"contracts/FFP.sol\":1699:1718  wallets[msg.sender] */\n      0xffffffffffffffffffffffffffffffffffffffff\n      and\n      0xffffffffffffffffffffffffffffffffffffffff\n      and\n      dup2\n      mstore\n      0x20\n      add\n      swap1\n      dup2\n      mstore\n      0x20\n      add\n      0x00\n      keccak256\n        /* \"contracts/FFP.sol\":1699:1726  wallets[msg.sender].balance */\n      0x01\n      add\n      0x00\n        /* \"contracts/FFP.sol\":1699:1736  wallets[msg.sender].balance -= amount */\n      dup3\n      dup3\n      sload\n      tag_70\n      swap2\n      swap1\n      tag_71\n      jump\t// in\n    tag_70:\n      swap3\n      pop\n      pop\n      dup2\n      swap1\n      sstore\n      pop\n        /* \"contracts/FFP.sol\":1755:1765  msg.sender */\n      caller\n        /* \"contracts/FFP.sol\":1747:1775  payable(msg.sender).transfer */\n      0xffffffffffffffffffffffffffffffffffffffff\n      and\n        /* \"contracts/FFP.sol\":1747:1783  payable(msg.sender).transfer(amount) */\n      0x08fc\n        /* \"contracts/FFP.sol\":1776:1782  amount */\n      dup3\n        /* \"contracts/FFP.sol\":1747:1783  payable(msg.sender).transfer(amount) */\n      swap1\n      dup2\n      iszero\n      mul\n      swap1\n      mload(0x40)\n      0x00\n      mload(0x40)\n      dup1\n      dup4\n      sub\n      dup2\n      dup6\n      dup9\n      dup9\n      call\n      swap4\n      pop\n      pop\n      pop\n      pop\n      iszero\n      dup1\n      iszero\n      tag_73\n      jumpi\n      returndatasize\n      0x00\n      dup1\n      returndatacopy\n      revert(0x00, returndatasize)\n    tag_73:\n      pop\n        /* \"contracts/FFP.sol\":1858:1864  amount */\n      dup1\n        /* \"contracts/FFP.sol\":1824:1842  currentclubRevenue */\n      0x02\n        /* \"contracts/FFP.sol\":1824:1854  currentclubRevenue[msg.sender] */\n      0x00\n        /* \"contracts/FFP.sol\":1843:1853  msg.sender */\n      caller\n        /* \"contracts/FFP.sol\":1824:1854  currentclubRevenue[msg.sender] */\n      0xffffffffffffffffffffffffffffffffffffffff\n      and\n      0xffffffffffffffffffffffffffffffffffffffff\n      and\n      dup2\n      mstore\n      0x20\n      add\n      swap1\n      dup2\n      mstore\n      0x20\n      add\n      0x00\n      keccak256\n      0x00\n        /* \"contracts/FFP.sol\":1824:1864  currentclubRevenue[msg.sender] -= amount */\n      dup3\n      dup3\n      sload\n      tag_74\n      swap2\n      swap1\n      tag_71\n      jump\t// in\n    tag_74:\n      swap3\n      pop\n      pop\n      dup2\n      swap1\n      sstore\n      pop\n        /* \"contracts/FFP.sol\":1893:1903  msg.sender */\n      caller\n        /* \"contracts/FFP.sol\":1882:1912  Withdrawal(msg.sender, amount) */\n      0xffffffffffffffffffffffffffffffffffffffff\n      and\n      0x7fcf532c15f0a6db0bd6d0e038bea71d30d808c7d98cb3bf7268a95bf5081b65\n        /* \"contracts/FFP.sol\":1905:1911  amount */\n      dup3\n        /* \"contracts/FFP.sol\":1882:1912  Withdrawal(msg.sender, amount) */\n      mload(0x40)\n      tag_75\n      swap2\n      swap1\n      tag_18\n      jump\t// in\n    tag_75:\n      mload(0x40)\n      dup1\n      swap2\n      sub\n      swap1\n      log2\n        /* \"contracts/FFP.sol\":1564:1920  function withdraw(uint256 amount) external {... */\n      pop\n      jump\t// out\n        /* \"contracts/FFP.sol\":441:492  mapping(address => uint256) public spentClubRevenue */\n    tag_28:\n      mstore(0x20, 0x03)\n      dup1\n      0x00\n      mstore\n      keccak256(0x00, 0x40)\n      0x00\n      swap2\n      pop\n      swap1\n      pop\n      sload\n      dup2\n      jump\t// out\n        /* \"contracts/FFP.sol\":1928:3783  function transfer(address to, uint256 amount, string memory transactionType) external {... */\n    tag_34:\n        /* \"contracts/FFP.sol\":2025:2037  address from */\n      0x00\n        /* \"contracts/FFP.sol\":2040:2050  msg.sender */\n      caller\n        /* \"contracts/FFP.sol\":2025:2050  address from = msg.sender */\n      swap1\n      pop\n        /* \"contracts/FFP.sol\":2112:2113  0 */\n      0x00\n        /* \"contracts/FFP.sol\":2077:2084  wallets */\n      0x01\n        /* \"contracts/FFP.sol\":2077:2090  wallets[from] */\n      0x00\n        /* \"contracts/FFP.sol\":2085:2089  from */\n      dup4\n        /* \"contracts/FFP.sol\":2077:2090  wallets[from] */\n      0xffffffffffffffffffffffffffffffffffffffff\n      and\n      0xffffffffffffffffffffffffffffffffffffffff\n      and\n      dup2\n      mstore\n      0x20\n      add\n      swap1\n      dup2\n      mstore\n      0x20\n      add\n      0x00\n      keccak256\n        /* \"contracts/FFP.sol\":2077:2101  wallets[from].walletType */\n      0x00\n      add\n        /* \"contracts/FFP.sol\":2071:2109  bytes(wallets[from].walletType).length */\n      dup1\n      sload\n      tag_77\n      swap1\n      tag_78\n      jump\t// in\n    tag_77:\n      swap1\n      pop\n        /* \"contracts/FFP.sol\":2071:2113  bytes(wallets[from].walletType).length > 0 */\n      gt\n        /* \"contracts/FFP.sol\":2063:2146  require(bytes(wallets[from].walletType).length > 0, \"Sender wallet not registered\") */\n      tag_79\n      jumpi\n      mload(0x40)\n      0x08c379a000000000000000000000000000000000000000000000000000000000\n      dup2\n      mstore\n      0x04\n      add\n      tag_80\n      swap1\n      tag_81\n      jump\t// in\n    tag_80:\n      mload(0x40)\n      dup1\n      swap2\n      sub\n      swap1\n      revert\n    tag_79:\n        /* \"contracts/FFP.sol\":2204:2205  0 */\n      0x00\n        /* \"contracts/FFP.sol\":2171:2178  wallets */\n      0x01\n        /* \"contracts/FFP.sol\":2171:2182  wallets[to] */\n      0x00\n        /* \"contracts/FFP.sol\":2179:2181  to */\n      dup7\n        /* \"contracts/FFP.sol\":2171:2182  wallets[to] */\n      0xffffffffffffffffffffffffffffffffffffffff\n      and\n      0xffffffffffffffffffffffffffffffffffffffff\n      and\n      dup2\n      mstore\n      0x20\n      add\n      swap1\n      dup2\n      mstore\n      0x20\n      add\n      0x00\n      keccak256\n        /* \"contracts/FFP.sol\":2171:2193  wallets[to].walletType */\n      0x00\n      add\n        /* \"contracts/FFP.sol\":2165:2201  bytes(wallets[to].walletType).length */\n      dup1\n      sload\n      tag_82\n      swap1\n      tag_78\n      jump\t// in\n    tag_82:\n      swap1\n      pop\n        /* \"contracts/FFP.sol\":2165:2205  bytes(wallets[to].walletType).length > 0 */\n      gt\n        /* \"contracts/FFP.sol\":2157:2240  require(bytes(wallets[to].walletType).length > 0, \"Receiver wallet not registered\") */\n      tag_83\n      jumpi\n      mload(0x40)\n      0x08c379a000000000000000000000000000000000000000000000000000000000\n      dup2\n      mstore\n      0x04\n      add\n      tag_84\n      swap1\n      tag_85\n      jump\t// in\n    tag_84:\n      mload(0x40)\n      dup1\n      swap2\n      sub\n      swap1\n      revert\n    tag_83:\n        /* \"contracts/FFP.sol\":2284:2290  amount */\n      dup3\n        /* \"contracts/FFP.sol\":2259:2266  wallets */\n      0x01\n        /* \"contracts/FFP.sol\":2259:2272  wallets[from] */\n      0x00\n        /* \"contracts/FFP.sol\":2267:2271  from */\n      dup4\n        /* \"contracts/FFP.sol\":2259:2272  wallets[from] */\n      0xffffffffffffffffffffffffffffffffffffffff\n      and\n      0xffffffffffffffffffffffffffffffffffffffff\n      and\n      dup2\n      mstore\n      0x20\n      add\n      swap1\n      dup2\n      mstore\n      0x20\n      add\n      0x00\n      keccak256\n        /* \"contracts/FFP.sol\":2259:2280  wallets[from].balance */\n      0x01\n      add\n      sload\n        /* \"contracts/FFP.sol\":2259:2290  wallets[from].balance >= amount */\n      lt\n      iszero\n        /* \"contracts/FFP.sol\":2251:2315  require(wallets[from].balance >= amount, \"Insufficient balance\") */\n      tag_86\n      jumpi\n      mload(0x40)\n      0x08c379a000000000000000000000000000000000000000000000000000000000\n      dup2\n      mstore\n      0x04\n      add\n      tag_87\n      swap1\n      tag_69\n      jump\t// in\n    tag_87:\n      mload(0x40)\n      dup1\n      swap2\n      sub\n      swap1\n      revert\n    tag_86:\n        /* \"contracts/FFP.sol\":2390:2422  abi.encodePacked(\"playerSalary\") */\n      add(0x20, mload(0x40))\n      tag_88\n      swap1\n      tag_89\n      jump\t// in\n    tag_88:\n      mload(0x40)\n      0x20\n      dup2\n      dup4\n      sub\n      sub\n      dup2\n      mstore\n      swap1\n      0x40\n      mstore\n        /* \"contracts/FFP.sol\":2380:2423  keccak256(abi.encodePacked(\"playerSalary\")) */\n      dup1\n      mload\n      swap1\n      0x20\n      add\n      keccak256\n        /* \"contracts/FFP.sol\":2359:2374  transactionType */\n      dup3\n        /* \"contracts/FFP.sol\":2342:2375  abi.encodePacked(transactionType) */\n      add(0x20, mload(0x40))\n      tag_90\n      swap2\n      swap1\n      tag_91\n      jump\t// in\n    tag_90:\n      mload(0x40)\n      0x20\n      dup2\n      dup4\n      sub\n      sub\n      dup2\n      mstore\n      swap1\n      0x40\n      mstore\n        /* \"contracts/FFP.sol\":2332:2376  keccak256(abi.encodePacked(transactionType)) */\n      dup1\n      mload\n      swap1\n      0x20\n      add\n      keccak256\n        /* \"contracts/FFP.sol\":2332:2423  keccak256(abi.encodePacked(transactionType)) == keccak256(abi.encodePacked(\"playerSalary\")) */\n      sub\n        /* \"contracts/FFP.sol\":2328:3579  if (keccak256(abi.encodePacked(transactionType)) == keccak256(abi.encodePacked(\"playerSalary\"))) {... */\n      tag_92\n      jumpi\n        /* \"contracts/FFP.sol\":2533:2557  abi.encodePacked(\"club\") */\n      add(0x20, mload(0x40))\n      tag_93\n      swap1\n      tag_94\n      jump\t// in\n    tag_93:\n      mload(0x40)\n      0x20\n      dup2\n      dup4\n      sub\n      sub\n      dup2\n      mstore\n      swap1\n      0x40\n      mstore\n        /* \"contracts/FFP.sol\":2523:2558  keccak256(abi.encodePacked(\"club\")) */\n      dup1\n      mload\n      swap1\n      0x20\n      add\n      keccak256\n        /* \"contracts/FFP.sol\":2493:2500  wallets */\n      0x01\n        /* \"contracts/FFP.sol\":2493:2506  wallets[from] */\n      0x00\n        /* \"contracts/FFP.sol\":2501:2505  from */\n      dup4\n        /* \"contracts/FFP.sol\":2493:2506  wallets[from] */\n      0xffffffffffffffffffffffffffffffffffffffff\n      and\n      0xffffffffffffffffffffffffffffffffffffffff\n      and\n      dup2\n      mstore\n      0x20\n      add\n      swap1\n      dup2\n      mstore\n      0x20\n      add\n      0x00\n      keccak256\n        /* \"contracts/FFP.sol\":2493:2517  wallets[from].walletType */\n      0x00\n      add\n        /* \"contracts/FFP.sol\":2476:2518  abi.encodePacked(wallets[from].walletType) */\n      add(0x20, mload(0x40))\n      tag_95\n      swap2\n      swap1\n      tag_96\n      jump\t// in\n    tag_95:\n      mload(0x40)\n      0x20\n      dup2\n      dup4\n      sub\n      sub\n      dup2\n      mstore\n      swap1\n      0x40\n      mstore\n        /* \"contracts/FFP.sol\":2466:2519  keccak256(abi.encodePacked(wallets[from].walletType)) */\n      dup1\n      mload\n      swap1\n      0x20\n      add\n      keccak256\n        /* \"contracts/FFP.sol\":2466:2558  keccak256(abi.encodePacked(wallets[from].walletType)) == keccak256(abi.encodePacked(\"club\")) */\n      eq\n        /* \"contracts/FFP.sol\":2440:2621  require(... */\n      tag_97\n      jumpi\n      mload(0x40)\n      0x08c379a000000000000000000000000000000000000000000000000000000000\n      dup2\n      mstore\n      0x04\n      add\n      tag_98\n      swap1\n      tag_99\n      jump\t// in\n    tag_98:\n      mload(0x40)\n      dup1\n      swap2\n      sub\n      swap1\n      revert\n    tag_97:\n        /* \"contracts/FFP.sol\":2328:3579  if (keccak256(abi.encodePacked(transactionType)) == keccak256(abi.encodePacked(\"playerSalary\"))) {... */\n      jump(tag_100)\n    tag_92:\n        /* \"contracts/FFP.sol\":2701:2735  abi.encodePacked(\"playerPurchase\") */\n      add(0x20, mload(0x40))\n      tag_101\n      swap1\n      tag_102\n      jump\t// in\n    tag_101:\n      mload(0x40)\n      0x20\n      dup2\n      dup4\n      sub\n      sub\n      dup2\n      mstore\n      swap1\n      0x40\n      mstore\n        /* \"contracts/FFP.sol\":2691:2736  keccak256(abi.encodePacked(\"playerPurchase\")) */\n      dup1\n      mload\n      swap1\n      0x20\n      add\n      keccak256\n        /* \"contracts/FFP.sol\":2670:2685  transactionType */\n      dup3\n        /* \"contracts/FFP.sol\":2653:2686  abi.encodePacked(transactionType) */\n      add(0x20, mload(0x40))\n      tag_103\n      swap2\n      swap1\n      tag_91\n      jump\t// in\n    tag_103:\n      mload(0x40)\n      0x20\n      dup2\n      dup4\n      sub\n      sub\n      dup2\n      mstore\n      swap1\n      0x40\n      mstore\n        /* \"contracts/FFP.sol\":2643:2687  keccak256(abi.encodePacked(transactionType)) */\n      dup1\n      mload\n      swap1\n      0x20\n      add\n      keccak256\n        /* \"contracts/FFP.sol\":2643:2736  keccak256(abi.encodePacked(transactionType)) == keccak256(abi.encodePacked(\"playerPurchase\")) */\n      sub\n        /* \"contracts/FFP.sol\":2639:3579  if (keccak256(abi.encodePacked(transactionType)) == keccak256(abi.encodePacked(\"playerPurchase\"))) {... */\n      tag_104\n      jumpi\n        /* \"contracts/FFP.sol\":2846:2870  abi.encodePacked(\"club\") */\n      add(0x20, mload(0x40))\n      tag_105\n      swap1\n      tag_94\n      jump\t// in\n    tag_105:\n      mload(0x40)\n      0x20\n      dup2\n      dup4\n      sub\n      sub\n      dup2\n      mstore\n      swap1\n      0x40\n      mstore\n        /* \"contracts/FFP.sol\":2836:2871  keccak256(abi.encodePacked(\"club\")) */\n      dup1\n      mload\n      swap1\n      0x20\n      add\n      keccak256\n        /* \"contracts/FFP.sol\":2806:2813  wallets */\n      0x01\n        /* \"contracts/FFP.sol\":2806:2819  wallets[from] */\n      0x00\n        /* \"contracts/FFP.sol\":2814:2818  from */\n      dup4\n        /* \"contracts/FFP.sol\":2806:2819  wallets[from] */\n      0xffffffffffffffffffffffffffffffffffffffff\n      and\n      0xffffffffffffffffffffffffffffffffffffffff\n      and\n      dup2\n      mstore\n      0x20\n      add\n      swap1\n      dup2\n      mstore\n      0x20\n      add\n      0x00\n      keccak256\n        /* \"contracts/FFP.sol\":2806:2830  wallets[from].walletType */\n      0x00\n      add\n        /* \"contracts/FFP.sol\":2789:2831  abi.encodePacked(wallets[from].walletType) */\n      add(0x20, mload(0x40))\n      tag_106\n      swap2\n      swap1\n      tag_96\n      jump\t// in\n    tag_106:\n      mload(0x40)\n      0x20\n      dup2\n      dup4\n      sub\n      sub\n      dup2\n      mstore\n      swap1\n      0x40\n      mstore\n        /* \"contracts/FFP.sol\":2779:2832  keccak256(abi.encodePacked(wallets[from].walletType)) */\n      dup1\n      mload\n      swap1\n      0x20\n      add\n      keccak256\n        /* \"contracts/FFP.sol\":2779:2871  keccak256(abi.encodePacked(wallets[from].walletType)) == keccak256(abi.encodePacked(\"club\")) */\n      eq\n        /* \"contracts/FFP.sol\":2753:2938  require(... */\n      tag_107\n      jumpi\n      mload(0x40)\n      0x08c379a000000000000000000000000000000000000000000000000000000000\n      dup2\n      mstore\n      0x04\n      add\n      tag_108\n      swap1\n      tag_109\n      jump\t// in\n    tag_108:\n      mload(0x40)\n      dup1\n      swap2\n      sub\n      swap1\n      revert\n    tag_107:\n        /* \"contracts/FFP.sol\":3044:3068  abi.encodePacked(\"club\") */\n      add(0x20, mload(0x40))\n      tag_110\n      swap1\n      tag_94\n      jump\t// in\n    tag_110:\n      mload(0x40)\n      0x20\n      dup2\n      dup4\n      sub\n      sub\n      dup2\n      mstore\n      swap1\n      0x40\n      mstore\n        /* \"contracts/FFP.sol\":3034:3069  keccak256(abi.encodePacked(\"club\")) */\n      dup1\n      mload\n      swap1\n      0x20\n      add\n      keccak256\n        /* \"contracts/FFP.sol\":3006:3013  wallets */\n      0x01\n        /* \"contracts/FFP.sol\":3006:3017  wallets[to] */\n      0x00\n        /* \"contracts/FFP.sol\":3014:3016  to */\n      dup7\n        /* \"contracts/FFP.sol\":3006:3017  wallets[to] */\n      0xffffffffffffffffffffffffffffffffffffffff\n      and\n      0xffffffffffffffffffffffffffffffffffffffff\n      and\n      dup2\n      mstore\n      0x20\n      add\n      swap1\n      dup2\n      mstore\n      0x20\n      add\n      0x00\n      keccak256\n        /* \"contracts/FFP.sol\":3006:3028  wallets[to].walletType */\n      0x00\n      add\n        /* \"contracts/FFP.sol\":2989:3029  abi.encodePacked(wallets[to].walletType) */\n      add(0x20, mload(0x40))\n      tag_111\n      swap2\n      swap1\n      tag_96\n      jump\t// in\n    tag_111:\n      mload(0x40)\n      0x20\n      dup2\n      dup4\n      sub\n      sub\n      dup2\n      mstore\n      swap1\n      0x40\n      mstore\n        /* \"contracts/FFP.sol\":2979:3030  keccak256(abi.encodePacked(wallets[to].walletType)) */\n      dup1\n      mload\n      swap1\n      0x20\n      add\n      keccak256\n        /* \"contracts/FFP.sol\":2979:3069  keccak256(abi.encodePacked(wallets[to].walletType)) == keccak256(abi.encodePacked(\"club\")) */\n      eq\n        /* \"contracts/FFP.sol\":2953:3128  require(... */\n      tag_112\n      jumpi\n      mload(0x40)\n      0x08c379a000000000000000000000000000000000000000000000000000000000\n      dup2\n      mstore\n      0x04\n      add\n      tag_113\n      swap1\n      tag_114\n      jump\t// in\n    tag_113:\n      mload(0x40)\n      dup1\n      swap2\n      sub\n      swap1\n      revert\n    tag_112:\n        /* \"contracts/FFP.sol\":3188:3209  uint256 minPercentage */\n      0x00\n        /* \"contracts/FFP.sol\":3212:3214  70 */\n      0x46\n        /* \"contracts/FFP.sol\":3188:3214  uint256 minPercentage = 70 */\n      swap1\n      pop\n        /* \"contracts/FFP.sol\":3229:3253  uint256 availableRevenue */\n      0x00\n        /* \"contracts/FFP.sol\":3283:3299  spentClubRevenue */\n      0x03\n        /* \"contracts/FFP.sol\":3283:3305  spentClubRevenue[from] */\n      0x00\n        /* \"contracts/FFP.sol\":3300:3304  from */\n      dup5\n        /* \"contracts/FFP.sol\":3283:3305  spentClubRevenue[from] */\n      0xffffffffffffffffffffffffffffffffffffffff\n      and\n      0xffffffffffffffffffffffffffffffffffffffff\n      and\n      dup2\n      mstore\n      0x20\n      add\n      swap1\n      dup2\n      mstore\n      0x20\n      add\n      0x00\n      keccak256\n      sload\n        /* \"contracts/FFP.sol\":3256:3274  currentclubRevenue */\n      0x02\n        /* \"contracts/FFP.sol\":3256:3280  currentclubRevenue[from] */\n      0x00\n        /* \"contracts/FFP.sol\":3275:3279  from */\n      dup6\n        /* \"contracts/FFP.sol\":3256:3280  currentclubRevenue[from] */\n      0xffffffffffffffffffffffffffffffffffffffff\n      and\n      0xffffffffffffffffffffffffffffffffffffffff\n      and\n      dup2\n      mstore\n      0x20\n      add\n      swap1\n      dup2\n      mstore\n      0x20\n      add\n      0x00\n      keccak256\n      sload\n        /* \"contracts/FFP.sol\":3256:3305  currentclubRevenue[from] - spentClubRevenue[from] */\n      tag_115\n      swap2\n      swap1\n      tag_71\n      jump\t// in\n    tag_115:\n        /* \"contracts/FFP.sol\":3229:3305  uint256 availableRevenue = currentclubRevenue[from] - spentClubRevenue[from] */\n      swap1\n      pop\n        /* \"contracts/FFP.sol\":3372:3378  amount */\n      dup5\n        /* \"contracts/FFP.sol\":3365:3368  100 */\n      0x64\n        /* \"contracts/FFP.sol\":3348:3361  minPercentage */\n      dup4\n        /* \"contracts/FFP.sol\":3329:3345  availableRevenue */\n      dup4\n        /* \"contracts/FFP.sol\":3329:3361  availableRevenue * minPercentage */\n      tag_116\n      swap2\n      swap1\n      tag_117\n      jump\t// in\n    tag_116:\n        /* \"contracts/FFP.sol\":3328:3368  (availableRevenue * minPercentage) / 100 */\n      tag_118\n      swap2\n      swap1\n      tag_119\n      jump\t// in\n    tag_118:\n        /* \"contracts/FFP.sol\":3328:3378  (availableRevenue * minPercentage) / 100 >= amount */\n      lt\n      iszero\n        /* \"contracts/FFP.sol\":3320:3433  require((availableRevenue * minPercentage) / 100 >= amount, \"Club's revenue must be at least 70% of Amount sent\") */\n      tag_120\n      jumpi\n      mload(0x40)\n      0x08c379a000000000000000000000000000000000000000000000000000000000\n      dup2\n      mstore\n      0x04\n      add\n      tag_121\n      swap1\n      tag_122\n      jump\t// in\n    tag_121:\n      mload(0x40)\n      dup1\n      swap2\n      sub\n      swap1\n      revert\n    tag_120:\n        /* \"contracts/FFP.sol\":3514:3520  amount */\n      dup5\n        /* \"contracts/FFP.sol\":3488:3504  spentClubRevenue */\n      0x03\n        /* \"contracts/FFP.sol\":3488:3510  spentClubRevenue[from] */\n      0x00\n        /* \"contracts/FFP.sol\":3505:3509  from */\n      dup6\n        /* \"contracts/FFP.sol\":3488:3510  spentClubRevenue[from] */\n      0xffffffffffffffffffffffffffffffffffffffff\n      and\n      0xffffffffffffffffffffffffffffffffffffffff\n      and\n      dup2\n      mstore\n      0x20\n      add\n      swap1\n      dup2\n      mstore\n      0x20\n      add\n      0x00\n      keccak256\n      0x00\n        /* \"contracts/FFP.sol\":3488:3520  spentClubRevenue[from] += amount */\n      dup3\n      dup3\n      sload\n      tag_123\n      swap2\n      swap1\n      tag_124\n      jump\t// in\n    tag_123:\n      swap3\n      pop\n      pop\n      dup2\n      swap1\n      sstore\n      pop\n        /* \"contracts/FFP.sol\":3561:3567  amount */\n      dup5\n        /* \"contracts/FFP.sol\":3535:3553  currentclubRevenue */\n      0x02\n        /* \"contracts/FFP.sol\":3535:3557  currentclubRevenue[to] */\n      0x00\n        /* \"contracts/FFP.sol\":3554:3556  to */\n      dup9\n        /* \"contracts/FFP.sol\":3535:3557  currentclubRevenue[to] */\n      0xffffffffffffffffffffffffffffffffffffffff\n      and\n      0xffffffffffffffffffffffffffffffffffffffff\n      and\n      dup2\n      mstore\n      0x20\n      add\n      swap1\n      dup2\n      mstore\n      0x20\n      add\n      0x00\n      keccak256\n      0x00\n        /* \"contracts/FFP.sol\":3535:3567  currentclubRevenue[to] += amount */\n      dup3\n      dup3\n      sload\n      tag_125\n      swap2\n      swap1\n      tag_124\n      jump\t// in\n    tag_125:\n      swap3\n      pop\n      pop\n      dup2\n      swap1\n      sstore\n      pop\n        /* \"contracts/FFP.sol\":2738:3579  {... */\n      pop\n      pop\n        /* \"contracts/FFP.sol\":2639:3579  if (keccak256(abi.encodePacked(transactionType)) == keccak256(abi.encodePacked(\"playerPurchase\"))) {... */\n    tag_104:\n        /* \"contracts/FFP.sol\":2328:3579  if (keccak256(abi.encodePacked(transactionType)) == keccak256(abi.encodePacked(\"playerSalary\"))) {... */\n    tag_100:\n        /* \"contracts/FFP.sol\":3660:3666  amount */\n      dup3\n        /* \"contracts/FFP.sol\":3635:3642  wallets */\n      0x01\n        /* \"contracts/FFP.sol\":3635:3648  wallets[from] */\n      0x00\n        /* \"contracts/FFP.sol\":3643:3647  from */\n      dup4\n        /* \"contracts/FFP.sol\":3635:3648  wallets[from] */\n      0xffffffffffffffffffffffffffffffffffffffff\n      and\n      0xffffffffffffffffffffffffffffffffffffffff\n      and\n      dup2\n      mstore\n      0x20\n      add\n      swap1\n      dup2\n      mstore\n      0x20\n      add\n      0x00\n      keccak256\n        /* \"contracts/FFP.sol\":3635:3656  wallets[from].balance */\n      0x01\n      add\n      0x00\n        /* \"contracts/FFP.sol\":3635:3666  wallets[from].balance -= amount */\n      dup3\n      dup3\n      sload\n      tag_126\n      swap2\n      swap1\n      tag_71\n      jump\t// in\n    tag_126:\n      swap3\n      pop\n      pop\n      dup2\n      swap1\n      sstore\n      pop\n        /* \"contracts/FFP.sol\":3700:3706  amount */\n      dup3\n        /* \"contracts/FFP.sol\":3677:3684  wallets */\n      0x01\n        /* \"contracts/FFP.sol\":3677:3688  wallets[to] */\n      0x00\n        /* \"contracts/FFP.sol\":3685:3687  to */\n      dup7\n        /* \"contracts/FFP.sol\":3677:3688  wallets[to] */\n      0xffffffffffffffffffffffffffffffffffffffff\n      and\n      0xffffffffffffffffffffffffffffffffffffffff\n      and\n      dup2\n      mstore\n      0x20\n      add\n      swap1\n      dup2\n      mstore\n      0x20\n      add\n      0x00\n      keccak256\n        /* \"contracts/FFP.sol\":3677:3696  wallets[to].balance */\n      0x01\n      add\n      0x00\n        /* \"contracts/FFP.sol\":3677:3706  wallets[to].balance += amount */\n      dup3\n      dup3\n      sload\n      tag_127\n      swap2\n      swap1\n      tag_124\n      jump\t// in\n    tag_127:\n      swap3\n      pop\n      pop\n      dup2\n      swap1\n      sstore\n      pop\n        /* \"contracts/FFP.sol\":3747:3749  to */\n      dup4\n        /* \"contracts/FFP.sol\":3724:3775  TransferExecuted(from, to, amount, transactionType) */\n      0xffffffffffffffffffffffffffffffffffffffff\n      and\n        /* \"contracts/FFP.sol\":3741:3745  from */\n      dup2\n        /* \"contracts/FFP.sol\":3724:3775  TransferExecuted(from, to, amount, transactionType) */\n      0xffffffffffffffffffffffffffffffffffffffff\n      and\n      0x20404a7fcef99c1ce456f7054c0f458a8645a82241eb36feab02658a4a8f359b\n        /* \"contracts/FFP.sol\":3751:3757  amount */\n      dup6\n        /* \"contracts/FFP.sol\":3759:3774  transactionType */\n      dup6\n        /* \"contracts/FFP.sol\":3724:3775  TransferExecuted(from, to, amount, transactionType) */\n      mload(0x40)\n      tag_128\n      swap3\n      swap2\n      swap1\n      tag_129\n      jump\t// in\n    tag_128:\n      mload(0x40)\n      dup1\n      swap2\n      sub\n      swap1\n      log3\n        /* \"contracts/FFP.sol\":2014:3783  {... */\n      pop\n        /* \"contracts/FFP.sol\":1928:3783  function transfer(address to, uint256 amount, string memory transactionType) external {... */\n      pop\n      pop\n      pop\n      jump\t// out\n        /* \"@openzeppelin/contracts/access/Ownable.sol\":2293:2394  function renounceOwnership() public virtual onlyOwner {... */\n    tag_37:\n        /* \"@openzeppelin/contracts/access/Ownable.sol\":1531:1544  _checkOwner() */\n      tag_131\n        /* \"@openzeppelin/contracts/access/Ownable.sol\":1531:1542  _checkOwner */\n      tag_132\n        /* \"@openzeppelin/contracts/access/Ownable.sol\":1531:1544  _checkOwner() */\n      jump\t// in\n    tag_131:\n        /* \"@openzeppelin/contracts/access/Ownable.sol\":2357:2387  _transferOwnership(address(0)) */\n      tag_134\n        /* \"@openzeppelin/contracts/access/Ownable.sol\":2384:2385  0 */\n      0x00\n        /* \"@openzeppelin/contracts/access/Ownable.sol\":2357:2375  _transferOwnership */\n      tag_135\n        /* \"@openzeppelin/contracts/access/Ownable.sol\":2357:2387  _transferOwnership(address(0)) */\n      jump\t// in\n    tag_134:\n        /* \"@openzeppelin/contracts/access/Ownable.sol\":2293:2394  function renounceOwnership() public virtual onlyOwner {... */\n      jump\t// out\n        /* \"contracts/FFP.sol\":333:374  mapping(address => Wallet) public wallets */\n    tag_41:\n      mstore(0x20, 0x01)\n      dup1\n      0x00\n      mstore\n      keccak256(0x00, 0x40)\n      0x00\n      swap2\n      pop\n      swap1\n      pop\n      dup1\n      0x00\n      add\n      dup1\n      sload\n      tag_136\n      swap1\n      tag_78\n      jump\t// in\n    tag_136:\n      dup1\n      0x1f\n      add\n      0x20\n      dup1\n      swap2\n      div\n      mul\n      0x20\n      add\n      mload(0x40)\n      swap1\n      dup2\n      add\n      0x40\n      mstore\n      dup1\n      swap3\n      swap2\n      swap1\n      dup2\n      dup2\n      mstore\n      0x20\n      add\n      dup3\n      dup1\n      sload\n      tag_137\n      swap1\n      tag_78\n      jump\t// in\n    tag_137:\n      dup1\n      iszero\n      tag_138\n      jumpi\n      dup1\n      0x1f\n      lt\n      tag_139\n      jumpi\n      0x0100\n      dup1\n      dup4\n      sload\n      div\n      mul\n      dup4\n      mstore\n      swap2\n      0x20\n      add\n      swap2\n      jump(tag_138)\n    tag_139:\n      dup3\n      add\n      swap2\n      swap1\n      0x00\n      mstore\n      keccak256(0x00, 0x20)\n      swap1\n    tag_140:\n      dup2\n      sload\n      dup2\n      mstore\n      swap1\n      0x01\n      add\n      swap1\n      0x20\n      add\n      dup1\n      dup4\n      gt\n      tag_140\n      jumpi\n      dup3\n      swap1\n      sub\n      0x1f\n      and\n      dup3\n      add\n      swap2\n    tag_138:\n      pop\n      pop\n      pop\n      pop\n      pop\n      swap1\n      dup1\n      0x01\n      add\n      sload\n      swap1\n      pop\n      dup3\n      jump\t// out\n        /* \"@openzeppelin/contracts/access/Ownable.sol\":1638:1723  function owner() public view virtual returns (address) {... */\n    tag_46:\n        /* \"@openzeppelin/contracts/access/Ownable.sol\":1684:1691  address */\n      0x00\n        /* \"@openzeppelin/contracts/access/Ownable.sol\":1710:1716  _owner */\n      dup1\n      0x00\n      swap1\n      sload\n      swap1\n      0x0100\n      exp\n      swap1\n      div\n      0xffffffffffffffffffffffffffffffffffffffff\n      and\n        /* \"@openzeppelin/contracts/access/Ownable.sol\":1703:1716  return _owner */\n      swap1\n      pop\n        /* \"@openzeppelin/contracts/access/Ownable.sol\":1638:1723  function owner() public view virtual returns (address) {... */\n      swap1\n      jump\t// out\n        /* \"contracts/FFP.sol\":792:1306  function registerWallet(address wallet, string memory walletType) external onlyOwner {... */\n    tag_53:\n        /* \"@openzeppelin/contracts/access/Ownable.sol\":1531:1544  _checkOwner() */\n      tag_143\n        /* \"@openzeppelin/contracts/access/Ownable.sol\":1531:1542  _checkOwner */\n      tag_132\n        /* \"@openzeppelin/contracts/access/Ownable.sol\":1531:1544  _checkOwner() */\n      jump\t// in\n    tag_143:\n        /* \"contracts/FFP.sol\":940:941  0 */\n      0x00\n        /* \"contracts/FFP.sol\":902:909  wallets */\n      0x01\n        /* \"contracts/FFP.sol\":902:917  wallets[wallet] */\n      0x00\n        /* \"contracts/FFP.sol\":910:916  wallet */\n      dup5\n        /* \"contracts/FFP.sol\":902:917  wallets[wallet] */\n      0xffffffffffffffffffffffffffffffffffffffff\n      and\n      0xffffffffffffffffffffffffffffffffffffffff\n      and\n      dup2\n      mstore\n      0x20\n      add\n      swap1\n      dup2\n      mstore\n      0x20\n      add\n      0x00\n      keccak256\n        /* \"contracts/FFP.sol\":902:928  wallets[wallet].walletType */\n      0x00\n      add\n        /* \"contracts/FFP.sol\":896:936  bytes(wallets[wallet].walletType).length */\n      dup1\n      sload\n      tag_145\n      swap1\n      tag_78\n      jump\t// in\n    tag_145:\n      swap1\n      pop\n        /* \"contracts/FFP.sol\":896:941  bytes(wallets[wallet].walletType).length == 0 */\n      eq\n        /* \"contracts/FFP.sol\":888:971  require(bytes(wallets[wallet].walletType).length == 0, \"Wallet already registered\") */\n      tag_146\n      jumpi\n      mload(0x40)\n      0x08c379a000000000000000000000000000000000000000000000000000000000\n      dup2\n      mstore\n      0x04\n      add\n      tag_147\n      swap1\n      tag_148\n      jump\t// in\n    tag_147:\n      mload(0x40)\n      dup1\n      swap2\n      sub\n      swap1\n      revert\n    tag_146:\n        /* \"contracts/FFP.sol\":1000:1021  Wallet(walletType, 0) */\n      mload(0x40)\n      dup1\n      0x40\n      add\n      0x40\n      mstore\n      dup1\n        /* \"contracts/FFP.sol\":1007:1017  walletType */\n      dup3\n        /* \"contracts/FFP.sol\":1000:1021  Wallet(walletType, 0) */\n      dup2\n      mstore\n      0x20\n      add\n        /* \"contracts/FFP.sol\":1019:1020  0 */\n      0x00\n        /* \"contracts/FFP.sol\":1000:1021  Wallet(walletType, 0) */\n      dup2\n      mstore\n      pop\n        /* \"contracts/FFP.sol\":982:989  wallets */\n      0x01\n        /* \"contracts/FFP.sol\":982:997  wallets[wallet] */\n      0x00\n        /* \"contracts/FFP.sol\":990:996  wallet */\n      dup5\n        /* \"contracts/FFP.sol\":982:997  wallets[wallet] */\n      0xffffffffffffffffffffffffffffffffffffffff\n      and\n      0xffffffffffffffffffffffffffffffffffffffff\n      and\n      dup2\n      mstore\n      0x20\n      add\n      swap1\n      dup2\n      mstore\n      0x20\n      add\n      0x00\n      keccak256\n        /* \"contracts/FFP.sol\":982:1021  wallets[wallet] = Wallet(walletType, 0) */\n      0x00\n      dup3\n      add\n      mload\n      dup2\n      0x00\n      add\n      swap1\n      dup2\n      tag_149\n      swap2\n      swap1\n      tag_150\n      jump\t// in\n    tag_149:\n      pop\n      0x20\n      dup3\n      add\n      mload\n      dup2\n      0x01\n      add\n      sstore\n      swap1\n      pop\n      pop\n        /* \"contracts/FFP.sol\":1120:1144  abi.encodePacked(\"club\") */\n      add(0x20, mload(0x40))\n      tag_151\n      swap1\n      tag_94\n      jump\t// in\n    tag_151:\n      mload(0x40)\n      0x20\n      dup2\n      dup4\n      sub\n      sub\n      dup2\n      mstore\n      swap1\n      0x40\n      mstore\n        /* \"contracts/FFP.sol\":1110:1145  keccak256(abi.encodePacked(\"club\")) */\n      dup1\n      mload\n      swap1\n      0x20\n      add\n      keccak256\n        /* \"contracts/FFP.sol\":1094:1104  walletType */\n      dup2\n        /* \"contracts/FFP.sol\":1077:1105  abi.encodePacked(walletType) */\n      add(0x20, mload(0x40))\n      tag_152\n      swap2\n      swap1\n      tag_91\n      jump\t// in\n    tag_152:\n      mload(0x40)\n      0x20\n      dup2\n      dup4\n      sub\n      sub\n      dup2\n      mstore\n      swap1\n      0x40\n      mstore\n        /* \"contracts/FFP.sol\":1067:1106  keccak256(abi.encodePacked(walletType)) */\n      dup1\n      mload\n      swap1\n      0x20\n      add\n      keccak256\n        /* \"contracts/FFP.sol\":1067:1145  keccak256(abi.encodePacked(walletType)) == keccak256(abi.encodePacked(\"club\")) */\n      sub\n        /* \"contracts/FFP.sol\":1063:1247  if (keccak256(abi.encodePacked(walletType)) == keccak256(abi.encodePacked(\"club\"))) {... */\n      tag_153\n      jumpi\n        /* \"contracts/FFP.sol\":1191:1192  0 */\n      0x00\n        /* \"contracts/FFP.sol\":1162:1180  currentclubRevenue */\n      0x02\n        /* \"contracts/FFP.sol\":1162:1188  currentclubRevenue[wallet] */\n      0x00\n        /* \"contracts/FFP.sol\":1181:1187  wallet */\n      dup5\n        /* \"contracts/FFP.sol\":1162:1188  currentclubRevenue[wallet] */\n      0xffffffffffffffffffffffffffffffffffffffff\n      and\n      0xffffffffffffffffffffffffffffffffffffffff\n      and\n      dup2\n      mstore\n      0x20\n      add\n      swap1\n      dup2\n      mstore\n      0x20\n      add\n      0x00\n      keccak256\n        /* \"contracts/FFP.sol\":1162:1192  currentclubRevenue[wallet] = 0 */\n      dup2\n      swap1\n      sstore\n      pop\n        /* \"contracts/FFP.sol\":1234:1235  0 */\n      0x00\n        /* \"contracts/FFP.sol\":1207:1223  spentClubRevenue */\n      0x03\n        /* \"contracts/FFP.sol\":1207:1231  spentClubRevenue[wallet] */\n      0x00\n        /* \"contracts/FFP.sol\":1224:1230  wallet */\n      dup5\n        /* \"contracts/FFP.sol\":1207:1231  spentClubRevenue[wallet] */\n      0xffffffffffffffffffffffffffffffffffffffff\n      and\n      0xffffffffffffffffffffffffffffffffffffffff\n      and\n      dup2\n      mstore\n      0x20\n      add\n      swap1\n      dup2\n      mstore\n      0x20\n      add\n      0x00\n      keccak256\n        /* \"contracts/FFP.sol\":1207:1235  spentClubRevenue[wallet] = 0 */\n      dup2\n      swap1\n      sstore\n      pop\n        /* \"contracts/FFP.sol\":1063:1247  if (keccak256(abi.encodePacked(walletType)) == keccak256(abi.encodePacked(\"club\"))) {... */\n    tag_153:\n        /* \"contracts/FFP.sol\":1279:1285  wallet */\n      dup2\n        /* \"contracts/FFP.sol\":1262:1298  WalletRegistered(wallet, walletType) */\n      0xffffffffffffffffffffffffffffffffffffffff\n      and\n      0xfd8c98a09da86eba82da3f4067f073c6ef0f7138bc302e189386df00b87b836c\n        /* \"contracts/FFP.sol\":1287:1297  walletType */\n      dup3\n        /* \"contracts/FFP.sol\":1262:1298  WalletRegistered(wallet, walletType) */\n      mload(0x40)\n      tag_154\n      swap2\n      swap1\n      tag_155\n      jump\t// in\n    tag_154:\n      mload(0x40)\n      dup1\n      swap2\n      sub\n      swap1\n      log2\n        /* \"contracts/FFP.sol\":792:1306  function registerWallet(address wallet, string memory walletType) external onlyOwner {... */\n      pop\n      pop\n      jump\t// out\n        /* \"contracts/FFP.sol\":1314:1556  function deposit() external payable {... */\n    tag_55:\n        /* \"contracts/FFP.sol\":1416:1417  0 */\n      0x00\n        /* \"contracts/FFP.sol\":1375:1382  wallets */\n      0x01\n        /* \"contracts/FFP.sol\":1375:1394  wallets[msg.sender] */\n      0x00\n        /* \"contracts/FFP.sol\":1383:1393  msg.sender */\n      caller\n        /* \"contracts/FFP.sol\":1375:1394  wallets[msg.sender] */\n      0xffffffffffffffffffffffffffffffffffffffff\n      and\n      0xffffffffffffffffffffffffffffffffffffffff\n      and\n      dup2\n      mstore\n      0x20\n      add\n      swap1\n      dup2\n      mstore\n      0x20\n      add\n      0x00\n      keccak256\n        /* \"contracts/FFP.sol\":1375:1405  wallets[msg.sender].walletType */\n      0x00\n      add\n        /* \"contracts/FFP.sol\":1369:1413  bytes(wallets[msg.sender].walletType).length */\n      dup1\n      sload\n      tag_157\n      swap1\n      tag_78\n      jump\t// in\n    tag_157:\n      swap1\n      pop\n        /* \"contracts/FFP.sol\":1369:1417  bytes(wallets[msg.sender].walletType).length > 0 */\n      gt\n        /* \"contracts/FFP.sol\":1361:1443  require(bytes(wallets[msg.sender].walletType).length > 0, \"Wallet not registered\") */\n      tag_158\n      jumpi\n      mload(0x40)\n      0x08c379a000000000000000000000000000000000000000000000000000000000\n      dup2\n      mstore\n      0x04\n      add\n      tag_159\n      swap1\n      tag_160\n      jump\t// in\n    tag_159:\n      mload(0x40)\n      dup1\n      swap2\n      sub\n      swap1\n      revert\n    tag_158:\n        /* \"contracts/FFP.sol\":1488:1497  msg.value */\n      callvalue\n        /* \"contracts/FFP.sol\":1454:1472  currentclubRevenue */\n      0x02\n        /* \"contracts/FFP.sol\":1454:1484  currentclubRevenue[msg.sender] */\n      0x00\n        /* \"contracts/FFP.sol\":1473:1483  msg.sender */\n      caller\n        /* \"contracts/FFP.sol\":1454:1484  currentclubRevenue[msg.sender] */\n      0xffffffffffffffffffffffffffffffffffffffff\n      and\n      0xffffffffffffffffffffffffffffffffffffffff\n      and\n      dup2\n      mstore\n      0x20\n      add\n      swap1\n      dup2\n      mstore\n      0x20\n      add\n      0x00\n      keccak256\n      0x00\n        /* \"contracts/FFP.sol\":1454:1497  currentclubRevenue[msg.sender] += msg.value */\n      dup3\n      dup3\n      sload\n      tag_161\n      swap2\n      swap1\n      tag_124\n      jump\t// in\n    tag_161:\n      swap3\n      pop\n      pop\n      dup2\n      swap1\n      sstore\n      pop\n        /* \"contracts/FFP.sol\":1539:1548  msg.value */\n      callvalue\n        /* \"contracts/FFP.sol\":1508:1515  wallets */\n      0x01\n        /* \"contracts/FFP.sol\":1508:1527  wallets[msg.sender] */\n      0x00\n        /* \"contracts/FFP.sol\":1516:1526  msg.sender */\n      caller\n        /* \"contracts/FFP.sol\":1508:1527  wallets[msg.sender] */\n      0xffffffffffffffffffffffffffffffffffffffff\n      and\n      0xffffffffffffffffffffffffffffffffffffffff\n      and\n      dup2\n      mstore\n      0x20\n      add\n      swap1\n      dup2\n      mstore\n      0x20\n      add\n      0x00\n      keccak256\n        /* \"contracts/FFP.sol\":1508:1535  wallets[msg.sender].balance */\n      0x01\n      add\n      0x00\n        /* \"contracts/FFP.sol\":1508:1548  wallets[msg.sender].balance += msg.value */\n      dup3\n      dup3\n      sload\n      tag_162\n      swap2\n      swap1\n      tag_124\n      jump\t// in\n    tag_162:\n      swap3\n      pop\n      pop\n      dup2\n      swap1\n      sstore\n      pop\n        /* \"contracts/FFP.sol\":1314:1556  function deposit() external payable {... */\n      jump\t// out\n        /* \"contracts/FFP.sol\":381:434  mapping(address => uint256) public currentclubRevenue */\n    tag_59:\n      mstore(0x20, 0x02)\n      dup1\n      0x00\n      mstore\n      keccak256(0x00, 0x40)\n      0x00\n      swap2\n      pop\n      swap1\n      pop\n      sload\n      dup2\n      jump\t// out\n        /* \"@openzeppelin/contracts/access/Ownable.sol\":2543:2758  function transferOwnership(address newOwner) public virtual onlyOwner {... */\n    tag_64:\n        /* \"@openzeppelin/contracts/access/Ownable.sol\":1531:1544  _checkOwner() */\n      tag_164\n        /* \"@openzeppelin/contracts/access/Ownable.sol\":1531:1542  _checkOwner */\n      tag_132\n        /* \"@openzeppelin/contracts/access/Ownable.sol\":1531:1544  _checkOwner() */\n      jump\t// in\n    tag_164:\n        /* \"@openzeppelin/contracts/access/Ownable.sol\":2647:2648  0 */\n      0x00\n        /* \"@openzeppelin/contracts/access/Ownable.sol\":2627:2649  newOwner == address(0) */\n      0xffffffffffffffffffffffffffffffffffffffff\n      and\n        /* \"@openzeppelin/contracts/access/Ownable.sol\":2627:2635  newOwner */\n      dup2\n        /* \"@openzeppelin/contracts/access/Ownable.sol\":2627:2649  newOwner == address(0) */\n      0xffffffffffffffffffffffffffffffffffffffff\n      and\n      sub\n        /* \"@openzeppelin/contracts/access/Ownable.sol\":2623:2714  if (newOwner == address(0)) {... */\n      tag_166\n      jumpi\n        /* \"@openzeppelin/contracts/access/Ownable.sol\":2700:2701  0 */\n      0x00\n        /* \"@openzeppelin/contracts/access/Ownable.sol\":2672:2703  OwnableInvalidOwner(address(0)) */\n      mload(0x40)\n      0x1e4fbdf700000000000000000000000000000000000000000000000000000000\n      dup2\n      mstore\n      0x04\n      add\n      tag_167\n      swap2\n      swap1\n      tag_48\n      jump\t// in\n    tag_167:\n      mload(0x40)\n      dup1\n      swap2\n      sub\n      swap1\n      revert\n        /* \"@openzeppelin/contracts/access/Ownable.sol\":2623:2714  if (newOwner == address(0)) {... */\n    tag_166:\n        /* \"@openzeppelin/contracts/access/Ownable.sol\":2723:2751  _transferOwnership(newOwner) */\n      tag_168\n        /* \"@openzeppelin/contracts/access/Ownable.sol\":2742:2750  newOwner */\n      dup2\n        /* \"@openzeppelin/contracts/access/Ownable.sol\":2723:2741  _transferOwnership */\n      tag_135\n        /* \"@openzeppelin/contracts/access/Ownable.sol\":2723:2751  _transferOwnership(newOwner) */\n      jump\t// in\n    tag_168:\n        /* \"@openzeppelin/contracts/access/Ownable.sol\":2543:2758  function transferOwnership(address newOwner) public virtual onlyOwner {... */\n      pop\n      jump\t// out\n        /* \"@openzeppelin/contracts/access/Ownable.sol\":1796:1958  function _checkOwner() internal view virtual {... */\n    tag_132:\n        /* \"@openzeppelin/contracts/access/Ownable.sol\":1866:1878  _msgSender() */\n      tag_170\n        /* \"@openzeppelin/contracts/access/Ownable.sol\":1866:1876  _msgSender */\n      tag_171\n        /* \"@openzeppelin/contracts/access/Ownable.sol\":1866:1878  _msgSender() */\n      jump\t// in\n    tag_170:\n        /* \"@openzeppelin/contracts/access/Ownable.sol\":1855:1878  owner() != _msgSender() */\n      0xffffffffffffffffffffffffffffffffffffffff\n      and\n        /* \"@openzeppelin/contracts/access/Ownable.sol\":1855:1862  owner() */\n      tag_172\n        /* \"@openzeppelin/contracts/access/Ownable.sol\":1855:1860  owner */\n      tag_46\n        /* \"@openzeppelin/contracts/access/Ownable.sol\":1855:1862  owner() */\n      jump\t// in\n    tag_172:\n        /* \"@openzeppelin/contracts/access/Ownable.sol\":1855:1878  owner() != _msgSender() */\n      0xffffffffffffffffffffffffffffffffffffffff\n      and\n      eq\n        /* \"@openzeppelin/contracts/access/Ownable.sol\":1851:1952  if (owner() != _msgSender()) {... */\n      tag_173\n      jumpi\n        /* \"@openzeppelin/contracts/access/Ownable.sol\":1928:1940  _msgSender() */\n      tag_174\n        /* \"@openzeppelin/contracts/access/Ownable.sol\":1928:1938  _msgSender */\n      tag_171\n        /* \"@openzeppelin/contracts/access/Ownable.sol\":1928:1940  _msgSender() */\n      jump\t// in\n    tag_174:\n        /* \"@openzeppelin/contracts/access/Ownable.sol\":1901:1941  OwnableUnauthorizedAccount(_msgSender()) */\n      mload(0x40)\n      0x118cdaa700000000000000000000000000000000000000000000000000000000\n      dup2\n      mstore\n      0x04\n      add\n      tag_175\n      swap2\n      swap1\n      tag_48\n      jump\t// in\n    tag_175:\n      mload(0x40)\n      dup1\n      swap2\n      sub\n      swap1\n      revert\n        /* \"@openzeppelin/contracts/access/Ownable.sol\":1851:1952  if (owner() != _msgSender()) {... */\n    tag_173:\n        /* \"@openzeppelin/contracts/access/Ownable.sol\":1796:1958  function _checkOwner() internal view virtual {... */\n      jump\t// out\n        /* \"@openzeppelin/contracts/access/Ownable.sol\":2912:3099  function _transferOwnership(address newOwner) internal virtual {... */\n    tag_135:\n        /* \"@openzeppelin/contracts/access/Ownable.sol\":2985:3001  address oldOwner */\n      0x00\n        /* \"@openzeppelin/contracts/access/Ownable.sol\":3004:3010  _owner */\n      dup1\n      0x00\n      swap1\n      sload\n      swap1\n      0x0100\n      exp\n      swap1\n      div\n      0xffffffffffffffffffffffffffffffffffffffff\n      and\n        /* \"@openzeppelin/contracts/access/Ownable.sol\":2985:3010  address oldOwner = _owner */\n      swap1\n      pop\n        /* \"@openzeppelin/contracts/access/Ownable.sol\":3029:3037  newOwner */\n      dup2\n        /* \"@openzeppelin/contracts/access/Ownable.sol\":3020:3026  _owner */\n      0x00\n      dup1\n        /* \"@openzeppelin/contracts/access/Ownable.sol\":3020:3037  _owner = newOwner */\n      0x0100\n      exp\n      dup2\n      sload\n      dup2\n      0xffffffffffffffffffffffffffffffffffffffff\n      mul\n      not\n      and\n      swap1\n      dup4\n      0xffffffffffffffffffffffffffffffffffffffff\n      and\n      mul\n      or\n      swap1\n      sstore\n      pop\n        /* \"@openzeppelin/contracts/access/Ownable.sol\":3083:3091  newOwner */\n      dup2\n        /* \"@openzeppelin/contracts/access/Ownable.sol\":3052:3092  OwnershipTransferred(oldOwner, newOwner) */\n      0xffffffffffffffffffffffffffffffffffffffff\n      and\n        /* \"@openzeppelin/contracts/access/Ownable.sol\":3073:3081  oldOwner */\n      dup2\n        /* \"@openzeppelin/contracts/access/Ownable.sol\":3052:3092  OwnershipTransferred(oldOwner, newOwner) */\n      0xffffffffffffffffffffffffffffffffffffffff\n      and\n      0x8be0079c531659141344cd1fd0a4f28419497f9722a3daafe3b4186f6b6457e0\n      mload(0x40)\n      mload(0x40)\n      dup1\n      swap2\n      sub\n      swap1\n      log3\n        /* \"@openzeppelin/contracts/access/Ownable.sol\":2975:3099  {... */\n      pop\n        /* \"@openzeppelin/contracts/access/Ownable.sol\":2912:3099  function _transferOwnership(address newOwner) internal virtual {... */\n      pop\n      jump\t// out\n        /* \"@openzeppelin/contracts/utils/Context.sol\":656:752  function _msgSender() internal view virtual returns (address) {... */\n    tag_171:\n        /* \"@openzeppelin/contracts/utils/Context.sol\":709:716  address */\n      0x00\n        /* \"@openzeppelin/contracts/utils/Context.sol\":735:745  msg.sender */\n      caller\n        /* \"@openzeppelin/contracts/utils/Context.sol\":728:745  return msg.sender */\n      swap1\n      pop\n        /* \"@openzeppelin/contracts/utils/Context.sol\":656:752  function _msgSender() internal view virtual returns (address) {... */\n      swap1\n      jump\t// out\n        /* \"#utility.yul\":7:84   */\n    tag_178:\n        /* \"#utility.yul\":44:51   */\n      0x00\n        /* \"#utility.yul\":73:78   */\n      dup2\n        /* \"#utility.yul\":62:78   */\n      swap1\n      pop\n        /* \"#utility.yul\":7:84   */\n      swap2\n      swap1\n      pop\n      jump\t// out\n        /* \"#utility.yul\":90:208   */\n    tag_179:\n        /* \"#utility.yul\":177:201   */\n      tag_252\n        /* \"#utility.yul\":195:200   */\n      dup2\n        /* \"#utility.yul\":177:201   */\n      tag_178\n      jump\t// in\n    tag_252:\n        /* \"#utility.yul\":172:175   */\n      dup3\n        /* \"#utility.yul\":165:202   */\n      mstore\n        /* \"#utility.yul\":90:208   */\n      pop\n      pop\n      jump\t// out\n        /* \"#utility.yul\":214:436   */\n    tag_18:\n        /* \"#utility.yul\":307:311   */\n      0x00\n        /* \"#utility.yul\":345:347   */\n      0x20\n        /* \"#utility.yul\":334:343   */\n      dup3\n        /* \"#utility.yul\":330:348   */\n      add\n        /* \"#utility.yul\":322:348   */\n      swap1\n      pop\n        /* \"#utility.yul\":358:429   */\n      tag_254\n        /* \"#utility.yul\":426:427   */\n      0x00\n        /* \"#utility.yul\":415:424   */\n      dup4\n        /* \"#utility.yul\":411:428   */\n      add\n        /* \"#utility.yul\":402:408   */\n      dup5\n        /* \"#utility.yul\":358:429   */\n      tag_179\n      jump\t// in\n    tag_254:\n        /* \"#utility.yul\":214:436   */\n      swap3\n      swap2\n      pop\n      pop\n      jump\t// out\n        /* \"#utility.yul\":442:517   */\n    tag_180:\n        /* \"#utility.yul\":475:481   */\n      0x00\n        /* \"#utility.yul\":508:510   */\n      0x40\n        /* \"#utility.yul\":502:511   */\n      mload\n        /* \"#utility.yul\":492:511   */\n      swap1\n      pop\n        /* \"#utility.yul\":442:517   */\n      swap1\n      jump\t// out\n        /* \"#utility.yul\":523:640   */\n    tag_181:\n        /* \"#utility.yul\":632:633   */\n      0x00\n        /* \"#utility.yul\":629:630   */\n      dup1\n        /* \"#utility.yul\":622:634   */\n      revert\n        /* \"#utility.yul\":646:763   */\n    tag_182:\n        /* \"#utility.yul\":755:756   */\n      0x00\n        /* \"#utility.yul\":752:753   */\n      dup1\n        /* \"#utility.yul\":745:757   */\n      revert\n        /* \"#utility.yul\":769:891   */\n    tag_183:\n        /* \"#utility.yul\":842:866   */\n      tag_259\n        /* \"#utility.yul\":860:865   */\n      dup2\n        /* \"#utility.yul\":842:866   */\n      tag_178\n      jump\t// in\n    tag_259:\n        /* \"#utility.yul\":835:840   */\n      dup2\n        /* \"#utility.yul\":832:867   */\n      eq\n        /* \"#utility.yul\":822:885   */\n      tag_260\n      jumpi\n        /* \"#utility.yul\":881:882   */\n      0x00\n        /* \"#utility.yul\":878:879   */\n      dup1\n        /* \"#utility.yul\":871:883   */\n      revert\n        /* \"#utility.yul\":822:885   */\n    tag_260:\n        /* \"#utility.yul\":769:891   */\n      pop\n      jump\t// out\n        /* \"#utility.yul\":897:1036   */\n    tag_184:\n        /* \"#utility.yul\":943:948   */\n      0x00\n        /* \"#utility.yul\":981:987   */\n      dup2\n        /* \"#utility.yul\":968:988   */\n      calldataload\n        /* \"#utility.yul\":959:988   */\n      swap1\n      pop\n        /* \"#utility.yul\":997:1030   */\n      tag_262\n        /* \"#utility.yul\":1024:1029   */\n      dup2\n        /* \"#utility.yul\":997:1030   */\n      tag_183\n      jump\t// in\n    tag_262:\n        /* \"#utility.yul\":897:1036   */\n      swap3\n      swap2\n      pop\n      pop\n      jump\t// out\n        /* \"#utility.yul\":1042:1371   */\n    tag_22:\n        /* \"#utility.yul\":1101:1107   */\n      0x00\n        /* \"#utility.yul\":1150:1152   */\n      0x20\n        /* \"#utility.yul\":1138:1147   */\n      dup3\n        /* \"#utility.yul\":1129:1136   */\n      dup5\n        /* \"#utility.yul\":1125:1148   */\n      sub\n        /* \"#utility.yul\":1121:1153   */\n      slt\n        /* \"#utility.yul\":1118:1237   */\n      iszero\n      tag_264\n      jumpi\n        /* \"#utility.yul\":1156:1235   */\n      tag_265\n      tag_181\n      jump\t// in\n    tag_265:\n        /* \"#utility.yul\":1118:1237   */\n    tag_264:\n        /* \"#utility.yul\":1276:1277   */\n      0x00\n        /* \"#utility.yul\":1301:1354   */\n      tag_266\n        /* \"#utility.yul\":1346:1353   */\n      dup5\n        /* \"#utility.yul\":1337:1343   */\n      dup3\n        /* \"#utility.yul\":1326:1335   */\n      dup6\n        /* \"#utility.yul\":1322:1344   */\n      add\n        /* \"#utility.yul\":1301:1354   */\n      tag_184\n      jump\t// in\n    tag_266:\n        /* \"#utility.yul\":1291:1354   */\n      swap2\n      pop\n        /* \"#utility.yul\":1247:1364   */\n      pop\n        /* \"#utility.yul\":1042:1371   */\n      swap3\n      swap2\n      pop\n      pop\n      jump\t// out\n        /* \"#utility.yul\":1377:1503   */\n    tag_185:\n        /* \"#utility.yul\":1414:1421   */\n      0x00\n        /* \"#utility.yul\":1454:1496   */\n      0xffffffffffffffffffffffffffffffffffffffff\n        /* \"#utility.yul\":1447:1452   */\n      dup3\n        /* \"#utility.yul\":1443:1497   */\n      and\n        /* \"#utility.yul\":1432:1497   */\n      swap1\n      pop\n        /* \"#utility.yul\":1377:1503   */\n      swap2\n      swap1\n      pop\n      jump\t// out\n        /* \"#utility.yul\":1509:1605   */\n    tag_186:\n        /* \"#utility.yul\":1546:1553   */\n      0x00\n        /* \"#utility.yul\":1575:1599   */\n      tag_269\n        /* \"#utility.yul\":1593:1598   */\n      dup3\n        /* \"#utility.yul\":1575:1599   */\n      tag_185\n      jump\t// in\n    tag_269:\n        /* \"#utility.yul\":1564:1599   */\n      swap1\n      pop\n        /* \"#utility.yul\":1509:1605   */\n      swap2\n      swap1\n      pop\n      jump\t// out\n        /* \"#utility.yul\":1611:1733   */\n    tag_187:\n        /* \"#utility.yul\":1684:1708   */\n      tag_271\n        /* \"#utility.yul\":1702:1707   */\n      dup2\n        /* \"#utility.yul\":1684:1708   */\n      tag_186\n      jump\t// in\n    tag_271:\n        /* \"#utility.yul\":1677:1682   */\n      dup2\n        /* \"#utility.yul\":1674:1709   */\n      eq\n        /* \"#utility.yul\":1664:1727   */\n      tag_272\n      jumpi\n        /* \"#utility.yul\":1723:1724   */\n      0x00\n        /* \"#utility.yul\":1720:1721   */\n      dup1\n        /* \"#utility.yul\":1713:1725   */\n      revert\n        /* \"#utility.yul\":1664:1727   */\n    tag_272:\n        /* \"#utility.yul\":1611:1733   */\n      pop\n      jump\t// out\n        /* \"#utility.yul\":1739:1878   */\n    tag_188:\n        /* \"#utility.yul\":1785:1790   */\n      0x00\n        /* \"#utility.yul\":1823:1829   */\n      dup2\n        /* \"#utility.yul\":1810:1830   */\n      calldataload\n        /* \"#utility.yul\":1801:1830   */\n      swap1\n      pop\n        /* \"#utility.yul\":1839:1872   */\n      tag_274\n        /* \"#utility.yul\":1866:1871   */\n      dup2\n        /* \"#utility.yul\":1839:1872   */\n      tag_187\n      jump\t// in\n    tag_274:\n        /* \"#utility.yul\":1739:1878   */\n      swap3\n      swap2\n      pop\n      pop\n      jump\t// out\n        /* \"#utility.yul\":1884:2213   */\n    tag_27:\n        /* \"#utility.yul\":1943:1949   */\n      0x00\n        /* \"#utility.yul\":1992:1994   */\n      0x20\n        /* \"#utility.yul\":1980:1989   */\n      dup3\n        /* \"#utility.yul\":1971:1978   */\n      dup5\n        /* \"#utility.yul\":1967:1990   */\n      sub\n        /* \"#utility.yul\":1963:1995   */\n      slt\n        /* \"#utility.yul\":1960:2079   */\n      iszero\n      tag_276\n      jumpi\n        /* \"#utility.yul\":1998:2077   */\n      tag_277\n      tag_181\n      jump\t// in\n    tag_277:\n        /* \"#utility.yul\":1960:2079   */\n    tag_276:\n        /* \"#utility.yul\":2118:2119   */\n      0x00\n        /* \"#utility.yul\":2143:2196   */\n      tag_278\n        /* \"#utility.yul\":2188:2195   */\n      dup5\n        /* \"#utility.yul\":2179:2185   */\n      dup3\n        /* \"#utility.yul\":2168:2177   */\n      dup6\n        /* \"#utility.yul\":2164:2186   */\n      add\n        /* \"#utility.yul\":2143:2196   */\n      tag_188\n      jump\t// in\n    tag_278:\n        /* \"#utility.yul\":2133:2196   */\n      swap2\n      pop\n        /* \"#utility.yul\":2089:2206   */\n      pop\n        /* \"#utility.yul\":1884:2213   */\n      swap3\n      swap2\n      pop\n      pop\n      jump\t// out\n        /* \"#utility.yul\":2219:2336   */\n    tag_189:\n        /* \"#utility.yul\":2328:2329   */\n      0x00\n        /* \"#utility.yul\":2325:2326   */\n      dup1\n        /* \"#utility.yul\":2318:2330   */\n      revert\n        /* \"#utility.yul\":2342:2459   */\n    tag_190:\n        /* \"#utility.yul\":2451:2452   */\n      0x00\n        /* \"#utility.yul\":2448:2449   */\n      dup1\n        /* \"#utility.yul\":2441:2453   */\n      revert\n        /* \"#utility.yul\":2465:2567   */\n    tag_191:\n        /* \"#utility.yul\":2506:2512   */\n      0x00\n        /* \"#utility.yul\":2557:2559   */\n      0x1f\n        /* \"#utility.yul\":2553:2560   */\n      not\n        /* \"#utility.yul\":2548:2550   */\n      0x1f\n        /* \"#utility.yul\":2541:2546   */\n      dup4\n        /* \"#utility.yul\":2537:2551   */\n      add\n        /* \"#utility.yul\":2533:2561   */\n      and\n        /* \"#utility.yul\":2523:2561   */\n      swap1\n      pop\n        /* \"#utility.yul\":2465:2567   */\n      swap2\n      swap1\n      pop\n      jump\t// out\n        /* \"#utility.yul\":2573:2753   */\n    tag_192:\n        /* \"#utility.yul\":2621:2698   */\n      0x4e487b7100000000000000000000000000000000000000000000000000000000\n        /* \"#utility.yul\":2618:2619   */\n      0x00\n        /* \"#utility.yul\":2611:2699   */\n      mstore\n        /* \"#utility.yul\":2718:2722   */\n      0x41\n        /* \"#utility.yul\":2715:2716   */\n      0x04\n        /* \"#utility.yul\":2708:2723   */\n      mstore\n        /* \"#utility.yul\":2742:2746   */\n      0x24\n        /* \"#utility.yul\":2739:2740   */\n      0x00\n        /* \"#utility.yul\":2732:2747   */\n      revert\n        /* \"#utility.yul\":2759:3040   */\n    tag_193:\n        /* \"#utility.yul\":2842:2869   */\n      tag_284\n        /* \"#utility.yul\":2864:2868   */\n      dup3\n        /* \"#utility.yul\":2842:2869   */\n      tag_191\n      jump\t// in\n    tag_284:\n        /* \"#utility.yul\":2834:2840   */\n      dup2\n        /* \"#utility.yul\":2830:2870   */\n      add\n        /* \"#utility.yul\":2972:2978   */\n      dup2\n        /* \"#utility.yul\":2960:2970   */\n      dup2\n        /* \"#utility.yul\":2957:2979   */\n      lt\n        /* \"#utility.yul\":2936:2954   */\n      0xffffffffffffffff\n        /* \"#utility.yul\":2924:2934   */\n      dup3\n        /* \"#utility.yul\":2921:2955   */\n      gt\n        /* \"#utility.yul\":2918:2980   */\n      or\n        /* \"#utility.yul\":2915:3003   */\n      iszero\n      tag_285\n      jumpi\n        /* \"#utility.yul\":2983:3001   */\n      tag_286\n      tag_192\n      jump\t// in\n    tag_286:\n        /* \"#utility.yul\":2915:3003   */\n    tag_285:\n        /* \"#utility.yul\":3023:3033   */\n      dup1\n        /* \"#utility.yul\":3019:3021   */\n      0x40\n        /* \"#utility.yul\":3012:3034   */\n      mstore\n        /* \"#utility.yul\":2802:3040   */\n      pop\n        /* \"#utility.yul\":2759:3040   */\n      pop\n      pop\n      jump\t// out\n        /* \"#utility.yul\":3046:3175   */\n    tag_194:\n        /* \"#utility.yul\":3080:3086   */\n      0x00\n        /* \"#utility.yul\":3107:3127   */\n      tag_288\n      tag_180\n      jump\t// in\n    tag_288:\n        /* \"#utility.yul\":3097:3127   */\n      swap1\n      pop\n        /* \"#utility.yul\":3136:3169   */\n      tag_289\n        /* \"#utility.yul\":3164:3168   */\n      dup3\n        /* \"#utility.yul\":3156:3162   */\n      dup3\n        /* \"#utility.yul\":3136:3169   */\n      tag_193\n      jump\t// in\n    tag_289:\n        /* \"#utility.yul\":3046:3175   */\n      swap2\n      swap1\n      pop\n      jump\t// out\n        /* \"#utility.yul\":3181:3489   */\n    tag_195:\n        /* \"#utility.yul\":3243:3247   */\n      0x00\n        /* \"#utility.yul\":3333:3351   */\n      0xffffffffffffffff\n        /* \"#utility.yul\":3325:3331   */\n      dup3\n        /* \"#utility.yul\":3322:3352   */\n      gt\n        /* \"#utility.yul\":3319:3375   */\n      iszero\n      tag_291\n      jumpi\n        /* \"#utility.yul\":3355:3373   */\n      tag_292\n      tag_192\n      jump\t// in\n    tag_292:\n        /* \"#utility.yul\":3319:3375   */\n    tag_291:\n        /* \"#utility.yul\":3393:3422   */\n      tag_293\n        /* \"#utility.yul\":3415:3421   */\n      dup3\n        /* \"#utility.yul\":3393:3422   */\n      tag_191\n      jump\t// in\n    tag_293:\n        /* \"#utility.yul\":3385:3422   */\n      swap1\n      pop\n        /* \"#utility.yul\":3477:3481   */\n      0x20\n        /* \"#utility.yul\":3471:3475   */\n      dup2\n        /* \"#utility.yul\":3467:3482   */\n      add\n        /* \"#utility.yul\":3459:3482   */\n      swap1\n      pop\n        /* \"#utility.yul\":3181:3489   */\n      swap2\n      swap1\n      pop\n      jump\t// out\n        /* \"#utility.yul\":3495:3643   */\n    tag_196:\n        /* \"#utility.yul\":3593:3599   */\n      dup3\n        /* \"#utility.yul\":3588:3591   */\n      dup2\n        /* \"#utility.yul\":3583:3586   */\n      dup4\n        /* \"#utility.yul\":3570:3600   */\n      calldatacopy\n        /* \"#utility.yul\":3634:3635   */\n      0x00\n        /* \"#utility.yul\":3625:3631   */\n      dup4\n        /* \"#utility.yul\":3620:3623   */\n      dup4\n        /* \"#utility.yul\":3616:3632   */\n      add\n        /* \"#utility.yul\":3609:3636   */\n      mstore\n        /* \"#utility.yul\":3495:3643   */\n      pop\n      pop\n      pop\n      jump\t// out\n        /* \"#utility.yul\":3649:4074   */\n    tag_197:\n        /* \"#utility.yul\":3727:3732   */\n      0x00\n        /* \"#utility.yul\":3752:3818   */\n      tag_296\n        /* \"#utility.yul\":3768:3817   */\n      tag_297\n        /* \"#utility.yul\":3810:3816   */\n      dup5\n        /* \"#utility.yul\":3768:3817   */\n      tag_195\n      jump\t// in\n    tag_297:\n        /* \"#utility.yul\":3752:3818   */\n      tag_194\n      jump\t// in\n    tag_296:\n        /* \"#utility.yul\":3743:3818   */\n      swap1\n      pop\n        /* \"#utility.yul\":3841:3847   */\n      dup3\n        /* \"#utility.yul\":3834:3839   */\n      dup2\n        /* \"#utility.yul\":3827:3848   */\n      mstore\n        /* \"#utility.yul\":3879:3883   */\n      0x20\n        /* \"#utility.yul\":3872:3877   */\n      dup2\n        /* \"#utility.yul\":3868:3884   */\n      add\n        /* \"#utility.yul\":3917:3920   */\n      dup5\n        /* \"#utility.yul\":3908:3914   */\n      dup5\n        /* \"#utility.yul\":3903:3906   */\n      dup5\n        /* \"#utility.yul\":3899:3915   */\n      add\n        /* \"#utility.yul\":3896:3921   */\n      gt\n        /* \"#utility.yul\":3893:4005   */\n      iszero\n      tag_298\n      jumpi\n        /* \"#utility.yul\":3924:4003   */\n      tag_299\n      tag_190\n      jump\t// in\n    tag_299:\n        /* \"#utility.yul\":3893:4005   */\n    tag_298:\n        /* \"#utility.yul\":4014:4068   */\n      tag_300\n        /* \"#utility.yul\":4061:4067   */\n      dup5\n        /* \"#utility.yul\":4056:4059   */\n      dup3\n        /* \"#utility.yul\":4051:4054   */\n      dup6\n        /* \"#utility.yul\":4014:4068   */\n      tag_196\n      jump\t// in\n    tag_300:\n        /* \"#utility.yul\":3733:4074   */\n      pop\n        /* \"#utility.yul\":3649:4074   */\n      swap4\n      swap3\n      pop\n      pop\n      pop\n      jump\t// out\n        /* \"#utility.yul\":4094:4434   */\n    tag_198:\n        /* \"#utility.yul\":4150:4155   */\n      0x00\n        /* \"#utility.yul\":4199:4202   */\n      dup3\n        /* \"#utility.yul\":4192:4196   */\n      0x1f\n        /* \"#utility.yul\":4184:4190   */\n      dup4\n        /* \"#utility.yul\":4180:4197   */\n      add\n        /* \"#utility.yul\":4176:4203   */\n      slt\n        /* \"#utility.yul\":4166:4288   */\n      tag_302\n      jumpi\n        /* \"#utility.yul\":4207:4286   */\n      tag_303\n      tag_189\n      jump\t// in\n    tag_303:\n        /* \"#utility.yul\":4166:4288   */\n    tag_302:\n        /* \"#utility.yul\":4324:4330   */\n      dup2\n        /* \"#utility.yul\":4311:4331   */\n      calldataload\n        /* \"#utility.yul\":4349:4428   */\n      tag_304\n        /* \"#utility.yul\":4424:4427   */\n      dup5\n        /* \"#utility.yul\":4416:4422   */\n      dup3\n        /* \"#utility.yul\":4409:4413   */\n      0x20\n        /* \"#utility.yul\":4401:4407   */\n      dup7\n        /* \"#utility.yul\":4397:4414   */\n      add\n        /* \"#utility.yul\":4349:4428   */\n      tag_197\n      jump\t// in\n    tag_304:\n        /* \"#utility.yul\":4340:4428   */\n      swap2\n      pop\n        /* \"#utility.yul\":4156:4434   */\n      pop\n        /* \"#utility.yul\":4094:4434   */\n      swap3\n      swap2\n      pop\n      pop\n      jump\t// out\n        /* \"#utility.yul\":4440:5239   */\n    tag_33:\n        /* \"#utility.yul\":4527:4533   */\n      0x00\n        /* \"#utility.yul\":4535:4541   */\n      dup1\n        /* \"#utility.yul\":4543:4549   */\n      0x00\n        /* \"#utility.yul\":4592:4594   */\n      0x60\n        /* \"#utility.yul\":4580:4589   */\n      dup5\n        /* \"#utility.yul\":4571:4578   */\n      dup7\n        /* \"#utility.yul\":4567:4590   */\n      sub\n        /* \"#utility.yul\":4563:4595   */\n      slt\n        /* \"#utility.yul\":4560:4679   */\n      iszero\n      tag_306\n      jumpi\n        /* \"#utility.yul\":4598:4677   */\n      tag_307\n      tag_181\n      jump\t// in\n    tag_307:\n        /* \"#utility.yul\":4560:4679   */\n    tag_306:\n        /* \"#utility.yul\":4718:4719   */\n      0x00\n        /* \"#utility.yul\":4743:4796   */\n      tag_308\n        /* \"#utility.yul\":4788:4795   */\n      dup7\n        /* \"#utility.yul\":4779:4785   */\n      dup3\n        /* \"#utility.yul\":4768:4777   */\n      dup8\n        /* \"#utility.yul\":4764:4786   */\n      add\n        /* \"#utility.yul\":4743:4796   */\n      tag_188\n      jump\t// in\n    tag_308:\n        /* \"#utility.yul\":4733:4796   */\n      swap4\n      pop\n        /* \"#utility.yul\":4689:4806   */\n      pop\n        /* \"#utility.yul\":4845:4847   */\n      0x20\n        /* \"#utility.yul\":4871:4924   */\n      tag_309\n        /* \"#utility.yul\":4916:4923   */\n      dup7\n        /* \"#utility.yul\":4907:4913   */\n      dup3\n        /* \"#utility.yul\":4896:4905   */\n      dup8\n        /* \"#utility.yul\":4892:4914   */\n      add\n        /* \"#utility.yul\":4871:4924   */\n      tag_184\n      jump\t// in\n    tag_309:\n        /* \"#utility.yul\":4861:4924   */\n      swap3\n      pop\n        /* \"#utility.yul\":4816:4934   */\n      pop\n        /* \"#utility.yul\":5001:5003   */\n      0x40\n        /* \"#utility.yul\":4990:4999   */\n      dup5\n        /* \"#utility.yul\":4986:5004   */\n      add\n        /* \"#utility.yul\":4973:5005   */\n      calldataload\n        /* \"#utility.yul\":5032:5050   */\n      0xffffffffffffffff\n        /* \"#utility.yul\":5024:5030   */\n      dup2\n        /* \"#utility.yul\":5021:5051   */\n      gt\n        /* \"#utility.yul\":5018:5135   */\n      iszero\n      tag_310\n      jumpi\n        /* \"#utility.yul\":5054:5133   */\n      tag_311\n      tag_182\n      jump\t// in\n    tag_311:\n        /* \"#utility.yul\":5018:5135   */\n    tag_310:\n        /* \"#utility.yul\":5159:5222   */\n      tag_312\n        /* \"#utility.yul\":5214:5221   */\n      dup7\n        /* \"#utility.yul\":5205:5211   */\n      dup3\n        /* \"#utility.yul\":5194:5203   */\n      dup8\n        /* \"#utility.yul\":5190:5212   */\n      add\n        /* \"#utility.yul\":5159:5222   */\n      tag_198\n      jump\t// in\n    tag_312:\n        /* \"#utility.yul\":5149:5222   */\n      swap2\n      pop\n        /* \"#utility.yul\":4944:5232   */\n      pop\n        /* \"#utility.yul\":4440:5239   */\n      swap3\n      pop\n      swap3\n      pop\n      swap3\n      jump\t// out\n        /* \"#utility.yul\":5245:5344   */\n    tag_199:\n        /* \"#utility.yul\":5297:5303   */\n      0x00\n        /* \"#utility.yul\":5331:5336   */\n      dup2\n        /* \"#utility.yul\":5325:5337   */\n      mload\n        /* \"#utility.yul\":5315:5337   */\n      swap1\n      pop\n        /* \"#utility.yul\":5245:5344   */\n      swap2\n      swap1\n      pop\n      jump\t// out\n        /* \"#utility.yul\":5350:5519   */\n    tag_200:\n        /* \"#utility.yul\":5434:5445   */\n      0x00\n        /* \"#utility.yul\":5468:5474   */\n      dup3\n        /* \"#utility.yul\":5463:5466   */\n      dup3\n        /* \"#utility.yul\":5456:5475   */\n      mstore\n        /* \"#utility.yul\":5508:5512   */\n      0x20\n        /* \"#utility.yul\":5503:5506   */\n      dup3\n        /* \"#utility.yul\":5499:5513   */\n      add\n        /* \"#utility.yul\":5484:5513   */\n      swap1\n      pop\n        /* \"#utility.yul\":5350:5519   */\n      swap3\n      swap2\n      pop\n      pop\n      jump\t// out\n        /* \"#utility.yul\":5525:5664   */\n    tag_201:\n        /* \"#utility.yul\":5614:5620   */\n      dup3\n        /* \"#utility.yul\":5609:5612   */\n      dup2\n        /* \"#utility.yul\":5604:5607   */\n      dup4\n        /* \"#utility.yul\":5598:5621   */\n      mcopy\n        /* \"#utility.yul\":5655:5656   */\n      0x00\n        /* \"#utility.yul\":5646:5652   */\n      dup4\n        /* \"#utility.yul\":5641:5644   */\n      dup4\n        /* \"#utility.yul\":5637:5653   */\n      add\n        /* \"#utility.yul\":5630:5657   */\n      mstore\n        /* \"#utility.yul\":5525:5664   */\n      pop\n      pop\n      pop\n      jump\t// out\n        /* \"#utility.yul\":5670:6047   */\n    tag_202:\n        /* \"#utility.yul\":5758:5761   */\n      0x00\n        /* \"#utility.yul\":5786:5825   */\n      tag_317\n        /* \"#utility.yul\":5819:5824   */\n      dup3\n        /* \"#utility.yul\":5786:5825   */\n      tag_199\n      jump\t// in\n    tag_317:\n        /* \"#utility.yul\":5841:5912   */\n      tag_318\n        /* \"#utility.yul\":5905:5911   */\n      dup2\n        /* \"#utility.yul\":5900:5903   */\n      dup6\n        /* \"#utility.yul\":5841:5912   */\n      tag_200\n      jump\t// in\n    tag_318:\n        /* \"#utility.yul\":5834:5912   */\n      swap4\n      pop\n        /* \"#utility.yul\":5921:5986   */\n      tag_319\n        /* \"#utility.yul\":5979:5985   */\n      dup2\n        /* \"#utility.yul\":5974:5977   */\n      dup6\n        /* \"#utility.yul\":5967:5971   */\n      0x20\n        /* \"#utility.yul\":5960:5965   */\n      dup7\n        /* \"#utility.yul\":5956:5972   */\n      add\n        /* \"#utility.yul\":5921:5986   */\n      tag_201\n      jump\t// in\n    tag_319:\n        /* \"#utility.yul\":6011:6040   */\n      tag_320\n        /* \"#utility.yul\":6033:6039   */\n      dup2\n        /* \"#utility.yul\":6011:6040   */\n      tag_191\n      jump\t// in\n    tag_320:\n        /* \"#utility.yul\":6006:6009   */\n      dup5\n        /* \"#utility.yul\":6002:6041   */\n      add\n        /* \"#utility.yul\":5995:6041   */\n      swap2\n      pop\n        /* \"#utility.yul\":5762:6047   */\n      pop\n        /* \"#utility.yul\":5670:6047   */\n      swap3\n      swap2\n      pop\n      pop\n      jump\t// out\n        /* \"#utility.yul\":6053:6476   */\n    tag_43:\n        /* \"#utility.yul\":6194:6198   */\n      0x00\n        /* \"#utility.yul\":6232:6234   */\n      0x40\n        /* \"#utility.yul\":6221:6230   */\n      dup3\n        /* \"#utility.yul\":6217:6235   */\n      add\n        /* \"#utility.yul\":6209:6235   */\n      swap1\n      pop\n        /* \"#utility.yul\":6281:6290   */\n      dup2\n        /* \"#utility.yul\":6275:6279   */\n      dup2\n        /* \"#utility.yul\":6271:6291   */\n      sub\n        /* \"#utility.yul\":6267:6268   */\n      0x00\n        /* \"#utility.yul\":6256:6265   */\n      dup4\n        /* \"#utility.yul\":6252:6269   */\n      add\n        /* \"#utility.yul\":6245:6292   */\n      mstore\n        /* \"#utility.yul\":6309:6387   */\n      tag_322\n        /* \"#utility.yul\":6382:6386   */\n      dup2\n        /* \"#utility.yul\":6373:6379   */\n      dup6\n        /* \"#utility.yul\":6309:6387   */\n      tag_202\n      jump\t// in\n    tag_322:\n        /* \"#utility.yul\":6301:6387   */\n      swap1\n      pop\n        /* \"#utility.yul\":6397:6469   */\n      tag_323\n        /* \"#utility.yul\":6465:6467   */\n      0x20\n        /* \"#utility.yul\":6454:6463   */\n      dup4\n        /* \"#utility.yul\":6450:6468   */\n      add\n        /* \"#utility.yul\":6441:6447   */\n      dup5\n        /* \"#utility.yul\":6397:6469   */\n      tag_179\n      jump\t// in\n    tag_323:\n        /* \"#utility.yul\":6053:6476   */\n      swap4\n      swap3\n      pop\n      pop\n      pop\n      jump\t// out\n        /* \"#utility.yul\":6482:6600   */\n    tag_203:\n        /* \"#utility.yul\":6569:6593   */\n      tag_325\n        /* \"#utility.yul\":6587:6592   */\n      dup2\n        /* \"#utility.yul\":6569:6593   */\n      tag_186\n      jump\t// in\n    tag_325:\n        /* \"#utility.yul\":6564:6567   */\n      dup3\n        /* \"#utility.yul\":6557:6594   */\n      mstore\n        /* \"#utility.yul\":6482:6600   */\n      pop\n      pop\n      jump\t// out\n        /* \"#utility.yul\":6606:6828   */\n    tag_48:\n        /* \"#utility.yul\":6699:6703   */\n      0x00\n        /* \"#utility.yul\":6737:6739   */\n      0x20\n        /* \"#utility.yul\":6726:6735   */\n      dup3\n        /* \"#utility.yul\":6722:6740   */\n      add\n        /* \"#utility.yul\":6714:6740   */\n      swap1\n      pop\n        /* \"#utility.yul\":6750:6821   */\n      tag_327\n        /* \"#utility.yul\":6818:6819   */\n      0x00\n        /* \"#utility.yul\":6807:6816   */\n      dup4\n        /* \"#utility.yul\":6803:6820   */\n      add\n        /* \"#utility.yul\":6794:6800   */\n      dup5\n        /* \"#utility.yul\":6750:6821   */\n      tag_203\n      jump\t// in\n    tag_327:\n        /* \"#utility.yul\":6606:6828   */\n      swap3\n      swap2\n      pop\n      pop\n      jump\t// out\n        /* \"#utility.yul\":6834:7488   */\n    tag_52:\n        /* \"#utility.yul\":6912:6918   */\n      0x00\n        /* \"#utility.yul\":6920:6926   */\n      dup1\n        /* \"#utility.yul\":6969:6971   */\n      0x40\n        /* \"#utility.yul\":6957:6966   */\n      dup4\n        /* \"#utility.yul\":6948:6955   */\n      dup6\n        /* \"#utility.yul\":6944:6967   */\n      sub\n        /* \"#utility.yul\":6940:6972   */\n      slt\n        /* \"#utility.yul\":6937:7056   */\n      iszero\n      tag_329\n      jumpi\n        /* \"#utility.yul\":6975:7054   */\n      tag_330\n      tag_181\n      jump\t// in\n    tag_330:\n        /* \"#utility.yul\":6937:7056   */\n    tag_329:\n        /* \"#utility.yul\":7095:7096   */\n      0x00\n        /* \"#utility.yul\":7120:7173   */\n      tag_331\n        /* \"#utility.yul\":7165:7172   */\n      dup6\n        /* \"#utility.yul\":7156:7162   */\n      dup3\n        /* \"#utility.yul\":7145:7154   */\n      dup7\n        /* \"#utility.yul\":7141:7163   */\n      add\n        /* \"#utility.yul\":7120:7173   */\n      tag_188\n      jump\t// in\n    tag_331:\n        /* \"#utility.yul\":7110:7173   */\n      swap3\n      pop\n        /* \"#utility.yul\":7066:7183   */\n      pop\n        /* \"#utility.yul\":7250:7252   */\n      0x20\n        /* \"#utility.yul\":7239:7248   */\n      dup4\n        /* \"#utility.yul\":7235:7253   */\n      add\n        /* \"#utility.yul\":7222:7254   */\n      calldataload\n        /* \"#utility.yul\":7281:7299   */\n      0xffffffffffffffff\n        /* \"#utility.yul\":7273:7279   */\n      dup2\n        /* \"#utility.yul\":7270:7300   */\n      gt\n        /* \"#utility.yul\":7267:7384   */\n      iszero\n      tag_332\n      jumpi\n        /* \"#utility.yul\":7303:7382   */\n      tag_333\n      tag_182\n      jump\t// in\n    tag_333:\n        /* \"#utility.yul\":7267:7384   */\n    tag_332:\n        /* \"#utility.yul\":7408:7471   */\n      tag_334\n        /* \"#utility.yul\":7463:7470   */\n      dup6\n        /* \"#utility.yul\":7454:7460   */\n      dup3\n        /* \"#utility.yul\":7443:7452   */\n      dup7\n        /* \"#utility.yul\":7439:7461   */\n      add\n        /* \"#utility.yul\":7408:7471   */\n      tag_198\n      jump\t// in\n    tag_334:\n        /* \"#utility.yul\":7398:7471   */\n      swap2\n      pop\n        /* \"#utility.yul\":7193:7481   */\n      pop\n        /* \"#utility.yul\":6834:7488   */\n      swap3\n      pop\n      swap3\n      swap1\n      pop\n      jump\t// out\n        /* \"#utility.yul\":7494:7664   */\n    tag_204:\n        /* \"#utility.yul\":7634:7656   */\n      0x496e73756666696369656e742062616c616e6365000000000000000000000000\n        /* \"#utility.yul\":7630:7631   */\n      0x00\n        /* \"#utility.yul\":7622:7628   */\n      dup3\n        /* \"#utility.yul\":7618:7632   */\n      add\n        /* \"#utility.yul\":7611:7657   */\n      mstore\n        /* \"#utility.yul\":7494:7664   */\n      pop\n      jump\t// out\n        /* \"#utility.yul\":7670:8036   */\n    tag_205:\n        /* \"#utility.yul\":7812:7815   */\n      0x00\n        /* \"#utility.yul\":7833:7900   */\n      tag_337\n        /* \"#utility.yul\":7897:7899   */\n      0x14\n        /* \"#utility.yul\":7892:7895   */\n      dup4\n        /* \"#utility.yul\":7833:7900   */\n      tag_200\n      jump\t// in\n    tag_337:\n        /* \"#utility.yul\":7826:7900   */\n      swap2\n      pop\n        /* \"#utility.yul\":7909:8002   */\n      tag_338\n        /* \"#utility.yul\":7998:8001   */\n      dup3\n        /* \"#utility.yul\":7909:8002   */\n      tag_204\n      jump\t// in\n    tag_338:\n        /* \"#utility.yul\":8027:8029   */\n      0x20\n        /* \"#utility.yul\":8022:8025   */\n      dup3\n        /* \"#utility.yul\":8018:8030   */\n      add\n        /* \"#utility.yul\":8011:8030   */\n      swap1\n      pop\n        /* \"#utility.yul\":7670:8036   */\n      swap2\n      swap1\n      pop\n      jump\t// out\n        /* \"#utility.yul\":8042:8461   */\n    tag_69:\n        /* \"#utility.yul\":8208:8212   */\n      0x00\n        /* \"#utility.yul\":8246:8248   */\n      0x20\n        /* \"#utility.yul\":8235:8244   */\n      dup3\n        /* \"#utility.yul\":8231:8249   */\n      add\n        /* \"#utility.yul\":8223:8249   */\n      swap1\n      pop\n        /* \"#utility.yul\":8295:8304   */\n      dup2\n        /* \"#utility.yul\":8289:8293   */\n      dup2\n        /* \"#utility.yul\":8285:8305   */\n      sub\n        /* \"#utility.yul\":8281:8282   */\n      0x00\n        /* \"#utility.yul\":8270:8279   */\n      dup4\n        /* \"#utility.yul\":8266:8283   */\n      add\n        /* \"#utility.yul\":8259:8306   */\n      mstore\n        /* \"#utility.yul\":8323:8454   */\n      tag_340\n        /* \"#utility.yul\":8449:8453   */\n      dup2\n        /* \"#utility.yul\":8323:8454   */\n      tag_205\n      jump\t// in\n    tag_340:\n        /* \"#utility.yul\":8315:8454   */\n      swap1\n      pop\n        /* \"#utility.yul\":8042:8461   */\n      swap2\n      swap1\n      pop\n      jump\t// out\n        /* \"#utility.yul\":8467:8647   */\n    tag_206:\n        /* \"#utility.yul\":8515:8592   */\n      0x4e487b7100000000000000000000000000000000000000000000000000000000\n        /* \"#utility.yul\":8512:8513   */\n      0x00\n        /* \"#utility.yul\":8505:8593   */\n      mstore\n        /* \"#utility.yul\":8612:8616   */\n      0x11\n        /* \"#utility.yul\":8609:8610   */\n      0x04\n        /* \"#utility.yul\":8602:8617   */\n      mstore\n        /* \"#utility.yul\":8636:8640   */\n      0x24\n        /* \"#utility.yul\":8633:8634   */\n      0x00\n        /* \"#utility.yul\":8626:8641   */\n      revert\n        /* \"#utility.yul\":8653:8847   */\n    tag_71:\n        /* \"#utility.yul\":8693:8697   */\n      0x00\n        /* \"#utility.yul\":8713:8733   */\n      tag_343\n        /* \"#utility.yul\":8731:8732   */\n      dup3\n        /* \"#utility.yul\":8713:8733   */\n      tag_178\n      jump\t// in\n    tag_343:\n        /* \"#utility.yul\":8708:8733   */\n      swap2\n      pop\n        /* \"#utility.yul\":8747:8767   */\n      tag_344\n        /* \"#utility.yul\":8765:8766   */\n      dup4\n        /* \"#utility.yul\":8747:8767   */\n      tag_178\n      jump\t// in\n    tag_344:\n        /* \"#utility.yul\":8742:8767   */\n      swap3\n      pop\n        /* \"#utility.yul\":8791:8792   */\n      dup3\n        /* \"#utility.yul\":8788:8789   */\n      dup3\n        /* \"#utility.yul\":8784:8793   */\n      sub\n        /* \"#utility.yul\":8776:8793   */\n      swap1\n      pop\n        /* \"#utility.yul\":8815:8816   */\n      dup2\n        /* \"#utility.yul\":8809:8813   */\n      dup2\n        /* \"#utility.yul\":8806:8817   */\n      gt\n        /* \"#utility.yul\":8803:8840   */\n      iszero\n      tag_345\n      jumpi\n        /* \"#utility.yul\":8820:8838   */\n      tag_346\n      tag_206\n      jump\t// in\n    tag_346:\n        /* \"#utility.yul\":8803:8840   */\n    tag_345:\n        /* \"#utility.yul\":8653:8847   */\n      swap3\n      swap2\n      pop\n      pop\n      jump\t// out\n        /* \"#utility.yul\":8853:9033   */\n    tag_207:\n        /* \"#utility.yul\":8901:8978   */\n      0x4e487b7100000000000000000000000000000000000000000000000000000000\n        /* \"#utility.yul\":8898:8899   */\n      0x00\n        /* \"#utility.yul\":8891:8979   */\n      mstore\n        /* \"#utility.yul\":8998:9002   */\n      0x22\n        /* \"#utility.yul\":8995:8996   */\n      0x04\n        /* \"#utility.yul\":8988:9003   */\n      mstore\n        /* \"#utility.yul\":9022:9026   */\n      0x24\n        /* \"#utility.yul\":9019:9020   */\n      0x00\n        /* \"#utility.yul\":9012:9027   */\n      revert\n        /* \"#utility.yul\":9039:9359   */\n    tag_78:\n        /* \"#utility.yul\":9083:9089   */\n      0x00\n        /* \"#utility.yul\":9120:9121   */\n      0x02\n        /* \"#utility.yul\":9114:9118   */\n      dup3\n        /* \"#utility.yul\":9110:9122   */\n      div\n        /* \"#utility.yul\":9100:9122   */\n      swap1\n      pop\n        /* \"#utility.yul\":9167:9168   */\n      0x01\n        /* \"#utility.yul\":9161:9165   */\n      dup3\n        /* \"#utility.yul\":9157:9169   */\n      and\n        /* \"#utility.yul\":9188:9206   */\n      dup1\n        /* \"#utility.yul\":9178:9259   */\n      tag_349\n      jumpi\n        /* \"#utility.yul\":9244:9248   */\n      0x7f\n        /* \"#utility.yul\":9236:9242   */\n      dup3\n        /* \"#utility.yul\":9232:9249   */\n      and\n        /* \"#utility.yul\":9222:9249   */\n      swap2\n      pop\n        /* \"#utility.yul\":9178:9259   */\n    tag_349:\n        /* \"#utility.yul\":9306:9308   */\n      0x20\n        /* \"#utility.yul\":9298:9304   */\n      dup3\n        /* \"#utility.yul\":9295:9309   */\n      lt\n        /* \"#utility.yul\":9275:9293   */\n      dup2\n        /* \"#utility.yul\":9272:9310   */\n      sub\n        /* \"#utility.yul\":9269:9353   */\n      tag_350\n      jumpi\n        /* \"#utility.yul\":9325:9343   */\n      tag_351\n      tag_207\n      jump\t// in\n    tag_351:\n        /* \"#utility.yul\":9269:9353   */\n    tag_350:\n        /* \"#utility.yul\":9090:9359   */\n      pop\n        /* \"#utility.yul\":9039:9359   */\n      swap2\n      swap1\n      pop\n      jump\t// out\n        /* \"#utility.yul\":9365:9543   */\n    tag_208:\n        /* \"#utility.yul\":9505:9535   */\n      0x53656e6465722077616c6c6574206e6f74207265676973746572656400000000\n        /* \"#utility.yul\":9501:9502   */\n      0x00\n        /* \"#utility.yul\":9493:9499   */\n      dup3\n        /* \"#utility.yul\":9489:9503   */\n      add\n        /* \"#utility.yul\":9482:9536   */\n      mstore\n        /* \"#utility.yul\":9365:9543   */\n      pop\n      jump\t// out\n        /* \"#utility.yul\":9549:9915   */\n    tag_209:\n        /* \"#utility.yul\":9691:9694   */\n      0x00\n        /* \"#utility.yul\":9712:9779   */\n      tag_354\n        /* \"#utility.yul\":9776:9778   */\n      0x1c\n        /* \"#utility.yul\":9771:9774   */\n      dup4\n        /* \"#utility.yul\":9712:9779   */\n      tag_200\n      jump\t// in\n    tag_354:\n        /* \"#utility.yul\":9705:9779   */\n      swap2\n      pop\n        /* \"#utility.yul\":9788:9881   */\n      tag_355\n        /* \"#utility.yul\":9877:9880   */\n      dup3\n        /* \"#utility.yul\":9788:9881   */\n      tag_208\n      jump\t// in\n    tag_355:\n        /* \"#utility.yul\":9906:9908   */\n      0x20\n        /* \"#utility.yul\":9901:9904   */\n      dup3\n        /* \"#utility.yul\":9897:9909   */\n      add\n        /* \"#utility.yul\":9890:9909   */\n      swap1\n      pop\n        /* \"#utility.yul\":9549:9915   */\n      swap2\n      swap1\n      pop\n      jump\t// out\n        /* \"#utility.yul\":9921:10340   */\n    tag_81:\n        /* \"#utility.yul\":10087:10091   */\n      0x00\n        /* \"#utility.yul\":10125:10127   */\n      0x20\n        /* \"#utility.yul\":10114:10123   */\n      dup3\n        /* \"#utility.yul\":10110:10128   */\n      add\n        /* \"#utility.yul\":10102:10128   */\n      swap1\n      pop\n        /* \"#utility.yul\":10174:10183   */\n      dup2\n        /* \"#utility.yul\":10168:10172   */\n      dup2\n        /* \"#utility.yul\":10164:10184   */\n      sub\n        /* \"#utility.yul\":10160:10161   */\n      0x00\n        /* \"#utility.yul\":10149:10158   */\n      dup4\n        /* \"#utility.yul\":10145:10162   */\n      add\n        /* \"#utility.yul\":10138:10185   */\n      mstore\n        /* \"#utility.yul\":10202:10333   */\n      tag_357\n        /* \"#utility.yul\":10328:10332   */\n      dup2\n        /* \"#utility.yul\":10202:10333   */\n      tag_209\n      jump\t// in\n    tag_357:\n        /* \"#utility.yul\":10194:10333   */\n      swap1\n      pop\n        /* \"#utility.yul\":9921:10340   */\n      swap2\n      swap1\n      pop\n      jump\t// out\n        /* \"#utility.yul\":10346:10526   */\n    tag_210:\n        /* \"#utility.yul\":10486:10518   */\n      0x52656365697665722077616c6c6574206e6f7420726567697374657265640000\n        /* \"#utility.yul\":10482:10483   */\n      0x00\n        /* \"#utility.yul\":10474:10480   */\n      dup3\n        /* \"#utility.yul\":10470:10484   */\n      add\n        /* \"#utility.yul\":10463:10519   */\n      mstore\n        /* \"#utility.yul\":10346:10526   */\n      pop\n      jump\t// out\n        /* \"#utility.yul\":10532:10898   */\n    tag_211:\n        /* \"#utility.yul\":10674:10677   */\n      0x00\n        /* \"#utility.yul\":10695:10762   */\n      tag_360\n        /* \"#utility.yul\":10759:10761   */\n      0x1e\n        /* \"#utility.yul\":10754:10757   */\n      dup4\n        /* \"#utility.yul\":10695:10762   */\n      tag_200\n      jump\t// in\n    tag_360:\n        /* \"#utility.yul\":10688:10762   */\n      swap2\n      pop\n        /* \"#utility.yul\":10771:10864   */\n      tag_361\n        /* \"#utility.yul\":10860:10863   */\n      dup3\n        /* \"#utility.yul\":10771:10864   */\n      tag_210\n      jump\t// in\n    tag_361:\n        /* \"#utility.yul\":10889:10891   */\n      0x20\n        /* \"#utility.yul\":10884:10887   */\n      dup3\n        /* \"#utility.yul\":10880:10892   */\n      add\n        /* \"#utility.yul\":10873:10892   */\n      swap1\n      pop\n        /* \"#utility.yul\":10532:10898   */\n      swap2\n      swap1\n      pop\n      jump\t// out\n        /* \"#utility.yul\":10904:11323   */\n    tag_85:\n        /* \"#utility.yul\":11070:11074   */\n      0x00\n        /* \"#utility.yul\":11108:11110   */\n      0x20\n        /* \"#utility.yul\":11097:11106   */\n      dup3\n        /* \"#utility.yul\":11093:11111   */\n      add\n        /* \"#utility.yul\":11085:11111   */\n      swap1\n      pop\n        /* \"#utility.yul\":11157:11166   */\n      dup2\n        /* \"#utility.yul\":11151:11155   */\n      dup2\n        /* \"#utility.yul\":11147:11167   */\n      sub\n        /* \"#utility.yul\":11143:11144   */\n      0x00\n        /* \"#utility.yul\":11132:11141   */\n      dup4\n        /* \"#utility.yul\":11128:11145   */\n      add\n        /* \"#utility.yul\":11121:11168   */\n      mstore\n        /* \"#utility.yul\":11185:11316   */\n      tag_363\n        /* \"#utility.yul\":11311:11315   */\n      dup2\n        /* \"#utility.yul\":11185:11316   */\n      tag_211\n      jump\t// in\n    tag_363:\n        /* \"#utility.yul\":11177:11316   */\n      swap1\n      pop\n        /* \"#utility.yul\":10904:11323   */\n      swap2\n      swap1\n      pop\n      jump\t// out\n        /* \"#utility.yul\":11329:11477   */\n    tag_212:\n        /* \"#utility.yul\":11431:11442   */\n      0x00\n        /* \"#utility.yul\":11468:11471   */\n      dup2\n        /* \"#utility.yul\":11453:11471   */\n      swap1\n      pop\n        /* \"#utility.yul\":11329:11477   */\n      swap3\n      swap2\n      pop\n      pop\n      jump\t// out\n        /* \"#utility.yul\":11483:11645   */\n    tag_213:\n        /* \"#utility.yul\":11623:11637   */\n      0x706c6179657253616c6172790000000000000000000000000000000000000000\n        /* \"#utility.yul\":11619:11620   */\n      0x00\n        /* \"#utility.yul\":11611:11617   */\n      dup3\n        /* \"#utility.yul\":11607:11621   */\n      add\n        /* \"#utility.yul\":11600:11638   */\n      mstore\n        /* \"#utility.yul\":11483:11645   */\n      pop\n      jump\t// out\n        /* \"#utility.yul\":11651:12053   */\n    tag_214:\n        /* \"#utility.yul\":11811:11814   */\n      0x00\n        /* \"#utility.yul\":11832:11917   */\n      tag_367\n        /* \"#utility.yul\":11914:11916   */\n      0x0c\n        /* \"#utility.yul\":11909:11912   */\n      dup4\n        /* \"#utility.yul\":11832:11917   */\n      tag_212\n      jump\t// in\n    tag_367:\n        /* \"#utility.yul\":11825:11917   */\n      swap2\n      pop\n        /* \"#utility.yul\":11926:12019   */\n      tag_368\n        /* \"#utility.yul\":12015:12018   */\n      dup3\n        /* \"#utility.yul\":11926:12019   */\n      tag_213\n      jump\t// in\n    tag_368:\n        /* \"#utility.yul\":12044:12046   */\n      0x0c\n        /* \"#utility.yul\":12039:12042   */\n      dup3\n        /* \"#utility.yul\":12035:12047   */\n      add\n        /* \"#utility.yul\":12028:12047   */\n      swap1\n      pop\n        /* \"#utility.yul\":11651:12053   */\n      swap2\n      swap1\n      pop\n      jump\t// out\n        /* \"#utility.yul\":12059:12440   */\n    tag_89:\n        /* \"#utility.yul\":12244:12247   */\n      0x00\n        /* \"#utility.yul\":12266:12414   */\n      tag_370\n        /* \"#utility.yul\":12410:12413   */\n      dup3\n        /* \"#utility.yul\":12266:12414   */\n      tag_214\n      jump\t// in\n    tag_370:\n        /* \"#utility.yul\":12259:12414   */\n      swap2\n      pop\n        /* \"#utility.yul\":12431:12434   */\n      dup2\n        /* \"#utility.yul\":12424:12434   */\n      swap1\n      pop\n        /* \"#utility.yul\":12059:12440   */\n      swap2\n      swap1\n      pop\n      jump\t// out\n        /* \"#utility.yul\":12446:12836   */\n    tag_215:\n        /* \"#utility.yul\":12552:12555   */\n      0x00\n        /* \"#utility.yul\":12580:12619   */\n      tag_372\n        /* \"#utility.yul\":12613:12618   */\n      dup3\n        /* \"#utility.yul\":12580:12619   */\n      tag_199\n      jump\t// in\n    tag_372:\n        /* \"#utility.yul\":12635:12724   */\n      tag_373\n        /* \"#utility.yul\":12717:12723   */\n      dup2\n        /* \"#utility.yul\":12712:12715   */\n      dup6\n        /* \"#utility.yul\":12635:12724   */\n      tag_212\n      jump\t// in\n    tag_373:\n        /* \"#utility.yul\":12628:12724   */\n      swap4\n      pop\n        /* \"#utility.yul\":12733:12798   */\n      tag_374\n        /* \"#utility.yul\":12791:12797   */\n      dup2\n        /* \"#utility.yul\":12786:12789   */\n      dup6\n        /* \"#utility.yul\":12779:12783   */\n      0x20\n        /* \"#utility.yul\":12772:12777   */\n      dup7\n        /* \"#utility.yul\":12768:12784   */\n      add\n        /* \"#utility.yul\":12733:12798   */\n      tag_201\n      jump\t// in\n    tag_374:\n        /* \"#utility.yul\":12823:12829   */\n      dup1\n        /* \"#utility.yul\":12818:12821   */\n      dup5\n        /* \"#utility.yul\":12814:12830   */\n      add\n        /* \"#utility.yul\":12807:12830   */\n      swap2\n      pop\n        /* \"#utility.yul\":12556:12836   */\n      pop\n        /* \"#utility.yul\":12446:12836   */\n      swap3\n      swap2\n      pop\n      pop\n      jump\t// out\n        /* \"#utility.yul\":12842:13117   */\n    tag_91:\n        /* \"#utility.yul\":12974:12977   */\n      0x00\n        /* \"#utility.yul\":12996:13091   */\n      tag_376\n        /* \"#utility.yul\":13087:13090   */\n      dup3\n        /* \"#utility.yul\":13078:13084   */\n      dup5\n        /* \"#utility.yul\":12996:13091   */\n      tag_215\n      jump\t// in\n    tag_376:\n        /* \"#utility.yul\":12989:13091   */\n      swap2\n      pop\n        /* \"#utility.yul\":13108:13111   */\n      dup2\n        /* \"#utility.yul\":13101:13111   */\n      swap1\n      pop\n        /* \"#utility.yul\":12842:13117   */\n      swap3\n      swap2\n      pop\n      pop\n      jump\t// out\n        /* \"#utility.yul\":13123:13277   */\n    tag_216:\n        /* \"#utility.yul\":13263:13269   */\n      0x636c756200000000000000000000000000000000000000000000000000000000\n        /* \"#utility.yul\":13259:13260   */\n      0x00\n        /* \"#utility.yul\":13251:13257   */\n      dup3\n        /* \"#utility.yul\":13247:13261   */\n      add\n        /* \"#utility.yul\":13240:13270   */\n      mstore\n        /* \"#utility.yul\":13123:13277   */\n      pop\n      jump\t// out\n        /* \"#utility.yul\":13283:13683   */\n    tag_217:\n        /* \"#utility.yul\":13443:13446   */\n      0x00\n        /* \"#utility.yul\":13464:13548   */\n      tag_379\n        /* \"#utility.yul\":13546:13547   */\n      0x04\n        /* \"#utility.yul\":13541:13544   */\n      dup4\n        /* \"#utility.yul\":13464:13548   */\n      tag_212\n      jump\t// in\n    tag_379:\n        /* \"#utility.yul\":13457:13548   */\n      swap2\n      pop\n        /* \"#utility.yul\":13557:13650   */\n      tag_380\n        /* \"#utility.yul\":13646:13649   */\n      dup3\n        /* \"#utility.yul\":13557:13650   */\n      tag_216\n      jump\t// in\n    tag_380:\n        /* \"#utility.yul\":13675:13676   */\n      0x04\n        /* \"#utility.yul\":13670:13673   */\n      dup3\n        /* \"#utility.yul\":13666:13677   */\n      add\n        /* \"#utility.yul\":13659:13677   */\n      swap1\n      pop\n        /* \"#utility.yul\":13283:13683   */\n      swap2\n      swap1\n      pop\n      jump\t// out\n        /* \"#utility.yul\":13689:14070   */\n    tag_94:\n        /* \"#utility.yul\":13874:13877   */\n      0x00\n        /* \"#utility.yul\":13896:14044   */\n      tag_382\n        /* \"#utility.yul\":14040:14043   */\n      dup3\n        /* \"#utility.yul\":13896:14044   */\n      tag_217\n      jump\t// in\n    tag_382:\n        /* \"#utility.yul\":13889:14044   */\n      swap2\n      pop\n        /* \"#utility.yul\":14061:14064   */\n      dup2\n        /* \"#utility.yul\":14054:14064   */\n      swap1\n      pop\n        /* \"#utility.yul\":13689:14070   */\n      swap2\n      swap1\n      pop\n      jump\t// out\n        /* \"#utility.yul\":14076:14217   */\n    tag_218:\n        /* \"#utility.yul\":14125:14129   */\n      0x00\n        /* \"#utility.yul\":14148:14151   */\n      dup2\n        /* \"#utility.yul\":14140:14151   */\n      swap1\n      pop\n        /* \"#utility.yul\":14171:14174   */\n      dup2\n        /* \"#utility.yul\":14168:14169   */\n      0x00\n        /* \"#utility.yul\":14161:14175   */\n      mstore\n        /* \"#utility.yul\":14205:14209   */\n      0x20\n        /* \"#utility.yul\":14202:14203   */\n      0x00\n        /* \"#utility.yul\":14192:14210   */\n      keccak256\n        /* \"#utility.yul\":14184:14210   */\n      swap1\n      pop\n        /* \"#utility.yul\":14076:14217   */\n      swap2\n      swap1\n      pop\n      jump\t// out\n        /* \"#utility.yul\":14247:15121   */\n    tag_219:\n        /* \"#utility.yul\":14350:14353   */\n      0x00\n        /* \"#utility.yul\":14387:14392   */\n      dup2\n        /* \"#utility.yul\":14381:14393   */\n      sload\n        /* \"#utility.yul\":14416:14452   */\n      tag_385\n        /* \"#utility.yul\":14442:14451   */\n      dup2\n        /* \"#utility.yul\":14416:14452   */\n      tag_78\n      jump\t// in\n    tag_385:\n        /* \"#utility.yul\":14468:14557   */\n      tag_386\n        /* \"#utility.yul\":14550:14556   */\n      dup2\n        /* \"#utility.yul\":14545:14548   */\n      dup7\n        /* \"#utility.yul\":14468:14557   */\n      tag_212\n      jump\t// in\n    tag_386:\n        /* \"#utility.yul\":14461:14557   */\n      swap5\n      pop\n        /* \"#utility.yul\":14588:14589   */\n      0x01\n        /* \"#utility.yul\":14577:14586   */\n      dup3\n        /* \"#utility.yul\":14573:14590   */\n      and\n        /* \"#utility.yul\":14604:14605   */\n      0x00\n        /* \"#utility.yul\":14599:14765   */\n      dup2\n      eq\n      tag_388\n      jumpi\n        /* \"#utility.yul\":14779:14780   */\n      0x01\n        /* \"#utility.yul\":14774:15115   */\n      dup2\n      eq\n      tag_389\n      jumpi\n        /* \"#utility.yul\":14566:15115   */\n      jump(tag_387)\n        /* \"#utility.yul\":14599:14765   */\n    tag_388:\n        /* \"#utility.yul\":14683:14687   */\n      0xff\n        /* \"#utility.yul\":14679:14688   */\n      not\n        /* \"#utility.yul\":14668:14677   */\n      dup4\n        /* \"#utility.yul\":14664:14689   */\n      and\n        /* \"#utility.yul\":14659:14662   */\n      dup7\n        /* \"#utility.yul\":14652:14690   */\n      mstore\n        /* \"#utility.yul\":14745:14751   */\n      dup2\n        /* \"#utility.yul\":14738:14752   */\n      iszero\n        /* \"#utility.yul\":14731:14753   */\n      iszero\n        /* \"#utility.yul\":14723:14729   */\n      dup3\n        /* \"#utility.yul\":14719:14754   */\n      mul\n        /* \"#utility.yul\":14714:14717   */\n      dup7\n        /* \"#utility.yul\":14710:14755   */\n      add\n        /* \"#utility.yul\":14703:14755   */\n      swap4\n      pop\n        /* \"#utility.yul\":14599:14765   */\n      jump(tag_387)\n        /* \"#utility.yul\":14774:15115   */\n    tag_389:\n        /* \"#utility.yul\":14841:14879   */\n      tag_390\n        /* \"#utility.yul\":14873:14878   */\n      dup6\n        /* \"#utility.yul\":14841:14879   */\n      tag_218\n      jump\t// in\n    tag_390:\n        /* \"#utility.yul\":14901:14902   */\n      0x00\n        /* \"#utility.yul\":14915:15069   */\n    tag_391:\n        /* \"#utility.yul\":14929:14935   */\n      dup4\n        /* \"#utility.yul\":14926:14927   */\n      dup2\n        /* \"#utility.yul\":14923:14936   */\n      lt\n        /* \"#utility.yul\":14915:15069   */\n      iszero\n      tag_393\n      jumpi\n        /* \"#utility.yul\":15003:15010   */\n      dup2\n        /* \"#utility.yul\":14997:15011   */\n      sload\n        /* \"#utility.yul\":14993:14994   */\n      dup2\n        /* \"#utility.yul\":14988:14991   */\n      dup10\n        /* \"#utility.yul\":14984:14995   */\n      add\n        /* \"#utility.yul\":14977:15012   */\n      mstore\n        /* \"#utility.yul\":15053:15054   */\n      0x01\n        /* \"#utility.yul\":15044:15051   */\n      dup3\n        /* \"#utility.yul\":15040:15055   */\n      add\n        /* \"#utility.yul\":15029:15055   */\n      swap2\n      pop\n        /* \"#utility.yul\":14951:14955   */\n      0x20\n        /* \"#utility.yul\":14948:14949   */\n      dup2\n        /* \"#utility.yul\":14944:14956   */\n      add\n        /* \"#utility.yul\":14939:14956   */\n      swap1\n      pop\n        /* \"#utility.yul\":14915:15069   */\n      jump(tag_391)\n    tag_393:\n        /* \"#utility.yul\":15098:15104   */\n      dup4\n        /* \"#utility.yul\":15093:15096   */\n      dup9\n        /* \"#utility.yul\":15089:15105   */\n      add\n        /* \"#utility.yul\":15082:15105   */\n      swap6\n      pop\n        /* \"#utility.yul\":14781:15115   */\n      pop\n      pop\n        /* \"#utility.yul\":14566:15115   */\n    tag_387:\n      pop\n        /* \"#utility.yul\":14354:15121   */\n      pop\n      pop\n        /* \"#utility.yul\":14247:15121   */\n      swap3\n      swap2\n      pop\n      pop\n      jump\t// out\n        /* \"#utility.yul\":15127:15396   */\n    tag_96:\n        /* \"#utility.yul\":15256:15259   */\n      0x00\n        /* \"#utility.yul\":15278:15370   */\n      tag_395\n        /* \"#utility.yul\":15366:15369   */\n      dup3\n        /* \"#utility.yul\":15357:15363   */\n      dup5\n        /* \"#utility.yul\":15278:15370   */\n      tag_219\n      jump\t// in\n    tag_395:\n        /* \"#utility.yul\":15271:15370   */\n      swap2\n      pop\n        /* \"#utility.yul\":15387:15390   */\n      dup2\n        /* \"#utility.yul\":15380:15390   */\n      swap1\n      pop\n        /* \"#utility.yul\":15127:15396   */\n      swap3\n      swap2\n      pop\n      pop\n      jump\t// out\n        /* \"#utility.yul\":15402:15579   */\n    tag_220:\n        /* \"#utility.yul\":15542:15571   */\n      0x4f6e6c7920636c7562732063616e207061792073616c61726965730000000000\n        /* \"#utility.yul\":15538:15539   */\n      0x00\n        /* \"#utility.yul\":15530:15536   */\n      dup3\n        /* \"#utility.yul\":15526:15540   */\n      add\n        /* \"#utility.yul\":15519:15572   */\n      mstore\n        /* \"#utility.yul\":15402:15579   */\n      pop\n      jump\t// out\n        /* \"#utility.yul\":15585:15951   */\n    tag_221:\n        /* \"#utility.yul\":15727:15730   */\n      0x00\n        /* \"#utility.yul\":15748:15815   */\n      tag_398\n        /* \"#utility.yul\":15812:15814   */\n      0x1b\n        /* \"#utility.yul\":15807:15810   */\n      dup4\n        /* \"#utility.yul\":15748:15815   */\n      tag_200\n      jump\t// in\n    tag_398:\n        /* \"#utility.yul\":15741:15815   */\n      swap2\n      pop\n        /* \"#utility.yul\":15824:15917   */\n      tag_399\n        /* \"#utility.yul\":15913:15916   */\n      dup3\n        /* \"#utility.yul\":15824:15917   */\n      tag_220\n      jump\t// in\n    tag_399:\n        /* \"#utility.yul\":15942:15944   */\n      0x20\n        /* \"#utility.yul\":15937:15940   */\n      dup3\n        /* \"#utility.yul\":15933:15945   */\n      add\n        /* \"#utility.yul\":15926:15945   */\n      swap1\n      pop\n        /* \"#utility.yul\":15585:15951   */\n      swap2\n      swap1\n      pop\n      jump\t// out\n        /* \"#utility.yul\":15957:16376   */\n    tag_99:\n        /* \"#utility.yul\":16123:16127   */\n      0x00\n        /* \"#utility.yul\":16161:16163   */\n      0x20\n        /* \"#utility.yul\":16150:16159   */\n      dup3\n        /* \"#utility.yul\":16146:16164   */\n      add\n        /* \"#utility.yul\":16138:16164   */\n      swap1\n      pop\n        /* \"#utility.yul\":16210:16219   */\n      dup2\n        /* \"#utility.yul\":16204:16208   */\n      dup2\n        /* \"#utility.yul\":16200:16220   */\n      sub\n        /* \"#utility.yul\":16196:16197   */\n      0x00\n        /* \"#utility.yul\":16185:16194   */\n      dup4\n        /* \"#utility.yul\":16181:16198   */\n      add\n        /* \"#utility.yul\":16174:16221   */\n      mstore\n        /* \"#utility.yul\":16238:16369   */\n      tag_401\n        /* \"#utility.yul\":16364:16368   */\n      dup2\n        /* \"#utility.yul\":16238:16369   */\n      tag_221\n      jump\t// in\n    tag_401:\n        /* \"#utility.yul\":16230:16369   */\n      swap1\n      pop\n        /* \"#utility.yul\":15957:16376   */\n      swap2\n      swap1\n      pop\n      jump\t// out\n        /* \"#utility.yul\":16382:16546   */\n    tag_222:\n        /* \"#utility.yul\":16522:16538   */\n      0x706c617965725075726368617365000000000000000000000000000000000000\n        /* \"#utility.yul\":16518:16519   */\n      0x00\n        /* \"#utility.yul\":16510:16516   */\n      dup3\n        /* \"#utility.yul\":16506:16520   */\n      add\n        /* \"#utility.yul\":16499:16539   */\n      mstore\n        /* \"#utility.yul\":16382:16546   */\n      pop\n      jump\t// out\n        /* \"#utility.yul\":16552:16954   */\n    tag_223:\n        /* \"#utility.yul\":16712:16715   */\n      0x00\n        /* \"#utility.yul\":16733:16818   */\n      tag_404\n        /* \"#utility.yul\":16815:16817   */\n      0x0e\n        /* \"#utility.yul\":16810:16813   */\n      dup4\n        /* \"#utility.yul\":16733:16818   */\n      tag_212\n      jump\t// in\n    tag_404:\n        /* \"#utility.yul\":16726:16818   */\n      swap2\n      pop\n        /* \"#utility.yul\":16827:16920   */\n      tag_405\n        /* \"#utility.yul\":16916:16919   */\n      dup3\n        /* \"#utility.yul\":16827:16920   */\n      tag_222\n      jump\t// in\n    tag_405:\n        /* \"#utility.yul\":16945:16947   */\n      0x0e\n        /* \"#utility.yul\":16940:16943   */\n      dup3\n        /* \"#utility.yul\":16936:16948   */\n      add\n        /* \"#utility.yul\":16929:16948   */\n      swap1\n      pop\n        /* \"#utility.yul\":16552:16954   */\n      swap2\n      swap1\n      pop\n      jump\t// out\n        /* \"#utility.yul\":16960:17341   */\n    tag_102:\n        /* \"#utility.yul\":17145:17148   */\n      0x00\n        /* \"#utility.yul\":17167:17315   */\n      tag_407\n        /* \"#utility.yul\":17311:17314   */\n      dup3\n        /* \"#utility.yul\":17167:17315   */\n      tag_223\n      jump\t// in\n    tag_407:\n        /* \"#utility.yul\":17160:17315   */\n      swap2\n      pop\n        /* \"#utility.yul\":17332:17335   */\n      dup2\n        /* \"#utility.yul\":17325:17335   */\n      swap1\n      pop\n        /* \"#utility.yul\":16960:17341   */\n      swap2\n      swap1\n      pop\n      jump\t// out\n        /* \"#utility.yul\":17347:17528   */\n    tag_224:\n        /* \"#utility.yul\":17487:17520   */\n      0x4f6e6c7920636c7562732063616e20707572636861736520706c617965727300\n        /* \"#utility.yul\":17483:17484   */\n      0x00\n        /* \"#utility.yul\":17475:17481   */\n      dup3\n        /* \"#utility.yul\":17471:17485   */\n      add\n        /* \"#utility.yul\":17464:17521   */\n      mstore\n        /* \"#utility.yul\":17347:17528   */\n      pop\n      jump\t// out\n        /* \"#utility.yul\":17534:17900   */\n    tag_225:\n        /* \"#utility.yul\":17676:17679   */\n      0x00\n        /* \"#utility.yul\":17697:17764   */\n      tag_410\n        /* \"#utility.yul\":17761:17763   */\n      0x1f\n        /* \"#utility.yul\":17756:17759   */\n      dup4\n        /* \"#utility.yul\":17697:17764   */\n      tag_200\n      jump\t// in\n    tag_410:\n        /* \"#utility.yul\":17690:17764   */\n      swap2\n      pop\n        /* \"#utility.yul\":17773:17866   */\n      tag_411\n        /* \"#utility.yul\":17862:17865   */\n      dup3\n        /* \"#utility.yul\":17773:17866   */\n      tag_224\n      jump\t// in\n    tag_411:\n        /* \"#utility.yul\":17891:17893   */\n      0x20\n        /* \"#utility.yul\":17886:17889   */\n      dup3\n        /* \"#utility.yul\":17882:17894   */\n      add\n        /* \"#utility.yul\":17875:17894   */\n      swap1\n      pop\n        /* \"#utility.yul\":17534:17900   */\n      swap2\n      swap1\n      pop\n      jump\t// out\n        /* \"#utility.yul\":17906:18325   */\n    tag_109:\n        /* \"#utility.yul\":18072:18076   */\n      0x00\n        /* \"#utility.yul\":18110:18112   */\n      0x20\n        /* \"#utility.yul\":18099:18108   */\n      dup3\n        /* \"#utility.yul\":18095:18113   */\n      add\n        /* \"#utility.yul\":18087:18113   */\n      swap1\n      pop\n        /* \"#utility.yul\":18159:18168   */\n      dup2\n        /* \"#utility.yul\":18153:18157   */\n      dup2\n        /* \"#utility.yul\":18149:18169   */\n      sub\n        /* \"#utility.yul\":18145:18146   */\n      0x00\n        /* \"#utility.yul\":18134:18143   */\n      dup4\n        /* \"#utility.yul\":18130:18147   */\n      add\n        /* \"#utility.yul\":18123:18170   */\n      mstore\n        /* \"#utility.yul\":18187:18318   */\n      tag_413\n        /* \"#utility.yul\":18313:18317   */\n      dup2\n        /* \"#utility.yul\":18187:18318   */\n      tag_225\n      jump\t// in\n    tag_413:\n        /* \"#utility.yul\":18179:18318   */\n      swap1\n      pop\n        /* \"#utility.yul\":17906:18325   */\n      swap2\n      swap1\n      pop\n      jump\t// out\n        /* \"#utility.yul\":18331:18504   */\n    tag_226:\n        /* \"#utility.yul\":18471:18496   */\n      0x5265636569766572206d757374206265206120636c7562000000000000000000\n        /* \"#utility.yul\":18467:18468   */\n      0x00\n        /* \"#utility.yul\":18459:18465   */\n      dup3\n        /* \"#utility.yul\":18455:18469   */\n      add\n        /* \"#utility.yul\":18448:18497   */\n      mstore\n        /* \"#utility.yul\":18331:18504   */\n      pop\n      jump\t// out\n        /* \"#utility.yul\":18510:18876   */\n    tag_227:\n        /* \"#utility.yul\":18652:18655   */\n      0x00\n        /* \"#utility.yul\":18673:18740   */\n      tag_416\n        /* \"#utility.yul\":18737:18739   */\n      0x17\n        /* \"#utility.yul\":18732:18735   */\n      dup4\n        /* \"#utility.yul\":18673:18740   */\n      tag_200\n      jump\t// in\n    tag_416:\n        /* \"#utility.yul\":18666:18740   */\n      swap2\n      pop\n        /* \"#utility.yul\":18749:18842   */\n      tag_417\n        /* \"#utility.yul\":18838:18841   */\n      dup3\n        /* \"#utility.yul\":18749:18842   */\n      tag_226\n      jump\t// in\n    tag_417:\n        /* \"#utility.yul\":18867:18869   */\n      0x20\n        /* \"#utility.yul\":18862:18865   */\n      dup3\n        /* \"#utility.yul\":18858:18870   */\n      add\n        /* \"#utility.yul\":18851:18870   */\n      swap1\n      pop\n        /* \"#utility.yul\":18510:18876   */\n      swap2\n      swap1\n      pop\n      jump\t// out\n        /* \"#utility.yul\":18882:19301   */\n    tag_114:\n        /* \"#utility.yul\":19048:19052   */\n      0x00\n        /* \"#utility.yul\":19086:19088   */\n      0x20\n        /* \"#utility.yul\":19075:19084   */\n      dup3\n        /* \"#utility.yul\":19071:19089   */\n      add\n        /* \"#utility.yul\":19063:19089   */\n      swap1\n      pop\n        /* \"#utility.yul\":19135:19144   */\n      dup2\n        /* \"#utility.yul\":19129:19133   */\n      dup2\n        /* \"#utility.yul\":19125:19145   */\n      sub\n        /* \"#utility.yul\":19121:19122   */\n      0x00\n        /* \"#utility.yul\":19110:19119   */\n      dup4\n        /* \"#utility.yul\":19106:19123   */\n      add\n        /* \"#utility.yul\":19099:19146   */\n      mstore\n        /* \"#utility.yul\":19163:19294   */\n      tag_419\n        /* \"#utility.yul\":19289:19293   */\n      dup2\n        /* \"#utility.yul\":19163:19294   */\n      tag_227\n      jump\t// in\n    tag_419:\n        /* \"#utility.yul\":19155:19294   */\n      swap1\n      pop\n        /* \"#utility.yul\":18882:19301   */\n      swap2\n      swap1\n      pop\n      jump\t// out\n        /* \"#utility.yul\":19307:19717   */\n    tag_117:\n        /* \"#utility.yul\":19347:19354   */\n      0x00\n        /* \"#utility.yul\":19370:19390   */\n      tag_421\n        /* \"#utility.yul\":19388:19389   */\n      dup3\n        /* \"#utility.yul\":19370:19390   */\n      tag_178\n      jump\t// in\n    tag_421:\n        /* \"#utility.yul\":19365:19390   */\n      swap2\n      pop\n        /* \"#utility.yul\":19404:19424   */\n      tag_422\n        /* \"#utility.yul\":19422:19423   */\n      dup4\n        /* \"#utility.yul\":19404:19424   */\n      tag_178\n      jump\t// in\n    tag_422:\n        /* \"#utility.yul\":19399:19424   */\n      swap3\n      pop\n        /* \"#utility.yul\":19459:19460   */\n      dup3\n        /* \"#utility.yul\":19456:19457   */\n      dup3\n        /* \"#utility.yul\":19452:19461   */\n      mul\n        /* \"#utility.yul\":19481:19511   */\n      tag_423\n        /* \"#utility.yul\":19499:19510   */\n      dup2\n        /* \"#utility.yul\":19481:19511   */\n      tag_178\n      jump\t// in\n    tag_423:\n        /* \"#utility.yul\":19470:19511   */\n      swap2\n      pop\n        /* \"#utility.yul\":19660:19661   */\n      dup3\n        /* \"#utility.yul\":19651:19658   */\n      dup3\n        /* \"#utility.yul\":19647:19662   */\n      div\n        /* \"#utility.yul\":19644:19645   */\n      dup5\n        /* \"#utility.yul\":19641:19663   */\n      eq\n        /* \"#utility.yul\":19621:19622   */\n      dup4\n        /* \"#utility.yul\":19614:19623   */\n      iszero\n        /* \"#utility.yul\":19594:19677   */\n      or\n        /* \"#utility.yul\":19571:19710   */\n      tag_424\n      jumpi\n        /* \"#utility.yul\":19690:19708   */\n      tag_425\n      tag_206\n      jump\t// in\n    tag_425:\n        /* \"#utility.yul\":19571:19710   */\n    tag_424:\n        /* \"#utility.yul\":19355:19717   */\n      pop\n        /* \"#utility.yul\":19307:19717   */\n      swap3\n      swap2\n      pop\n      pop\n      jump\t// out\n        /* \"#utility.yul\":19723:19903   */\n    tag_228:\n        /* \"#utility.yul\":19771:19848   */\n      0x4e487b7100000000000000000000000000000000000000000000000000000000\n        /* \"#utility.yul\":19768:19769   */\n      0x00\n        /* \"#utility.yul\":19761:19849   */\n      mstore\n        /* \"#utility.yul\":19868:19872   */\n      0x12\n        /* \"#utility.yul\":19865:19866   */\n      0x04\n        /* \"#utility.yul\":19858:19873   */\n      mstore\n        /* \"#utility.yul\":19892:19896   */\n      0x24\n        /* \"#utility.yul\":19889:19890   */\n      0x00\n        /* \"#utility.yul\":19882:19897   */\n      revert\n        /* \"#utility.yul\":19909:20094   */\n    tag_119:\n        /* \"#utility.yul\":19949:19950   */\n      0x00\n        /* \"#utility.yul\":19966:19986   */\n      tag_428\n        /* \"#utility.yul\":19984:19985   */\n      dup3\n        /* \"#utility.yul\":19966:19986   */\n      tag_178\n      jump\t// in\n    tag_428:\n        /* \"#utility.yul\":19961:19986   */\n      swap2\n      pop\n        /* \"#utility.yul\":20000:20020   */\n      tag_429\n        /* \"#utility.yul\":20018:20019   */\n      dup4\n        /* \"#utility.yul\":20000:20020   */\n      tag_178\n      jump\t// in\n    tag_429:\n        /* \"#utility.yul\":19995:20020   */\n      swap3\n      pop\n        /* \"#utility.yul\":20039:20040   */\n      dup3\n        /* \"#utility.yul\":20029:20064   */\n      tag_430\n      jumpi\n        /* \"#utility.yul\":20044:20062   */\n      tag_431\n      tag_228\n      jump\t// in\n    tag_431:\n        /* \"#utility.yul\":20029:20064   */\n    tag_430:\n        /* \"#utility.yul\":20086:20087   */\n      dup3\n        /* \"#utility.yul\":20083:20084   */\n      dup3\n        /* \"#utility.yul\":20079:20088   */\n      div\n        /* \"#utility.yul\":20074:20088   */\n      swap1\n      pop\n        /* \"#utility.yul\":19909:20094   */\n      swap3\n      swap2\n      pop\n      pop\n      jump\t// out\n        /* \"#utility.yul\":20100:20337   */\n    tag_229:\n        /* \"#utility.yul\":20240:20274   */\n      0x436c7562277320726576656e7565206d757374206265206174206c6561737420\n        /* \"#utility.yul\":20236:20237   */\n      0x00\n        /* \"#utility.yul\":20228:20234   */\n      dup3\n        /* \"#utility.yul\":20224:20238   */\n      add\n        /* \"#utility.yul\":20217:20275   */\n      mstore\n        /* \"#utility.yul\":20309:20329   */\n      0x373025206f6620416d6f756e742073656e740000000000000000000000000000\n        /* \"#utility.yul\":20304:20306   */\n      0x20\n        /* \"#utility.yul\":20296:20302   */\n      dup3\n        /* \"#utility.yul\":20292:20307   */\n      add\n        /* \"#utility.yul\":20285:20330   */\n      mstore\n        /* \"#utility.yul\":20100:20337   */\n      pop\n      jump\t// out\n        /* \"#utility.yul\":20343:20709   */\n    tag_230:\n        /* \"#utility.yul\":20485:20488   */\n      0x00\n        /* \"#utility.yul\":20506:20573   */\n      tag_434\n        /* \"#utility.yul\":20570:20572   */\n      0x32\n        /* \"#utility.yul\":20565:20568   */\n      dup4\n        /* \"#utility.yul\":20506:20573   */\n      tag_200\n      jump\t// in\n    tag_434:\n        /* \"#utility.yul\":20499:20573   */\n      swap2\n      pop\n        /* \"#utility.yul\":20582:20675   */\n      tag_435\n        /* \"#utility.yul\":20671:20674   */\n      dup3\n        /* \"#utility.yul\":20582:20675   */\n      tag_229\n      jump\t// in\n    tag_435:\n        /* \"#utility.yul\":20700:20702   */\n      0x40\n        /* \"#utility.yul\":20695:20698   */\n      dup3\n        /* \"#utility.yul\":20691:20703   */\n      add\n        /* \"#utility.yul\":20684:20703   */\n      swap1\n      pop\n        /* \"#utility.yul\":20343:20709   */\n      swap2\n      swap1\n      pop\n      jump\t// out\n        /* \"#utility.yul\":20715:21134   */\n    tag_122:\n        /* \"#utility.yul\":20881:20885   */\n      0x00\n        /* \"#utility.yul\":20919:20921   */\n      0x20\n        /* \"#utility.yul\":20908:20917   */\n      dup3\n        /* \"#utility.yul\":20904:20922   */\n      add\n        /* \"#utility.yul\":20896:20922   */\n      swap1\n      pop\n        /* \"#utility.yul\":20968:20977   */\n      dup2\n        /* \"#utility.yul\":20962:20966   */\n      dup2\n        /* \"#utility.yul\":20958:20978   */\n      sub\n        /* \"#utility.yul\":20954:20955   */\n      0x00\n        /* \"#utility.yul\":20943:20952   */\n      dup4\n        /* \"#utility.yul\":20939:20956   */\n      add\n        /* \"#utility.yul\":20932:20979   */\n      mstore\n        /* \"#utility.yul\":20996:21127   */\n      tag_437\n        /* \"#utility.yul\":21122:21126   */\n      dup2\n        /* \"#utility.yul\":20996:21127   */\n      tag_230\n      jump\t// in\n    tag_437:\n        /* \"#utility.yul\":20988:21127   */\n      swap1\n      pop\n        /* \"#utility.yul\":20715:21134   */\n      swap2\n      swap1\n      pop\n      jump\t// out\n        /* \"#utility.yul\":21140:21331   */\n    tag_124:\n        /* \"#utility.yul\":21180:21183   */\n      0x00\n        /* \"#utility.yul\":21199:21219   */\n      tag_439\n        /* \"#utility.yul\":21217:21218   */\n      dup3\n        /* \"#utility.yul\":21199:21219   */\n      tag_178\n      jump\t// in\n    tag_439:\n        /* \"#utility.yul\":21194:21219   */\n      swap2\n      pop\n        /* \"#utility.yul\":21233:21253   */\n      tag_440\n        /* \"#utility.yul\":21251:21252   */\n      dup4\n        /* \"#utility.yul\":21233:21253   */\n      tag_178\n      jump\t// in\n    tag_440:\n        /* \"#utility.yul\":21228:21253   */\n      swap3\n      pop\n        /* \"#utility.yul\":21276:21277   */\n      dup3\n        /* \"#utility.yul\":21273:21274   */\n      dup3\n        /* \"#utility.yul\":21269:21278   */\n      add\n        /* \"#utility.yul\":21262:21278   */\n      swap1\n      pop\n        /* \"#utility.yul\":21297:21300   */\n      dup1\n        /* \"#utility.yul\":21294:21295   */\n      dup3\n        /* \"#utility.yul\":21291:21301   */\n      gt\n        /* \"#utility.yul\":21288:21324   */\n      iszero\n      tag_441\n      jumpi\n        /* \"#utility.yul\":21304:21322   */\n      tag_442\n      tag_206\n      jump\t// in\n    tag_442:\n        /* \"#utility.yul\":21288:21324   */\n    tag_441:\n        /* \"#utility.yul\":21140:21331   */\n      swap3\n      swap2\n      pop\n      pop\n      jump\t// out\n        /* \"#utility.yul\":21337:21760   */\n    tag_129:\n        /* \"#utility.yul\":21478:21482   */\n      0x00\n        /* \"#utility.yul\":21516:21518   */\n      0x40\n        /* \"#utility.yul\":21505:21514   */\n      dup3\n        /* \"#utility.yul\":21501:21519   */\n      add\n        /* \"#utility.yul\":21493:21519   */\n      swap1\n      pop\n        /* \"#utility.yul\":21529:21600   */\n      tag_444\n        /* \"#utility.yul\":21597:21598   */\n      0x00\n        /* \"#utility.yul\":21586:21595   */\n      dup4\n        /* \"#utility.yul\":21582:21599   */\n      add\n        /* \"#utility.yul\":21573:21579   */\n      dup6\n        /* \"#utility.yul\":21529:21600   */\n      tag_179\n      jump\t// in\n    tag_444:\n        /* \"#utility.yul\":21647:21656   */\n      dup2\n        /* \"#utility.yul\":21641:21645   */\n      dup2\n        /* \"#utility.yul\":21637:21657   */\n      sub\n        /* \"#utility.yul\":21632:21634   */\n      0x20\n        /* \"#utility.yul\":21621:21630   */\n      dup4\n        /* \"#utility.yul\":21617:21635   */\n      add\n        /* \"#utility.yul\":21610:21658   */\n      mstore\n        /* \"#utility.yul\":21675:21753   */\n      tag_445\n        /* \"#utility.yul\":21748:21752   */\n      dup2\n        /* \"#utility.yul\":21739:21745   */\n      dup5\n        /* \"#utility.yul\":21675:21753   */\n      tag_202\n      jump\t// in\n    tag_445:\n        /* \"#utility.yul\":21667:21753   */\n      swap1\n      pop\n        /* \"#utility.yul\":21337:21760   */\n      swap4\n      swap3\n      pop\n      pop\n      pop\n      jump\t// out\n        /* \"#utility.yul\":21766:21941   */\n    tag_231:\n        /* \"#utility.yul\":21906:21933   */\n      0x57616c6c657420616c7265616479207265676973746572656400000000000000\n        /* \"#utility.yul\":21902:21903   */\n      0x00\n        /* \"#utility.yul\":21894:21900   */\n      dup3\n        /* \"#utility.yul\":21890:21904   */\n      add\n        /* \"#utility.yul\":21883:21934   */\n      mstore\n        /* \"#utility.yul\":21766:21941   */\n      pop\n      jump\t// out\n        /* \"#utility.yul\":21947:22313   */\n    tag_232:\n        /* \"#utility.yul\":22089:22092   */\n      0x00\n        /* \"#utility.yul\":22110:22177   */\n      tag_448\n        /* \"#utility.yul\":22174:22176   */\n      0x19\n        /* \"#utility.yul\":22169:22172   */\n      dup4\n        /* \"#utility.yul\":22110:22177   */\n      tag_200\n      jump\t// in\n    tag_448:\n        /* \"#utility.yul\":22103:22177   */\n      swap2\n      pop\n        /* \"#utility.yul\":22186:22279   */\n      tag_449\n        /* \"#utility.yul\":22275:22278   */\n      dup3\n        /* \"#utility.yul\":22186:22279   */\n      tag_231\n      jump\t// in\n    tag_449:\n        /* \"#utility.yul\":22304:22306   */\n      0x20\n        /* \"#utility.yul\":22299:22302   */\n      dup3\n        /* \"#utility.yul\":22295:22307   */\n      add\n        /* \"#utility.yul\":22288:22307   */\n      swap1\n      pop\n        /* \"#utility.yul\":21947:22313   */\n      swap2\n      swap1\n      pop\n      jump\t// out\n        /* \"#utility.yul\":22319:22738   */\n    tag_148:\n        /* \"#utility.yul\":22485:22489   */\n      0x00\n        /* \"#utility.yul\":22523:22525   */\n      0x20\n        /* \"#utility.yul\":22512:22521   */\n      dup3\n        /* \"#utility.yul\":22508:22526   */\n      add\n        /* \"#utility.yul\":22500:22526   */\n      swap1\n      pop\n        /* \"#utility.yul\":22572:22581   */\n      dup2\n        /* \"#utility.yul\":22566:22570   */\n      dup2\n        /* \"#utility.yul\":22562:22582   */\n      sub\n        /* \"#utility.yul\":22558:22559   */\n      0x00\n        /* \"#utility.yul\":22547:22556   */\n      dup4\n        /* \"#utility.yul\":22543:22560   */\n      add\n        /* \"#utility.yul\":22536:22583   */\n      mstore\n        /* \"#utility.yul\":22600:22731   */\n      tag_451\n        /* \"#utility.yul\":22726:22730   */\n      dup2\n        /* \"#utility.yul\":22600:22731   */\n      tag_232\n      jump\t// in\n    tag_451:\n        /* \"#utility.yul\":22592:22731   */\n      swap1\n      pop\n        /* \"#utility.yul\":22319:22738   */\n      swap2\n      swap1\n      pop\n      jump\t// out\n        /* \"#utility.yul\":22744:22837   */\n    tag_233:\n        /* \"#utility.yul\":22781:22787   */\n      0x00\n        /* \"#utility.yul\":22828:22830   */\n      0x20\n        /* \"#utility.yul\":22823:22825   */\n      0x1f\n        /* \"#utility.yul\":22816:22821   */\n      dup4\n        /* \"#utility.yul\":22812:22826   */\n      add\n        /* \"#utility.yul\":22808:22831   */\n      div\n        /* \"#utility.yul\":22798:22831   */\n      swap1\n      pop\n        /* \"#utility.yul\":22744:22837   */\n      swap2\n      swap1\n      pop\n      jump\t// out\n        /* \"#utility.yul\":22843:22950   */\n    tag_234:\n        /* \"#utility.yul\":22887:22895   */\n      0x00\n        /* \"#utility.yul\":22937:22942   */\n      dup3\n        /* \"#utility.yul\":22931:22935   */\n      dup3\n        /* \"#utility.yul\":22927:22943   */\n      shl\n        /* \"#utility.yul\":22906:22943   */\n      swap1\n      pop\n        /* \"#utility.yul\":22843:22950   */\n      swap3\n      swap2\n      pop\n      pop\n      jump\t// out\n        /* \"#utility.yul\":22956:23349   */\n    tag_235:\n        /* \"#utility.yul\":23025:23031   */\n      0x00\n        /* \"#utility.yul\":23075:23076   */\n      0x08\n        /* \"#utility.yul\":23063:23073   */\n      dup4\n        /* \"#utility.yul\":23059:23077   */\n      mul\n        /* \"#utility.yul\":23098:23195   */\n      tag_455\n        /* \"#utility.yul\":23128:23194   */\n      0xffffffffffffffffffffffffffffffffffffffffffffffffffffffffffffffff\n        /* \"#utility.yul\":23117:23126   */\n      dup3\n        /* \"#utility.yul\":23098:23195   */\n      tag_234\n      jump\t// in\n    tag_455:\n        /* \"#utility.yul\":23216:23255   */\n      tag_456\n        /* \"#utility.yul\":23246:23254   */\n      dup7\n        /* \"#utility.yul\":23235:23244   */\n      dup4\n        /* \"#utility.yul\":23216:23255   */\n      tag_234\n      jump\t// in\n    tag_456:\n        /* \"#utility.yul\":23204:23255   */\n      swap6\n      pop\n        /* \"#utility.yul\":23288:23292   */\n      dup1\n        /* \"#utility.yul\":23284:23293   */\n      not\n        /* \"#utility.yul\":23277:23282   */\n      dup5\n        /* \"#utility.yul\":23273:23294   */\n      and\n        /* \"#utility.yul\":23264:23294   */\n      swap4\n      pop\n        /* \"#utility.yul\":23337:23341   */\n      dup1\n        /* \"#utility.yul\":23327:23335   */\n      dup7\n        /* \"#utility.yul\":23323:23342   */\n      and\n        /* \"#utility.yul\":23316:23321   */\n      dup5\n        /* \"#utility.yul\":23313:23343   */\n      or\n        /* \"#utility.yul\":23303:23343   */\n      swap3\n      pop\n        /* \"#utility.yul\":23032:23349   */\n      pop\n      pop\n        /* \"#utility.yul\":22956:23349   */\n      swap4\n      swap3\n      pop\n      pop\n      pop\n      jump\t// out\n        /* \"#utility.yul\":23355:23415   */\n    tag_236:\n        /* \"#utility.yul\":23383:23386   */\n      0x00\n        /* \"#utility.yul\":23404:23409   */\n      dup2\n        /* \"#utility.yul\":23397:23409   */\n      swap1\n      pop\n        /* \"#utility.yul\":23355:23415   */\n      swap2\n      swap1\n      pop\n      jump\t// out\n        /* \"#utility.yul\":23421:23563   */\n    tag_237:\n        /* \"#utility.yul\":23471:23480   */\n      0x00\n        /* \"#utility.yul\":23504:23557   */\n      tag_459\n        /* \"#utility.yul\":23522:23556   */\n      tag_460\n        /* \"#utility.yul\":23531:23555   */\n      tag_461\n        /* \"#utility.yul\":23549:23554   */\n      dup5\n        /* \"#utility.yul\":23531:23555   */\n      tag_178\n      jump\t// in\n    tag_461:\n        /* \"#utility.yul\":23522:23556   */\n      tag_236\n      jump\t// in\n    tag_460:\n        /* \"#utility.yul\":23504:23557   */\n      tag_178\n      jump\t// in\n    tag_459:\n        /* \"#utility.yul\":23491:23557   */\n      swap1\n      pop\n        /* \"#utility.yul\":23421:23563   */\n      swap2\n      swap1\n      pop\n      jump\t// out\n        /* \"#utility.yul\":23569:23644   */\n    tag_238:\n        /* \"#utility.yul\":23612:23615   */\n      0x00\n        /* \"#utility.yul\":23633:23638   */\n      dup2\n        /* \"#utility.yul\":23626:23638   */\n      swap1\n      pop\n        /* \"#utility.yul\":23569:23644   */\n      swap2\n      swap1\n      pop\n      jump\t// out\n        /* \"#utility.yul\":23650:23919   */\n    tag_239:\n        /* \"#utility.yul\":23760:23799   */\n      tag_464\n        /* \"#utility.yul\":23791:23798   */\n      dup4\n        /* \"#utility.yul\":23760:23799   */\n      tag_237\n      jump\t// in\n    tag_464:\n        /* \"#utility.yul\":23821:23912   */\n      tag_465\n        /* \"#utility.yul\":23870:23911   */\n      tag_466\n        /* \"#utility.yul\":23894:23910   */\n      dup3\n        /* \"#utility.yul\":23870:23911   */\n      tag_238\n      jump\t// in\n    tag_466:\n        /* \"#utility.yul\":23862:23868   */\n      dup5\n        /* \"#utility.yul\":23855:23859   */\n      dup5\n        /* \"#utility.yul\":23849:23860   */\n      sload\n        /* \"#utility.yul\":23821:23912   */\n      tag_235\n      jump\t// in\n    tag_465:\n        /* \"#utility.yul\":23815:23819   */\n      dup3\n        /* \"#utility.yul\":23808:23913   */\n      sstore\n        /* \"#utility.yul\":23726:23919   */\n      pop\n        /* \"#utility.yul\":23650:23919   */\n      pop\n      pop\n      pop\n      jump\t// out\n        /* \"#utility.yul\":23925:23998   */\n    tag_240:\n        /* \"#utility.yul\":23970:23973   */\n      0x00\n        /* \"#utility.yul\":23925:23998   */\n      swap1\n      jump\t// out\n        /* \"#utility.yul\":24004:24193   */\n    tag_241:\n        /* \"#utility.yul\":24081:24113   */\n      tag_469\n      tag_240\n      jump\t// in\n    tag_469:\n        /* \"#utility.yul\":24122:24187   */\n      tag_470\n        /* \"#utility.yul\":24180:24186   */\n      dup2\n        /* \"#utility.yul\":24172:24178   */\n      dup5\n        /* \"#utility.yul\":24166:24170   */\n      dup5\n        /* \"#utility.yul\":24122:24187   */\n      tag_239\n      jump\t// in\n    tag_470:\n        /* \"#utility.yul\":24057:24193   */\n      pop\n        /* \"#utility.yul\":24004:24193   */\n      pop\n      pop\n      jump\t// out\n        /* \"#utility.yul\":24199:24385   */\n    tag_242:\n        /* \"#utility.yul\":24259:24379   */\n    tag_472:\n        /* \"#utility.yul\":24276:24279   */\n      dup2\n        /* \"#utility.yul\":24269:24274   */\n      dup2\n        /* \"#utility.yul\":24266:24280   */\n      lt\n        /* \"#utility.yul\":24259:24379   */\n      iszero\n      tag_474\n      jumpi\n        /* \"#utility.yul\":24330:24369   */\n      tag_475\n        /* \"#utility.yul\":24367:24368   */\n      0x00\n        /* \"#utility.yul\":24360:24365   */\n      dup3\n        /* \"#utility.yul\":24330:24369   */\n      tag_241\n      jump\t// in\n    tag_475:\n        /* \"#utility.yul\":24303:24304   */\n      0x01\n        /* \"#utility.yul\":24296:24301   */\n      dup2\n        /* \"#utility.yul\":24292:24305   */\n      add\n        /* \"#utility.yul\":24283:24305   */\n      swap1\n      pop\n        /* \"#utility.yul\":24259:24379   */\n      jump(tag_472)\n    tag_474:\n        /* \"#utility.yul\":24199:24385   */\n      pop\n      pop\n      jump\t// out\n        /* \"#utility.yul\":24391:24934   */\n    tag_243:\n        /* \"#utility.yul\":24492:24494   */\n      0x1f\n        /* \"#utility.yul\":24487:24490   */\n      dup3\n        /* \"#utility.yul\":24484:24495   */\n      gt\n        /* \"#utility.yul\":24481:24927   */\n      iszero\n      tag_477\n      jumpi\n        /* \"#utility.yul\":24526:24564   */\n      tag_478\n        /* \"#utility.yul\":24558:24563   */\n      dup2\n        /* \"#utility.yul\":24526:24564   */\n      tag_218\n      jump\t// in\n    tag_478:\n        /* \"#utility.yul\":24610:24639   */\n      tag_479\n        /* \"#utility.yul\":24628:24638   */\n      dup5\n        /* \"#utility.yul\":24610:24639   */\n      tag_233\n      jump\t// in\n    tag_479:\n        /* \"#utility.yul\":24600:24608   */\n      dup2\n        /* \"#utility.yul\":24596:24640   */\n      add\n        /* \"#utility.yul\":24793:24795   */\n      0x20\n        /* \"#utility.yul\":24781:24791   */\n      dup6\n        /* \"#utility.yul\":24778:24796   */\n      lt\n        /* \"#utility.yul\":24775:24824   */\n      iszero\n      tag_480\n      jumpi\n        /* \"#utility.yul\":24814:24822   */\n      dup2\n        /* \"#utility.yul\":24799:24822   */\n      swap1\n      pop\n        /* \"#utility.yul\":24775:24824   */\n    tag_480:\n        /* \"#utility.yul\":24837:24917   */\n      tag_481\n        /* \"#utility.yul\":24893:24915   */\n      tag_482\n        /* \"#utility.yul\":24911:24914   */\n      dup6\n        /* \"#utility.yul\":24893:24915   */\n      tag_233\n      jump\t// in\n    tag_482:\n        /* \"#utility.yul\":24883:24891   */\n      dup4\n        /* \"#utility.yul\":24879:24916   */\n      add\n        /* \"#utility.yul\":24866:24877   */\n      dup3\n        /* \"#utility.yul\":24837:24917   */\n      tag_242\n      jump\t// in\n    tag_481:\n        /* \"#utility.yul\":24496:24927   */\n      pop\n      pop\n        /* \"#utility.yul\":24481:24927   */\n    tag_477:\n        /* \"#utility.yul\":24391:24934   */\n      pop\n      pop\n      pop\n      jump\t// out\n        /* \"#utility.yul\":24940:25057   */\n    tag_244:\n        /* \"#utility.yul\":24994:25002   */\n      0x00\n        /* \"#utility.yul\":25044:25049   */\n      dup3\n        /* \"#utility.yul\":25038:25042   */\n      dup3\n        /* \"#utility.yul\":25034:25050   */\n      shr\n        /* \"#utility.yul\":25013:25050   */\n      swap1\n      pop\n        /* \"#utility.yul\":24940:25057   */\n      swap3\n      swap2\n      pop\n      pop\n      jump\t// out\n        /* \"#utility.yul\":25063:25232   */\n    tag_245:\n        /* \"#utility.yul\":25107:25113   */\n      0x00\n        /* \"#utility.yul\":25140:25191   */\n      tag_485\n        /* \"#utility.yul\":25188:25189   */\n      0x00\n        /* \"#utility.yul\":25184:25190   */\n      not\n        /* \"#utility.yul\":25176:25181   */\n      dup5\n        /* \"#utility.yul\":25173:25174   */\n      0x08\n        /* \"#utility.yul\":25169:25182   */\n      mul\n        /* \"#utility.yul\":25140:25191   */\n      tag_244\n      jump\t// in\n    tag_485:\n        /* \"#utility.yul\":25136:25192   */\n      not\n        /* \"#utility.yul\":25221:25225   */\n      dup1\n        /* \"#utility.yul\":25215:25219   */\n      dup4\n        /* \"#utility.yul\":25211:25226   */\n      and\n        /* \"#utility.yul\":25201:25226   */\n      swap2\n      pop\n        /* \"#utility.yul\":25114:25232   */\n      pop\n        /* \"#utility.yul\":25063:25232   */\n      swap3\n      swap2\n      pop\n      pop\n      jump\t// out\n        /* \"#utility.yul\":25237:25532   */\n    tag_246:\n        /* \"#utility.yul\":25313:25317   */\n      0x00\n        /* \"#utility.yul\":25459:25488   */\n      tag_487\n        /* \"#utility.yul\":25484:25487   */\n      dup4\n        /* \"#utility.yul\":25478:25482   */\n      dup4\n        /* \"#utility.yul\":25459:25488   */\n      tag_245\n      jump\t// in\n    tag_487:\n        /* \"#utility.yul\":25451:25488   */\n      swap2\n      pop\n        /* \"#utility.yul\":25521:25524   */\n      dup3\n        /* \"#utility.yul\":25518:25519   */\n      0x02\n        /* \"#utility.yul\":25514:25525   */\n      mul\n        /* \"#utility.yul\":25508:25512   */\n      dup3\n        /* \"#utility.yul\":25505:25526   */\n      or\n        /* \"#utility.yul\":25497:25526   */\n      swap1\n      pop\n        /* \"#utility.yul\":25237:25532   */\n      swap3\n      swap2\n      pop\n      pop\n      jump\t// out\n        /* \"#utility.yul\":25537:26932   */\n    tag_150:\n        /* \"#utility.yul\":25654:25691   */\n      tag_489\n        /* \"#utility.yul\":25687:25690   */\n      dup3\n        /* \"#utility.yul\":25654:25691   */\n      tag_199\n      jump\t// in\n    tag_489:\n        /* \"#utility.yul\":25756:25774   */\n      0xffffffffffffffff\n        /* \"#utility.yul\":25748:25754   */\n      dup2\n        /* \"#utility.yul\":25745:25775   */\n      gt\n        /* \"#utility.yul\":25742:25798   */\n      iszero\n      tag_490\n      jumpi\n        /* \"#utility.yul\":25778:25796   */\n      tag_491\n      tag_192\n      jump\t// in\n    tag_491:\n        /* \"#utility.yul\":25742:25798   */\n    tag_490:\n        /* \"#utility.yul\":25822:25860   */\n      tag_492\n        /* \"#utility.yul\":25854:25858   */\n      dup3\n        /* \"#utility.yul\":25848:25859   */\n      sload\n        /* \"#utility.yul\":25822:25860   */\n      tag_78\n      jump\t// in\n    tag_492:\n        /* \"#utility.yul\":25907:25974   */\n      tag_493\n        /* \"#utility.yul\":25967:25973   */\n      dup3\n        /* \"#utility.yul\":25959:25965   */\n      dup3\n        /* \"#utility.yul\":25953:25957   */\n      dup6\n        /* \"#utility.yul\":25907:25974   */\n      tag_243\n      jump\t// in\n    tag_493:\n        /* \"#utility.yul\":26001:26002   */\n      0x00\n        /* \"#utility.yul\":26025:26029   */\n      0x20\n        /* \"#utility.yul\":26012:26029   */\n      swap1\n      pop\n        /* \"#utility.yul\":26057:26059   */\n      0x1f\n        /* \"#utility.yul\":26049:26055   */\n      dup4\n        /* \"#utility.yul\":26046:26060   */\n      gt\n        /* \"#utility.yul\":26074:26075   */\n      0x01\n        /* \"#utility.yul\":26069:26687   */\n      dup2\n      eq\n      tag_495\n      jumpi\n        /* \"#utility.yul\":26731:26732   */\n      0x00\n        /* \"#utility.yul\":26748:26754   */\n      dup5\n        /* \"#utility.yul\":26745:26822   */\n      iszero\n      tag_496\n      jumpi\n        /* \"#utility.yul\":26797:26806   */\n      dup3\n        /* \"#utility.yul\":26792:26795   */\n      dup8\n        /* \"#utility.yul\":26788:26807   */\n      add\n        /* \"#utility.yul\":26782:26808   */\n      mload\n        /* \"#utility.yul\":26773:26808   */\n      swap1\n      pop\n        /* \"#utility.yul\":26745:26822   */\n    tag_496:\n        /* \"#utility.yul\":26848:26915   */\n      tag_497\n        /* \"#utility.yul\":26908:26914   */\n      dup6\n        /* \"#utility.yul\":26901:26906   */\n      dup3\n        /* \"#utility.yul\":26848:26915   */\n      tag_246\n      jump\t// in\n    tag_497:\n        /* \"#utility.yul\":26842:26846   */\n      dup7\n        /* \"#utility.yul\":26835:26916   */\n      sstore\n        /* \"#utility.yul\":26704:26926   */\n      pop\n        /* \"#utility.yul\":26039:26926   */\n      jump(tag_494)\n        /* \"#utility.yul\":26069:26687   */\n    tag_495:\n        /* \"#utility.yul\":26121:26125   */\n      0x1f\n        /* \"#utility.yul\":26117:26126   */\n      not\n        /* \"#utility.yul\":26109:26115   */\n      dup5\n        /* \"#utility.yul\":26105:26127   */\n      and\n        /* \"#utility.yul\":26155:26192   */\n      tag_498\n        /* \"#utility.yul\":26187:26191   */\n      dup7\n        /* \"#utility.yul\":26155:26192   */\n      tag_218\n      jump\t// in\n    tag_498:\n        /* \"#utility.yul\":26214:26215   */\n      0x00\n        /* \"#utility.yul\":26228:26436   */\n    tag_499:\n        /* \"#utility.yul\":26242:26249   */\n      dup3\n        /* \"#utility.yul\":26239:26240   */\n      dup2\n        /* \"#utility.yul\":26236:26250   */\n      lt\n        /* \"#utility.yul\":26228:26436   */\n      iszero\n      tag_501\n      jumpi\n        /* \"#utility.yul\":26321:26330   */\n      dup5\n        /* \"#utility.yul\":26316:26319   */\n      dup10\n        /* \"#utility.yul\":26312:26331   */\n      add\n        /* \"#utility.yul\":26306:26332   */\n      mload\n        /* \"#utility.yul\":26298:26304   */\n      dup3\n        /* \"#utility.yul\":26291:26333   */\n      sstore\n        /* \"#utility.yul\":26372:26373   */\n      0x01\n        /* \"#utility.yul\":26364:26370   */\n      dup3\n        /* \"#utility.yul\":26360:26374   */\n      add\n        /* \"#utility.yul\":26350:26374   */\n      swap2\n      pop\n        /* \"#utility.yul\":26419:26421   */\n      0x20\n        /* \"#utility.yul\":26408:26417   */\n      dup6\n        /* \"#utility.yul\":26404:26422   */\n      add\n        /* \"#utility.yul\":26391:26422   */\n      swap5\n      pop\n        /* \"#utility.yul\":26265:26269   */\n      0x20\n        /* \"#utility.yul\":26262:26263   */\n      dup2\n        /* \"#utility.yul\":26258:26270   */\n      add\n        /* \"#utility.yul\":26253:26270   */\n      swap1\n      pop\n        /* \"#utility.yul\":26228:26436   */\n      jump(tag_499)\n    tag_501:\n        /* \"#utility.yul\":26464:26470   */\n      dup7\n        /* \"#utility.yul\":26455:26462   */\n      dup4\n        /* \"#utility.yul\":26452:26471   */\n      lt\n        /* \"#utility.yul\":26449:26628   */\n      iszero\n      tag_502\n      jumpi\n        /* \"#utility.yul\":26522:26531   */\n      dup5\n        /* \"#utility.yul\":26517:26520   */\n      dup10\n        /* \"#utility.yul\":26513:26532   */\n      add\n        /* \"#utility.yul\":26507:26533   */\n      mload\n        /* \"#utility.yul\":26565:26613   */\n      tag_503\n        /* \"#utility.yul\":26607:26611   */\n      0x1f\n        /* \"#utility.yul\":26599:26605   */\n      dup10\n        /* \"#utility.yul\":26595:26612   */\n      and\n        /* \"#utility.yul\":26584:26593   */\n      dup3\n        /* \"#utility.yul\":26565:26613   */\n      tag_245\n      jump\t// in\n    tag_503:\n        /* \"#utility.yul\":26557:26563   */\n      dup4\n        /* \"#utility.yul\":26550:26614   */\n      sstore\n        /* \"#utility.yul\":26472:26628   */\n      pop\n        /* \"#utility.yul\":26449:26628   */\n    tag_502:\n        /* \"#utility.yul\":26674:26675   */\n      0x01\n        /* \"#utility.yul\":26670:26671   */\n      0x02\n        /* \"#utility.yul\":26662:26668   */\n      dup9\n        /* \"#utility.yul\":26658:26672   */\n      mul\n        /* \"#utility.yul\":26654:26676   */\n      add\n        /* \"#utility.yul\":26648:26652   */\n      dup9\n        /* \"#utility.yul\":26641:26677   */\n      sstore\n        /* \"#utility.yul\":26076:26687   */\n      pop\n      pop\n      pop\n        /* \"#utility.yul\":26039:26926   */\n    tag_494:\n      pop\n        /* \"#utility.yul\":25629:26932   */\n      pop\n      pop\n      pop\n        /* \"#utility.yul\":25537:26932   */\n      pop\n      pop\n      jump\t// out\n        /* \"#utility.yul\":26938:27251   */\n    tag_155:\n        /* \"#utility.yul\":27051:27055   */\n      0x00\n        /* \"#utility.yul\":27089:27091   */\n      0x20\n        /* \"#utility.yul\":27078:27087   */\n      dup3\n        /* \"#utility.yul\":27074:27092   */\n      add\n        /* \"#utility.yul\":27066:27092   */\n      swap1\n      pop\n        /* \"#utility.yul\":27138:27147   */\n      dup2\n        /* \"#utility.yul\":27132:27136   */\n      dup2\n        /* \"#utility.yul\":27128:27148   */\n      sub\n        /* \"#utility.yul\":27124:27125   */\n      0x00\n        /* \"#utility.yul\":27113:27122   */\n      dup4\n        /* \"#utility.yul\":27109:27126   */\n      add\n        /* \"#utility.yul\":27102:27149   */\n      mstore\n        /* \"#utility.yul\":27166:27244   */\n      tag_505\n        /* \"#utility.yul\":27239:27243   */\n      dup2\n        /* \"#utility.yul\":27230:27236   */\n      dup5\n        /* \"#utility.yul\":27166:27244   */\n      tag_202\n      jump\t// in\n    tag_505:\n        /* \"#utility.yul\":27158:27244   */\n      swap1\n      pop\n        /* \"#utility.yul\":26938:27251   */\n      swap3\n      swap2\n      pop\n      pop\n      jump\t// out\n        /* \"#utility.yul\":27257:27428   */\n    tag_247:\n        /* \"#utility.yul\":27397:27420   */\n      0x57616c6c6574206e6f7420726567697374657265640000000000000000000000\n        /* \"#utility.yul\":27393:27394   */\n      0x00\n        /* \"#utility.yul\":27385:27391   */\n      dup3\n        /* \"#utility.yul\":27381:27395   */\n      add\n        /* \"#utility.yul\":27374:27421   */\n      mstore\n        /* \"#utility.yul\":27257:27428   */\n      pop\n      jump\t// out\n        /* \"#utility.yul\":27434:27800   */\n    tag_248:\n        /* \"#utility.yul\":27576:27579   */\n      0x00\n        /* \"#utility.yul\":27597:27664   */\n      tag_508\n        /* \"#utility.yul\":27661:27663   */\n      0x15\n        /* \"#utility.yul\":27656:27659   */\n      dup4\n        /* \"#utility.yul\":27597:27664   */\n      tag_200\n      jump\t// in\n    tag_508:\n        /* \"#utility.yul\":27590:27664   */\n      swap2\n      pop\n        /* \"#utility.yul\":27673:27766   */\n      tag_509\n        /* \"#utility.yul\":27762:27765   */\n      dup3\n        /* \"#utility.yul\":27673:27766   */\n      tag_247\n      jump\t// in\n    tag_509:\n        /* \"#utility.yul\":27791:27793   */\n      0x20\n        /* \"#utility.yul\":27786:27789   */\n      dup3\n        /* \"#utility.yul\":27782:27794   */\n      add\n        /* \"#utility.yul\":27775:27794   */\n      swap1\n      pop\n        /* \"#utility.yul\":27434:27800   */\n      swap2\n      swap1\n      pop\n      jump\t// out\n        /* \"#utility.yul\":27806:28225   */\n    tag_160:\n        /* \"#utility.yul\":27972:27976   */\n      0x00\n        /* \"#utility.yul\":28010:28012   */\n      0x20\n        /* \"#utility.yul\":27999:28008   */\n      dup3\n        /* \"#utility.yul\":27995:28013   */\n      add\n        /* \"#utility.yul\":27987:28013   */\n      swap1\n      pop\n        /* \"#utility.yul\":28059:28068   */\n      dup2\n        /* \"#utility.yul\":28053:28057   */\n      dup2\n        /* \"#utility.yul\":28049:28069   */\n      sub\n        /* \"#utility.yul\":28045:28046   */\n      0x00\n        /* \"#utility.yul\":28034:28043   */\n      dup4\n        /* \"#utility.yul\":28030:28047   */\n      add\n        /* \"#utility.yul\":28023:28070   */\n      mstore\n        /* \"#utility.yul\":28087:28218   */\n      tag_511\n        /* \"#utility.yul\":28213:28217   */\n      dup2\n        /* \"#utility.yul\":28087:28218   */\n      tag_248\n      jump\t// in\n    tag_511:\n        /* \"#utility.yul\":28079:28218   */\n      swap1\n      pop\n        /* \"#utility.yul\":27806:28225   */\n      swap2\n      swap1\n      pop\n      jump\t// out\n\n    auxdata: 0xa2646970667358221220d2f0d32456c32c3a33102e2ef1b967b8b31abdd2386d125622b773f8e30c6bea64736f6c634300081a0033\n}\n",
				"bytecode": {
					"linkReferences": {},
					"object": "608060405234801561000f575f80fd5b50335f73ffffffffffffffffffffffffffffffffffffffff168173ffffffffffffffffffffffffffffffffffffffff1603610081575f6040517f1e4fbdf70000000000000000000000000000000000000000000000000000000081526004016100789190610196565b60405180910390fd5b6100908161009660201b60201c565b506101af565b5f805f9054906101000a900473ffffffffffffffffffffffffffffffffffffffff169050815f806101000a81548173ffffffffffffffffffffffffffffffffffffffff021916908373ffffffffffffffffffffffffffffffffffffffff1602179055508173ffffffffffffffffffffffffffffffffffffffff168173ffffffffffffffffffffffffffffffffffffffff167f8be0079c531659141344cd1fd0a4f28419497f9722a3daafe3b4186f6b6457e060405160405180910390a35050565b5f73ffffffffffffffffffffffffffffffffffffffff82169050919050565b5f61018082610157565b9050919050565b61019081610176565b82525050565b5f6020820190506101a95f830184610187565b92915050565b612026806101bc5f395ff3fe60806040526004361061009b575f3560e01c806389b08f111161006357806389b08f111461016b5780638da5cb5b146101a8578063c0bc2bdf146101d2578063d0e30db0146101fa578063d7cf5ff514610204578063f2fde38b146102405761009b565b806312065fe01461009f5780632e1a7d4d146100c957806350bd9941146100f157806356b8c7241461012d578063715018a614610155575b5f80fd5b3480156100aa575f80fd5b506100b3610268565b6040516100c0919061121e565b60405180910390f35b3480156100d4575f80fd5b506100ef60048036038101906100ea9190611272565b6102af565b005b3480156100fc575f80fd5b50610117600480360381019061011291906112f7565b610470565b604051610124919061121e565b60405180910390f35b348015610138575f80fd5b50610153600480360381019061014e919061145e565b610485565b005b348015610160575f80fd5b50610169610bd6565b005b348015610176575f80fd5b50610191600480360381019061018c91906112f7565b610be9565b60405161019f92919061152a565b60405180910390f35b3480156101b3575f80fd5b506101bc610c8f565b6040516101c99190611567565b60405180910390f35b3480156101dd575f80fd5b506101f860048036038101906101f39190611580565b610cb6565b005b610202610ee6565b005b34801561020f575f80fd5b5061022a600480360381019061022591906112f7565b61101e565b604051610237919061121e565b60405180910390f35b34801561024b575f80fd5b50610266600480360381019061026191906112f7565b611033565b005b5f60015f3373ffffffffffffffffffffffffffffffffffffffff1673ffffffffffffffffffffffffffffffffffffffff1681526020019081526020015f2060010154905090565b8060015f3373ffffffffffffffffffffffffffffffffffffffff1673ffffffffffffffffffffffffffffffffffffffff1681526020019081526020015f20600101541015610332576040517f08c379a000000000000000000000000000000000000000000000000000000000815260040161032990611624565b60405180910390fd5b8060015f3373ffffffffffffffffffffffffffffffffffffffff1673ffffffffffffffffffffffffffffffffffffffff1681526020019081526020015f206001015f828254610381919061166f565b925050819055503373ffffffffffffffffffffffffffffffffffffffff166108fc8290811502906040515f60405180830381858888f193505050501580156103cb573d5f803e3d5ffd5b508060025f3373ffffffffffffffffffffffffffffffffffffffff1673ffffffffffffffffffffffffffffffffffffffff1681526020019081526020015f205f828254610418919061166f565b925050819055503373ffffffffffffffffffffffffffffffffffffffff167f7fcf532c15f0a6db0bd6d0e038bea71d30d808c7d98cb3bf7268a95bf5081b6582604051610465919061121e565b60405180910390a250565b6003602052805f5260405f205f915090505481565b5f3390505f60015f8373ffffffffffffffffffffffffffffffffffffffff1673ffffffffffffffffffffffffffffffffffffffff1681526020019081526020015f205f0180546104d4906116cf565b905011610516576040517f08c379a000000000000000000000000000000000000000000000000000000000815260040161050d90611749565b60405180910390fd5b5f60015f8673ffffffffffffffffffffffffffffffffffffffff1673ffffffffffffffffffffffffffffffffffffffff1681526020019081526020015f205f018054610561906116cf565b9050116105a3576040517f08c379a000000000000000000000000000000000000000000000000000000000815260040161059a906117b1565b60405180910390fd5b8260015f8373ffffffffffffffffffffffffffffffffffffffff1673ffffffffffffffffffffffffffffffffffffffff1681526020019081526020015f20600101541015610626576040517f08c379a000000000000000000000000000000000000000000000000000000000815260040161061d90611624565b60405180910390fd5b60405160200161063590611823565b604051602081830303815290604052805190602001208260405160200161065c9190611867565b604051602081830303815290604052805190602001200361074657604051602001610686906118c7565b6040516020818303038152906040528051906020012060015f8373ffffffffffffffffffffffffffffffffffffffff1673ffffffffffffffffffffffffffffffffffffffff1681526020019081526020015f205f016040516020016106eb919061196d565b6040516020818303038152906040528051906020012014610741576040517f08c379a0000000000000000000000000000000000000000000000000000000008152600401610738906119cd565b60405180910390fd5b610abd565b60405160200161075590611a35565b604051602081830303815290604052805190602001208260405160200161077c9190611867565b6040516020818303038152906040528051906020012003610abc576040516020016107a6906118c7565b6040516020818303038152906040528051906020012060015f8373ffffffffffffffffffffffffffffffffffffffff1673ffffffffffffffffffffffffffffffffffffffff1681526020019081526020015f205f0160405160200161080b919061196d565b6040516020818303038152906040528051906020012014610861576040517f08c379a000000000000000000000000000000000000000000000000000000000815260040161085890611a93565b60405180910390fd5b604051602001610870906118c7565b6040516020818303038152906040528051906020012060015f8673ffffffffffffffffffffffffffffffffffffffff1673ffffffffffffffffffffffffffffffffffffffff1681526020019081526020015f205f016040516020016108d5919061196d565b604051602081830303815290604052805190602001201461092b576040517f08c379a000000000000000000000000000000000000000000000000000000000815260040161092290611afb565b60405180910390fd5b5f604690505f60035f8473ffffffffffffffffffffffffffffffffffffffff1673ffffffffffffffffffffffffffffffffffffffff1681526020019081526020015f205460025f8573ffffffffffffffffffffffffffffffffffffffff1673ffffffffffffffffffffffffffffffffffffffff1681526020019081526020015f20546109b7919061166f565b905084606483836109c89190611b19565b6109d29190611b87565b1015610a13576040517f08c379a0000000000000000000000000000000000000000000000000000000008152600401610a0a90611c27565b60405180910390fd5b8460035f8573ffffffffffffffffffffffffffffffffffffffff1673ffffffffffffffffffffffffffffffffffffffff1681526020019081526020015f205f828254610a5f9190611c45565b925050819055508460025f8873ffffffffffffffffffffffffffffffffffffffff1673ffffffffffffffffffffffffffffffffffffffff1681526020019081526020015f205f828254610ab29190611c45565b9250508190555050505b5b8260015f8373ffffffffffffffffffffffffffffffffffffffff1673ffffffffffffffffffffffffffffffffffffffff1681526020019081526020015f206001015f828254610b0c919061166f565b925050819055508260015f8673ffffffffffffffffffffffffffffffffffffffff1673ffffffffffffffffffffffffffffffffffffffff1681526020019081526020015f206001015f828254610b629190611c45565b925050819055508373ffffffffffffffffffffffffffffffffffffffff168173ffffffffffffffffffffffffffffffffffffffff167f20404a7fcef99c1ce456f7054c0f458a8645a82241eb36feab02658a4a8f359b8585604051610bc8929190611c78565b60405180910390a350505050565b610bde6110b7565b610be75f61113e565b565b6001602052805f5260405f205f91509050805f018054610c08906116cf565b80601f0160208091040260200160405190810160405280929190818152602001828054610c34906116cf565b8015610c7f5780601f10610c5657610100808354040283529160200191610c7f565b820191905f5260205f20905b815481529060010190602001808311610c6257829003601f168201915b5050505050908060010154905082565b5f805f9054906101000a900473ffffffffffffffffffffffffffffffffffffffff16905090565b610cbe6110b7565b5f60015f8473ffffffffffffffffffffffffffffffffffffffff1673ffffffffffffffffffffffffffffffffffffffff1681526020019081526020015f205f018054610d09906116cf565b905014610d4b576040517f08c379a0000000000000000000000000000000000000000000000000000000008152600401610d4290611cf0565b60405180910390fd5b60405180604001604052808281526020015f81525060015f8473ffffffffffffffffffffffffffffffffffffffff1673ffffffffffffffffffffffffffffffffffffffff1681526020019081526020015f205f820151815f019081610db09190611e99565b5060208201518160010155905050604051602001610dcd906118c7565b6040516020818303038152906040528051906020012081604051602001610df49190611867565b6040516020818303038152906040528051906020012003610e94575f60025f8473ffffffffffffffffffffffffffffffffffffffff1673ffffffffffffffffffffffffffffffffffffffff1681526020019081526020015f20819055505f60035f8473ffffffffffffffffffffffffffffffffffffffff1673ffffffffffffffffffffffffffffffffffffffff1681526020019081526020015f20819055505b8173ffffffffffffffffffffffffffffffffffffffff167ffd8c98a09da86eba82da3f4067f073c6ef0f7138bc302e189386df00b87b836c82604051610eda9190611f68565b60405180910390a25050565b5f60015f3373ffffffffffffffffffffffffffffffffffffffff1673ffffffffffffffffffffffffffffffffffffffff1681526020019081526020015f205f018054610f31906116cf565b905011610f73576040517f08c379a0000000000000000000000000000000000000000000000000000000008152600401610f6a90611fd2565b60405180910390fd5b3460025f3373ffffffffffffffffffffffffffffffffffffffff1673ffffffffffffffffffffffffffffffffffffffff1681526020019081526020015f205f828254610fbf9190611c45565b925050819055503460015f3373ffffffffffffffffffffffffffffffffffffffff1673ffffffffffffffffffffffffffffffffffffffff1681526020019081526020015f206001015f8282546110159190611c45565b92505081905550565b6002602052805f5260405f205f915090505481565b61103b6110b7565b5f73ffffffffffffffffffffffffffffffffffffffff168173ffffffffffffffffffffffffffffffffffffffff16036110ab575f6040517f1e4fbdf70000000000000000000000000000000000000000000000000000000081526004016110a29190611567565b60405180910390fd5b6110b48161113e565b50565b6110bf6111ff565b73ffffffffffffffffffffffffffffffffffffffff166110dd610c8f565b73ffffffffffffffffffffffffffffffffffffffff161461113c576111006111ff565b6040517f118cdaa70000000000000000000000000000000000000000000000000000000081526004016111339190611567565b60405180910390fd5b565b5f805f9054906101000a900473ffffffffffffffffffffffffffffffffffffffff169050815f806101000a81548173ffffffffffffffffffffffffffffffffffffffff021916908373ffffffffffffffffffffffffffffffffffffffff1602179055508173ffffffffffffffffffffffffffffffffffffffff168173ffffffffffffffffffffffffffffffffffffffff167f8be0079c531659141344cd1fd0a4f28419497f9722a3daafe3b4186f6b6457e060405160405180910390a35050565b5f33905090565b5f819050919050565b61121881611206565b82525050565b5f6020820190506112315f83018461120f565b92915050565b5f604051905090565b5f80fd5b5f80fd5b61125181611206565b811461125b575f80fd5b50565b5f8135905061126c81611248565b92915050565b5f6020828403121561128757611286611240565b5b5f6112948482850161125e565b91505092915050565b5f73ffffffffffffffffffffffffffffffffffffffff82169050919050565b5f6112c68261129d565b9050919050565b6112d6816112bc565b81146112e0575f80fd5b50565b5f813590506112f1816112cd565b92915050565b5f6020828403121561130c5761130b611240565b5b5f611319848285016112e3565b91505092915050565b5f80fd5b5f80fd5b5f601f19601f8301169050919050565b7f4e487b71000000000000000000000000000000000000000000000000000000005f52604160045260245ffd5b6113708261132a565b810181811067ffffffffffffffff8211171561138f5761138e61133a565b5b80604052505050565b5f6113a1611237565b90506113ad8282611367565b919050565b5f67ffffffffffffffff8211156113cc576113cb61133a565b5b6113d58261132a565b9050602081019050919050565b828183375f83830152505050565b5f6114026113fd846113b2565b611398565b90508281526020810184848401111561141e5761141d611326565b5b6114298482856113e2565b509392505050565b5f82601f83011261144557611444611322565b5b81356114558482602086016113f0565b91505092915050565b5f805f6060848603121561147557611474611240565b5b5f611482868287016112e3565b93505060206114938682870161125e565b925050604084013567ffffffffffffffff8111156114b4576114b3611244565b5b6114c086828701611431565b9150509250925092565b5f81519050919050565b5f82825260208201905092915050565b8281835e5f83830152505050565b5f6114fc826114ca565b61150681856114d4565b93506115168185602086016114e4565b61151f8161132a565b840191505092915050565b5f6040820190508181035f83015261154281856114f2565b9050611551602083018461120f565b9392505050565b611561816112bc565b82525050565b5f60208201905061157a5f830184611558565b92915050565b5f806040838503121561159657611595611240565b5b5f6115a3858286016112e3565b925050602083013567ffffffffffffffff8111156115c4576115c3611244565b5b6115d085828601611431565b9150509250929050565b7f496e73756666696369656e742062616c616e63650000000000000000000000005f82015250565b5f61160e6014836114d4565b9150611619826115da565b602082019050919050565b5f6020820190508181035f83015261163b81611602565b9050919050565b7f4e487b71000000000000000000000000000000000000000000000000000000005f52601160045260245ffd5b5f61167982611206565b915061168483611206565b925082820390508181111561169c5761169b611642565b5b92915050565b7f4e487b71000000000000000000000000000000000000000000000000000000005f52602260045260245ffd5b5f60028204905060018216806116e657607f821691505b6020821081036116f9576116f86116a2565b5b50919050565b7f53656e6465722077616c6c6574206e6f742072656769737465726564000000005f82015250565b5f611733601c836114d4565b915061173e826116ff565b602082019050919050565b5f6020820190508181035f83015261176081611727565b9050919050565b7f52656365697665722077616c6c6574206e6f74207265676973746572656400005f82015250565b5f61179b601e836114d4565b91506117a682611767565b602082019050919050565b5f6020820190508181035f8301526117c88161178f565b9050919050565b5f81905092915050565b7f706c6179657253616c61727900000000000000000000000000000000000000005f82015250565b5f61180d600c836117cf565b9150611818826117d9565b600c82019050919050565b5f61182d82611801565b9150819050919050565b5f611841826114ca565b61184b81856117cf565b935061185b8185602086016114e4565b80840191505092915050565b5f6118728284611837565b915081905092915050565b7f636c7562000000000000000000000000000000000000000000000000000000005f82015250565b5f6118b16004836117cf565b91506118bc8261187d565b600482019050919050565b5f6118d1826118a5565b9150819050919050565b5f819050815f5260205f209050919050565b5f81546118f9816116cf565b61190381866117cf565b9450600182165f811461191d576001811461193257611964565b60ff1983168652811515820286019350611964565b61193b856118db565b5f5b8381101561195c5781548189015260018201915060208101905061193d565b838801955050505b50505092915050565b5f61197882846118ed565b915081905092915050565b7f4f6e6c7920636c7562732063616e207061792073616c617269657300000000005f82015250565b5f6119b7601b836114d4565b91506119c282611983565b602082019050919050565b5f6020820190508181035f8301526119e4816119ab565b9050919050565b7f706c6179657250757263686173650000000000000000000000000000000000005f82015250565b5f611a1f600e836117cf565b9150611a2a826119eb565b600e82019050919050565b5f611a3f82611a13565b9150819050919050565b7f4f6e6c7920636c7562732063616e20707572636861736520706c6179657273005f82015250565b5f611a7d601f836114d4565b9150611a8882611a49565b602082019050919050565b5f6020820190508181035f830152611aaa81611a71565b9050919050565b7f5265636569766572206d757374206265206120636c75620000000000000000005f82015250565b5f611ae56017836114d4565b9150611af082611ab1565b602082019050919050565b5f6020820190508181035f830152611b1281611ad9565b9050919050565b5f611b2382611206565b9150611b2e83611206565b9250828202611b3c81611206565b91508282048414831517611b5357611b52611642565b5b5092915050565b7f4e487b71000000000000000000000000000000000000000000000000000000005f52601260045260245ffd5b5f611b9182611206565b9150611b9c83611206565b925082611bac57611bab611b5a565b5b828204905092915050565b7f436c7562277320726576656e7565206d757374206265206174206c65617374205f8201527f373025206f6620416d6f756e742073656e740000000000000000000000000000602082015250565b5f611c116032836114d4565b9150611c1c82611bb7565b604082019050919050565b5f6020820190508181035f830152611c3e81611c05565b9050919050565b5f611c4f82611206565b9150611c5a83611206565b9250828201905080821115611c7257611c71611642565b5b92915050565b5f604082019050611c8b5f83018561120f565b8181036020830152611c9d81846114f2565b90509392505050565b7f57616c6c657420616c72656164792072656769737465726564000000000000005f82015250565b5f611cda6019836114d4565b9150611ce582611ca6565b602082019050919050565b5f6020820190508181035f830152611d0781611cce565b9050919050565b5f6020601f8301049050919050565b5f82821b905092915050565b5f60088302611d587fffffffffffffffffffffffffffffffffffffffffffffffffffffffffffffffff82611d1d565b611d628683611d1d565b95508019841693508086168417925050509392505050565b5f819050919050565b5f611d9d611d98611d9384611206565b611d7a565b611206565b9050919050565b5f819050919050565b611db683611d83565b611dca611dc282611da4565b848454611d29565b825550505050565b5f90565b611dde611dd2565b611de9818484611dad565b505050565b5b81811015611e0c57611e015f82611dd6565b600181019050611def565b5050565b601f821115611e5157611e22816118db565b611e2b84611d0e565b81016020851015611e3a578190505b611e4e611e4685611d0e565b830182611dee565b50505b505050565b5f82821c905092915050565b5f611e715f1984600802611e56565b1980831691505092915050565b5f611e898383611e62565b9150826002028217905092915050565b611ea2826114ca565b67ffffffffffffffff811115611ebb57611eba61133a565b5b611ec582546116cf565b611ed0828285611e10565b5f60209050601f831160018114611f01575f8415611eef578287015190505b611ef98582611e7e565b865550611f60565b601f198416611f0f866118db565b5f5b82811015611f3657848901518255600182019150602085019450602081019050611f11565b86831015611f535784890151611f4f601f891682611e62565b8355505b6001600288020188555050505b505050505050565b5f6020820190508181035f830152611f8081846114f2565b905092915050565b7f57616c6c6574206e6f74207265676973746572656400000000000000000000005f82015250565b5f611fbc6015836114d4565b9150611fc782611f88565b602082019050919050565b5f6020820190508181035f830152611fe981611fb0565b905091905056fea2646970667358221220d2f0d32456c32c3a33102e2ef1b967b8b31abdd2386d125622b773f8e30c6bea64736f6c634300081a0033",
					"opcodes": "PUSH1 0x80 PUSH1 0x40 MSTORE CALLVALUE DUP1 ISZERO PUSH2 0xF JUMPI PUSH0 DUP1 REVERT JUMPDEST POP CALLER PUSH0 PUSH20 0xFFFFFFFFFFFFFFFFFFFFFFFFFFFFFFFFFFFFFFFF AND DUP2 PUSH20 0xFFFFFFFFFFFFFFFFFFFFFFFFFFFFFFFFFFFFFFFF AND SUB PUSH2 0x81 JUMPI PUSH0 PUSH1 0x40 MLOAD PUSH32 0x1E4FBDF700000000000000000000000000000000000000000000000000000000 DUP2 MSTORE PUSH1 0x4 ADD PUSH2 0x78 SWAP2 SWAP1 PUSH2 0x196 JUMP JUMPDEST PUSH1 0x40 MLOAD DUP1 SWAP2 SUB SWAP1 REVERT JUMPDEST PUSH2 0x90 DUP2 PUSH2 0x96 PUSH1 0x20 SHL PUSH1 0x20 SHR JUMP JUMPDEST POP PUSH2 0x1AF JUMP JUMPDEST PUSH0 DUP1 PUSH0 SWAP1 SLOAD SWAP1 PUSH2 0x100 EXP SWAP1 DIV PUSH20 0xFFFFFFFFFFFFFFFFFFFFFFFFFFFFFFFFFFFFFFFF AND SWAP1 POP DUP2 PUSH0 DUP1 PUSH2 0x100 EXP DUP2 SLOAD DUP2 PUSH20 0xFFFFFFFFFFFFFFFFFFFFFFFFFFFFFFFFFFFFFFFF MUL NOT AND SWAP1 DUP4 PUSH20 0xFFFFFFFFFFFFFFFFFFFFFFFFFFFFFFFFFFFFFFFF AND MUL OR SWAP1 SSTORE POP DUP2 PUSH20 0xFFFFFFFFFFFFFFFFFFFFFFFFFFFFFFFFFFFFFFFF AND DUP2 PUSH20 0xFFFFFFFFFFFFFFFFFFFFFFFFFFFFFFFFFFFFFFFF AND PUSH32 0x8BE0079C531659141344CD1FD0A4F28419497F9722A3DAAFE3B4186F6B6457E0 PUSH1 0x40 MLOAD PUSH1 0x40 MLOAD DUP1 SWAP2 SUB SWAP1 LOG3 POP POP JUMP JUMPDEST PUSH0 PUSH20 0xFFFFFFFFFFFFFFFFFFFFFFFFFFFFFFFFFFFFFFFF DUP3 AND SWAP1 POP SWAP2 SWAP1 POP JUMP JUMPDEST PUSH0 PUSH2 0x180 DUP3 PUSH2 0x157 JUMP JUMPDEST SWAP1 POP SWAP2 SWAP1 POP JUMP JUMPDEST PUSH2 0x190 DUP2 PUSH2 0x176 JUMP JUMPDEST DUP3 MSTORE POP POP JUMP JUMPDEST PUSH0 PUSH1 0x20 DUP3 ADD SWAP1 POP PUSH2 0x1A9 PUSH0 DUP4 ADD DUP5 PUSH2 0x187 JUMP JUMPDEST SWAP3 SWAP2 POP POP JUMP JUMPDEST PUSH2 0x2026 DUP1 PUSH2 0x1BC PUSH0 CODECOPY PUSH0 RETURN INVALID PUSH1 0x80 PUSH1 0x40 MSTORE PUSH1 0x4 CALLDATASIZE LT PUSH2 0x9B JUMPI PUSH0 CALLDATALOAD PUSH1 0xE0 SHR DUP1 PUSH4 0x89B08F11 GT PUSH2 0x63 JUMPI DUP1 PUSH4 0x89B08F11 EQ PUSH2 0x16B JUMPI DUP1 PUSH4 0x8DA5CB5B EQ PUSH2 0x1A8 JUMPI DUP1 PUSH4 0xC0BC2BDF EQ PUSH2 0x1D2 JUMPI DUP1 PUSH4 0xD0E30DB0 EQ PUSH2 0x1FA JUMPI DUP1 PUSH4 0xD7CF5FF5 EQ PUSH2 0x204 JUMPI DUP1 PUSH4 0xF2FDE38B EQ PUSH2 0x240 JUMPI PUSH2 0x9B JUMP JUMPDEST DUP1 PUSH4 0x12065FE0 EQ PUSH2 0x9F JUMPI DUP1 PUSH4 0x2E1A7D4D EQ PUSH2 0xC9 JUMPI DUP1 PUSH4 0x50BD9941 EQ PUSH2 0xF1 JUMPI DUP1 PUSH4 0x56B8C724 EQ PUSH2 0x12D JUMPI DUP1 PUSH4 0x715018A6 EQ PUSH2 0x155 JUMPI JUMPDEST PUSH0 DUP1 REVERT JUMPDEST CALLVALUE DUP1 ISZERO PUSH2 0xAA JUMPI PUSH0 DUP1 REVERT JUMPDEST POP PUSH2 0xB3 PUSH2 0x268 JUMP JUMPDEST PUSH1 0x40 MLOAD PUSH2 0xC0 SWAP2 SWAP1 PUSH2 0x121E JUMP JUMPDEST PUSH1 0x40 MLOAD DUP1 SWAP2 SUB SWAP1 RETURN JUMPDEST CALLVALUE DUP1 ISZERO PUSH2 0xD4 JUMPI PUSH0 DUP1 REVERT JUMPDEST POP PUSH2 0xEF PUSH1 0x4 DUP1 CALLDATASIZE SUB DUP2 ADD SWAP1 PUSH2 0xEA SWAP2 SWAP1 PUSH2 0x1272 JUMP JUMPDEST PUSH2 0x2AF JUMP JUMPDEST STOP JUMPDEST CALLVALUE DUP1 ISZERO PUSH2 0xFC JUMPI PUSH0 DUP1 REVERT JUMPDEST POP PUSH2 0x117 PUSH1 0x4 DUP1 CALLDATASIZE SUB DUP2 ADD SWAP1 PUSH2 0x112 SWAP2 SWAP1 PUSH2 0x12F7 JUMP JUMPDEST PUSH2 0x470 JUMP JUMPDEST PUSH1 0x40 MLOAD PUSH2 0x124 SWAP2 SWAP1 PUSH2 0x121E JUMP JUMPDEST PUSH1 0x40 MLOAD DUP1 SWAP2 SUB SWAP1 RETURN JUMPDEST CALLVALUE DUP1 ISZERO PUSH2 0x138 JUMPI PUSH0 DUP1 REVERT JUMPDEST POP PUSH2 0x153 PUSH1 0x4 DUP1 CALLDATASIZE SUB DUP2 ADD SWAP1 PUSH2 0x14E SWAP2 SWAP1 PUSH2 0x145E JUMP JUMPDEST PUSH2 0x485 JUMP JUMPDEST STOP JUMPDEST CALLVALUE DUP1 ISZERO PUSH2 0x160 JUMPI PUSH0 DUP1 REVERT JUMPDEST POP PUSH2 0x169 PUSH2 0xBD6 JUMP JUMPDEST STOP JUMPDEST CALLVALUE DUP1 ISZERO PUSH2 0x176 JUMPI PUSH0 DUP1 REVERT JUMPDEST POP PUSH2 0x191 PUSH1 0x4 DUP1 CALLDATASIZE SUB DUP2 ADD SWAP1 PUSH2 0x18C SWAP2 SWAP1 PUSH2 0x12F7 JUMP JUMPDEST PUSH2 0xBE9 JUMP JUMPDEST PUSH1 0x40 MLOAD PUSH2 0x19F SWAP3 SWAP2 SWAP1 PUSH2 0x152A JUMP JUMPDEST PUSH1 0x40 MLOAD DUP1 SWAP2 SUB SWAP1 RETURN JUMPDEST CALLVALUE DUP1 ISZERO PUSH2 0x1B3 JUMPI PUSH0 DUP1 REVERT JUMPDEST POP PUSH2 0x1BC PUSH2 0xC8F JUMP JUMPDEST PUSH1 0x40 MLOAD PUSH2 0x1C9 SWAP2 SWAP1 PUSH2 0x1567 JUMP JUMPDEST PUSH1 0x40 MLOAD DUP1 SWAP2 SUB SWAP1 RETURN JUMPDEST CALLVALUE DUP1 ISZERO PUSH2 0x1DD JUMPI PUSH0 DUP1 REVERT JUMPDEST POP PUSH2 0x1F8 PUSH1 0x4 DUP1 CALLDATASIZE SUB DUP2 ADD SWAP1 PUSH2 0x1F3 SWAP2 SWAP1 PUSH2 0x1580 JUMP JUMPDEST PUSH2 0xCB6 JUMP JUMPDEST STOP JUMPDEST PUSH2 0x202 PUSH2 0xEE6 JUMP JUMPDEST STOP JUMPDEST CALLVALUE DUP1 ISZERO PUSH2 0x20F JUMPI PUSH0 DUP1 REVERT JUMPDEST POP PUSH2 0x22A PUSH1 0x4 DUP1 CALLDATASIZE SUB DUP2 ADD SWAP1 PUSH2 0x225 SWAP2 SWAP1 PUSH2 0x12F7 JUMP JUMPDEST PUSH2 0x101E JUMP JUMPDEST PUSH1 0x40 MLOAD PUSH2 0x237 SWAP2 SWAP1 PUSH2 0x121E JUMP JUMPDEST PUSH1 0x40 MLOAD DUP1 SWAP2 SUB SWAP1 RETURN JUMPDEST CALLVALUE DUP1 ISZERO PUSH2 0x24B JUMPI PUSH0 DUP1 REVERT JUMPDEST POP PUSH2 0x266 PUSH1 0x4 DUP1 CALLDATASIZE SUB DUP2 ADD SWAP1 PUSH2 0x261 SWAP2 SWAP1 PUSH2 0x12F7 JUMP JUMPDEST PUSH2 0x1033 JUMP JUMPDEST STOP JUMPDEST PUSH0 PUSH1 0x1 PUSH0 CALLER PUSH20 0xFFFFFFFFFFFFFFFFFFFFFFFFFFFFFFFFFFFFFFFF AND PUSH20 0xFFFFFFFFFFFFFFFFFFFFFFFFFFFFFFFFFFFFFFFF AND DUP2 MSTORE PUSH1 0x20 ADD SWAP1 DUP2 MSTORE PUSH1 0x20 ADD PUSH0 KECCAK256 PUSH1 0x1 ADD SLOAD SWAP1 POP SWAP1 JUMP JUMPDEST DUP1 PUSH1 0x1 PUSH0 CALLER PUSH20 0xFFFFFFFFFFFFFFFFFFFFFFFFFFFFFFFFFFFFFFFF AND PUSH20 0xFFFFFFFFFFFFFFFFFFFFFFFFFFFFFFFFFFFFFFFF AND DUP2 MSTORE PUSH1 0x20 ADD SWAP1 DUP2 MSTORE PUSH1 0x20 ADD PUSH0 KECCAK256 PUSH1 0x1 ADD SLOAD LT ISZERO PUSH2 0x332 JUMPI PUSH1 0x40 MLOAD PUSH32 0x8C379A000000000000000000000000000000000000000000000000000000000 DUP2 MSTORE PUSH1 0x4 ADD PUSH2 0x329 SWAP1 PUSH2 0x1624 JUMP JUMPDEST PUSH1 0x40 MLOAD DUP1 SWAP2 SUB SWAP1 REVERT JUMPDEST DUP1 PUSH1 0x1 PUSH0 CALLER PUSH20 0xFFFFFFFFFFFFFFFFFFFFFFFFFFFFFFFFFFFFFFFF AND PUSH20 0xFFFFFFFFFFFFFFFFFFFFFFFFFFFFFFFFFFFFFFFF AND DUP2 MSTORE PUSH1 0x20 ADD SWAP1 DUP2 MSTORE PUSH1 0x20 ADD PUSH0 KECCAK256 PUSH1 0x1 ADD PUSH0 DUP3 DUP3 SLOAD PUSH2 0x381 SWAP2 SWAP1 PUSH2 0x166F JUMP JUMPDEST SWAP3 POP POP DUP2 SWAP1 SSTORE POP CALLER PUSH20 0xFFFFFFFFFFFFFFFFFFFFFFFFFFFFFFFFFFFFFFFF AND PUSH2 0x8FC DUP3 SWAP1 DUP2 ISZERO MUL SWAP1 PUSH1 0x40 MLOAD PUSH0 PUSH1 0x40 MLOAD DUP1 DUP4 SUB DUP2 DUP6 DUP9 DUP9 CALL SWAP4 POP POP POP POP ISZERO DUP1 ISZERO PUSH2 0x3CB JUMPI RETURNDATASIZE PUSH0 DUP1 RETURNDATACOPY RETURNDATASIZE PUSH0 REVERT JUMPDEST POP DUP1 PUSH1 0x2 PUSH0 CALLER PUSH20 0xFFFFFFFFFFFFFFFFFFFFFFFFFFFFFFFFFFFFFFFF AND PUSH20 0xFFFFFFFFFFFFFFFFFFFFFFFFFFFFFFFFFFFFFFFF AND DUP2 MSTORE PUSH1 0x20 ADD SWAP1 DUP2 MSTORE PUSH1 0x20 ADD PUSH0 KECCAK256 PUSH0 DUP3 DUP3 SLOAD PUSH2 0x418 SWAP2 SWAP1 PUSH2 0x166F JUMP JUMPDEST SWAP3 POP POP DUP2 SWAP1 SSTORE POP CALLER PUSH20 0xFFFFFFFFFFFFFFFFFFFFFFFFFFFFFFFFFFFFFFFF AND PUSH32 0x7FCF532C15F0A6DB0BD6D0E038BEA71D30D808C7D98CB3BF7268A95BF5081B65 DUP3 PUSH1 0x40 MLOAD PUSH2 0x465 SWAP2 SWAP1 PUSH2 0x121E JUMP JUMPDEST PUSH1 0x40 MLOAD DUP1 SWAP2 SUB SWAP1 LOG2 POP JUMP JUMPDEST PUSH1 0x3 PUSH1 0x20 MSTORE DUP1 PUSH0 MSTORE PUSH1 0x40 PUSH0 KECCAK256 PUSH0 SWAP2 POP SWAP1 POP SLOAD DUP2 JUMP JUMPDEST PUSH0 CALLER SWAP1 POP PUSH0 PUSH1 0x1 PUSH0 DUP4 PUSH20 0xFFFFFFFFFFFFFFFFFFFFFFFFFFFFFFFFFFFFFFFF AND PUSH20 0xFFFFFFFFFFFFFFFFFFFFFFFFFFFFFFFFFFFFFFFF AND DUP2 MSTORE PUSH1 0x20 ADD SWAP1 DUP2 MSTORE PUSH1 0x20 ADD PUSH0 KECCAK256 PUSH0 ADD DUP1 SLOAD PUSH2 0x4D4 SWAP1 PUSH2 0x16CF JUMP JUMPDEST SWAP1 POP GT PUSH2 0x516 JUMPI PUSH1 0x40 MLOAD PUSH32 0x8C379A000000000000000000000000000000000000000000000000000000000 DUP2 MSTORE PUSH1 0x4 ADD PUSH2 0x50D SWAP1 PUSH2 0x1749 JUMP JUMPDEST PUSH1 0x40 MLOAD DUP1 SWAP2 SUB SWAP1 REVERT JUMPDEST PUSH0 PUSH1 0x1 PUSH0 DUP7 PUSH20 0xFFFFFFFFFFFFFFFFFFFFFFFFFFFFFFFFFFFFFFFF AND PUSH20 0xFFFFFFFFFFFFFFFFFFFFFFFFFFFFFFFFFFFFFFFF AND DUP2 MSTORE PUSH1 0x20 ADD SWAP1 DUP2 MSTORE PUSH1 0x20 ADD PUSH0 KECCAK256 PUSH0 ADD DUP1 SLOAD PUSH2 0x561 SWAP1 PUSH2 0x16CF JUMP JUMPDEST SWAP1 POP GT PUSH2 0x5A3 JUMPI PUSH1 0x40 MLOAD PUSH32 0x8C379A000000000000000000000000000000000000000000000000000000000 DUP2 MSTORE PUSH1 0x4 ADD PUSH2 0x59A SWAP1 PUSH2 0x17B1 JUMP JUMPDEST PUSH1 0x40 MLOAD DUP1 SWAP2 SUB SWAP1 REVERT JUMPDEST DUP3 PUSH1 0x1 PUSH0 DUP4 PUSH20 0xFFFFFFFFFFFFFFFFFFFFFFFFFFFFFFFFFFFFFFFF AND PUSH20 0xFFFFFFFFFFFFFFFFFFFFFFFFFFFFFFFFFFFFFFFF AND DUP2 MSTORE PUSH1 0x20 ADD SWAP1 DUP2 MSTORE PUSH1 0x20 ADD PUSH0 KECCAK256 PUSH1 0x1 ADD SLOAD LT ISZERO PUSH2 0x626 JUMPI PUSH1 0x40 MLOAD PUSH32 0x8C379A000000000000000000000000000000000000000000000000000000000 DUP2 MSTORE PUSH1 0x4 ADD PUSH2 0x61D SWAP1 PUSH2 0x1624 JUMP JUMPDEST PUSH1 0x40 MLOAD DUP1 SWAP2 SUB SWAP1 REVERT JUMPDEST PUSH1 0x40 MLOAD PUSH1 0x20 ADD PUSH2 0x635 SWAP1 PUSH2 0x1823 JUMP JUMPDEST PUSH1 0x40 MLOAD PUSH1 0x20 DUP2 DUP4 SUB SUB DUP2 MSTORE SWAP1 PUSH1 0x40 MSTORE DUP1 MLOAD SWAP1 PUSH1 0x20 ADD KECCAK256 DUP3 PUSH1 0x40 MLOAD PUSH1 0x20 ADD PUSH2 0x65C SWAP2 SWAP1 PUSH2 0x1867 JUMP JUMPDEST PUSH1 0x40 MLOAD PUSH1 0x20 DUP2 DUP4 SUB SUB DUP2 MSTORE SWAP1 PUSH1 0x40 MSTORE DUP1 MLOAD SWAP1 PUSH1 0x20 ADD KECCAK256 SUB PUSH2 0x746 JUMPI PUSH1 0x40 MLOAD PUSH1 0x20 ADD PUSH2 0x686 SWAP1 PUSH2 0x18C7 JUMP JUMPDEST PUSH1 0x40 MLOAD PUSH1 0x20 DUP2 DUP4 SUB SUB DUP2 MSTORE SWAP1 PUSH1 0x40 MSTORE DUP1 MLOAD SWAP1 PUSH1 0x20 ADD KECCAK256 PUSH1 0x1 PUSH0 DUP4 PUSH20 0xFFFFFFFFFFFFFFFFFFFFFFFFFFFFFFFFFFFFFFFF AND PUSH20 0xFFFFFFFFFFFFFFFFFFFFFFFFFFFFFFFFFFFFFFFF AND DUP2 MSTORE PUSH1 0x20 ADD SWAP1 DUP2 MSTORE PUSH1 0x20 ADD PUSH0 KECCAK256 PUSH0 ADD PUSH1 0x40 MLOAD PUSH1 0x20 ADD PUSH2 0x6EB SWAP2 SWAP1 PUSH2 0x196D JUMP JUMPDEST PUSH1 0x40 MLOAD PUSH1 0x20 DUP2 DUP4 SUB SUB DUP2 MSTORE SWAP1 PUSH1 0x40 MSTORE DUP1 MLOAD SWAP1 PUSH1 0x20 ADD KECCAK256 EQ PUSH2 0x741 JUMPI PUSH1 0x40 MLOAD PUSH32 0x8C379A000000000000000000000000000000000000000000000000000000000 DUP2 MSTORE PUSH1 0x4 ADD PUSH2 0x738 SWAP1 PUSH2 0x19CD JUMP JUMPDEST PUSH1 0x40 MLOAD DUP1 SWAP2 SUB SWAP1 REVERT JUMPDEST PUSH2 0xABD JUMP JUMPDEST PUSH1 0x40 MLOAD PUSH1 0x20 ADD PUSH2 0x755 SWAP1 PUSH2 0x1A35 JUMP JUMPDEST PUSH1 0x40 MLOAD PUSH1 0x20 DUP2 DUP4 SUB SUB DUP2 MSTORE SWAP1 PUSH1 0x40 MSTORE DUP1 MLOAD SWAP1 PUSH1 0x20 ADD KECCAK256 DUP3 PUSH1 0x40 MLOAD PUSH1 0x20 ADD PUSH2 0x77C SWAP2 SWAP1 PUSH2 0x1867 JUMP JUMPDEST PUSH1 0x40 MLOAD PUSH1 0x20 DUP2 DUP4 SUB SUB DUP2 MSTORE SWAP1 PUSH1 0x40 MSTORE DUP1 MLOAD SWAP1 PUSH1 0x20 ADD KECCAK256 SUB PUSH2 0xABC JUMPI PUSH1 0x40 MLOAD PUSH1 0x20 ADD PUSH2 0x7A6 SWAP1 PUSH2 0x18C7 JUMP JUMPDEST PUSH1 0x40 MLOAD PUSH1 0x20 DUP2 DUP4 SUB SUB DUP2 MSTORE SWAP1 PUSH1 0x40 MSTORE DUP1 MLOAD SWAP1 PUSH1 0x20 ADD KECCAK256 PUSH1 0x1 PUSH0 DUP4 PUSH20 0xFFFFFFFFFFFFFFFFFFFFFFFFFFFFFFFFFFFFFFFF AND PUSH20 0xFFFFFFFFFFFFFFFFFFFFFFFFFFFFFFFFFFFFFFFF AND DUP2 MSTORE PUSH1 0x20 ADD SWAP1 DUP2 MSTORE PUSH1 0x20 ADD PUSH0 KECCAK256 PUSH0 ADD PUSH1 0x40 MLOAD PUSH1 0x20 ADD PUSH2 0x80B SWAP2 SWAP1 PUSH2 0x196D JUMP JUMPDEST PUSH1 0x40 MLOAD PUSH1 0x20 DUP2 DUP4 SUB SUB DUP2 MSTORE SWAP1 PUSH1 0x40 MSTORE DUP1 MLOAD SWAP1 PUSH1 0x20 ADD KECCAK256 EQ PUSH2 0x861 JUMPI PUSH1 0x40 MLOAD PUSH32 0x8C379A000000000000000000000000000000000000000000000000000000000 DUP2 MSTORE PUSH1 0x4 ADD PUSH2 0x858 SWAP1 PUSH2 0x1A93 JUMP JUMPDEST PUSH1 0x40 MLOAD DUP1 SWAP2 SUB SWAP1 REVERT JUMPDEST PUSH1 0x40 MLOAD PUSH1 0x20 ADD PUSH2 0x870 SWAP1 PUSH2 0x18C7 JUMP JUMPDEST PUSH1 0x40 MLOAD PUSH1 0x20 DUP2 DUP4 SUB SUB DUP2 MSTORE SWAP1 PUSH1 0x40 MSTORE DUP1 MLOAD SWAP1 PUSH1 0x20 ADD KECCAK256 PUSH1 0x1 PUSH0 DUP7 PUSH20 0xFFFFFFFFFFFFFFFFFFFFFFFFFFFFFFFFFFFFFFFF AND PUSH20 0xFFFFFFFFFFFFFFFFFFFFFFFFFFFFFFFFFFFFFFFF AND DUP2 MSTORE PUSH1 0x20 ADD SWAP1 DUP2 MSTORE PUSH1 0x20 ADD PUSH0 KECCAK256 PUSH0 ADD PUSH1 0x40 MLOAD PUSH1 0x20 ADD PUSH2 0x8D5 SWAP2 SWAP1 PUSH2 0x196D JUMP JUMPDEST PUSH1 0x40 MLOAD PUSH1 0x20 DUP2 DUP4 SUB SUB DUP2 MSTORE SWAP1 PUSH1 0x40 MSTORE DUP1 MLOAD SWAP1 PUSH1 0x20 ADD KECCAK256 EQ PUSH2 0x92B JUMPI PUSH1 0x40 MLOAD PUSH32 0x8C379A000000000000000000000000000000000000000000000000000000000 DUP2 MSTORE PUSH1 0x4 ADD PUSH2 0x922 SWAP1 PUSH2 0x1AFB JUMP JUMPDEST PUSH1 0x40 MLOAD DUP1 SWAP2 SUB SWAP1 REVERT JUMPDEST PUSH0 PUSH1 0x46 SWAP1 POP PUSH0 PUSH1 0x3 PUSH0 DUP5 PUSH20 0xFFFFFFFFFFFFFFFFFFFFFFFFFFFFFFFFFFFFFFFF AND PUSH20 0xFFFFFFFFFFFFFFFFFFFFFFFFFFFFFFFFFFFFFFFF AND DUP2 MSTORE PUSH1 0x20 ADD SWAP1 DUP2 MSTORE PUSH1 0x20 ADD PUSH0 KECCAK256 SLOAD PUSH1 0x2 PUSH0 DUP6 PUSH20 0xFFFFFFFFFFFFFFFFFFFFFFFFFFFFFFFFFFFFFFFF AND PUSH20 0xFFFFFFFFFFFFFFFFFFFFFFFFFFFFFFFFFFFFFFFF AND DUP2 MSTORE PUSH1 0x20 ADD SWAP1 DUP2 MSTORE PUSH1 0x20 ADD PUSH0 KECCAK256 SLOAD PUSH2 0x9B7 SWAP2 SWAP1 PUSH2 0x166F JUMP JUMPDEST SWAP1 POP DUP5 PUSH1 0x64 DUP4 DUP4 PUSH2 0x9C8 SWAP2 SWAP1 PUSH2 0x1B19 JUMP JUMPDEST PUSH2 0x9D2 SWAP2 SWAP1 PUSH2 0x1B87 JUMP JUMPDEST LT ISZERO PUSH2 0xA13 JUMPI PUSH1 0x40 MLOAD PUSH32 0x8C379A000000000000000000000000000000000000000000000000000000000 DUP2 MSTORE PUSH1 0x4 ADD PUSH2 0xA0A SWAP1 PUSH2 0x1C27 JUMP JUMPDEST PUSH1 0x40 MLOAD DUP1 SWAP2 SUB SWAP1 REVERT JUMPDEST DUP5 PUSH1 0x3 PUSH0 DUP6 PUSH20 0xFFFFFFFFFFFFFFFFFFFFFFFFFFFFFFFFFFFFFFFF AND PUSH20 0xFFFFFFFFFFFFFFFFFFFFFFFFFFFFFFFFFFFFFFFF AND DUP2 MSTORE PUSH1 0x20 ADD SWAP1 DUP2 MSTORE PUSH1 0x20 ADD PUSH0 KECCAK256 PUSH0 DUP3 DUP3 SLOAD PUSH2 0xA5F SWAP2 SWAP1 PUSH2 0x1C45 JUMP JUMPDEST SWAP3 POP POP DUP2 SWAP1 SSTORE POP DUP5 PUSH1 0x2 PUSH0 DUP9 PUSH20 0xFFFFFFFFFFFFFFFFFFFFFFFFFFFFFFFFFFFFFFFF AND PUSH20 0xFFFFFFFFFFFFFFFFFFFFFFFFFFFFFFFFFFFFFFFF AND DUP2 MSTORE PUSH1 0x20 ADD SWAP1 DUP2 MSTORE PUSH1 0x20 ADD PUSH0 KECCAK256 PUSH0 DUP3 DUP3 SLOAD PUSH2 0xAB2 SWAP2 SWAP1 PUSH2 0x1C45 JUMP JUMPDEST SWAP3 POP POP DUP2 SWAP1 SSTORE POP POP POP JUMPDEST JUMPDEST DUP3 PUSH1 0x1 PUSH0 DUP4 PUSH20 0xFFFFFFFFFFFFFFFFFFFFFFFFFFFFFFFFFFFFFFFF AND PUSH20 0xFFFFFFFFFFFFFFFFFFFFFFFFFFFFFFFFFFFFFFFF AND DUP2 MSTORE PUSH1 0x20 ADD SWAP1 DUP2 MSTORE PUSH1 0x20 ADD PUSH0 KECCAK256 PUSH1 0x1 ADD PUSH0 DUP3 DUP3 SLOAD PUSH2 0xB0C SWAP2 SWAP1 PUSH2 0x166F JUMP JUMPDEST SWAP3 POP POP DUP2 SWAP1 SSTORE POP DUP3 PUSH1 0x1 PUSH0 DUP7 PUSH20 0xFFFFFFFFFFFFFFFFFFFFFFFFFFFFFFFFFFFFFFFF AND PUSH20 0xFFFFFFFFFFFFFFFFFFFFFFFFFFFFFFFFFFFFFFFF AND DUP2 MSTORE PUSH1 0x20 ADD SWAP1 DUP2 MSTORE PUSH1 0x20 ADD PUSH0 KECCAK256 PUSH1 0x1 ADD PUSH0 DUP3 DUP3 SLOAD PUSH2 0xB62 SWAP2 SWAP1 PUSH2 0x1C45 JUMP JUMPDEST SWAP3 POP POP DUP2 SWAP1 SSTORE POP DUP4 PUSH20 0xFFFFFFFFFFFFFFFFFFFFFFFFFFFFFFFFFFFFFFFF AND DUP2 PUSH20 0xFFFFFFFFFFFFFFFFFFFFFFFFFFFFFFFFFFFFFFFF AND PUSH32 0x20404A7FCEF99C1CE456F7054C0F458A8645A82241EB36FEAB02658A4A8F359B DUP6 DUP6 PUSH1 0x40 MLOAD PUSH2 0xBC8 SWAP3 SWAP2 SWAP1 PUSH2 0x1C78 JUMP JUMPDEST PUSH1 0x40 MLOAD DUP1 SWAP2 SUB SWAP1 LOG3 POP POP POP POP JUMP JUMPDEST PUSH2 0xBDE PUSH2 0x10B7 JUMP JUMPDEST PUSH2 0xBE7 PUSH0 PUSH2 0x113E JUMP JUMPDEST JUMP JUMPDEST PUSH1 0x1 PUSH1 0x20 MSTORE DUP1 PUSH0 MSTORE PUSH1 0x40 PUSH0 KECCAK256 PUSH0 SWAP2 POP SWAP1 POP DUP1 PUSH0 ADD DUP1 SLOAD PUSH2 0xC08 SWAP1 PUSH2 0x16CF JUMP JUMPDEST DUP1 PUSH1 0x1F ADD PUSH1 0x20 DUP1 SWAP2 DIV MUL PUSH1 0x20 ADD PUSH1 0x40 MLOAD SWAP1 DUP2 ADD PUSH1 0x40 MSTORE DUP1 SWAP3 SWAP2 SWAP1 DUP2 DUP2 MSTORE PUSH1 0x20 ADD DUP3 DUP1 SLOAD PUSH2 0xC34 SWAP1 PUSH2 0x16CF JUMP JUMPDEST DUP1 ISZERO PUSH2 0xC7F JUMPI DUP1 PUSH1 0x1F LT PUSH2 0xC56 JUMPI PUSH2 0x100 DUP1 DUP4 SLOAD DIV MUL DUP4 MSTORE SWAP2 PUSH1 0x20 ADD SWAP2 PUSH2 0xC7F JUMP JUMPDEST DUP3 ADD SWAP2 SWAP1 PUSH0 MSTORE PUSH1 0x20 PUSH0 KECCAK256 SWAP1 JUMPDEST DUP2 SLOAD DUP2 MSTORE SWAP1 PUSH1 0x1 ADD SWAP1 PUSH1 0x20 ADD DUP1 DUP4 GT PUSH2 0xC62 JUMPI DUP3 SWAP1 SUB PUSH1 0x1F AND DUP3 ADD SWAP2 JUMPDEST POP POP POP POP POP SWAP1 DUP1 PUSH1 0x1 ADD SLOAD SWAP1 POP DUP3 JUMP JUMPDEST PUSH0 DUP1 PUSH0 SWAP1 SLOAD SWAP1 PUSH2 0x100 EXP SWAP1 DIV PUSH20 0xFFFFFFFFFFFFFFFFFFFFFFFFFFFFFFFFFFFFFFFF AND SWAP1 POP SWAP1 JUMP JUMPDEST PUSH2 0xCBE PUSH2 0x10B7 JUMP JUMPDEST PUSH0 PUSH1 0x1 PUSH0 DUP5 PUSH20 0xFFFFFFFFFFFFFFFFFFFFFFFFFFFFFFFFFFFFFFFF AND PUSH20 0xFFFFFFFFFFFFFFFFFFFFFFFFFFFFFFFFFFFFFFFF AND DUP2 MSTORE PUSH1 0x20 ADD SWAP1 DUP2 MSTORE PUSH1 0x20 ADD PUSH0 KECCAK256 PUSH0 ADD DUP1 SLOAD PUSH2 0xD09 SWAP1 PUSH2 0x16CF JUMP JUMPDEST SWAP1 POP EQ PUSH2 0xD4B JUMPI PUSH1 0x40 MLOAD PUSH32 0x8C379A000000000000000000000000000000000000000000000000000000000 DUP2 MSTORE PUSH1 0x4 ADD PUSH2 0xD42 SWAP1 PUSH2 0x1CF0 JUMP JUMPDEST PUSH1 0x40 MLOAD DUP1 SWAP2 SUB SWAP1 REVERT JUMPDEST PUSH1 0x40 MLOAD DUP1 PUSH1 0x40 ADD PUSH1 0x40 MSTORE DUP1 DUP3 DUP2 MSTORE PUSH1 0x20 ADD PUSH0 DUP2 MSTORE POP PUSH1 0x1 PUSH0 DUP5 PUSH20 0xFFFFFFFFFFFFFFFFFFFFFFFFFFFFFFFFFFFFFFFF AND PUSH20 0xFFFFFFFFFFFFFFFFFFFFFFFFFFFFFFFFFFFFFFFF AND DUP2 MSTORE PUSH1 0x20 ADD SWAP1 DUP2 MSTORE PUSH1 0x20 ADD PUSH0 KECCAK256 PUSH0 DUP3 ADD MLOAD DUP2 PUSH0 ADD SWAP1 DUP2 PUSH2 0xDB0 SWAP2 SWAP1 PUSH2 0x1E99 JUMP JUMPDEST POP PUSH1 0x20 DUP3 ADD MLOAD DUP2 PUSH1 0x1 ADD SSTORE SWAP1 POP POP PUSH1 0x40 MLOAD PUSH1 0x20 ADD PUSH2 0xDCD SWAP1 PUSH2 0x18C7 JUMP JUMPDEST PUSH1 0x40 MLOAD PUSH1 0x20 DUP2 DUP4 SUB SUB DUP2 MSTORE SWAP1 PUSH1 0x40 MSTORE DUP1 MLOAD SWAP1 PUSH1 0x20 ADD KECCAK256 DUP2 PUSH1 0x40 MLOAD PUSH1 0x20 ADD PUSH2 0xDF4 SWAP2 SWAP1 PUSH2 0x1867 JUMP JUMPDEST PUSH1 0x40 MLOAD PUSH1 0x20 DUP2 DUP4 SUB SUB DUP2 MSTORE SWAP1 PUSH1 0x40 MSTORE DUP1 MLOAD SWAP1 PUSH1 0x20 ADD KECCAK256 SUB PUSH2 0xE94 JUMPI PUSH0 PUSH1 0x2 PUSH0 DUP5 PUSH20 0xFFFFFFFFFFFFFFFFFFFFFFFFFFFFFFFFFFFFFFFF AND PUSH20 0xFFFFFFFFFFFFFFFFFFFFFFFFFFFFFFFFFFFFFFFF AND DUP2 MSTORE PUSH1 0x20 ADD SWAP1 DUP2 MSTORE PUSH1 0x20 ADD PUSH0 KECCAK256 DUP2 SWAP1 SSTORE POP PUSH0 PUSH1 0x3 PUSH0 DUP5 PUSH20 0xFFFFFFFFFFFFFFFFFFFFFFFFFFFFFFFFFFFFFFFF AND PUSH20 0xFFFFFFFFFFFFFFFFFFFFFFFFFFFFFFFFFFFFFFFF AND DUP2 MSTORE PUSH1 0x20 ADD SWAP1 DUP2 MSTORE PUSH1 0x20 ADD PUSH0 KECCAK256 DUP2 SWAP1 SSTORE POP JUMPDEST DUP2 PUSH20 0xFFFFFFFFFFFFFFFFFFFFFFFFFFFFFFFFFFFFFFFF AND PUSH32 0xFD8C98A09DA86EBA82DA3F4067F073C6EF0F7138BC302E189386DF00B87B836C DUP3 PUSH1 0x40 MLOAD PUSH2 0xEDA SWAP2 SWAP1 PUSH2 0x1F68 JUMP JUMPDEST PUSH1 0x40 MLOAD DUP1 SWAP2 SUB SWAP1 LOG2 POP POP JUMP JUMPDEST PUSH0 PUSH1 0x1 PUSH0 CALLER PUSH20 0xFFFFFFFFFFFFFFFFFFFFFFFFFFFFFFFFFFFFFFFF AND PUSH20 0xFFFFFFFFFFFFFFFFFFFFFFFFFFFFFFFFFFFFFFFF AND DUP2 MSTORE PUSH1 0x20 ADD SWAP1 DUP2 MSTORE PUSH1 0x20 ADD PUSH0 KECCAK256 PUSH0 ADD DUP1 SLOAD PUSH2 0xF31 SWAP1 PUSH2 0x16CF JUMP JUMPDEST SWAP1 POP GT PUSH2 0xF73 JUMPI PUSH1 0x40 MLOAD PUSH32 0x8C379A000000000000000000000000000000000000000000000000000000000 DUP2 MSTORE PUSH1 0x4 ADD PUSH2 0xF6A SWAP1 PUSH2 0x1FD2 JUMP JUMPDEST PUSH1 0x40 MLOAD DUP1 SWAP2 SUB SWAP1 REVERT JUMPDEST CALLVALUE PUSH1 0x2 PUSH0 CALLER PUSH20 0xFFFFFFFFFFFFFFFFFFFFFFFFFFFFFFFFFFFFFFFF AND PUSH20 0xFFFFFFFFFFFFFFFFFFFFFFFFFFFFFFFFFFFFFFFF AND DUP2 MSTORE PUSH1 0x20 ADD SWAP1 DUP2 MSTORE PUSH1 0x20 ADD PUSH0 KECCAK256 PUSH0 DUP3 DUP3 SLOAD PUSH2 0xFBF SWAP2 SWAP1 PUSH2 0x1C45 JUMP JUMPDEST SWAP3 POP POP DUP2 SWAP1 SSTORE POP CALLVALUE PUSH1 0x1 PUSH0 CALLER PUSH20 0xFFFFFFFFFFFFFFFFFFFFFFFFFFFFFFFFFFFFFFFF AND PUSH20 0xFFFFFFFFFFFFFFFFFFFFFFFFFFFFFFFFFFFFFFFF AND DUP2 MSTORE PUSH1 0x20 ADD SWAP1 DUP2 MSTORE PUSH1 0x20 ADD PUSH0 KECCAK256 PUSH1 0x1 ADD PUSH0 DUP3 DUP3 SLOAD PUSH2 0x1015 SWAP2 SWAP1 PUSH2 0x1C45 JUMP JUMPDEST SWAP3 POP POP DUP2 SWAP1 SSTORE POP JUMP JUMPDEST PUSH1 0x2 PUSH1 0x20 MSTORE DUP1 PUSH0 MSTORE PUSH1 0x40 PUSH0 KECCAK256 PUSH0 SWAP2 POP SWAP1 POP SLOAD DUP2 JUMP JUMPDEST PUSH2 0x103B PUSH2 0x10B7 JUMP JUMPDEST PUSH0 PUSH20 0xFFFFFFFFFFFFFFFFFFFFFFFFFFFFFFFFFFFFFFFF AND DUP2 PUSH20 0xFFFFFFFFFFFFFFFFFFFFFFFFFFFFFFFFFFFFFFFF AND SUB PUSH2 0x10AB JUMPI PUSH0 PUSH1 0x40 MLOAD PUSH32 0x1E4FBDF700000000000000000000000000000000000000000000000000000000 DUP2 MSTORE PUSH1 0x4 ADD PUSH2 0x10A2 SWAP2 SWAP1 PUSH2 0x1567 JUMP JUMPDEST PUSH1 0x40 MLOAD DUP1 SWAP2 SUB SWAP1 REVERT JUMPDEST PUSH2 0x10B4 DUP2 PUSH2 0x113E JUMP JUMPDEST POP JUMP JUMPDEST PUSH2 0x10BF PUSH2 0x11FF JUMP JUMPDEST PUSH20 0xFFFFFFFFFFFFFFFFFFFFFFFFFFFFFFFFFFFFFFFF AND PUSH2 0x10DD PUSH2 0xC8F JUMP JUMPDEST PUSH20 0xFFFFFFFFFFFFFFFFFFFFFFFFFFFFFFFFFFFFFFFF AND EQ PUSH2 0x113C JUMPI PUSH2 0x1100 PUSH2 0x11FF JUMP JUMPDEST PUSH1 0x40 MLOAD PUSH32 0x118CDAA700000000000000000000000000000000000000000000000000000000 DUP2 MSTORE PUSH1 0x4 ADD PUSH2 0x1133 SWAP2 SWAP1 PUSH2 0x1567 JUMP JUMPDEST PUSH1 0x40 MLOAD DUP1 SWAP2 SUB SWAP1 REVERT JUMPDEST JUMP JUMPDEST PUSH0 DUP1 PUSH0 SWAP1 SLOAD SWAP1 PUSH2 0x100 EXP SWAP1 DIV PUSH20 0xFFFFFFFFFFFFFFFFFFFFFFFFFFFFFFFFFFFFFFFF AND SWAP1 POP DUP2 PUSH0 DUP1 PUSH2 0x100 EXP DUP2 SLOAD DUP2 PUSH20 0xFFFFFFFFFFFFFFFFFFFFFFFFFFFFFFFFFFFFFFFF MUL NOT AND SWAP1 DUP4 PUSH20 0xFFFFFFFFFFFFFFFFFFFFFFFFFFFFFFFFFFFFFFFF AND MUL OR SWAP1 SSTORE POP DUP2 PUSH20 0xFFFFFFFFFFFFFFFFFFFFFFFFFFFFFFFFFFFFFFFF AND DUP2 PUSH20 0xFFFFFFFFFFFFFFFFFFFFFFFFFFFFFFFFFFFFFFFF AND PUSH32 0x8BE0079C531659141344CD1FD0A4F28419497F9722A3DAAFE3B4186F6B6457E0 PUSH1 0x40 MLOAD PUSH1 0x40 MLOAD DUP1 SWAP2 SUB SWAP1 LOG3 POP POP JUMP JUMPDEST PUSH0 CALLER SWAP1 POP SWAP1 JUMP JUMPDEST PUSH0 DUP2 SWAP1 POP SWAP2 SWAP1 POP JUMP JUMPDEST PUSH2 0x1218 DUP2 PUSH2 0x1206 JUMP JUMPDEST DUP3 MSTORE POP POP JUMP JUMPDEST PUSH0 PUSH1 0x20 DUP3 ADD SWAP1 POP PUSH2 0x1231 PUSH0 DUP4 ADD DUP5 PUSH2 0x120F JUMP JUMPDEST SWAP3 SWAP2 POP POP JUMP JUMPDEST PUSH0 PUSH1 0x40 MLOAD SWAP1 POP SWAP1 JUMP JUMPDEST PUSH0 DUP1 REVERT JUMPDEST PUSH0 DUP1 REVERT JUMPDEST PUSH2 0x1251 DUP2 PUSH2 0x1206 JUMP JUMPDEST DUP2 EQ PUSH2 0x125B JUMPI PUSH0 DUP1 REVERT JUMPDEST POP JUMP JUMPDEST PUSH0 DUP2 CALLDATALOAD SWAP1 POP PUSH2 0x126C DUP2 PUSH2 0x1248 JUMP JUMPDEST SWAP3 SWAP2 POP POP JUMP JUMPDEST PUSH0 PUSH1 0x20 DUP3 DUP5 SUB SLT ISZERO PUSH2 0x1287 JUMPI PUSH2 0x1286 PUSH2 0x1240 JUMP JUMPDEST JUMPDEST PUSH0 PUSH2 0x1294 DUP5 DUP3 DUP6 ADD PUSH2 0x125E JUMP JUMPDEST SWAP2 POP POP SWAP3 SWAP2 POP POP JUMP JUMPDEST PUSH0 PUSH20 0xFFFFFFFFFFFFFFFFFFFFFFFFFFFFFFFFFFFFFFFF DUP3 AND SWAP1 POP SWAP2 SWAP1 POP JUMP JUMPDEST PUSH0 PUSH2 0x12C6 DUP3 PUSH2 0x129D JUMP JUMPDEST SWAP1 POP SWAP2 SWAP1 POP JUMP JUMPDEST PUSH2 0x12D6 DUP2 PUSH2 0x12BC JUMP JUMPDEST DUP2 EQ PUSH2 0x12E0 JUMPI PUSH0 DUP1 REVERT JUMPDEST POP JUMP JUMPDEST PUSH0 DUP2 CALLDATALOAD SWAP1 POP PUSH2 0x12F1 DUP2 PUSH2 0x12CD JUMP JUMPDEST SWAP3 SWAP2 POP POP JUMP JUMPDEST PUSH0 PUSH1 0x20 DUP3 DUP5 SUB SLT ISZERO PUSH2 0x130C JUMPI PUSH2 0x130B PUSH2 0x1240 JUMP JUMPDEST JUMPDEST PUSH0 PUSH2 0x1319 DUP5 DUP3 DUP6 ADD PUSH2 0x12E3 JUMP JUMPDEST SWAP2 POP POP SWAP3 SWAP2 POP POP JUMP JUMPDEST PUSH0 DUP1 REVERT JUMPDEST PUSH0 DUP1 REVERT JUMPDEST PUSH0 PUSH1 0x1F NOT PUSH1 0x1F DUP4 ADD AND SWAP1 POP SWAP2 SWAP1 POP JUMP JUMPDEST PUSH32 0x4E487B7100000000000000000000000000000000000000000000000000000000 PUSH0 MSTORE PUSH1 0x41 PUSH1 0x4 MSTORE PUSH1 0x24 PUSH0 REVERT JUMPDEST PUSH2 0x1370 DUP3 PUSH2 0x132A JUMP JUMPDEST DUP2 ADD DUP2 DUP2 LT PUSH8 0xFFFFFFFFFFFFFFFF DUP3 GT OR ISZERO PUSH2 0x138F JUMPI PUSH2 0x138E PUSH2 0x133A JUMP JUMPDEST JUMPDEST DUP1 PUSH1 0x40 MSTORE POP POP POP JUMP JUMPDEST PUSH0 PUSH2 0x13A1 PUSH2 0x1237 JUMP JUMPDEST SWAP1 POP PUSH2 0x13AD DUP3 DUP3 PUSH2 0x1367 JUMP JUMPDEST SWAP2 SWAP1 POP JUMP JUMPDEST PUSH0 PUSH8 0xFFFFFFFFFFFFFFFF DUP3 GT ISZERO PUSH2 0x13CC JUMPI PUSH2 0x13CB PUSH2 0x133A JUMP JUMPDEST JUMPDEST PUSH2 0x13D5 DUP3 PUSH2 0x132A JUMP JUMPDEST SWAP1 POP PUSH1 0x20 DUP2 ADD SWAP1 POP SWAP2 SWAP1 POP JUMP JUMPDEST DUP3 DUP2 DUP4 CALLDATACOPY PUSH0 DUP4 DUP4 ADD MSTORE POP POP POP JUMP JUMPDEST PUSH0 PUSH2 0x1402 PUSH2 0x13FD DUP5 PUSH2 0x13B2 JUMP JUMPDEST PUSH2 0x1398 JUMP JUMPDEST SWAP1 POP DUP3 DUP2 MSTORE PUSH1 0x20 DUP2 ADD DUP5 DUP5 DUP5 ADD GT ISZERO PUSH2 0x141E JUMPI PUSH2 0x141D PUSH2 0x1326 JUMP JUMPDEST JUMPDEST PUSH2 0x1429 DUP5 DUP3 DUP6 PUSH2 0x13E2 JUMP JUMPDEST POP SWAP4 SWAP3 POP POP POP JUMP JUMPDEST PUSH0 DUP3 PUSH1 0x1F DUP4 ADD SLT PUSH2 0x1445 JUMPI PUSH2 0x1444 PUSH2 0x1322 JUMP JUMPDEST JUMPDEST DUP2 CALLDATALOAD PUSH2 0x1455 DUP5 DUP3 PUSH1 0x20 DUP7 ADD PUSH2 0x13F0 JUMP JUMPDEST SWAP2 POP POP SWAP3 SWAP2 POP POP JUMP JUMPDEST PUSH0 DUP1 PUSH0 PUSH1 0x60 DUP5 DUP7 SUB SLT ISZERO PUSH2 0x1475 JUMPI PUSH2 0x1474 PUSH2 0x1240 JUMP JUMPDEST JUMPDEST PUSH0 PUSH2 0x1482 DUP7 DUP3 DUP8 ADD PUSH2 0x12E3 JUMP JUMPDEST SWAP4 POP POP PUSH1 0x20 PUSH2 0x1493 DUP7 DUP3 DUP8 ADD PUSH2 0x125E JUMP JUMPDEST SWAP3 POP POP PUSH1 0x40 DUP5 ADD CALLDATALOAD PUSH8 0xFFFFFFFFFFFFFFFF DUP2 GT ISZERO PUSH2 0x14B4 JUMPI PUSH2 0x14B3 PUSH2 0x1244 JUMP JUMPDEST JUMPDEST PUSH2 0x14C0 DUP7 DUP3 DUP8 ADD PUSH2 0x1431 JUMP JUMPDEST SWAP2 POP POP SWAP3 POP SWAP3 POP SWAP3 JUMP JUMPDEST PUSH0 DUP2 MLOAD SWAP1 POP SWAP2 SWAP1 POP JUMP JUMPDEST PUSH0 DUP3 DUP3 MSTORE PUSH1 0x20 DUP3 ADD SWAP1 POP SWAP3 SWAP2 POP POP JUMP JUMPDEST DUP3 DUP2 DUP4 MCOPY PUSH0 DUP4 DUP4 ADD MSTORE POP POP POP JUMP JUMPDEST PUSH0 PUSH2 0x14FC DUP3 PUSH2 0x14CA JUMP JUMPDEST PUSH2 0x1506 DUP2 DUP6 PUSH2 0x14D4 JUMP JUMPDEST SWAP4 POP PUSH2 0x1516 DUP2 DUP6 PUSH1 0x20 DUP7 ADD PUSH2 0x14E4 JUMP JUMPDEST PUSH2 0x151F DUP2 PUSH2 0x132A JUMP JUMPDEST DUP5 ADD SWAP2 POP POP SWAP3 SWAP2 POP POP JUMP JUMPDEST PUSH0 PUSH1 0x40 DUP3 ADD SWAP1 POP DUP2 DUP2 SUB PUSH0 DUP4 ADD MSTORE PUSH2 0x1542 DUP2 DUP6 PUSH2 0x14F2 JUMP JUMPDEST SWAP1 POP PUSH2 0x1551 PUSH1 0x20 DUP4 ADD DUP5 PUSH2 0x120F JUMP JUMPDEST SWAP4 SWAP3 POP POP POP JUMP JUMPDEST PUSH2 0x1561 DUP2 PUSH2 0x12BC JUMP JUMPDEST DUP3 MSTORE POP POP JUMP JUMPDEST PUSH0 PUSH1 0x20 DUP3 ADD SWAP1 POP PUSH2 0x157A PUSH0 DUP4 ADD DUP5 PUSH2 0x1558 JUMP JUMPDEST SWAP3 SWAP2 POP POP JUMP JUMPDEST PUSH0 DUP1 PUSH1 0x40 DUP4 DUP6 SUB SLT ISZERO PUSH2 0x1596 JUMPI PUSH2 0x1595 PUSH2 0x1240 JUMP JUMPDEST JUMPDEST PUSH0 PUSH2 0x15A3 DUP6 DUP3 DUP7 ADD PUSH2 0x12E3 JUMP JUMPDEST SWAP3 POP POP PUSH1 0x20 DUP4 ADD CALLDATALOAD PUSH8 0xFFFFFFFFFFFFFFFF DUP2 GT ISZERO PUSH2 0x15C4 JUMPI PUSH2 0x15C3 PUSH2 0x1244 JUMP JUMPDEST JUMPDEST PUSH2 0x15D0 DUP6 DUP3 DUP7 ADD PUSH2 0x1431 JUMP JUMPDEST SWAP2 POP POP SWAP3 POP SWAP3 SWAP1 POP JUMP JUMPDEST PUSH32 0x496E73756666696369656E742062616C616E6365000000000000000000000000 PUSH0 DUP3 ADD MSTORE POP JUMP JUMPDEST PUSH0 PUSH2 0x160E PUSH1 0x14 DUP4 PUSH2 0x14D4 JUMP JUMPDEST SWAP2 POP PUSH2 0x1619 DUP3 PUSH2 0x15DA JUMP JUMPDEST PUSH1 0x20 DUP3 ADD SWAP1 POP SWAP2 SWAP1 POP JUMP JUMPDEST PUSH0 PUSH1 0x20 DUP3 ADD SWAP1 POP DUP2 DUP2 SUB PUSH0 DUP4 ADD MSTORE PUSH2 0x163B DUP2 PUSH2 0x1602 JUMP JUMPDEST SWAP1 POP SWAP2 SWAP1 POP JUMP JUMPDEST PUSH32 0x4E487B7100000000000000000000000000000000000000000000000000000000 PUSH0 MSTORE PUSH1 0x11 PUSH1 0x4 MSTORE PUSH1 0x24 PUSH0 REVERT JUMPDEST PUSH0 PUSH2 0x1679 DUP3 PUSH2 0x1206 JUMP JUMPDEST SWAP2 POP PUSH2 0x1684 DUP4 PUSH2 0x1206 JUMP JUMPDEST SWAP3 POP DUP3 DUP3 SUB SWAP1 POP DUP2 DUP2 GT ISZERO PUSH2 0x169C JUMPI PUSH2 0x169B PUSH2 0x1642 JUMP JUMPDEST JUMPDEST SWAP3 SWAP2 POP POP JUMP JUMPDEST PUSH32 0x4E487B7100000000000000000000000000000000000000000000000000000000 PUSH0 MSTORE PUSH1 0x22 PUSH1 0x4 MSTORE PUSH1 0x24 PUSH0 REVERT JUMPDEST PUSH0 PUSH1 0x2 DUP3 DIV SWAP1 POP PUSH1 0x1 DUP3 AND DUP1 PUSH2 0x16E6 JUMPI PUSH1 0x7F DUP3 AND SWAP2 POP JUMPDEST PUSH1 0x20 DUP3 LT DUP2 SUB PUSH2 0x16F9 JUMPI PUSH2 0x16F8 PUSH2 0x16A2 JUMP JUMPDEST JUMPDEST POP SWAP2 SWAP1 POP JUMP JUMPDEST PUSH32 0x53656E6465722077616C6C6574206E6F74207265676973746572656400000000 PUSH0 DUP3 ADD MSTORE POP JUMP JUMPDEST PUSH0 PUSH2 0x1733 PUSH1 0x1C DUP4 PUSH2 0x14D4 JUMP JUMPDEST SWAP2 POP PUSH2 0x173E DUP3 PUSH2 0x16FF JUMP JUMPDEST PUSH1 0x20 DUP3 ADD SWAP1 POP SWAP2 SWAP1 POP JUMP JUMPDEST PUSH0 PUSH1 0x20 DUP3 ADD SWAP1 POP DUP2 DUP2 SUB PUSH0 DUP4 ADD MSTORE PUSH2 0x1760 DUP2 PUSH2 0x1727 JUMP JUMPDEST SWAP1 POP SWAP2 SWAP1 POP JUMP JUMPDEST PUSH32 0x52656365697665722077616C6C6574206E6F7420726567697374657265640000 PUSH0 DUP3 ADD MSTORE POP JUMP JUMPDEST PUSH0 PUSH2 0x179B PUSH1 0x1E DUP4 PUSH2 0x14D4 JUMP JUMPDEST SWAP2 POP PUSH2 0x17A6 DUP3 PUSH2 0x1767 JUMP JUMPDEST PUSH1 0x20 DUP3 ADD SWAP1 POP SWAP2 SWAP1 POP JUMP JUMPDEST PUSH0 PUSH1 0x20 DUP3 ADD SWAP1 POP DUP2 DUP2 SUB PUSH0 DUP4 ADD MSTORE PUSH2 0x17C8 DUP2 PUSH2 0x178F JUMP JUMPDEST SWAP1 POP SWAP2 SWAP1 POP JUMP JUMPDEST PUSH0 DUP2 SWAP1 POP SWAP3 SWAP2 POP POP JUMP JUMPDEST PUSH32 0x706C6179657253616C6172790000000000000000000000000000000000000000 PUSH0 DUP3 ADD MSTORE POP JUMP JUMPDEST PUSH0 PUSH2 0x180D PUSH1 0xC DUP4 PUSH2 0x17CF JUMP JUMPDEST SWAP2 POP PUSH2 0x1818 DUP3 PUSH2 0x17D9 JUMP JUMPDEST PUSH1 0xC DUP3 ADD SWAP1 POP SWAP2 SWAP1 POP JUMP JUMPDEST PUSH0 PUSH2 0x182D DUP3 PUSH2 0x1801 JUMP JUMPDEST SWAP2 POP DUP2 SWAP1 POP SWAP2 SWAP1 POP JUMP JUMPDEST PUSH0 PUSH2 0x1841 DUP3 PUSH2 0x14CA JUMP JUMPDEST PUSH2 0x184B DUP2 DUP6 PUSH2 0x17CF JUMP JUMPDEST SWAP4 POP PUSH2 0x185B DUP2 DUP6 PUSH1 0x20 DUP7 ADD PUSH2 0x14E4 JUMP JUMPDEST DUP1 DUP5 ADD SWAP2 POP POP SWAP3 SWAP2 POP POP JUMP JUMPDEST PUSH0 PUSH2 0x1872 DUP3 DUP5 PUSH2 0x1837 JUMP JUMPDEST SWAP2 POP DUP2 SWAP1 POP SWAP3 SWAP2 POP POP JUMP JUMPDEST PUSH32 0x636C756200000000000000000000000000000000000000000000000000000000 PUSH0 DUP3 ADD MSTORE POP JUMP JUMPDEST PUSH0 PUSH2 0x18B1 PUSH1 0x4 DUP4 PUSH2 0x17CF JUMP JUMPDEST SWAP2 POP PUSH2 0x18BC DUP3 PUSH2 0x187D JUMP JUMPDEST PUSH1 0x4 DUP3 ADD SWAP1 POP SWAP2 SWAP1 POP JUMP JUMPDEST PUSH0 PUSH2 0x18D1 DUP3 PUSH2 0x18A5 JUMP JUMPDEST SWAP2 POP DUP2 SWAP1 POP SWAP2 SWAP1 POP JUMP JUMPDEST PUSH0 DUP2 SWAP1 POP DUP2 PUSH0 MSTORE PUSH1 0x20 PUSH0 KECCAK256 SWAP1 POP SWAP2 SWAP1 POP JUMP JUMPDEST PUSH0 DUP2 SLOAD PUSH2 0x18F9 DUP2 PUSH2 0x16CF JUMP JUMPDEST PUSH2 0x1903 DUP2 DUP7 PUSH2 0x17CF JUMP JUMPDEST SWAP5 POP PUSH1 0x1 DUP3 AND PUSH0 DUP2 EQ PUSH2 0x191D JUMPI PUSH1 0x1 DUP2 EQ PUSH2 0x1932 JUMPI PUSH2 0x1964 JUMP JUMPDEST PUSH1 0xFF NOT DUP4 AND DUP7 MSTORE DUP2 ISZERO ISZERO DUP3 MUL DUP7 ADD SWAP4 POP PUSH2 0x1964 JUMP JUMPDEST PUSH2 0x193B DUP6 PUSH2 0x18DB JUMP JUMPDEST PUSH0 JUMPDEST DUP4 DUP2 LT ISZERO PUSH2 0x195C JUMPI DUP2 SLOAD DUP2 DUP10 ADD MSTORE PUSH1 0x1 DUP3 ADD SWAP2 POP PUSH1 0x20 DUP2 ADD SWAP1 POP PUSH2 0x193D JUMP JUMPDEST DUP4 DUP9 ADD SWAP6 POP POP POP JUMPDEST POP POP POP SWAP3 SWAP2 POP POP JUMP JUMPDEST PUSH0 PUSH2 0x1978 DUP3 DUP5 PUSH2 0x18ED JUMP JUMPDEST SWAP2 POP DUP2 SWAP1 POP SWAP3 SWAP2 POP POP JUMP JUMPDEST PUSH32 0x4F6E6C7920636C7562732063616E207061792073616C61726965730000000000 PUSH0 DUP3 ADD MSTORE POP JUMP JUMPDEST PUSH0 PUSH2 0x19B7 PUSH1 0x1B DUP4 PUSH2 0x14D4 JUMP JUMPDEST SWAP2 POP PUSH2 0x19C2 DUP3 PUSH2 0x1983 JUMP JUMPDEST PUSH1 0x20 DUP3 ADD SWAP1 POP SWAP2 SWAP1 POP JUMP JUMPDEST PUSH0 PUSH1 0x20 DUP3 ADD SWAP1 POP DUP2 DUP2 SUB PUSH0 DUP4 ADD MSTORE PUSH2 0x19E4 DUP2 PUSH2 0x19AB JUMP JUMPDEST SWAP1 POP SWAP2 SWAP1 POP JUMP JUMPDEST PUSH32 0x706C617965725075726368617365000000000000000000000000000000000000 PUSH0 DUP3 ADD MSTORE POP JUMP JUMPDEST PUSH0 PUSH2 0x1A1F PUSH1 0xE DUP4 PUSH2 0x17CF JUMP JUMPDEST SWAP2 POP PUSH2 0x1A2A DUP3 PUSH2 0x19EB JUMP JUMPDEST PUSH1 0xE DUP3 ADD SWAP1 POP SWAP2 SWAP1 POP JUMP JUMPDEST PUSH0 PUSH2 0x1A3F DUP3 PUSH2 0x1A13 JUMP JUMPDEST SWAP2 POP DUP2 SWAP1 POP SWAP2 SWAP1 POP JUMP JUMPDEST PUSH32 0x4F6E6C7920636C7562732063616E20707572636861736520706C617965727300 PUSH0 DUP3 ADD MSTORE POP JUMP JUMPDEST PUSH0 PUSH2 0x1A7D PUSH1 0x1F DUP4 PUSH2 0x14D4 JUMP JUMPDEST SWAP2 POP PUSH2 0x1A88 DUP3 PUSH2 0x1A49 JUMP JUMPDEST PUSH1 0x20 DUP3 ADD SWAP1 POP SWAP2 SWAP1 POP JUMP JUMPDEST PUSH0 PUSH1 0x20 DUP3 ADD SWAP1 POP DUP2 DUP2 SUB PUSH0 DUP4 ADD MSTORE PUSH2 0x1AAA DUP2 PUSH2 0x1A71 JUMP JUMPDEST SWAP1 POP SWAP2 SWAP1 POP JUMP JUMPDEST PUSH32 0x5265636569766572206D757374206265206120636C7562000000000000000000 PUSH0 DUP3 ADD MSTORE POP JUMP JUMPDEST PUSH0 PUSH2 0x1AE5 PUSH1 0x17 DUP4 PUSH2 0x14D4 JUMP JUMPDEST SWAP2 POP PUSH2 0x1AF0 DUP3 PUSH2 0x1AB1 JUMP JUMPDEST PUSH1 0x20 DUP3 ADD SWAP1 POP SWAP2 SWAP1 POP JUMP JUMPDEST PUSH0 PUSH1 0x20 DUP3 ADD SWAP1 POP DUP2 DUP2 SUB PUSH0 DUP4 ADD MSTORE PUSH2 0x1B12 DUP2 PUSH2 0x1AD9 JUMP JUMPDEST SWAP1 POP SWAP2 SWAP1 POP JUMP JUMPDEST PUSH0 PUSH2 0x1B23 DUP3 PUSH2 0x1206 JUMP JUMPDEST SWAP2 POP PUSH2 0x1B2E DUP4 PUSH2 0x1206 JUMP JUMPDEST SWAP3 POP DUP3 DUP3 MUL PUSH2 0x1B3C DUP2 PUSH2 0x1206 JUMP JUMPDEST SWAP2 POP DUP3 DUP3 DIV DUP5 EQ DUP4 ISZERO OR PUSH2 0x1B53 JUMPI PUSH2 0x1B52 PUSH2 0x1642 JUMP JUMPDEST JUMPDEST POP SWAP3 SWAP2 POP POP JUMP JUMPDEST PUSH32 0x4E487B7100000000000000000000000000000000000000000000000000000000 PUSH0 MSTORE PUSH1 0x12 PUSH1 0x4 MSTORE PUSH1 0x24 PUSH0 REVERT JUMPDEST PUSH0 PUSH2 0x1B91 DUP3 PUSH2 0x1206 JUMP JUMPDEST SWAP2 POP PUSH2 0x1B9C DUP4 PUSH2 0x1206 JUMP JUMPDEST SWAP3 POP DUP3 PUSH2 0x1BAC JUMPI PUSH2 0x1BAB PUSH2 0x1B5A JUMP JUMPDEST JUMPDEST DUP3 DUP3 DIV SWAP1 POP SWAP3 SWAP2 POP POP JUMP JUMPDEST PUSH32 0x436C7562277320726576656E7565206D757374206265206174206C6561737420 PUSH0 DUP3 ADD MSTORE PUSH32 0x373025206F6620416D6F756E742073656E740000000000000000000000000000 PUSH1 0x20 DUP3 ADD MSTORE POP JUMP JUMPDEST PUSH0 PUSH2 0x1C11 PUSH1 0x32 DUP4 PUSH2 0x14D4 JUMP JUMPDEST SWAP2 POP PUSH2 0x1C1C DUP3 PUSH2 0x1BB7 JUMP JUMPDEST PUSH1 0x40 DUP3 ADD SWAP1 POP SWAP2 SWAP1 POP JUMP JUMPDEST PUSH0 PUSH1 0x20 DUP3 ADD SWAP1 POP DUP2 DUP2 SUB PUSH0 DUP4 ADD MSTORE PUSH2 0x1C3E DUP2 PUSH2 0x1C05 JUMP JUMPDEST SWAP1 POP SWAP2 SWAP1 POP JUMP JUMPDEST PUSH0 PUSH2 0x1C4F DUP3 PUSH2 0x1206 JUMP JUMPDEST SWAP2 POP PUSH2 0x1C5A DUP4 PUSH2 0x1206 JUMP JUMPDEST SWAP3 POP DUP3 DUP3 ADD SWAP1 POP DUP1 DUP3 GT ISZERO PUSH2 0x1C72 JUMPI PUSH2 0x1C71 PUSH2 0x1642 JUMP JUMPDEST JUMPDEST SWAP3 SWAP2 POP POP JUMP JUMPDEST PUSH0 PUSH1 0x40 DUP3 ADD SWAP1 POP PUSH2 0x1C8B PUSH0 DUP4 ADD DUP6 PUSH2 0x120F JUMP JUMPDEST DUP2 DUP2 SUB PUSH1 0x20 DUP4 ADD MSTORE PUSH2 0x1C9D DUP2 DUP5 PUSH2 0x14F2 JUMP JUMPDEST SWAP1 POP SWAP4 SWAP3 POP POP POP JUMP JUMPDEST PUSH32 0x57616C6C657420616C7265616479207265676973746572656400000000000000 PUSH0 DUP3 ADD MSTORE POP JUMP JUMPDEST PUSH0 PUSH2 0x1CDA PUSH1 0x19 DUP4 PUSH2 0x14D4 JUMP JUMPDEST SWAP2 POP PUSH2 0x1CE5 DUP3 PUSH2 0x1CA6 JUMP JUMPDEST PUSH1 0x20 DUP3 ADD SWAP1 POP SWAP2 SWAP1 POP JUMP JUMPDEST PUSH0 PUSH1 0x20 DUP3 ADD SWAP1 POP DUP2 DUP2 SUB PUSH0 DUP4 ADD MSTORE PUSH2 0x1D07 DUP2 PUSH2 0x1CCE JUMP JUMPDEST SWAP1 POP SWAP2 SWAP1 POP JUMP JUMPDEST PUSH0 PUSH1 0x20 PUSH1 0x1F DUP4 ADD DIV SWAP1 POP SWAP2 SWAP1 POP JUMP JUMPDEST PUSH0 DUP3 DUP3 SHL SWAP1 POP SWAP3 SWAP2 POP POP JUMP JUMPDEST PUSH0 PUSH1 0x8 DUP4 MUL PUSH2 0x1D58 PUSH32 0xFFFFFFFFFFFFFFFFFFFFFFFFFFFFFFFFFFFFFFFFFFFFFFFFFFFFFFFFFFFFFFFF DUP3 PUSH2 0x1D1D JUMP JUMPDEST PUSH2 0x1D62 DUP7 DUP4 PUSH2 0x1D1D JUMP JUMPDEST SWAP6 POP DUP1 NOT DUP5 AND SWAP4 POP DUP1 DUP7 AND DUP5 OR SWAP3 POP POP POP SWAP4 SWAP3 POP POP POP JUMP JUMPDEST PUSH0 DUP2 SWAP1 POP SWAP2 SWAP1 POP JUMP JUMPDEST PUSH0 PUSH2 0x1D9D PUSH2 0x1D98 PUSH2 0x1D93 DUP5 PUSH2 0x1206 JUMP JUMPDEST PUSH2 0x1D7A JUMP JUMPDEST PUSH2 0x1206 JUMP JUMPDEST SWAP1 POP SWAP2 SWAP1 POP JUMP JUMPDEST PUSH0 DUP2 SWAP1 POP SWAP2 SWAP1 POP JUMP JUMPDEST PUSH2 0x1DB6 DUP4 PUSH2 0x1D83 JUMP JUMPDEST PUSH2 0x1DCA PUSH2 0x1DC2 DUP3 PUSH2 0x1DA4 JUMP JUMPDEST DUP5 DUP5 SLOAD PUSH2 0x1D29 JUMP JUMPDEST DUP3 SSTORE POP POP POP POP JUMP JUMPDEST PUSH0 SWAP1 JUMP JUMPDEST PUSH2 0x1DDE PUSH2 0x1DD2 JUMP JUMPDEST PUSH2 0x1DE9 DUP2 DUP5 DUP5 PUSH2 0x1DAD JUMP JUMPDEST POP POP POP JUMP JUMPDEST JUMPDEST DUP2 DUP2 LT ISZERO PUSH2 0x1E0C JUMPI PUSH2 0x1E01 PUSH0 DUP3 PUSH2 0x1DD6 JUMP JUMPDEST PUSH1 0x1 DUP2 ADD SWAP1 POP PUSH2 0x1DEF JUMP JUMPDEST POP POP JUMP JUMPDEST PUSH1 0x1F DUP3 GT ISZERO PUSH2 0x1E51 JUMPI PUSH2 0x1E22 DUP2 PUSH2 0x18DB JUMP JUMPDEST PUSH2 0x1E2B DUP5 PUSH2 0x1D0E JUMP JUMPDEST DUP2 ADD PUSH1 0x20 DUP6 LT ISZERO PUSH2 0x1E3A JUMPI DUP2 SWAP1 POP JUMPDEST PUSH2 0x1E4E PUSH2 0x1E46 DUP6 PUSH2 0x1D0E JUMP JUMPDEST DUP4 ADD DUP3 PUSH2 0x1DEE JUMP JUMPDEST POP POP JUMPDEST POP POP POP JUMP JUMPDEST PUSH0 DUP3 DUP3 SHR SWAP1 POP SWAP3 SWAP2 POP POP JUMP JUMPDEST PUSH0 PUSH2 0x1E71 PUSH0 NOT DUP5 PUSH1 0x8 MUL PUSH2 0x1E56 JUMP JUMPDEST NOT DUP1 DUP4 AND SWAP2 POP POP SWAP3 SWAP2 POP POP JUMP JUMPDEST PUSH0 PUSH2 0x1E89 DUP4 DUP4 PUSH2 0x1E62 JUMP JUMPDEST SWAP2 POP DUP3 PUSH1 0x2 MUL DUP3 OR SWAP1 POP SWAP3 SWAP2 POP POP JUMP JUMPDEST PUSH2 0x1EA2 DUP3 PUSH2 0x14CA JUMP JUMPDEST PUSH8 0xFFFFFFFFFFFFFFFF DUP2 GT ISZERO PUSH2 0x1EBB JUMPI PUSH2 0x1EBA PUSH2 0x133A JUMP JUMPDEST JUMPDEST PUSH2 0x1EC5 DUP3 SLOAD PUSH2 0x16CF JUMP JUMPDEST PUSH2 0x1ED0 DUP3 DUP3 DUP6 PUSH2 0x1E10 JUMP JUMPDEST PUSH0 PUSH1 0x20 SWAP1 POP PUSH1 0x1F DUP4 GT PUSH1 0x1 DUP2 EQ PUSH2 0x1F01 JUMPI PUSH0 DUP5 ISZERO PUSH2 0x1EEF JUMPI DUP3 DUP8 ADD MLOAD SWAP1 POP JUMPDEST PUSH2 0x1EF9 DUP6 DUP3 PUSH2 0x1E7E JUMP JUMPDEST DUP7 SSTORE POP PUSH2 0x1F60 JUMP JUMPDEST PUSH1 0x1F NOT DUP5 AND PUSH2 0x1F0F DUP7 PUSH2 0x18DB JUMP JUMPDEST PUSH0 JUMPDEST DUP3 DUP2 LT ISZERO PUSH2 0x1F36 JUMPI DUP5 DUP10 ADD MLOAD DUP3 SSTORE PUSH1 0x1 DUP3 ADD SWAP2 POP PUSH1 0x20 DUP6 ADD SWAP5 POP PUSH1 0x20 DUP2 ADD SWAP1 POP PUSH2 0x1F11 JUMP JUMPDEST DUP7 DUP4 LT ISZERO PUSH2 0x1F53 JUMPI DUP5 DUP10 ADD MLOAD PUSH2 0x1F4F PUSH1 0x1F DUP10 AND DUP3 PUSH2 0x1E62 JUMP JUMPDEST DUP4 SSTORE POP JUMPDEST PUSH1 0x1 PUSH1 0x2 DUP9 MUL ADD DUP9 SSTORE POP POP POP JUMPDEST POP POP POP POP POP POP JUMP JUMPDEST PUSH0 PUSH1 0x20 DUP3 ADD SWAP1 POP DUP2 DUP2 SUB PUSH0 DUP4 ADD MSTORE PUSH2 0x1F80 DUP2 DUP5 PUSH2 0x14F2 JUMP JUMPDEST SWAP1 POP SWAP3 SWAP2 POP POP JUMP JUMPDEST PUSH32 0x57616C6C6574206E6F7420726567697374657265640000000000000000000000 PUSH0 DUP3 ADD MSTORE POP JUMP JUMPDEST PUSH0 PUSH2 0x1FBC PUSH1 0x15 DUP4 PUSH2 0x14D4 JUMP JUMPDEST SWAP2 POP PUSH2 0x1FC7 DUP3 PUSH2 0x1F88 JUMP JUMPDEST PUSH1 0x20 DUP3 ADD SWAP1 POP SWAP2 SWAP1 POP JUMP JUMPDEST PUSH0 PUSH1 0x20 DUP3 ADD SWAP1 POP DUP2 DUP2 SUB PUSH0 DUP4 ADD MSTORE PUSH2 0x1FE9 DUP2 PUSH2 0x1FB0 JUMP JUMPDEST SWAP1 POP SWAP2 SWAP1 POP JUMP INVALID LOG2 PUSH5 0x6970667358 0x22 SLT KECCAK256 0xD2 CREATE 0xD3 0x24 JUMP 0xC3 0x2C GASPRICE CALLER LT 0x2E 0x2E CALL 0xB9 PUSH8 0xB8B31ABDD2386D12 JUMP 0x22 0xB7 PUSH20 0xF8E30C6BEA64736F6C634300081A003300000000 "
				},
				"gasEstimates": {
					"creation": {
						"codeDepositCost": "1646000",
						"executionCost": "infinite",
						"totalCost": "infinite"
					},
					"external": {
						"currentclubRevenue(address)": "2890",
						"deposit()": "infinite",
						"getBalance()": "2526",
						"owner()": "2537",
						"registerWallet(address,string)": "infinite",
						"renounceOwnership()": "infinite",
						"spentClubRevenue(address)": "2847",
						"transfer(address,uint256,string)": "infinite",
						"transferOwnership(address)": "infinite",
						"wallets(address)": "infinite",
						"withdraw(uint256)": "infinite"
					}
				},
				"methodIdentifiers": {
					"currentclubRevenue(address)": "d7cf5ff5",
					"deposit()": "d0e30db0",
					"getBalance()": "12065fe0",
					"owner()": "8da5cb5b",
					"registerWallet(address,string)": "c0bc2bdf",
					"renounceOwnership()": "715018a6",
					"spentClubRevenue(address)": "50bd9941",
					"transfer(address,uint256,string)": "56b8c724",
					"transferOwnership(address)": "f2fde38b",
					"wallets(address)": "89b08f11",
					"withdraw(uint256)": "2e1a7d4d"
				}
			},
			"storageLayout": {
				"storage": [
					{
						"astId": 8,
						"contract": "contracts/FFP.sol:FinancialFairPlayTransfers",
						"label": "_owner",
						"offset": 0,
						"slot": "0",
						"type": "t_address"
					},
					{
						"astId": 200,
						"contract": "contracts/FFP.sol:FinancialFairPlayTransfers",
						"label": "wallets",
						"offset": 0,
						"slot": "1",
						"type": "t_mapping(t_address,t_struct(Wallet)195_storage)"
					},
					{
						"astId": 204,
						"contract": "contracts/FFP.sol:FinancialFairPlayTransfers",
						"label": "currentclubRevenue",
						"offset": 0,
						"slot": "2",
						"type": "t_mapping(t_address,t_uint256)"
					},
					{
						"astId": 208,
						"contract": "contracts/FFP.sol:FinancialFairPlayTransfers",
						"label": "spentClubRevenue",
						"offset": 0,
						"slot": "3",
						"type": "t_mapping(t_address,t_uint256)"
					}
				],
				"types": {
					"t_address": {
						"encoding": "inplace",
						"label": "address",
						"numberOfBytes": "20"
					},
					"t_mapping(t_address,t_struct(Wallet)195_storage)": {
						"encoding": "mapping",
						"key": "t_address",
						"label": "mapping(address => struct FinancialFairPlayTransfers.Wallet)",
						"numberOfBytes": "32",
						"value": "t_struct(Wallet)195_storage"
					},
					"t_mapping(t_address,t_uint256)": {
						"encoding": "mapping",
						"key": "t_address",
						"label": "mapping(address => uint256)",
						"numberOfBytes": "32",
						"value": "t_uint256"
					},
					"t_string_storage": {
						"encoding": "bytes",
						"label": "string",
						"numberOfBytes": "32"
					},
					"t_struct(Wallet)195_storage": {
						"encoding": "inplace",
						"label": "struct FinancialFairPlayTransfers.Wallet",
						"members": [
							{
								"astId": 192,
								"contract": "contracts/FFP.sol:FinancialFairPlayTransfers",
								"label": "walletType",
								"offset": 0,
								"slot": "0",
								"type": "t_string_storage"
							},
							{
								"astId": 194,
								"contract": "contracts/FFP.sol:FinancialFairPlayTransfers",
								"label": "balance",
								"offset": 0,
								"slot": "1",
								"type": "t_uint256"
							}
						],
						"numberOfBytes": "64"
					},
					"t_uint256": {
						"encoding": "inplace",
						"label": "uint256",
						"numberOfBytes": "32"
					}
				}
			},
			"userdoc": {
				"kind": "user",
				"methods": {},
				"version": 1
			}
		}
	}
}