{
	"contracts/Oracle.sol": {
		"Oracle": {
			"abi": [
				{
					"anonymous": false,
					"inputs": [
						{
							"indexed": false,
							"internalType": "uint256",
							"name": "id",
							"type": "uint256"
						},
						{
							"indexed": false,
							"internalType": "string",
							"name": "urlToQuery",
							"type": "string"
						},
						{
							"indexed": false,
							"internalType": "string",
							"name": "attributeToFetch",
							"type": "string"
						}
					],
					"name": "NewRequest",
					"type": "event"
				},
				{
					"anonymous": false,
					"inputs": [
						{
							"indexed": false,
							"internalType": "uint256",
							"name": "id",
							"type": "uint256"
						},
						{
							"indexed": false,
							"internalType": "string",
							"name": "urlToQuery",
							"type": "string"
						},
						{
							"indexed": false,
							"internalType": "string",
							"name": "attributeToFetch",
							"type": "string"
						},
						{
							"indexed": false,
							"internalType": "string",
							"name": "agreedValue",
							"type": "string"
						}
					],
					"name": "UpdatedRequest",
					"type": "event"
				},
				{
					"inputs": [
						{
							"internalType": "string",
							"name": "_urlToQuery",
							"type": "string"
						},
						{
							"internalType": "string",
							"name": "_attributeToFetch",
							"type": "string"
						}
					],
					"name": "createRequest",
					"outputs": [],
					"stateMutability": "nonpayable",
					"type": "function"
				},
				{
					"inputs": [],
					"name": "currentId",
					"outputs": [
						{
							"internalType": "uint256",
							"name": "",
							"type": "uint256"
						}
					],
					"stateMutability": "view",
					"type": "function"
				},
				{
					"inputs": [],
					"name": "minQuorum",
					"outputs": [
						{
							"internalType": "uint256",
							"name": "",
							"type": "uint256"
						}
					],
					"stateMutability": "view",
					"type": "function"
				},
				{
					"inputs": [
						{
							"internalType": "uint256",
							"name": "",
							"type": "uint256"
						}
					],
					"name": "requests",
					"outputs": [
						{
							"internalType": "uint256",
							"name": "id",
							"type": "uint256"
						},
						{
							"internalType": "string",
							"name": "urlToQuery",
							"type": "string"
						},
						{
							"internalType": "string",
							"name": "attributeToFetch",
							"type": "string"
						},
						{
							"internalType": "string",
							"name": "agreedValue",
							"type": "string"
						}
					],
					"stateMutability": "view",
					"type": "function"
				},
				{
					"inputs": [],
					"name": "totalOracleCount",
					"outputs": [
						{
							"internalType": "uint256",
							"name": "",
							"type": "uint256"
						}
					],
					"stateMutability": "view",
					"type": "function"
				},
				{
					"inputs": [
						{
							"internalType": "uint256",
							"name": "_id",
							"type": "uint256"
						},
						{
							"internalType": "string",
							"name": "_valueRetrieved",
							"type": "string"
						}
					],
					"name": "updateRequest",
					"outputs": [],
					"stateMutability": "nonpayable",
					"type": "function"
				}
			],
			"devdoc": {
				"kind": "dev",
				"methods": {},
				"version": 1
			},
			"evm": {
				"assembly": "    /* \"contracts/Oracle.sol\":60:3831  contract Oracle {... */\n  mstore(0x40, 0x80)\n    /* \"contracts/Oracle.sol\":180:181  0 */\n  0x00\n    /* \"contracts/Oracle.sol\":156:181  uint public currentId = 0 */\n  0x01\n  sstore\n    /* \"contracts/Oracle.sol\":237:238  2 */\n  0x02\n    /* \"contracts/Oracle.sol\":213:238  uint public minQuorum = 2 */\n  dup1\n  sstore\n    /* \"contracts/Oracle.sol\":348:349  3 */\n  0x03\n    /* \"contracts/Oracle.sol\":317:349  uint public totalOracleCount = 3 */\n  dup1\n  sstore\n    /* \"contracts/Oracle.sol\":60:3831  contract Oracle {... */\n  callvalue\n  dup1\n  iszero\n  tag_1\n  jumpi\n  0x00\n  dup1\n  revert\ntag_1:\n  pop\n  dataSize(sub_0)\n  dup1\n  dataOffset(sub_0)\n  0x00\n  codecopy\n  0x00\n  return\nstop\n\nsub_0: assembly {\n        /* \"contracts/Oracle.sol\":60:3831  contract Oracle {... */\n      mstore(0x40, 0x80)\n      callvalue\n      dup1\n      iszero\n      tag_1\n      jumpi\n      0x00\n      dup1\n      revert\n    tag_1:\n      pop\n      jumpi(tag_2, lt(calldatasize, 0x04))\n      shr(0xe0, calldataload(0x00))\n      dup1\n      0x81d12c58\n      eq\n      tag_3\n      jumpi\n      dup1\n      0x99cc7f60\n      eq\n      tag_4\n      jumpi\n      dup1\n      0xb5a127e5\n      eq\n      tag_5\n      jumpi\n      dup1\n      0xcfb0ac99\n      eq\n      tag_6\n      jumpi\n      dup1\n      0xdf89f819\n      eq\n      tag_7\n      jumpi\n      dup1\n      0xe00dd161\n      eq\n      tag_8\n      jumpi\n    tag_2:\n      0x00\n      dup1\n      revert\n        /* \"contracts/Oracle.sol\":83:108  Request[] public requests */\n    tag_3:\n      tag_9\n      0x04\n      dup1\n      calldatasize\n      sub\n      dup2\n      add\n      swap1\n      tag_10\n      swap2\n      swap1\n      tag_11\n      jump\t// in\n    tag_10:\n      tag_12\n      jump\t// in\n    tag_9:\n      mload(0x40)\n      tag_13\n      swap5\n      swap4\n      swap3\n      swap2\n      swap1\n      tag_14\n      jump\t// in\n    tag_13:\n      mload(0x40)\n      dup1\n      swap2\n      sub\n      swap1\n      return\n        /* \"contracts/Oracle.sol\":317:349  uint public totalOracleCount = 3 */\n    tag_4:\n      tag_15\n      tag_16\n      jump\t// in\n    tag_15:\n      mload(0x40)\n      tag_17\n      swap2\n      swap1\n      tag_18\n      jump\t// in\n    tag_17:\n      mload(0x40)\n      dup1\n      swap2\n      sub\n      swap1\n      return\n        /* \"contracts/Oracle.sol\":213:238  uint public minQuorum = 2 */\n    tag_5:\n      tag_19\n      tag_20\n      jump\t// in\n    tag_19:\n      mload(0x40)\n      tag_21\n      swap2\n      swap1\n      tag_18\n      jump\t// in\n    tag_21:\n      mload(0x40)\n      dup1\n      swap2\n      sub\n      swap1\n      return\n        /* \"contracts/Oracle.sol\":2155:3828  function updateRequest(... */\n    tag_6:\n      tag_22\n      0x04\n      dup1\n      calldatasize\n      sub\n      dup2\n      add\n      swap1\n      tag_23\n      swap2\n      swap1\n      tag_24\n      jump\t// in\n    tag_23:\n      tag_25\n      jump\t// in\n    tag_22:\n      stop\n        /* \"contracts/Oracle.sol\":1305:2097  function createRequest(... */\n    tag_7:\n      tag_26\n      0x04\n      dup1\n      calldatasize\n      sub\n      dup2\n      add\n      swap1\n      tag_27\n      swap2\n      swap1\n      tag_28\n      jump\t// in\n    tag_27:\n      tag_29\n      jump\t// in\n    tag_26:\n      stop\n        /* \"contracts/Oracle.sol\":156:181  uint public currentId = 0 */\n    tag_8:\n      tag_30\n      tag_31\n      jump\t// in\n    tag_30:\n      mload(0x40)\n      tag_32\n      swap2\n      swap1\n      tag_18\n      jump\t// in\n    tag_32:\n      mload(0x40)\n      dup1\n      swap2\n      sub\n      swap1\n      return\n        /* \"contracts/Oracle.sol\":83:108  Request[] public requests */\n    tag_12:\n      0x00\n      dup2\n      dup2\n      sload\n      dup2\n      lt\n      tag_33\n      jumpi\n      0x00\n      dup1\n      revert\n    tag_33:\n      swap1\n      0x00\n      mstore\n      keccak256(0x00, 0x20)\n      swap1\n      0x06\n      mul\n      add\n      0x00\n      swap2\n      pop\n      swap1\n      pop\n      dup1\n      0x00\n      add\n      sload\n      swap1\n      dup1\n      0x01\n      add\n      dup1\n      sload\n      tag_35\n      swap1\n      tag_36\n      jump\t// in\n    tag_35:\n      dup1\n      0x1f\n      add\n      0x20\n      dup1\n      swap2\n      div\n      mul\n      0x20\n      add\n      mload(0x40)\n      swap1\n      dup2\n      add\n      0x40\n      mstore\n      dup1\n      swap3\n      swap2\n      swap1\n      dup2\n      dup2\n      mstore\n      0x20\n      add\n      dup3\n      dup1\n      sload\n      tag_37\n      swap1\n      tag_36\n      jump\t// in\n    tag_37:\n      dup1\n      iszero\n      tag_38\n      jumpi\n      dup1\n      0x1f\n      lt\n      tag_39\n      jumpi\n      0x0100\n      dup1\n      dup4\n      sload\n      div\n      mul\n      dup4\n      mstore\n      swap2\n      0x20\n      add\n      swap2\n      jump(tag_38)\n    tag_39:\n      dup3\n      add\n      swap2\n      swap1\n      0x00\n      mstore\n      keccak256(0x00, 0x20)\n      swap1\n    tag_40:\n      dup2\n      sload\n      dup2\n      mstore\n      swap1\n      0x01\n      add\n      swap1\n      0x20\n      add\n      dup1\n      dup4\n      gt\n      tag_40\n      jumpi\n      dup3\n      swap1\n      sub\n      0x1f\n      and\n      dup3\n      add\n      swap2\n    tag_38:\n      pop\n      pop\n      pop\n      pop\n      pop\n      swap1\n      dup1\n      0x02\n      add\n      dup1\n      sload\n      tag_41\n      swap1\n      tag_36\n      jump\t// in\n    tag_41:\n      dup1\n      0x1f\n      add\n      0x20\n      dup1\n      swap2\n      div\n      mul\n      0x20\n      add\n      mload(0x40)\n      swap1\n      dup2\n      add\n      0x40\n      mstore\n      dup1\n      swap3\n      swap2\n      swap1\n      dup2\n      dup2\n      mstore\n      0x20\n      add\n      dup3\n      dup1\n      sload\n      tag_42\n      swap1\n      tag_36\n      jump\t// in\n    tag_42:\n      dup1\n      iszero\n      tag_43\n      jumpi\n      dup1\n      0x1f\n      lt\n      tag_44\n      jumpi\n      0x0100\n      dup1\n      dup4\n      sload\n      div\n      mul\n      dup4\n      mstore\n      swap2\n      0x20\n      add\n      swap2\n      jump(tag_43)\n    tag_44:\n      dup3\n      add\n      swap2\n      swap1\n      0x00\n      mstore\n      keccak256(0x00, 0x20)\n      swap1\n    tag_45:\n      dup2\n      sload\n      dup2\n      mstore\n      swap1\n      0x01\n      add\n      swap1\n      0x20\n      add\n      dup1\n      dup4\n      gt\n      tag_45\n      jumpi\n      dup3\n      swap1\n      sub\n      0x1f\n      and\n      dup3\n      add\n      swap2\n    tag_43:\n      pop\n      pop\n      pop\n      pop\n      pop\n      swap1\n      dup1\n      0x03\n      add\n      dup1\n      sload\n      tag_46\n      swap1\n      tag_36\n      jump\t// in\n    tag_46:\n      dup1\n      0x1f\n      add\n      0x20\n      dup1\n      swap2\n      div\n      mul\n      0x20\n      add\n      mload(0x40)\n      swap1\n      dup2\n      add\n      0x40\n      mstore\n      dup1\n      swap3\n      swap2\n      swap1\n      dup2\n      dup2\n      mstore\n      0x20\n      add\n      dup3\n      dup1\n      sload\n      tag_47\n      swap1\n      tag_36\n      jump\t// in\n    tag_47:\n      dup1\n      iszero\n      tag_48\n      jumpi\n      dup1\n      0x1f\n      lt\n      tag_49\n      jumpi\n      0x0100\n      dup1\n      dup4\n      sload\n      div\n      mul\n      dup4\n      mstore\n      swap2\n      0x20\n      add\n      swap2\n      jump(tag_48)\n    tag_49:\n      dup3\n      add\n      swap2\n      swap1\n      0x00\n      mstore\n      keccak256(0x00, 0x20)\n      swap1\n    tag_50:\n      dup2\n      sload\n      dup2\n      mstore\n      swap1\n      0x01\n      add\n      swap1\n      0x20\n      add\n      dup1\n      dup4\n      gt\n      tag_50\n      jumpi\n      dup3\n      swap1\n      sub\n      0x1f\n      and\n      dup3\n      add\n      swap2\n    tag_48:\n      pop\n      pop\n      pop\n      pop\n      pop\n      swap1\n      pop\n      dup5\n      jump\t// out\n        /* \"contracts/Oracle.sol\":317:349  uint public totalOracleCount = 3 */\n    tag_16:\n      sload(0x03)\n      dup2\n      jump\t// out\n        /* \"contracts/Oracle.sol\":213:238  uint public minQuorum = 2 */\n    tag_20:\n      sload(0x02)\n      dup2\n      jump\t// out\n        /* \"contracts/Oracle.sol\":2155:3828  function updateRequest(... */\n    tag_25:\n        /* \"contracts/Oracle.sol\":2262:2289  Request storage currRequest */\n      0x00\n        /* \"contracts/Oracle.sol\":2292:2300  requests */\n      dup1\n        /* \"contracts/Oracle.sol\":2301:2304  _id */\n      dup4\n        /* \"contracts/Oracle.sol\":2292:2305  requests[_id] */\n      dup2\n      sload\n      dup2\n      lt\n      tag_52\n      jumpi\n      tag_53\n      tag_54\n      jump\t// in\n    tag_53:\n    tag_52:\n      swap1\n      0x00\n      mstore\n      keccak256(0x00, 0x20)\n      swap1\n      0x06\n      mul\n      add\n        /* \"contracts/Oracle.sol\":2262:2305  Request storage currRequest = requests[_id] */\n      swap1\n      pop\n        /* \"contracts/Oracle.sol\":2469:2470  1 */\n      0x01\n        /* \"contracts/Oracle.sol\":2435:2446  currRequest */\n      dup2\n        /* \"contracts/Oracle.sol\":2435:2453  currRequest.quorum */\n      0x05\n      add\n        /* \"contracts/Oracle.sol\":2435:2465  currRequest.quorum[msg.sender] */\n      0x00\n        /* \"contracts/Oracle.sol\":2454:2464  msg.sender */\n      caller\n        /* \"contracts/Oracle.sol\":2435:2465  currRequest.quorum[msg.sender] */\n      0xffffffffffffffffffffffffffffffffffffffff\n      and\n      0xffffffffffffffffffffffffffffffffffffffff\n      and\n      dup2\n      mstore\n      0x20\n      add\n      swap1\n      dup2\n      mstore\n      0x20\n      add\n      0x00\n      keccak256\n      sload\n        /* \"contracts/Oracle.sol\":2435:2470  currRequest.quorum[msg.sender] == 1 */\n      eq\n        /* \"contracts/Oracle.sol\":2427:2513  require(currRequest.quorum[msg.sender] == 1, \"Oracle not authorized or already voted\") */\n      tag_56\n      jumpi\n      mload(0x40)\n      0x08c379a000000000000000000000000000000000000000000000000000000000\n      dup2\n      mstore\n      0x04\n      add\n      tag_57\n      swap1\n      tag_58\n      jump\t// in\n    tag_57:\n      mload(0x40)\n      dup1\n      swap2\n      sub\n      swap1\n      revert\n    tag_56:\n        /* \"contracts/Oracle.sol\":2607:2608  2 */\n      0x02\n        /* \"contracts/Oracle.sol\":2574:2585  currRequest */\n      dup2\n        /* \"contracts/Oracle.sol\":2574:2592  currRequest.quorum */\n      0x05\n      add\n        /* \"contracts/Oracle.sol\":2574:2604  currRequest.quorum[msg.sender] */\n      0x00\n        /* \"contracts/Oracle.sol\":2593:2603  msg.sender */\n      caller\n        /* \"contracts/Oracle.sol\":2574:2604  currRequest.quorum[msg.sender] */\n      0xffffffffffffffffffffffffffffffffffffffff\n      and\n      0xffffffffffffffffffffffffffffffffffffffff\n      and\n      dup2\n      mstore\n      0x20\n      add\n      swap1\n      dup2\n      mstore\n      0x20\n      add\n      0x00\n      keccak256\n        /* \"contracts/Oracle.sol\":2574:2608  currRequest.quorum[msg.sender] = 2 */\n      dup2\n      swap1\n      sstore\n      pop\n        /* \"contracts/Oracle.sol\":2722:2731  uint tmpI */\n      0x00\n        /* \"contracts/Oracle.sol\":2746:2756  bool found */\n      dup1\n        /* \"contracts/Oracle.sol\":2775:3034  while (!found) {... */\n    tag_59:\n        /* \"contracts/Oracle.sol\":2783:2788  found */\n      dup1\n        /* \"contracts/Oracle.sol\":2775:3034  while (!found) {... */\n      tag_60\n      jumpi\n        /* \"contracts/Oracle.sol\":2890:2891  0 */\n      0x00\n        /* \"contracts/Oracle.sol\":2853:2864  currRequest */\n      dup4\n        /* \"contracts/Oracle.sol\":2853:2872  currRequest.answers */\n      0x04\n      add\n        /* \"contracts/Oracle.sol\":2853:2878  currRequest.answers[tmpI] */\n      0x00\n        /* \"contracts/Oracle.sol\":2873:2877  tmpI */\n      dup5\n        /* \"contracts/Oracle.sol\":2853:2878  currRequest.answers[tmpI] */\n      dup2\n      mstore\n      0x20\n      add\n      swap1\n      dup2\n      mstore\n      0x20\n      add\n      0x00\n      keccak256\n        /* \"contracts/Oracle.sol\":2847:2886  bytes(currRequest.answers[tmpI]).length */\n      dup1\n      sload\n      tag_61\n      swap1\n      tag_36\n      jump\t// in\n    tag_61:\n      swap1\n      pop\n        /* \"contracts/Oracle.sol\":2847:2891  bytes(currRequest.answers[tmpI]).length == 0 */\n      sub\n        /* \"contracts/Oracle.sol\":2843:3002  if (bytes(currRequest.answers[tmpI]).length == 0) {... */\n      tag_62\n      jumpi\n        /* \"contracts/Oracle.sol\":2920:2924  true */\n      0x01\n        /* \"contracts/Oracle.sol\":2912:2924  found = true */\n      swap1\n      pop\n        /* \"contracts/Oracle.sol\":2971:2986  _valueRetrieved */\n      dup4\n        /* \"contracts/Oracle.sol\":2943:2954  currRequest */\n      dup4\n        /* \"contracts/Oracle.sol\":2943:2962  currRequest.answers */\n      0x04\n      add\n        /* \"contracts/Oracle.sol\":2943:2968  currRequest.answers[tmpI] */\n      0x00\n        /* \"contracts/Oracle.sol\":2963:2967  tmpI */\n      dup5\n        /* \"contracts/Oracle.sol\":2943:2968  currRequest.answers[tmpI] */\n      dup2\n      mstore\n      0x20\n      add\n      swap1\n      dup2\n      mstore\n      0x20\n      add\n      0x00\n      keccak256\n        /* \"contracts/Oracle.sol\":2943:2986  currRequest.answers[tmpI] = _valueRetrieved */\n      swap1\n      dup2\n      tag_63\n      swap2\n      swap1\n      tag_64\n      jump\t// in\n    tag_63:\n      pop\n        /* \"contracts/Oracle.sol\":2843:3002  if (bytes(currRequest.answers[tmpI]).length == 0) {... */\n    tag_62:\n        /* \"contracts/Oracle.sol\":3016:3022  tmpI++ */\n      dup2\n      dup1\n      tag_65\n      swap1\n      tag_66\n      jump\t// in\n    tag_65:\n      swap3\n      pop\n      pop\n        /* \"contracts/Oracle.sol\":2775:3034  while (!found) {... */\n      jump(tag_59)\n    tag_60:\n        /* \"contracts/Oracle.sol\":3046:3064  uint currentQuorum */\n      0x00\n        /* \"contracts/Oracle.sol\":3229:3235  uint i */\n      dup1\n        /* \"contracts/Oracle.sol\":3224:3821  for (uint i = 0; i < totalOracleCount; i++) {... */\n    tag_67:\n        /* \"contracts/Oracle.sol\":3245:3261  totalOracleCount */\n      sload(0x03)\n        /* \"contracts/Oracle.sol\":3241:3242  i */\n      dup2\n        /* \"contracts/Oracle.sol\":3241:3261  i < totalOracleCount */\n      lt\n        /* \"contracts/Oracle.sol\":3224:3821  for (uint i = 0; i < totalOracleCount; i++) {... */\n      iszero\n      tag_68\n      jumpi\n        /* \"contracts/Oracle.sol\":3347:3362  _valueRetrieved */\n      dup6\n        /* \"contracts/Oracle.sol\":3331:3364  keccak256(bytes(_valueRetrieved)) */\n      dup1\n      mload\n      swap1\n      0x20\n      add\n      keccak256\n        /* \"contracts/Oracle.sol\":3303:3314  currRequest */\n      dup6\n        /* \"contracts/Oracle.sol\":3303:3322  currRequest.answers */\n      0x04\n      add\n        /* \"contracts/Oracle.sol\":3303:3325  currRequest.answers[i] */\n      0x00\n        /* \"contracts/Oracle.sol\":3323:3324  i */\n      dup4\n        /* \"contracts/Oracle.sol\":3303:3325  currRequest.answers[i] */\n      dup2\n      mstore\n      0x20\n      add\n      swap1\n      dup2\n      mstore\n      0x20\n      add\n      0x00\n      keccak256\n        /* \"contracts/Oracle.sol\":3287:3327  keccak256(bytes(currRequest.answers[i])) */\n      mload(0x40)\n      tag_70\n      swap2\n      swap1\n      tag_71\n      jump\t// in\n    tag_70:\n      mload(0x40)\n      dup1\n      swap2\n      sub\n      swap1\n      keccak256\n        /* \"contracts/Oracle.sol\":3287:3364  keccak256(bytes(currRequest.answers[i])) == keccak256(bytes(_valueRetrieved)) */\n      sub\n        /* \"contracts/Oracle.sol\":3283:3810  if (keccak256(bytes(currRequest.answers[i])) == keccak256(bytes(_valueRetrieved))) {... */\n      tag_72\n      jumpi\n        /* \"contracts/Oracle.sol\":3385:3400  currentQuorum++ */\n      dup2\n      dup1\n      tag_73\n      swap1\n      tag_66\n      jump\t// in\n    tag_73:\n      swap3\n      pop\n      pop\n        /* \"contracts/Oracle.sol\":3440:3449  minQuorum */\n      sload(0x02)\n        /* \"contracts/Oracle.sol\":3423:3436  currentQuorum */\n      dup3\n        /* \"contracts/Oracle.sol\":3423:3449  currentQuorum >= minQuorum */\n      lt\n        /* \"contracts/Oracle.sol\":3419:3795  if (currentQuorum >= minQuorum) {... */\n      tag_74\n      jumpi\n        /* \"contracts/Oracle.sol\":3500:3515  _valueRetrieved */\n      dup6\n        /* \"contracts/Oracle.sol\":3474:3485  currRequest */\n      dup6\n        /* \"contracts/Oracle.sol\":3474:3497  currRequest.agreedValue */\n      0x03\n      add\n        /* \"contracts/Oracle.sol\":3474:3515  currRequest.agreedValue = _valueRetrieved */\n      swap1\n      dup2\n      tag_75\n      swap2\n      swap1\n      tag_64\n      jump\t// in\n    tag_75:\n      pop\n        /* \"contracts/Oracle.sol\":3543:3775  UpdatedRequest(... */\n      0x51f1e1f00d186e79f8ea7c82be079fcdd49fe881904a9cdc1903345eb69d3831\n        /* \"contracts/Oracle.sol\":3584:3595  currRequest */\n      dup6\n        /* \"contracts/Oracle.sol\":3584:3598  currRequest.id */\n      0x00\n      add\n      sload\n        /* \"contracts/Oracle.sol\":3625:3636  currRequest */\n      dup7\n        /* \"contracts/Oracle.sol\":3625:3647  currRequest.urlToQuery */\n      0x01\n      add\n        /* \"contracts/Oracle.sol\":3674:3685  currRequest */\n      dup8\n        /* \"contracts/Oracle.sol\":3674:3702  currRequest.attributeToFetch */\n      0x02\n      add\n        /* \"contracts/Oracle.sol\":3729:3740  currRequest */\n      dup9\n        /* \"contracts/Oracle.sol\":3729:3752  currRequest.agreedValue */\n      0x03\n      add\n        /* \"contracts/Oracle.sol\":3543:3775  UpdatedRequest(... */\n      mload(0x40)\n      tag_76\n      swap5\n      swap4\n      swap3\n      swap2\n      swap1\n      tag_77\n      jump\t// in\n    tag_76:\n      mload(0x40)\n      dup1\n      swap2\n      sub\n      swap1\n      log1\n        /* \"contracts/Oracle.sol\":3419:3795  if (currentQuorum >= minQuorum) {... */\n    tag_74:\n        /* \"contracts/Oracle.sol\":3283:3810  if (keccak256(bytes(currRequest.answers[i])) == keccak256(bytes(_valueRetrieved))) {... */\n    tag_72:\n        /* \"contracts/Oracle.sol\":3263:3266  i++ */\n      dup1\n      dup1\n      0x01\n      add\n      swap2\n      pop\n      pop\n        /* \"contracts/Oracle.sol\":3224:3821  for (uint i = 0; i < totalOracleCount; i++) {... */\n      jump(tag_67)\n    tag_68:\n      pop\n        /* \"contracts/Oracle.sol\":2251:3828  {... */\n      pop\n      pop\n      pop\n      pop\n        /* \"contracts/Oracle.sol\":2155:3828  function updateRequest(... */\n      pop\n      pop\n      jump\t// out\n        /* \"contracts/Oracle.sol\":1305:2097  function createRequest(... */\n    tag_29:\n        /* \"contracts/Oracle.sol\":1431:1457  Request storage newRequest */\n      0x00\n        /* \"contracts/Oracle.sol\":1460:1468  requests */\n      dup1\n        /* \"contracts/Oracle.sol\":1460:1475  requests.push() */\n      0x01\n      dup2\n      0x01\n      dup2\n      sload\n      add\n      dup1\n      dup3\n      sstore\n      dup1\n      swap2\n      pop\n      pop\n      sub\n      swap1\n      0x00\n      mstore\n      keccak256(0x00, 0x20)\n      swap1\n      0x06\n      mul\n      add\n        /* \"contracts/Oracle.sol\":1431:1475  Request storage newRequest = requests.push() */\n      swap1\n      pop\n        /* \"contracts/Oracle.sol\":1502:1511  currentId */\n      sload(0x01)\n        /* \"contracts/Oracle.sol\":1486:1496  newRequest */\n      dup2\n        /* \"contracts/Oracle.sol\":1486:1499  newRequest.id */\n      0x00\n      add\n        /* \"contracts/Oracle.sol\":1486:1511  newRequest.id = currentId */\n      dup2\n      swap1\n      sstore\n      pop\n        /* \"contracts/Oracle.sol\":1546:1557  _urlToQuery */\n      dup3\n        /* \"contracts/Oracle.sol\":1522:1532  newRequest */\n      dup2\n        /* \"contracts/Oracle.sol\":1522:1543  newRequest.urlToQuery */\n      0x01\n      add\n        /* \"contracts/Oracle.sol\":1522:1557  newRequest.urlToQuery = _urlToQuery */\n      swap1\n      dup2\n      tag_80\n      swap2\n      swap1\n      tag_64\n      jump\t// in\n    tag_80:\n      pop\n        /* \"contracts/Oracle.sol\":1598:1615  _attributeToFetch */\n      dup2\n        /* \"contracts/Oracle.sol\":1568:1578  newRequest */\n      dup2\n        /* \"contracts/Oracle.sol\":1568:1595  newRequest.attributeToFetch */\n      0x02\n      add\n        /* \"contracts/Oracle.sol\":1568:1615  newRequest.attributeToFetch = _attributeToFetch */\n      swap1\n      dup2\n      tag_81\n      swap2\n      swap1\n      tag_64\n      jump\t// in\n    tag_81:\n      pop\n        /* \"contracts/Oracle.sol\":1740:1741  1 */\n      0x01\n        /* \"contracts/Oracle.sol\":1667:1677  newRequest */\n      dup2\n        /* \"contracts/Oracle.sol\":1667:1684  newRequest.quorum */\n      0x05\n      add\n        /* \"contracts/Oracle.sol\":1667:1737  newRequest.quorum[address(0x6c2339b46F41a06f09CA0051ddAD54D1e582bA77)] */\n      0x00\n        /* \"contracts/Oracle.sol\":1693:1735  0x6c2339b46F41a06f09CA0051ddAD54D1e582bA77 */\n      0x6c2339b46f41a06f09ca0051ddad54d1e582ba77\n        /* \"contracts/Oracle.sol\":1667:1737  newRequest.quorum[address(0x6c2339b46F41a06f09CA0051ddAD54D1e582bA77)] */\n      0xffffffffffffffffffffffffffffffffffffffff\n      and\n      0xffffffffffffffffffffffffffffffffffffffff\n      and\n      dup2\n      mstore\n      0x20\n      add\n      swap1\n      dup2\n      mstore\n      0x20\n      add\n      0x00\n      keccak256\n        /* \"contracts/Oracle.sol\":1667:1741  newRequest.quorum[address(0x6c2339b46F41a06f09CA0051ddAD54D1e582bA77)] = 1 */\n      dup2\n      swap1\n      sstore\n      pop\n        /* \"contracts/Oracle.sol\":1825:1826  1 */\n      0x01\n        /* \"contracts/Oracle.sol\":1752:1762  newRequest */\n      dup2\n        /* \"contracts/Oracle.sol\":1752:1769  newRequest.quorum */\n      0x05\n      add\n        /* \"contracts/Oracle.sol\":1752:1822  newRequest.quorum[address(0xb5346CF224c02186606e5f89EACC21eC25398077)] */\n      0x00\n        /* \"contracts/Oracle.sol\":1778:1820  0xb5346CF224c02186606e5f89EACC21eC25398077 */\n      0xb5346cf224c02186606e5f89eacc21ec25398077\n        /* \"contracts/Oracle.sol\":1752:1822  newRequest.quorum[address(0xb5346CF224c02186606e5f89EACC21eC25398077)] */\n      0xffffffffffffffffffffffffffffffffffffffff\n      and\n      0xffffffffffffffffffffffffffffffffffffffff\n      and\n      dup2\n      mstore\n      0x20\n      add\n      swap1\n      dup2\n      mstore\n      0x20\n      add\n      0x00\n      keccak256\n        /* \"contracts/Oracle.sol\":1752:1826  newRequest.quorum[address(0xb5346CF224c02186606e5f89EACC21eC25398077)] = 1 */\n      dup2\n      swap1\n      sstore\n      pop\n        /* \"contracts/Oracle.sol\":1910:1911  1 */\n      0x01\n        /* \"contracts/Oracle.sol\":1837:1847  newRequest */\n      dup2\n        /* \"contracts/Oracle.sol\":1837:1854  newRequest.quorum */\n      0x05\n      add\n        /* \"contracts/Oracle.sol\":1837:1907  newRequest.quorum[address(0xa2997F1CA363D11a0a35bB1Ac0Ff7849bc13e914)] */\n      0x00\n        /* \"contracts/Oracle.sol\":1863:1905  0xa2997F1CA363D11a0a35bB1Ac0Ff7849bc13e914 */\n      0xa2997f1ca363d11a0a35bb1ac0ff7849bc13e914\n        /* \"contracts/Oracle.sol\":1837:1907  newRequest.quorum[address(0xa2997F1CA363D11a0a35bB1Ac0Ff7849bc13e914)] */\n      0xffffffffffffffffffffffffffffffffffffffff\n      and\n      0xffffffffffffffffffffffffffffffffffffffff\n      and\n      dup2\n      mstore\n      0x20\n      add\n      swap1\n      dup2\n      mstore\n      0x20\n      add\n      0x00\n      keccak256\n        /* \"contracts/Oracle.sol\":1837:1911  newRequest.quorum[address(0xa2997F1CA363D11a0a35bB1Ac0Ff7849bc13e914)] = 1 */\n      dup2\n      swap1\n      sstore\n      pop\n        /* \"contracts/Oracle.sol\":1929:2032  NewRequest(... */\n      0x0312239616abfb14f7ffa065155abb0ca047274d86c965890db4c8a48b8ce4b6\n        /* \"contracts/Oracle.sol\":1954:1963  currentId */\n      sload(0x01)\n        /* \"contracts/Oracle.sol\":1978:1989  _urlToQuery */\n      dup5\n        /* \"contracts/Oracle.sol\":2004:2021  _attributeToFetch */\n      dup5\n        /* \"contracts/Oracle.sol\":1929:2032  NewRequest(... */\n      mload(0x40)\n      tag_82\n      swap4\n      swap3\n      swap2\n      swap1\n      tag_83\n      jump\t// in\n    tag_82:\n      mload(0x40)\n      dup1\n      swap2\n      sub\n      swap1\n      log1\n        /* \"contracts/Oracle.sol\":2078:2087  currentId */\n      0x01\n      0x00\n        /* \"contracts/Oracle.sol\":2078:2089  currentId++ */\n      dup2\n      sload\n      dup1\n      swap3\n      swap2\n      swap1\n      tag_84\n      swap1\n      tag_66\n      jump\t// in\n    tag_84:\n      swap2\n      swap1\n      pop\n      sstore\n      pop\n        /* \"contracts/Oracle.sol\":1420:2097  {... */\n      pop\n        /* \"contracts/Oracle.sol\":1305:2097  function createRequest(... */\n      pop\n      pop\n      jump\t// out\n        /* \"contracts/Oracle.sol\":156:181  uint public currentId = 0 */\n    tag_31:\n      sload(0x01)\n      dup2\n      jump\t// out\n        /* \"#utility.yul\":7:82   */\n    tag_85:\n        /* \"#utility.yul\":40:46   */\n      0x00\n        /* \"#utility.yul\":73:75   */\n      0x40\n        /* \"#utility.yul\":67:76   */\n      mload\n        /* \"#utility.yul\":57:76   */\n      swap1\n      pop\n        /* \"#utility.yul\":7:82   */\n      swap1\n      jump\t// out\n        /* \"#utility.yul\":88:205   */\n    tag_86:\n        /* \"#utility.yul\":197:198   */\n      0x00\n        /* \"#utility.yul\":194:195   */\n      dup1\n        /* \"#utility.yul\":187:199   */\n      revert\n        /* \"#utility.yul\":211:328   */\n    tag_87:\n        /* \"#utility.yul\":320:321   */\n      0x00\n        /* \"#utility.yul\":317:318   */\n      dup1\n        /* \"#utility.yul\":310:322   */\n      revert\n        /* \"#utility.yul\":334:411   */\n    tag_88:\n        /* \"#utility.yul\":371:378   */\n      0x00\n        /* \"#utility.yul\":400:405   */\n      dup2\n        /* \"#utility.yul\":389:405   */\n      swap1\n      pop\n        /* \"#utility.yul\":334:411   */\n      swap2\n      swap1\n      pop\n      jump\t// out\n        /* \"#utility.yul\":417:539   */\n    tag_89:\n        /* \"#utility.yul\":490:514   */\n      tag_135\n        /* \"#utility.yul\":508:513   */\n      dup2\n        /* \"#utility.yul\":490:514   */\n      tag_88\n      jump\t// in\n    tag_135:\n        /* \"#utility.yul\":483:488   */\n      dup2\n        /* \"#utility.yul\":480:515   */\n      eq\n        /* \"#utility.yul\":470:533   */\n      tag_136\n      jumpi\n        /* \"#utility.yul\":529:530   */\n      0x00\n        /* \"#utility.yul\":526:527   */\n      dup1\n        /* \"#utility.yul\":519:531   */\n      revert\n        /* \"#utility.yul\":470:533   */\n    tag_136:\n        /* \"#utility.yul\":417:539   */\n      pop\n      jump\t// out\n        /* \"#utility.yul\":545:684   */\n    tag_90:\n        /* \"#utility.yul\":591:596   */\n      0x00\n        /* \"#utility.yul\":629:635   */\n      dup2\n        /* \"#utility.yul\":616:636   */\n      calldataload\n        /* \"#utility.yul\":607:636   */\n      swap1\n      pop\n        /* \"#utility.yul\":645:678   */\n      tag_138\n        /* \"#utility.yul\":672:677   */\n      dup2\n        /* \"#utility.yul\":645:678   */\n      tag_89\n      jump\t// in\n    tag_138:\n        /* \"#utility.yul\":545:684   */\n      swap3\n      swap2\n      pop\n      pop\n      jump\t// out\n        /* \"#utility.yul\":690:1019   */\n    tag_11:\n        /* \"#utility.yul\":749:755   */\n      0x00\n        /* \"#utility.yul\":798:800   */\n      0x20\n        /* \"#utility.yul\":786:795   */\n      dup3\n        /* \"#utility.yul\":777:784   */\n      dup5\n        /* \"#utility.yul\":773:796   */\n      sub\n        /* \"#utility.yul\":769:801   */\n      slt\n        /* \"#utility.yul\":766:885   */\n      iszero\n      tag_140\n      jumpi\n        /* \"#utility.yul\":804:883   */\n      tag_141\n      tag_86\n      jump\t// in\n    tag_141:\n        /* \"#utility.yul\":766:885   */\n    tag_140:\n        /* \"#utility.yul\":924:925   */\n      0x00\n        /* \"#utility.yul\":949:1002   */\n      tag_142\n        /* \"#utility.yul\":994:1001   */\n      dup5\n        /* \"#utility.yul\":985:991   */\n      dup3\n        /* \"#utility.yul\":974:983   */\n      dup6\n        /* \"#utility.yul\":970:992   */\n      add\n        /* \"#utility.yul\":949:1002   */\n      tag_90\n      jump\t// in\n    tag_142:\n        /* \"#utility.yul\":939:1002   */\n      swap2\n      pop\n        /* \"#utility.yul\":895:1012   */\n      pop\n        /* \"#utility.yul\":690:1019   */\n      swap3\n      swap2\n      pop\n      pop\n      jump\t// out\n        /* \"#utility.yul\":1025:1143   */\n    tag_91:\n        /* \"#utility.yul\":1112:1136   */\n      tag_144\n        /* \"#utility.yul\":1130:1135   */\n      dup2\n        /* \"#utility.yul\":1112:1136   */\n      tag_88\n      jump\t// in\n    tag_144:\n        /* \"#utility.yul\":1107:1110   */\n      dup3\n        /* \"#utility.yul\":1100:1137   */\n      mstore\n        /* \"#utility.yul\":1025:1143   */\n      pop\n      pop\n      jump\t// out\n        /* \"#utility.yul\":1149:1248   */\n    tag_92:\n        /* \"#utility.yul\":1201:1207   */\n      0x00\n        /* \"#utility.yul\":1235:1240   */\n      dup2\n        /* \"#utility.yul\":1229:1241   */\n      mload\n        /* \"#utility.yul\":1219:1241   */\n      swap1\n      pop\n        /* \"#utility.yul\":1149:1248   */\n      swap2\n      swap1\n      pop\n      jump\t// out\n        /* \"#utility.yul\":1254:1423   */\n    tag_93:\n        /* \"#utility.yul\":1338:1349   */\n      0x00\n        /* \"#utility.yul\":1372:1378   */\n      dup3\n        /* \"#utility.yul\":1367:1370   */\n      dup3\n        /* \"#utility.yul\":1360:1379   */\n      mstore\n        /* \"#utility.yul\":1412:1416   */\n      0x20\n        /* \"#utility.yul\":1407:1410   */\n      dup3\n        /* \"#utility.yul\":1403:1417   */\n      add\n        /* \"#utility.yul\":1388:1417   */\n      swap1\n      pop\n        /* \"#utility.yul\":1254:1423   */\n      swap3\n      swap2\n      pop\n      pop\n      jump\t// out\n        /* \"#utility.yul\":1429:1568   */\n    tag_94:\n        /* \"#utility.yul\":1518:1524   */\n      dup3\n        /* \"#utility.yul\":1513:1516   */\n      dup2\n        /* \"#utility.yul\":1508:1511   */\n      dup4\n        /* \"#utility.yul\":1502:1525   */\n      mcopy\n        /* \"#utility.yul\":1559:1560   */\n      0x00\n        /* \"#utility.yul\":1550:1556   */\n      dup4\n        /* \"#utility.yul\":1545:1548   */\n      dup4\n        /* \"#utility.yul\":1541:1557   */\n      add\n        /* \"#utility.yul\":1534:1561   */\n      mstore\n        /* \"#utility.yul\":1429:1568   */\n      pop\n      pop\n      pop\n      jump\t// out\n        /* \"#utility.yul\":1574:1676   */\n    tag_95:\n        /* \"#utility.yul\":1615:1621   */\n      0x00\n        /* \"#utility.yul\":1666:1668   */\n      0x1f\n        /* \"#utility.yul\":1662:1669   */\n      not\n        /* \"#utility.yul\":1657:1659   */\n      0x1f\n        /* \"#utility.yul\":1650:1655   */\n      dup4\n        /* \"#utility.yul\":1646:1660   */\n      add\n        /* \"#utility.yul\":1642:1670   */\n      and\n        /* \"#utility.yul\":1632:1670   */\n      swap1\n      pop\n        /* \"#utility.yul\":1574:1676   */\n      swap2\n      swap1\n      pop\n      jump\t// out\n        /* \"#utility.yul\":1682:2059   */\n    tag_96:\n        /* \"#utility.yul\":1770:1773   */\n      0x00\n        /* \"#utility.yul\":1798:1837   */\n      tag_150\n        /* \"#utility.yul\":1831:1836   */\n      dup3\n        /* \"#utility.yul\":1798:1837   */\n      tag_92\n      jump\t// in\n    tag_150:\n        /* \"#utility.yul\":1853:1924   */\n      tag_151\n        /* \"#utility.yul\":1917:1923   */\n      dup2\n        /* \"#utility.yul\":1912:1915   */\n      dup6\n        /* \"#utility.yul\":1853:1924   */\n      tag_93\n      jump\t// in\n    tag_151:\n        /* \"#utility.yul\":1846:1924   */\n      swap4\n      pop\n        /* \"#utility.yul\":1933:1998   */\n      tag_152\n        /* \"#utility.yul\":1991:1997   */\n      dup2\n        /* \"#utility.yul\":1986:1989   */\n      dup6\n        /* \"#utility.yul\":1979:1983   */\n      0x20\n        /* \"#utility.yul\":1972:1977   */\n      dup7\n        /* \"#utility.yul\":1968:1984   */\n      add\n        /* \"#utility.yul\":1933:1998   */\n      tag_94\n      jump\t// in\n    tag_152:\n        /* \"#utility.yul\":2023:2052   */\n      tag_153\n        /* \"#utility.yul\":2045:2051   */\n      dup2\n        /* \"#utility.yul\":2023:2052   */\n      tag_95\n      jump\t// in\n    tag_153:\n        /* \"#utility.yul\":2018:2021   */\n      dup5\n        /* \"#utility.yul\":2014:2053   */\n      add\n        /* \"#utility.yul\":2007:2053   */\n      swap2\n      pop\n        /* \"#utility.yul\":1774:2059   */\n      pop\n        /* \"#utility.yul\":1682:2059   */\n      swap3\n      swap2\n      pop\n      pop\n      jump\t// out\n        /* \"#utility.yul\":2065:2891   */\n    tag_14:\n        /* \"#utility.yul\":2302:2306   */\n      0x00\n        /* \"#utility.yul\":2340:2343   */\n      0x80\n        /* \"#utility.yul\":2329:2338   */\n      dup3\n        /* \"#utility.yul\":2325:2344   */\n      add\n        /* \"#utility.yul\":2317:2344   */\n      swap1\n      pop\n        /* \"#utility.yul\":2354:2425   */\n      tag_155\n        /* \"#utility.yul\":2422:2423   */\n      0x00\n        /* \"#utility.yul\":2411:2420   */\n      dup4\n        /* \"#utility.yul\":2407:2424   */\n      add\n        /* \"#utility.yul\":2398:2404   */\n      dup8\n        /* \"#utility.yul\":2354:2425   */\n      tag_91\n      jump\t// in\n    tag_155:\n        /* \"#utility.yul\":2472:2481   */\n      dup2\n        /* \"#utility.yul\":2466:2470   */\n      dup2\n        /* \"#utility.yul\":2462:2482   */\n      sub\n        /* \"#utility.yul\":2457:2459   */\n      0x20\n        /* \"#utility.yul\":2446:2455   */\n      dup4\n        /* \"#utility.yul\":2442:2460   */\n      add\n        /* \"#utility.yul\":2435:2483   */\n      mstore\n        /* \"#utility.yul\":2500:2578   */\n      tag_156\n        /* \"#utility.yul\":2573:2577   */\n      dup2\n        /* \"#utility.yul\":2564:2570   */\n      dup7\n        /* \"#utility.yul\":2500:2578   */\n      tag_96\n      jump\t// in\n    tag_156:\n        /* \"#utility.yul\":2492:2578   */\n      swap1\n      pop\n        /* \"#utility.yul\":2625:2634   */\n      dup2\n        /* \"#utility.yul\":2619:2623   */\n      dup2\n        /* \"#utility.yul\":2615:2635   */\n      sub\n        /* \"#utility.yul\":2610:2612   */\n      0x40\n        /* \"#utility.yul\":2599:2608   */\n      dup4\n        /* \"#utility.yul\":2595:2613   */\n      add\n        /* \"#utility.yul\":2588:2636   */\n      mstore\n        /* \"#utility.yul\":2653:2731   */\n      tag_157\n        /* \"#utility.yul\":2726:2730   */\n      dup2\n        /* \"#utility.yul\":2717:2723   */\n      dup6\n        /* \"#utility.yul\":2653:2731   */\n      tag_96\n      jump\t// in\n    tag_157:\n        /* \"#utility.yul\":2645:2731   */\n      swap1\n      pop\n        /* \"#utility.yul\":2778:2787   */\n      dup2\n        /* \"#utility.yul\":2772:2776   */\n      dup2\n        /* \"#utility.yul\":2768:2788   */\n      sub\n        /* \"#utility.yul\":2763:2765   */\n      0x60\n        /* \"#utility.yul\":2752:2761   */\n      dup4\n        /* \"#utility.yul\":2748:2766   */\n      add\n        /* \"#utility.yul\":2741:2789   */\n      mstore\n        /* \"#utility.yul\":2806:2884   */\n      tag_158\n        /* \"#utility.yul\":2879:2883   */\n      dup2\n        /* \"#utility.yul\":2870:2876   */\n      dup5\n        /* \"#utility.yul\":2806:2884   */\n      tag_96\n      jump\t// in\n    tag_158:\n        /* \"#utility.yul\":2798:2884   */\n      swap1\n      pop\n        /* \"#utility.yul\":2065:2891   */\n      swap6\n      swap5\n      pop\n      pop\n      pop\n      pop\n      pop\n      jump\t// out\n        /* \"#utility.yul\":2897:3119   */\n    tag_18:\n        /* \"#utility.yul\":2990:2994   */\n      0x00\n        /* \"#utility.yul\":3028:3030   */\n      0x20\n        /* \"#utility.yul\":3017:3026   */\n      dup3\n        /* \"#utility.yul\":3013:3031   */\n      add\n        /* \"#utility.yul\":3005:3031   */\n      swap1\n      pop\n        /* \"#utility.yul\":3041:3112   */\n      tag_160\n        /* \"#utility.yul\":3109:3110   */\n      0x00\n        /* \"#utility.yul\":3098:3107   */\n      dup4\n        /* \"#utility.yul\":3094:3111   */\n      add\n        /* \"#utility.yul\":3085:3091   */\n      dup5\n        /* \"#utility.yul\":3041:3112   */\n      tag_91\n      jump\t// in\n    tag_160:\n        /* \"#utility.yul\":2897:3119   */\n      swap3\n      swap2\n      pop\n      pop\n      jump\t// out\n        /* \"#utility.yul\":3125:3242   */\n    tag_97:\n        /* \"#utility.yul\":3234:3235   */\n      0x00\n        /* \"#utility.yul\":3231:3232   */\n      dup1\n        /* \"#utility.yul\":3224:3236   */\n      revert\n        /* \"#utility.yul\":3248:3365   */\n    tag_98:\n        /* \"#utility.yul\":3357:3358   */\n      0x00\n        /* \"#utility.yul\":3354:3355   */\n      dup1\n        /* \"#utility.yul\":3347:3359   */\n      revert\n        /* \"#utility.yul\":3371:3551   */\n    tag_99:\n        /* \"#utility.yul\":3419:3496   */\n      0x4e487b7100000000000000000000000000000000000000000000000000000000\n        /* \"#utility.yul\":3416:3417   */\n      0x00\n        /* \"#utility.yul\":3409:3497   */\n      mstore\n        /* \"#utility.yul\":3516:3520   */\n      0x41\n        /* \"#utility.yul\":3513:3514   */\n      0x04\n        /* \"#utility.yul\":3506:3521   */\n      mstore\n        /* \"#utility.yul\":3540:3544   */\n      0x24\n        /* \"#utility.yul\":3537:3538   */\n      0x00\n        /* \"#utility.yul\":3530:3545   */\n      revert\n        /* \"#utility.yul\":3557:3838   */\n    tag_100:\n        /* \"#utility.yul\":3640:3667   */\n      tag_165\n        /* \"#utility.yul\":3662:3666   */\n      dup3\n        /* \"#utility.yul\":3640:3667   */\n      tag_95\n      jump\t// in\n    tag_165:\n        /* \"#utility.yul\":3632:3638   */\n      dup2\n        /* \"#utility.yul\":3628:3668   */\n      add\n        /* \"#utility.yul\":3770:3776   */\n      dup2\n        /* \"#utility.yul\":3758:3768   */\n      dup2\n        /* \"#utility.yul\":3755:3777   */\n      lt\n        /* \"#utility.yul\":3734:3752   */\n      0xffffffffffffffff\n        /* \"#utility.yul\":3722:3732   */\n      dup3\n        /* \"#utility.yul\":3719:3753   */\n      gt\n        /* \"#utility.yul\":3716:3778   */\n      or\n        /* \"#utility.yul\":3713:3801   */\n      iszero\n      tag_166\n      jumpi\n        /* \"#utility.yul\":3781:3799   */\n      tag_167\n      tag_99\n      jump\t// in\n    tag_167:\n        /* \"#utility.yul\":3713:3801   */\n    tag_166:\n        /* \"#utility.yul\":3821:3831   */\n      dup1\n        /* \"#utility.yul\":3817:3819   */\n      0x40\n        /* \"#utility.yul\":3810:3832   */\n      mstore\n        /* \"#utility.yul\":3600:3838   */\n      pop\n        /* \"#utility.yul\":3557:3838   */\n      pop\n      pop\n      jump\t// out\n        /* \"#utility.yul\":3844:3973   */\n    tag_101:\n        /* \"#utility.yul\":3878:3884   */\n      0x00\n        /* \"#utility.yul\":3905:3925   */\n      tag_169\n      tag_85\n      jump\t// in\n    tag_169:\n        /* \"#utility.yul\":3895:3925   */\n      swap1\n      pop\n        /* \"#utility.yul\":3934:3967   */\n      tag_170\n        /* \"#utility.yul\":3962:3966   */\n      dup3\n        /* \"#utility.yul\":3954:3960   */\n      dup3\n        /* \"#utility.yul\":3934:3967   */\n      tag_100\n      jump\t// in\n    tag_170:\n        /* \"#utility.yul\":3844:3973   */\n      swap2\n      swap1\n      pop\n      jump\t// out\n        /* \"#utility.yul\":3979:4287   */\n    tag_102:\n        /* \"#utility.yul\":4041:4045   */\n      0x00\n        /* \"#utility.yul\":4131:4149   */\n      0xffffffffffffffff\n        /* \"#utility.yul\":4123:4129   */\n      dup3\n        /* \"#utility.yul\":4120:4150   */\n      gt\n        /* \"#utility.yul\":4117:4173   */\n      iszero\n      tag_172\n      jumpi\n        /* \"#utility.yul\":4153:4171   */\n      tag_173\n      tag_99\n      jump\t// in\n    tag_173:\n        /* \"#utility.yul\":4117:4173   */\n    tag_172:\n        /* \"#utility.yul\":4191:4220   */\n      tag_174\n        /* \"#utility.yul\":4213:4219   */\n      dup3\n        /* \"#utility.yul\":4191:4220   */\n      tag_95\n      jump\t// in\n    tag_174:\n        /* \"#utility.yul\":4183:4220   */\n      swap1\n      pop\n        /* \"#utility.yul\":4275:4279   */\n      0x20\n        /* \"#utility.yul\":4269:4273   */\n      dup2\n        /* \"#utility.yul\":4265:4280   */\n      add\n        /* \"#utility.yul\":4257:4280   */\n      swap1\n      pop\n        /* \"#utility.yul\":3979:4287   */\n      swap2\n      swap1\n      pop\n      jump\t// out\n        /* \"#utility.yul\":4293:4441   */\n    tag_103:\n        /* \"#utility.yul\":4391:4397   */\n      dup3\n        /* \"#utility.yul\":4386:4389   */\n      dup2\n        /* \"#utility.yul\":4381:4384   */\n      dup4\n        /* \"#utility.yul\":4368:4398   */\n      calldatacopy\n        /* \"#utility.yul\":4432:4433   */\n      0x00\n        /* \"#utility.yul\":4423:4429   */\n      dup4\n        /* \"#utility.yul\":4418:4421   */\n      dup4\n        /* \"#utility.yul\":4414:4430   */\n      add\n        /* \"#utility.yul\":4407:4434   */\n      mstore\n        /* \"#utility.yul\":4293:4441   */\n      pop\n      pop\n      pop\n      jump\t// out\n        /* \"#utility.yul\":4447:4872   */\n    tag_104:\n        /* \"#utility.yul\":4525:4530   */\n      0x00\n        /* \"#utility.yul\":4550:4616   */\n      tag_177\n        /* \"#utility.yul\":4566:4615   */\n      tag_178\n        /* \"#utility.yul\":4608:4614   */\n      dup5\n        /* \"#utility.yul\":4566:4615   */\n      tag_102\n      jump\t// in\n    tag_178:\n        /* \"#utility.yul\":4550:4616   */\n      tag_101\n      jump\t// in\n    tag_177:\n        /* \"#utility.yul\":4541:4616   */\n      swap1\n      pop\n        /* \"#utility.yul\":4639:4645   */\n      dup3\n        /* \"#utility.yul\":4632:4637   */\n      dup2\n        /* \"#utility.yul\":4625:4646   */\n      mstore\n        /* \"#utility.yul\":4677:4681   */\n      0x20\n        /* \"#utility.yul\":4670:4675   */\n      dup2\n        /* \"#utility.yul\":4666:4682   */\n      add\n        /* \"#utility.yul\":4715:4718   */\n      dup5\n        /* \"#utility.yul\":4706:4712   */\n      dup5\n        /* \"#utility.yul\":4701:4704   */\n      dup5\n        /* \"#utility.yul\":4697:4713   */\n      add\n        /* \"#utility.yul\":4694:4719   */\n      gt\n        /* \"#utility.yul\":4691:4803   */\n      iszero\n      tag_179\n      jumpi\n        /* \"#utility.yul\":4722:4801   */\n      tag_180\n      tag_98\n      jump\t// in\n    tag_180:\n        /* \"#utility.yul\":4691:4803   */\n    tag_179:\n        /* \"#utility.yul\":4812:4866   */\n      tag_181\n        /* \"#utility.yul\":4859:4865   */\n      dup5\n        /* \"#utility.yul\":4854:4857   */\n      dup3\n        /* \"#utility.yul\":4849:4852   */\n      dup6\n        /* \"#utility.yul\":4812:4866   */\n      tag_103\n      jump\t// in\n    tag_181:\n        /* \"#utility.yul\":4531:4872   */\n      pop\n        /* \"#utility.yul\":4447:4872   */\n      swap4\n      swap3\n      pop\n      pop\n      pop\n      jump\t// out\n        /* \"#utility.yul\":4892:5232   */\n    tag_105:\n        /* \"#utility.yul\":4948:4953   */\n      0x00\n        /* \"#utility.yul\":4997:5000   */\n      dup3\n        /* \"#utility.yul\":4990:4994   */\n      0x1f\n        /* \"#utility.yul\":4982:4988   */\n      dup4\n        /* \"#utility.yul\":4978:4995   */\n      add\n        /* \"#utility.yul\":4974:5001   */\n      slt\n        /* \"#utility.yul\":4964:5086   */\n      tag_183\n      jumpi\n        /* \"#utility.yul\":5005:5084   */\n      tag_184\n      tag_97\n      jump\t// in\n    tag_184:\n        /* \"#utility.yul\":4964:5086   */\n    tag_183:\n        /* \"#utility.yul\":5122:5128   */\n      dup2\n        /* \"#utility.yul\":5109:5129   */\n      calldataload\n        /* \"#utility.yul\":5147:5226   */\n      tag_185\n        /* \"#utility.yul\":5222:5225   */\n      dup5\n        /* \"#utility.yul\":5214:5220   */\n      dup3\n        /* \"#utility.yul\":5207:5211   */\n      0x20\n        /* \"#utility.yul\":5199:5205   */\n      dup7\n        /* \"#utility.yul\":5195:5212   */\n      add\n        /* \"#utility.yul\":5147:5226   */\n      tag_104\n      jump\t// in\n    tag_185:\n        /* \"#utility.yul\":5138:5226   */\n      swap2\n      pop\n        /* \"#utility.yul\":4954:5232   */\n      pop\n        /* \"#utility.yul\":4892:5232   */\n      swap3\n      swap2\n      pop\n      pop\n      jump\t// out\n        /* \"#utility.yul\":5238:5892   */\n    tag_24:\n        /* \"#utility.yul\":5316:5322   */\n      0x00\n        /* \"#utility.yul\":5324:5330   */\n      dup1\n        /* \"#utility.yul\":5373:5375   */\n      0x40\n        /* \"#utility.yul\":5361:5370   */\n      dup4\n        /* \"#utility.yul\":5352:5359   */\n      dup6\n        /* \"#utility.yul\":5348:5371   */\n      sub\n        /* \"#utility.yul\":5344:5376   */\n      slt\n        /* \"#utility.yul\":5341:5460   */\n      iszero\n      tag_187\n      jumpi\n        /* \"#utility.yul\":5379:5458   */\n      tag_188\n      tag_86\n      jump\t// in\n    tag_188:\n        /* \"#utility.yul\":5341:5460   */\n    tag_187:\n        /* \"#utility.yul\":5499:5500   */\n      0x00\n        /* \"#utility.yul\":5524:5577   */\n      tag_189\n        /* \"#utility.yul\":5569:5576   */\n      dup6\n        /* \"#utility.yul\":5560:5566   */\n      dup3\n        /* \"#utility.yul\":5549:5558   */\n      dup7\n        /* \"#utility.yul\":5545:5567   */\n      add\n        /* \"#utility.yul\":5524:5577   */\n      tag_90\n      jump\t// in\n    tag_189:\n        /* \"#utility.yul\":5514:5577   */\n      swap3\n      pop\n        /* \"#utility.yul\":5470:5587   */\n      pop\n        /* \"#utility.yul\":5654:5656   */\n      0x20\n        /* \"#utility.yul\":5643:5652   */\n      dup4\n        /* \"#utility.yul\":5639:5657   */\n      add\n        /* \"#utility.yul\":5626:5658   */\n      calldataload\n        /* \"#utility.yul\":5685:5703   */\n      0xffffffffffffffff\n        /* \"#utility.yul\":5677:5683   */\n      dup2\n        /* \"#utility.yul\":5674:5704   */\n      gt\n        /* \"#utility.yul\":5671:5788   */\n      iszero\n      tag_190\n      jumpi\n        /* \"#utility.yul\":5707:5786   */\n      tag_191\n      tag_87\n      jump\t// in\n    tag_191:\n        /* \"#utility.yul\":5671:5788   */\n    tag_190:\n        /* \"#utility.yul\":5812:5875   */\n      tag_192\n        /* \"#utility.yul\":5867:5874   */\n      dup6\n        /* \"#utility.yul\":5858:5864   */\n      dup3\n        /* \"#utility.yul\":5847:5856   */\n      dup7\n        /* \"#utility.yul\":5843:5865   */\n      add\n        /* \"#utility.yul\":5812:5875   */\n      tag_105\n      jump\t// in\n    tag_192:\n        /* \"#utility.yul\":5802:5875   */\n      swap2\n      pop\n        /* \"#utility.yul\":5597:5885   */\n      pop\n        /* \"#utility.yul\":5238:5892   */\n      swap3\n      pop\n      swap3\n      swap1\n      pop\n      jump\t// out\n        /* \"#utility.yul\":5898:6732   */\n    tag_28:\n        /* \"#utility.yul\":5986:5992   */\n      0x00\n        /* \"#utility.yul\":5994:6000   */\n      dup1\n        /* \"#utility.yul\":6043:6045   */\n      0x40\n        /* \"#utility.yul\":6031:6040   */\n      dup4\n        /* \"#utility.yul\":6022:6029   */\n      dup6\n        /* \"#utility.yul\":6018:6041   */\n      sub\n        /* \"#utility.yul\":6014:6046   */\n      slt\n        /* \"#utility.yul\":6011:6130   */\n      iszero\n      tag_194\n      jumpi\n        /* \"#utility.yul\":6049:6128   */\n      tag_195\n      tag_86\n      jump\t// in\n    tag_195:\n        /* \"#utility.yul\":6011:6130   */\n    tag_194:\n        /* \"#utility.yul\":6197:6198   */\n      0x00\n        /* \"#utility.yul\":6186:6195   */\n      dup4\n        /* \"#utility.yul\":6182:6199   */\n      add\n        /* \"#utility.yul\":6169:6200   */\n      calldataload\n        /* \"#utility.yul\":6227:6245   */\n      0xffffffffffffffff\n        /* \"#utility.yul\":6219:6225   */\n      dup2\n        /* \"#utility.yul\":6216:6246   */\n      gt\n        /* \"#utility.yul\":6213:6330   */\n      iszero\n      tag_196\n      jumpi\n        /* \"#utility.yul\":6249:6328   */\n      tag_197\n      tag_87\n      jump\t// in\n    tag_197:\n        /* \"#utility.yul\":6213:6330   */\n    tag_196:\n        /* \"#utility.yul\":6354:6417   */\n      tag_198\n        /* \"#utility.yul\":6409:6416   */\n      dup6\n        /* \"#utility.yul\":6400:6406   */\n      dup3\n        /* \"#utility.yul\":6389:6398   */\n      dup7\n        /* \"#utility.yul\":6385:6407   */\n      add\n        /* \"#utility.yul\":6354:6417   */\n      tag_105\n      jump\t// in\n    tag_198:\n        /* \"#utility.yul\":6344:6417   */\n      swap3\n      pop\n        /* \"#utility.yul\":6140:6427   */\n      pop\n        /* \"#utility.yul\":6494:6496   */\n      0x20\n        /* \"#utility.yul\":6483:6492   */\n      dup4\n        /* \"#utility.yul\":6479:6497   */\n      add\n        /* \"#utility.yul\":6466:6498   */\n      calldataload\n        /* \"#utility.yul\":6525:6543   */\n      0xffffffffffffffff\n        /* \"#utility.yul\":6517:6523   */\n      dup2\n        /* \"#utility.yul\":6514:6544   */\n      gt\n        /* \"#utility.yul\":6511:6628   */\n      iszero\n      tag_199\n      jumpi\n        /* \"#utility.yul\":6547:6626   */\n      tag_200\n      tag_87\n      jump\t// in\n    tag_200:\n        /* \"#utility.yul\":6511:6628   */\n    tag_199:\n        /* \"#utility.yul\":6652:6715   */\n      tag_201\n        /* \"#utility.yul\":6707:6714   */\n      dup6\n        /* \"#utility.yul\":6698:6704   */\n      dup3\n        /* \"#utility.yul\":6687:6696   */\n      dup7\n        /* \"#utility.yul\":6683:6705   */\n      add\n        /* \"#utility.yul\":6652:6715   */\n      tag_105\n      jump\t// in\n    tag_201:\n        /* \"#utility.yul\":6642:6715   */\n      swap2\n      pop\n        /* \"#utility.yul\":6437:6725   */\n      pop\n        /* \"#utility.yul\":5898:6732   */\n      swap3\n      pop\n      swap3\n      swap1\n      pop\n      jump\t// out\n        /* \"#utility.yul\":6738:6918   */\n    tag_106:\n        /* \"#utility.yul\":6786:6863   */\n      0x4e487b7100000000000000000000000000000000000000000000000000000000\n        /* \"#utility.yul\":6783:6784   */\n      0x00\n        /* \"#utility.yul\":6776:6864   */\n      mstore\n        /* \"#utility.yul\":6883:6887   */\n      0x22\n        /* \"#utility.yul\":6880:6881   */\n      0x04\n        /* \"#utility.yul\":6873:6888   */\n      mstore\n        /* \"#utility.yul\":6907:6911   */\n      0x24\n        /* \"#utility.yul\":6904:6905   */\n      0x00\n        /* \"#utility.yul\":6897:6912   */\n      revert\n        /* \"#utility.yul\":6924:7244   */\n    tag_36:\n        /* \"#utility.yul\":6968:6974   */\n      0x00\n        /* \"#utility.yul\":7005:7006   */\n      0x02\n        /* \"#utility.yul\":6999:7003   */\n      dup3\n        /* \"#utility.yul\":6995:7007   */\n      div\n        /* \"#utility.yul\":6985:7007   */\n      swap1\n      pop\n        /* \"#utility.yul\":7052:7053   */\n      0x01\n        /* \"#utility.yul\":7046:7050   */\n      dup3\n        /* \"#utility.yul\":7042:7054   */\n      and\n        /* \"#utility.yul\":7073:7091   */\n      dup1\n        /* \"#utility.yul\":7063:7144   */\n      tag_204\n      jumpi\n        /* \"#utility.yul\":7129:7133   */\n      0x7f\n        /* \"#utility.yul\":7121:7127   */\n      dup3\n        /* \"#utility.yul\":7117:7134   */\n      and\n        /* \"#utility.yul\":7107:7134   */\n      swap2\n      pop\n        /* \"#utility.yul\":7063:7144   */\n    tag_204:\n        /* \"#utility.yul\":7191:7193   */\n      0x20\n        /* \"#utility.yul\":7183:7189   */\n      dup3\n        /* \"#utility.yul\":7180:7194   */\n      lt\n        /* \"#utility.yul\":7160:7178   */\n      dup2\n        /* \"#utility.yul\":7157:7195   */\n      sub\n        /* \"#utility.yul\":7154:7238   */\n      tag_205\n      jumpi\n        /* \"#utility.yul\":7210:7228   */\n      tag_206\n      tag_106\n      jump\t// in\n    tag_206:\n        /* \"#utility.yul\":7154:7238   */\n    tag_205:\n        /* \"#utility.yul\":6975:7244   */\n      pop\n        /* \"#utility.yul\":6924:7244   */\n      swap2\n      swap1\n      pop\n      jump\t// out\n        /* \"#utility.yul\":7250:7430   */\n    tag_54:\n        /* \"#utility.yul\":7298:7375   */\n      0x4e487b7100000000000000000000000000000000000000000000000000000000\n        /* \"#utility.yul\":7295:7296   */\n      0x00\n        /* \"#utility.yul\":7288:7376   */\n      mstore\n        /* \"#utility.yul\":7395:7399   */\n      0x32\n        /* \"#utility.yul\":7392:7393   */\n      0x04\n        /* \"#utility.yul\":7385:7400   */\n      mstore\n        /* \"#utility.yul\":7419:7423   */\n      0x24\n        /* \"#utility.yul\":7416:7417   */\n      0x00\n        /* \"#utility.yul\":7409:7424   */\n      revert\n        /* \"#utility.yul\":7436:7661   */\n    tag_107:\n        /* \"#utility.yul\":7576:7610   */\n      0x4f7261636c65206e6f7420617574686f72697a6564206f7220616c7265616479\n        /* \"#utility.yul\":7572:7573   */\n      0x00\n        /* \"#utility.yul\":7564:7570   */\n      dup3\n        /* \"#utility.yul\":7560:7574   */\n      add\n        /* \"#utility.yul\":7553:7611   */\n      mstore\n        /* \"#utility.yul\":7645:7653   */\n      0x20766f7465640000000000000000000000000000000000000000000000000000\n        /* \"#utility.yul\":7640:7642   */\n      0x20\n        /* \"#utility.yul\":7632:7638   */\n      dup3\n        /* \"#utility.yul\":7628:7643   */\n      add\n        /* \"#utility.yul\":7621:7654   */\n      mstore\n        /* \"#utility.yul\":7436:7661   */\n      pop\n      jump\t// out\n        /* \"#utility.yul\":7667:8033   */\n    tag_108:\n        /* \"#utility.yul\":7809:7812   */\n      0x00\n        /* \"#utility.yul\":7830:7897   */\n      tag_210\n        /* \"#utility.yul\":7894:7896   */\n      0x26\n        /* \"#utility.yul\":7889:7892   */\n      dup4\n        /* \"#utility.yul\":7830:7897   */\n      tag_93\n      jump\t// in\n    tag_210:\n        /* \"#utility.yul\":7823:7897   */\n      swap2\n      pop\n        /* \"#utility.yul\":7906:7999   */\n      tag_211\n        /* \"#utility.yul\":7995:7998   */\n      dup3\n        /* \"#utility.yul\":7906:7999   */\n      tag_107\n      jump\t// in\n    tag_211:\n        /* \"#utility.yul\":8024:8026   */\n      0x40\n        /* \"#utility.yul\":8019:8022   */\n      dup3\n        /* \"#utility.yul\":8015:8027   */\n      add\n        /* \"#utility.yul\":8008:8027   */\n      swap1\n      pop\n        /* \"#utility.yul\":7667:8033   */\n      swap2\n      swap1\n      pop\n      jump\t// out\n        /* \"#utility.yul\":8039:8458   */\n    tag_58:\n        /* \"#utility.yul\":8205:8209   */\n      0x00\n        /* \"#utility.yul\":8243:8245   */\n      0x20\n        /* \"#utility.yul\":8232:8241   */\n      dup3\n        /* \"#utility.yul\":8228:8246   */\n      add\n        /* \"#utility.yul\":8220:8246   */\n      swap1\n      pop\n        /* \"#utility.yul\":8292:8301   */\n      dup2\n        /* \"#utility.yul\":8286:8290   */\n      dup2\n        /* \"#utility.yul\":8282:8302   */\n      sub\n        /* \"#utility.yul\":8278:8279   */\n      0x00\n        /* \"#utility.yul\":8267:8276   */\n      dup4\n        /* \"#utility.yul\":8263:8280   */\n      add\n        /* \"#utility.yul\":8256:8303   */\n      mstore\n        /* \"#utility.yul\":8320:8451   */\n      tag_213\n        /* \"#utility.yul\":8446:8450   */\n      dup2\n        /* \"#utility.yul\":8320:8451   */\n      tag_108\n      jump\t// in\n    tag_213:\n        /* \"#utility.yul\":8312:8451   */\n      swap1\n      pop\n        /* \"#utility.yul\":8039:8458   */\n      swap2\n      swap1\n      pop\n      jump\t// out\n        /* \"#utility.yul\":8464:8605   */\n    tag_109:\n        /* \"#utility.yul\":8513:8517   */\n      0x00\n        /* \"#utility.yul\":8536:8539   */\n      dup2\n        /* \"#utility.yul\":8528:8539   */\n      swap1\n      pop\n        /* \"#utility.yul\":8559:8562   */\n      dup2\n        /* \"#utility.yul\":8556:8557   */\n      0x00\n        /* \"#utility.yul\":8549:8563   */\n      mstore\n        /* \"#utility.yul\":8593:8597   */\n      0x20\n        /* \"#utility.yul\":8590:8591   */\n      0x00\n        /* \"#utility.yul\":8580:8598   */\n      keccak256\n        /* \"#utility.yul\":8572:8598   */\n      swap1\n      pop\n        /* \"#utility.yul\":8464:8605   */\n      swap2\n      swap1\n      pop\n      jump\t// out\n        /* \"#utility.yul\":8611:8704   */\n    tag_110:\n        /* \"#utility.yul\":8648:8654   */\n      0x00\n        /* \"#utility.yul\":8695:8697   */\n      0x20\n        /* \"#utility.yul\":8690:8692   */\n      0x1f\n        /* \"#utility.yul\":8683:8688   */\n      dup4\n        /* \"#utility.yul\":8679:8693   */\n      add\n        /* \"#utility.yul\":8675:8698   */\n      div\n        /* \"#utility.yul\":8665:8698   */\n      swap1\n      pop\n        /* \"#utility.yul\":8611:8704   */\n      swap2\n      swap1\n      pop\n      jump\t// out\n        /* \"#utility.yul\":8710:8817   */\n    tag_111:\n        /* \"#utility.yul\":8754:8762   */\n      0x00\n        /* \"#utility.yul\":8804:8809   */\n      dup3\n        /* \"#utility.yul\":8798:8802   */\n      dup3\n        /* \"#utility.yul\":8794:8810   */\n      shl\n        /* \"#utility.yul\":8773:8810   */\n      swap1\n      pop\n        /* \"#utility.yul\":8710:8817   */\n      swap3\n      swap2\n      pop\n      pop\n      jump\t// out\n        /* \"#utility.yul\":8823:9216   */\n    tag_112:\n        /* \"#utility.yul\":8892:8898   */\n      0x00\n        /* \"#utility.yul\":8942:8943   */\n      0x08\n        /* \"#utility.yul\":8930:8940   */\n      dup4\n        /* \"#utility.yul\":8926:8944   */\n      mul\n        /* \"#utility.yul\":8965:9062   */\n      tag_218\n        /* \"#utility.yul\":8995:9061   */\n      0xffffffffffffffffffffffffffffffffffffffffffffffffffffffffffffffff\n        /* \"#utility.yul\":8984:8993   */\n      dup3\n        /* \"#utility.yul\":8965:9062   */\n      tag_111\n      jump\t// in\n    tag_218:\n        /* \"#utility.yul\":9083:9122   */\n      tag_219\n        /* \"#utility.yul\":9113:9121   */\n      dup7\n        /* \"#utility.yul\":9102:9111   */\n      dup4\n        /* \"#utility.yul\":9083:9122   */\n      tag_111\n      jump\t// in\n    tag_219:\n        /* \"#utility.yul\":9071:9122   */\n      swap6\n      pop\n        /* \"#utility.yul\":9155:9159   */\n      dup1\n        /* \"#utility.yul\":9151:9160   */\n      not\n        /* \"#utility.yul\":9144:9149   */\n      dup5\n        /* \"#utility.yul\":9140:9161   */\n      and\n        /* \"#utility.yul\":9131:9161   */\n      swap4\n      pop\n        /* \"#utility.yul\":9204:9208   */\n      dup1\n        /* \"#utility.yul\":9194:9202   */\n      dup7\n        /* \"#utility.yul\":9190:9209   */\n      and\n        /* \"#utility.yul\":9183:9188   */\n      dup5\n        /* \"#utility.yul\":9180:9210   */\n      or\n        /* \"#utility.yul\":9170:9210   */\n      swap3\n      pop\n        /* \"#utility.yul\":8899:9216   */\n      pop\n      pop\n        /* \"#utility.yul\":8823:9216   */\n      swap4\n      swap3\n      pop\n      pop\n      pop\n      jump\t// out\n        /* \"#utility.yul\":9222:9282   */\n    tag_113:\n        /* \"#utility.yul\":9250:9253   */\n      0x00\n        /* \"#utility.yul\":9271:9276   */\n      dup2\n        /* \"#utility.yul\":9264:9276   */\n      swap1\n      pop\n        /* \"#utility.yul\":9222:9282   */\n      swap2\n      swap1\n      pop\n      jump\t// out\n        /* \"#utility.yul\":9288:9430   */\n    tag_114:\n        /* \"#utility.yul\":9338:9347   */\n      0x00\n        /* \"#utility.yul\":9371:9424   */\n      tag_222\n        /* \"#utility.yul\":9389:9423   */\n      tag_223\n        /* \"#utility.yul\":9398:9422   */\n      tag_224\n        /* \"#utility.yul\":9416:9421   */\n      dup5\n        /* \"#utility.yul\":9398:9422   */\n      tag_88\n      jump\t// in\n    tag_224:\n        /* \"#utility.yul\":9389:9423   */\n      tag_113\n      jump\t// in\n    tag_223:\n        /* \"#utility.yul\":9371:9424   */\n      tag_88\n      jump\t// in\n    tag_222:\n        /* \"#utility.yul\":9358:9424   */\n      swap1\n      pop\n        /* \"#utility.yul\":9288:9430   */\n      swap2\n      swap1\n      pop\n      jump\t// out\n        /* \"#utility.yul\":9436:9511   */\n    tag_115:\n        /* \"#utility.yul\":9479:9482   */\n      0x00\n        /* \"#utility.yul\":9500:9505   */\n      dup2\n        /* \"#utility.yul\":9493:9505   */\n      swap1\n      pop\n        /* \"#utility.yul\":9436:9511   */\n      swap2\n      swap1\n      pop\n      jump\t// out\n        /* \"#utility.yul\":9517:9786   */\n    tag_116:\n        /* \"#utility.yul\":9627:9666   */\n      tag_227\n        /* \"#utility.yul\":9658:9665   */\n      dup4\n        /* \"#utility.yul\":9627:9666   */\n      tag_114\n      jump\t// in\n    tag_227:\n        /* \"#utility.yul\":9688:9779   */\n      tag_228\n        /* \"#utility.yul\":9737:9778   */\n      tag_229\n        /* \"#utility.yul\":9761:9777   */\n      dup3\n        /* \"#utility.yul\":9737:9778   */\n      tag_115\n      jump\t// in\n    tag_229:\n        /* \"#utility.yul\":9729:9735   */\n      dup5\n        /* \"#utility.yul\":9722:9726   */\n      dup5\n        /* \"#utility.yul\":9716:9727   */\n      sload\n        /* \"#utility.yul\":9688:9779   */\n      tag_112\n      jump\t// in\n    tag_228:\n        /* \"#utility.yul\":9682:9686   */\n      dup3\n        /* \"#utility.yul\":9675:9780   */\n      sstore\n        /* \"#utility.yul\":9593:9786   */\n      pop\n        /* \"#utility.yul\":9517:9786   */\n      pop\n      pop\n      pop\n      jump\t// out\n        /* \"#utility.yul\":9792:9865   */\n    tag_117:\n        /* \"#utility.yul\":9837:9840   */\n      0x00\n        /* \"#utility.yul\":9792:9865   */\n      swap1\n      jump\t// out\n        /* \"#utility.yul\":9871:10060   */\n    tag_118:\n        /* \"#utility.yul\":9948:9980   */\n      tag_232\n      tag_117\n      jump\t// in\n    tag_232:\n        /* \"#utility.yul\":9989:10054   */\n      tag_233\n        /* \"#utility.yul\":10047:10053   */\n      dup2\n        /* \"#utility.yul\":10039:10045   */\n      dup5\n        /* \"#utility.yul\":10033:10037   */\n      dup5\n        /* \"#utility.yul\":9989:10054   */\n      tag_116\n      jump\t// in\n    tag_233:\n        /* \"#utility.yul\":9924:10060   */\n      pop\n        /* \"#utility.yul\":9871:10060   */\n      pop\n      pop\n      jump\t// out\n        /* \"#utility.yul\":10066:10252   */\n    tag_119:\n        /* \"#utility.yul\":10126:10246   */\n    tag_235:\n        /* \"#utility.yul\":10143:10146   */\n      dup2\n        /* \"#utility.yul\":10136:10141   */\n      dup2\n        /* \"#utility.yul\":10133:10147   */\n      lt\n        /* \"#utility.yul\":10126:10246   */\n      iszero\n      tag_237\n      jumpi\n        /* \"#utility.yul\":10197:10236   */\n      tag_238\n        /* \"#utility.yul\":10234:10235   */\n      0x00\n        /* \"#utility.yul\":10227:10232   */\n      dup3\n        /* \"#utility.yul\":10197:10236   */\n      tag_118\n      jump\t// in\n    tag_238:\n        /* \"#utility.yul\":10170:10171   */\n      0x01\n        /* \"#utility.yul\":10163:10168   */\n      dup2\n        /* \"#utility.yul\":10159:10172   */\n      add\n        /* \"#utility.yul\":10150:10172   */\n      swap1\n      pop\n        /* \"#utility.yul\":10126:10246   */\n      jump(tag_235)\n    tag_237:\n        /* \"#utility.yul\":10066:10252   */\n      pop\n      pop\n      jump\t// out\n        /* \"#utility.yul\":10258:10801   */\n    tag_120:\n        /* \"#utility.yul\":10359:10361   */\n      0x1f\n        /* \"#utility.yul\":10354:10357   */\n      dup3\n        /* \"#utility.yul\":10351:10362   */\n      gt\n        /* \"#utility.yul\":10348:10794   */\n      iszero\n      tag_240\n      jumpi\n        /* \"#utility.yul\":10393:10431   */\n      tag_241\n        /* \"#utility.yul\":10425:10430   */\n      dup2\n        /* \"#utility.yul\":10393:10431   */\n      tag_109\n      jump\t// in\n    tag_241:\n        /* \"#utility.yul\":10477:10506   */\n      tag_242\n        /* \"#utility.yul\":10495:10505   */\n      dup5\n        /* \"#utility.yul\":10477:10506   */\n      tag_110\n      jump\t// in\n    tag_242:\n        /* \"#utility.yul\":10467:10475   */\n      dup2\n        /* \"#utility.yul\":10463:10507   */\n      add\n        /* \"#utility.yul\":10660:10662   */\n      0x20\n        /* \"#utility.yul\":10648:10658   */\n      dup6\n        /* \"#utility.yul\":10645:10663   */\n      lt\n        /* \"#utility.yul\":10642:10691   */\n      iszero\n      tag_243\n      jumpi\n        /* \"#utility.yul\":10681:10689   */\n      dup2\n        /* \"#utility.yul\":10666:10689   */\n      swap1\n      pop\n        /* \"#utility.yul\":10642:10691   */\n    tag_243:\n        /* \"#utility.yul\":10704:10784   */\n      tag_244\n        /* \"#utility.yul\":10760:10782   */\n      tag_245\n        /* \"#utility.yul\":10778:10781   */\n      dup6\n        /* \"#utility.yul\":10760:10782   */\n      tag_110\n      jump\t// in\n    tag_245:\n        /* \"#utility.yul\":10750:10758   */\n      dup4\n        /* \"#utility.yul\":10746:10783   */\n      add\n        /* \"#utility.yul\":10733:10744   */\n      dup3\n        /* \"#utility.yul\":10704:10784   */\n      tag_119\n      jump\t// in\n    tag_244:\n        /* \"#utility.yul\":10363:10794   */\n      pop\n      pop\n        /* \"#utility.yul\":10348:10794   */\n    tag_240:\n        /* \"#utility.yul\":10258:10801   */\n      pop\n      pop\n      pop\n      jump\t// out\n        /* \"#utility.yul\":10807:10924   */\n    tag_121:\n        /* \"#utility.yul\":10861:10869   */\n      0x00\n        /* \"#utility.yul\":10911:10916   */\n      dup3\n        /* \"#utility.yul\":10905:10909   */\n      dup3\n        /* \"#utility.yul\":10901:10917   */\n      shr\n        /* \"#utility.yul\":10880:10917   */\n      swap1\n      pop\n        /* \"#utility.yul\":10807:10924   */\n      swap3\n      swap2\n      pop\n      pop\n      jump\t// out\n        /* \"#utility.yul\":10930:11099   */\n    tag_122:\n        /* \"#utility.yul\":10974:10980   */\n      0x00\n        /* \"#utility.yul\":11007:11058   */\n      tag_248\n        /* \"#utility.yul\":11055:11056   */\n      0x00\n        /* \"#utility.yul\":11051:11057   */\n      not\n        /* \"#utility.yul\":11043:11048   */\n      dup5\n        /* \"#utility.yul\":11040:11041   */\n      0x08\n        /* \"#utility.yul\":11036:11049   */\n      mul\n        /* \"#utility.yul\":11007:11058   */\n      tag_121\n      jump\t// in\n    tag_248:\n        /* \"#utility.yul\":11003:11059   */\n      not\n        /* \"#utility.yul\":11088:11092   */\n      dup1\n        /* \"#utility.yul\":11082:11086   */\n      dup4\n        /* \"#utility.yul\":11078:11093   */\n      and\n        /* \"#utility.yul\":11068:11093   */\n      swap2\n      pop\n        /* \"#utility.yul\":10981:11099   */\n      pop\n        /* \"#utility.yul\":10930:11099   */\n      swap3\n      swap2\n      pop\n      pop\n      jump\t// out\n        /* \"#utility.yul\":11104:11399   */\n    tag_123:\n        /* \"#utility.yul\":11180:11184   */\n      0x00\n        /* \"#utility.yul\":11326:11355   */\n      tag_250\n        /* \"#utility.yul\":11351:11354   */\n      dup4\n        /* \"#utility.yul\":11345:11349   */\n      dup4\n        /* \"#utility.yul\":11326:11355   */\n      tag_122\n      jump\t// in\n    tag_250:\n        /* \"#utility.yul\":11318:11355   */\n      swap2\n      pop\n        /* \"#utility.yul\":11388:11391   */\n      dup3\n        /* \"#utility.yul\":11385:11386   */\n      0x02\n        /* \"#utility.yul\":11381:11392   */\n      mul\n        /* \"#utility.yul\":11375:11379   */\n      dup3\n        /* \"#utility.yul\":11372:11393   */\n      or\n        /* \"#utility.yul\":11364:11393   */\n      swap1\n      pop\n        /* \"#utility.yul\":11104:11399   */\n      swap3\n      swap2\n      pop\n      pop\n      jump\t// out\n        /* \"#utility.yul\":11404:12799   */\n    tag_64:\n        /* \"#utility.yul\":11521:11558   */\n      tag_252\n        /* \"#utility.yul\":11554:11557   */\n      dup3\n        /* \"#utility.yul\":11521:11558   */\n      tag_92\n      jump\t// in\n    tag_252:\n        /* \"#utility.yul\":11623:11641   */\n      0xffffffffffffffff\n        /* \"#utility.yul\":11615:11621   */\n      dup2\n        /* \"#utility.yul\":11612:11642   */\n      gt\n        /* \"#utility.yul\":11609:11665   */\n      iszero\n      tag_253\n      jumpi\n        /* \"#utility.yul\":11645:11663   */\n      tag_254\n      tag_99\n      jump\t// in\n    tag_254:\n        /* \"#utility.yul\":11609:11665   */\n    tag_253:\n        /* \"#utility.yul\":11689:11727   */\n      tag_255\n        /* \"#utility.yul\":11721:11725   */\n      dup3\n        /* \"#utility.yul\":11715:11726   */\n      sload\n        /* \"#utility.yul\":11689:11727   */\n      tag_36\n      jump\t// in\n    tag_255:\n        /* \"#utility.yul\":11774:11841   */\n      tag_256\n        /* \"#utility.yul\":11834:11840   */\n      dup3\n        /* \"#utility.yul\":11826:11832   */\n      dup3\n        /* \"#utility.yul\":11820:11824   */\n      dup6\n        /* \"#utility.yul\":11774:11841   */\n      tag_120\n      jump\t// in\n    tag_256:\n        /* \"#utility.yul\":11868:11869   */\n      0x00\n        /* \"#utility.yul\":11892:11896   */\n      0x20\n        /* \"#utility.yul\":11879:11896   */\n      swap1\n      pop\n        /* \"#utility.yul\":11924:11926   */\n      0x1f\n        /* \"#utility.yul\":11916:11922   */\n      dup4\n        /* \"#utility.yul\":11913:11927   */\n      gt\n        /* \"#utility.yul\":11941:11942   */\n      0x01\n        /* \"#utility.yul\":11936:12554   */\n      dup2\n      eq\n      tag_258\n      jumpi\n        /* \"#utility.yul\":12598:12599   */\n      0x00\n        /* \"#utility.yul\":12615:12621   */\n      dup5\n        /* \"#utility.yul\":12612:12689   */\n      iszero\n      tag_259\n      jumpi\n        /* \"#utility.yul\":12664:12673   */\n      dup3\n        /* \"#utility.yul\":12659:12662   */\n      dup8\n        /* \"#utility.yul\":12655:12674   */\n      add\n        /* \"#utility.yul\":12649:12675   */\n      mload\n        /* \"#utility.yul\":12640:12675   */\n      swap1\n      pop\n        /* \"#utility.yul\":12612:12689   */\n    tag_259:\n        /* \"#utility.yul\":12715:12782   */\n      tag_260\n        /* \"#utility.yul\":12775:12781   */\n      dup6\n        /* \"#utility.yul\":12768:12773   */\n      dup3\n        /* \"#utility.yul\":12715:12782   */\n      tag_123\n      jump\t// in\n    tag_260:\n        /* \"#utility.yul\":12709:12713   */\n      dup7\n        /* \"#utility.yul\":12702:12783   */\n      sstore\n        /* \"#utility.yul\":12571:12793   */\n      pop\n        /* \"#utility.yul\":11906:12793   */\n      jump(tag_257)\n        /* \"#utility.yul\":11936:12554   */\n    tag_258:\n        /* \"#utility.yul\":11988:11992   */\n      0x1f\n        /* \"#utility.yul\":11984:11993   */\n      not\n        /* \"#utility.yul\":11976:11982   */\n      dup5\n        /* \"#utility.yul\":11972:11994   */\n      and\n        /* \"#utility.yul\":12022:12059   */\n      tag_261\n        /* \"#utility.yul\":12054:12058   */\n      dup7\n        /* \"#utility.yul\":12022:12059   */\n      tag_109\n      jump\t// in\n    tag_261:\n        /* \"#utility.yul\":12081:12082   */\n      0x00\n        /* \"#utility.yul\":12095:12303   */\n    tag_262:\n        /* \"#utility.yul\":12109:12116   */\n      dup3\n        /* \"#utility.yul\":12106:12107   */\n      dup2\n        /* \"#utility.yul\":12103:12117   */\n      lt\n        /* \"#utility.yul\":12095:12303   */\n      iszero\n      tag_264\n      jumpi\n        /* \"#utility.yul\":12188:12197   */\n      dup5\n        /* \"#utility.yul\":12183:12186   */\n      dup10\n        /* \"#utility.yul\":12179:12198   */\n      add\n        /* \"#utility.yul\":12173:12199   */\n      mload\n        /* \"#utility.yul\":12165:12171   */\n      dup3\n        /* \"#utility.yul\":12158:12200   */\n      sstore\n        /* \"#utility.yul\":12239:12240   */\n      0x01\n        /* \"#utility.yul\":12231:12237   */\n      dup3\n        /* \"#utility.yul\":12227:12241   */\n      add\n        /* \"#utility.yul\":12217:12241   */\n      swap2\n      pop\n        /* \"#utility.yul\":12286:12288   */\n      0x20\n        /* \"#utility.yul\":12275:12284   */\n      dup6\n        /* \"#utility.yul\":12271:12289   */\n      add\n        /* \"#utility.yul\":12258:12289   */\n      swap5\n      pop\n        /* \"#utility.yul\":12132:12136   */\n      0x20\n        /* \"#utility.yul\":12129:12130   */\n      dup2\n        /* \"#utility.yul\":12125:12137   */\n      add\n        /* \"#utility.yul\":12120:12137   */\n      swap1\n      pop\n        /* \"#utility.yul\":12095:12303   */\n      jump(tag_262)\n    tag_264:\n        /* \"#utility.yul\":12331:12337   */\n      dup7\n        /* \"#utility.yul\":12322:12329   */\n      dup4\n        /* \"#utility.yul\":12319:12338   */\n      lt\n        /* \"#utility.yul\":12316:12495   */\n      iszero\n      tag_265\n      jumpi\n        /* \"#utility.yul\":12389:12398   */\n      dup5\n        /* \"#utility.yul\":12384:12387   */\n      dup10\n        /* \"#utility.yul\":12380:12399   */\n      add\n        /* \"#utility.yul\":12374:12400   */\n      mload\n        /* \"#utility.yul\":12432:12480   */\n      tag_266\n        /* \"#utility.yul\":12474:12478   */\n      0x1f\n        /* \"#utility.yul\":12466:12472   */\n      dup10\n        /* \"#utility.yul\":12462:12479   */\n      and\n        /* \"#utility.yul\":12451:12460   */\n      dup3\n        /* \"#utility.yul\":12432:12480   */\n      tag_122\n      jump\t// in\n    tag_266:\n        /* \"#utility.yul\":12424:12430   */\n      dup4\n        /* \"#utility.yul\":12417:12481   */\n      sstore\n        /* \"#utility.yul\":12339:12495   */\n      pop\n        /* \"#utility.yul\":12316:12495   */\n    tag_265:\n        /* \"#utility.yul\":12541:12542   */\n      0x01\n        /* \"#utility.yul\":12537:12538   */\n      0x02\n        /* \"#utility.yul\":12529:12535   */\n      dup9\n        /* \"#utility.yul\":12525:12539   */\n      mul\n        /* \"#utility.yul\":12521:12543   */\n      add\n        /* \"#utility.yul\":12515:12519   */\n      dup9\n        /* \"#utility.yul\":12508:12544   */\n      sstore\n        /* \"#utility.yul\":11943:12554   */\n      pop\n      pop\n      pop\n        /* \"#utility.yul\":11906:12793   */\n    tag_257:\n      pop\n        /* \"#utility.yul\":11496:12799   */\n      pop\n      pop\n      pop\n        /* \"#utility.yul\":11404:12799   */\n      pop\n      pop\n      jump\t// out\n        /* \"#utility.yul\":12805:12985   */\n    tag_124:\n        /* \"#utility.yul\":12853:12930   */\n      0x4e487b7100000000000000000000000000000000000000000000000000000000\n        /* \"#utility.yul\":12850:12851   */\n      0x00\n        /* \"#utility.yul\":12843:12931   */\n      mstore\n        /* \"#utility.yul\":12950:12954   */\n      0x11\n        /* \"#utility.yul\":12947:12948   */\n      0x04\n        /* \"#utility.yul\":12940:12955   */\n      mstore\n        /* \"#utility.yul\":12974:12978   */\n      0x24\n        /* \"#utility.yul\":12971:12972   */\n      0x00\n        /* \"#utility.yul\":12964:12979   */\n      revert\n        /* \"#utility.yul\":12991:13224   */\n    tag_66:\n        /* \"#utility.yul\":13030:13033   */\n      0x00\n        /* \"#utility.yul\":13053:13077   */\n      tag_269\n        /* \"#utility.yul\":13071:13076   */\n      dup3\n        /* \"#utility.yul\":13053:13077   */\n      tag_88\n      jump\t// in\n    tag_269:\n        /* \"#utility.yul\":13044:13077   */\n      swap2\n      pop\n        /* \"#utility.yul\":13099:13165   */\n      0xffffffffffffffffffffffffffffffffffffffffffffffffffffffffffffffff\n        /* \"#utility.yul\":13092:13097   */\n      dup3\n        /* \"#utility.yul\":13089:13166   */\n      sub\n        /* \"#utility.yul\":13086:13189   */\n      tag_270\n      jumpi\n        /* \"#utility.yul\":13169:13187   */\n      tag_271\n      tag_124\n      jump\t// in\n    tag_271:\n        /* \"#utility.yul\":13086:13189   */\n    tag_270:\n        /* \"#utility.yul\":13216:13217   */\n      0x01\n        /* \"#utility.yul\":13209:13214   */\n      dup3\n        /* \"#utility.yul\":13205:13218   */\n      add\n        /* \"#utility.yul\":13198:13218   */\n      swap1\n      pop\n        /* \"#utility.yul\":12991:13224   */\n      swap2\n      swap1\n      pop\n      jump\t// out\n        /* \"#utility.yul\":13230:13377   */\n    tag_125:\n        /* \"#utility.yul\":13331:13342   */\n      0x00\n        /* \"#utility.yul\":13368:13371   */\n      dup2\n        /* \"#utility.yul\":13353:13371   */\n      swap1\n      pop\n        /* \"#utility.yul\":13230:13377   */\n      swap3\n      swap2\n      pop\n      pop\n      jump\t// out\n        /* \"#utility.yul\":13383:13527   */\n    tag_126:\n        /* \"#utility.yul\":13435:13439   */\n      0x00\n        /* \"#utility.yul\":13458:13461   */\n      dup2\n        /* \"#utility.yul\":13450:13461   */\n      swap1\n      pop\n        /* \"#utility.yul\":13481:13484   */\n      dup2\n        /* \"#utility.yul\":13478:13479   */\n      0x00\n        /* \"#utility.yul\":13471:13485   */\n      mstore\n        /* \"#utility.yul\":13515:13519   */\n      0x20\n        /* \"#utility.yul\":13512:13513   */\n      0x00\n        /* \"#utility.yul\":13502:13520   */\n      keccak256\n        /* \"#utility.yul\":13494:13520   */\n      swap1\n      pop\n        /* \"#utility.yul\":13383:13527   */\n      swap2\n      swap1\n      pop\n      jump\t// out\n        /* \"#utility.yul\":13555:14433   */\n    tag_127:\n        /* \"#utility.yul\":13660:13663   */\n      0x00\n        /* \"#utility.yul\":13697:13702   */\n      dup2\n        /* \"#utility.yul\":13691:13703   */\n      sload\n        /* \"#utility.yul\":13726:13762   */\n      tag_275\n        /* \"#utility.yul\":13752:13761   */\n      dup2\n        /* \"#utility.yul\":13726:13762   */\n      tag_36\n      jump\t// in\n    tag_275:\n        /* \"#utility.yul\":13778:13866   */\n      tag_276\n        /* \"#utility.yul\":13859:13865   */\n      dup2\n        /* \"#utility.yul\":13854:13857   */\n      dup7\n        /* \"#utility.yul\":13778:13866   */\n      tag_125\n      jump\t// in\n    tag_276:\n        /* \"#utility.yul\":13771:13866   */\n      swap5\n      pop\n        /* \"#utility.yul\":13897:13898   */\n      0x01\n        /* \"#utility.yul\":13886:13895   */\n      dup3\n        /* \"#utility.yul\":13882:13899   */\n      and\n        /* \"#utility.yul\":13913:13914   */\n      0x00\n        /* \"#utility.yul\":13908:14074   */\n      dup2\n      eq\n      tag_278\n      jumpi\n        /* \"#utility.yul\":14088:14089   */\n      0x01\n        /* \"#utility.yul\":14083:14427   */\n      dup2\n      eq\n      tag_279\n      jumpi\n        /* \"#utility.yul\":13875:14427   */\n      jump(tag_277)\n        /* \"#utility.yul\":13908:14074   */\n    tag_278:\n        /* \"#utility.yul\":13992:13996   */\n      0xff\n        /* \"#utility.yul\":13988:13997   */\n      not\n        /* \"#utility.yul\":13977:13986   */\n      dup4\n        /* \"#utility.yul\":13973:13998   */\n      and\n        /* \"#utility.yul\":13968:13971   */\n      dup7\n        /* \"#utility.yul\":13961:13999   */\n      mstore\n        /* \"#utility.yul\":14054:14060   */\n      dup2\n        /* \"#utility.yul\":14047:14061   */\n      iszero\n        /* \"#utility.yul\":14040:14062   */\n      iszero\n        /* \"#utility.yul\":14032:14038   */\n      dup3\n        /* \"#utility.yul\":14028:14063   */\n      mul\n        /* \"#utility.yul\":14023:14026   */\n      dup7\n        /* \"#utility.yul\":14019:14064   */\n      add\n        /* \"#utility.yul\":14012:14064   */\n      swap4\n      pop\n        /* \"#utility.yul\":13908:14074   */\n      jump(tag_277)\n        /* \"#utility.yul\":14083:14427   */\n    tag_279:\n        /* \"#utility.yul\":14150:14191   */\n      tag_280\n        /* \"#utility.yul\":14185:14190   */\n      dup6\n        /* \"#utility.yul\":14150:14191   */\n      tag_126\n      jump\t// in\n    tag_280:\n        /* \"#utility.yul\":14213:14214   */\n      0x00\n        /* \"#utility.yul\":14227:14381   */\n    tag_281:\n        /* \"#utility.yul\":14241:14247   */\n      dup4\n        /* \"#utility.yul\":14238:14239   */\n      dup2\n        /* \"#utility.yul\":14235:14248   */\n      lt\n        /* \"#utility.yul\":14227:14381   */\n      iszero\n      tag_283\n      jumpi\n        /* \"#utility.yul\":14315:14322   */\n      dup2\n        /* \"#utility.yul\":14309:14323   */\n      sload\n        /* \"#utility.yul\":14305:14306   */\n      dup2\n        /* \"#utility.yul\":14300:14303   */\n      dup10\n        /* \"#utility.yul\":14296:14307   */\n      add\n        /* \"#utility.yul\":14289:14324   */\n      mstore\n        /* \"#utility.yul\":14365:14366   */\n      0x01\n        /* \"#utility.yul\":14356:14363   */\n      dup3\n        /* \"#utility.yul\":14352:14367   */\n      add\n        /* \"#utility.yul\":14341:14367   */\n      swap2\n      pop\n        /* \"#utility.yul\":14263:14267   */\n      0x20\n        /* \"#utility.yul\":14260:14261   */\n      dup2\n        /* \"#utility.yul\":14256:14268   */\n      add\n        /* \"#utility.yul\":14251:14268   */\n      swap1\n      pop\n        /* \"#utility.yul\":14227:14381   */\n      jump(tag_281)\n    tag_283:\n        /* \"#utility.yul\":14410:14416   */\n      dup4\n        /* \"#utility.yul\":14405:14408   */\n      dup9\n        /* \"#utility.yul\":14401:14417   */\n      add\n        /* \"#utility.yul\":14394:14417   */\n      swap6\n      pop\n        /* \"#utility.yul\":14090:14427   */\n      pop\n      pop\n        /* \"#utility.yul\":13875:14427   */\n    tag_277:\n      pop\n        /* \"#utility.yul\":13664:14433   */\n      pop\n      pop\n        /* \"#utility.yul\":13555:14433   */\n      swap3\n      swap2\n      pop\n      pop\n      jump\t// out\n        /* \"#utility.yul\":14439:14712   */\n    tag_71:\n        /* \"#utility.yul\":14570:14573   */\n      0x00\n        /* \"#utility.yul\":14592:14686   */\n      tag_285\n        /* \"#utility.yul\":14682:14685   */\n      dup3\n        /* \"#utility.yul\":14673:14679   */\n      dup5\n        /* \"#utility.yul\":14592:14686   */\n      tag_127\n      jump\t// in\n    tag_285:\n        /* \"#utility.yul\":14585:14686   */\n      swap2\n      pop\n        /* \"#utility.yul\":14703:14706   */\n      dup2\n        /* \"#utility.yul\":14696:14706   */\n      swap1\n      pop\n        /* \"#utility.yul\":14439:14712   */\n      swap3\n      swap2\n      pop\n      pop\n      jump\t// out\n        /* \"#utility.yul\":14742:15573   */\n    tag_128:\n        /* \"#utility.yul\":14827:14830   */\n      0x00\n        /* \"#utility.yul\":14864:14869   */\n      dup2\n        /* \"#utility.yul\":14858:14870   */\n      sload\n        /* \"#utility.yul\":14893:14929   */\n      tag_287\n        /* \"#utility.yul\":14919:14928   */\n      dup2\n        /* \"#utility.yul\":14893:14929   */\n      tag_36\n      jump\t// in\n    tag_287:\n        /* \"#utility.yul\":14945:15016   */\n      tag_288\n        /* \"#utility.yul\":15009:15015   */\n      dup2\n        /* \"#utility.yul\":15004:15007   */\n      dup7\n        /* \"#utility.yul\":14945:15016   */\n      tag_93\n      jump\t// in\n    tag_288:\n        /* \"#utility.yul\":14938:15016   */\n      swap5\n      pop\n        /* \"#utility.yul\":15047:15048   */\n      0x01\n        /* \"#utility.yul\":15036:15045   */\n      dup3\n        /* \"#utility.yul\":15032:15049   */\n      and\n        /* \"#utility.yul\":15063:15064   */\n      0x00\n        /* \"#utility.yul\":15058:15222   */\n      dup2\n      eq\n      tag_290\n      jumpi\n        /* \"#utility.yul\":15236:15237   */\n      0x01\n        /* \"#utility.yul\":15231:15567   */\n      dup2\n      eq\n      tag_291\n      jumpi\n        /* \"#utility.yul\":15025:15567   */\n      jump(tag_289)\n        /* \"#utility.yul\":15058:15222   */\n    tag_290:\n        /* \"#utility.yul\":15142:15146   */\n      0xff\n        /* \"#utility.yul\":15138:15147   */\n      not\n        /* \"#utility.yul\":15127:15136   */\n      dup4\n        /* \"#utility.yul\":15123:15148   */\n      and\n        /* \"#utility.yul\":15118:15121   */\n      dup7\n        /* \"#utility.yul\":15111:15149   */\n      mstore\n        /* \"#utility.yul\":15202:15208   */\n      dup2\n        /* \"#utility.yul\":15195:15209   */\n      iszero\n        /* \"#utility.yul\":15188:15210   */\n      iszero\n        /* \"#utility.yul\":15182:15186   */\n      0x20\n        /* \"#utility.yul\":15178:15211   */\n      mul\n        /* \"#utility.yul\":15173:15176   */\n      dup7\n        /* \"#utility.yul\":15169:15212   */\n      add\n        /* \"#utility.yul\":15162:15212   */\n      swap4\n      pop\n        /* \"#utility.yul\":15058:15222   */\n      jump(tag_289)\n        /* \"#utility.yul\":15231:15567   */\n    tag_291:\n        /* \"#utility.yul\":15298:15336   */\n      tag_292\n        /* \"#utility.yul\":15330:15335   */\n      dup6\n        /* \"#utility.yul\":15298:15336   */\n      tag_109\n      jump\t// in\n    tag_292:\n        /* \"#utility.yul\":15358:15359   */\n      0x00\n        /* \"#utility.yul\":15372:15526   */\n    tag_293:\n        /* \"#utility.yul\":15386:15392   */\n      dup4\n        /* \"#utility.yul\":15383:15384   */\n      dup2\n        /* \"#utility.yul\":15380:15393   */\n      lt\n        /* \"#utility.yul\":15372:15526   */\n      iszero\n      tag_295\n      jumpi\n        /* \"#utility.yul\":15460:15467   */\n      dup2\n        /* \"#utility.yul\":15454:15468   */\n      sload\n        /* \"#utility.yul\":15450:15451   */\n      dup2\n        /* \"#utility.yul\":15445:15448   */\n      dup10\n        /* \"#utility.yul\":15441:15452   */\n      add\n        /* \"#utility.yul\":15434:15469   */\n      mstore\n        /* \"#utility.yul\":15510:15511   */\n      0x01\n        /* \"#utility.yul\":15501:15508   */\n      dup3\n        /* \"#utility.yul\":15497:15512   */\n      add\n        /* \"#utility.yul\":15486:15512   */\n      swap2\n      pop\n        /* \"#utility.yul\":15408:15412   */\n      0x20\n        /* \"#utility.yul\":15405:15406   */\n      dup2\n        /* \"#utility.yul\":15401:15413   */\n      add\n        /* \"#utility.yul\":15396:15413   */\n      swap1\n      pop\n        /* \"#utility.yul\":15372:15526   */\n      jump(tag_293)\n    tag_295:\n        /* \"#utility.yul\":15555:15556   */\n      dup1\n        /* \"#utility.yul\":15550:15553   */\n      dup9\n        /* \"#utility.yul\":15546:15557   */\n      add\n        /* \"#utility.yul\":15539:15557   */\n      swap6\n      pop\n        /* \"#utility.yul\":15238:15567   */\n      pop\n      pop\n        /* \"#utility.yul\":15025:15567   */\n    tag_289:\n      pop\n        /* \"#utility.yul\":14831:15573   */\n      pop\n      pop\n        /* \"#utility.yul\":14742:15573   */\n      swap3\n      swap2\n      pop\n      pop\n      jump\t// out\n        /* \"#utility.yul\":15579:16387   */\n    tag_77:\n        /* \"#utility.yul\":15807:15811   */\n      0x00\n        /* \"#utility.yul\":15845:15848   */\n      0x80\n        /* \"#utility.yul\":15834:15843   */\n      dup3\n        /* \"#utility.yul\":15830:15849   */\n      add\n        /* \"#utility.yul\":15822:15849   */\n      swap1\n      pop\n        /* \"#utility.yul\":15859:15930   */\n      tag_297\n        /* \"#utility.yul\":15927:15928   */\n      0x00\n        /* \"#utility.yul\":15916:15925   */\n      dup4\n        /* \"#utility.yul\":15912:15929   */\n      add\n        /* \"#utility.yul\":15903:15909   */\n      dup8\n        /* \"#utility.yul\":15859:15930   */\n      tag_91\n      jump\t// in\n    tag_297:\n        /* \"#utility.yul\":15977:15986   */\n      dup2\n        /* \"#utility.yul\":15971:15975   */\n      dup2\n        /* \"#utility.yul\":15967:15987   */\n      sub\n        /* \"#utility.yul\":15962:15964   */\n      0x20\n        /* \"#utility.yul\":15951:15960   */\n      dup4\n        /* \"#utility.yul\":15947:15965   */\n      add\n        /* \"#utility.yul\":15940:15988   */\n      mstore\n        /* \"#utility.yul\":16005:16080   */\n      tag_298\n        /* \"#utility.yul\":16075:16079   */\n      dup2\n        /* \"#utility.yul\":16066:16072   */\n      dup7\n        /* \"#utility.yul\":16005:16080   */\n      tag_128\n      jump\t// in\n    tag_298:\n        /* \"#utility.yul\":15997:16080   */\n      swap1\n      pop\n        /* \"#utility.yul\":16127:16136   */\n      dup2\n        /* \"#utility.yul\":16121:16125   */\n      dup2\n        /* \"#utility.yul\":16117:16137   */\n      sub\n        /* \"#utility.yul\":16112:16114   */\n      0x40\n        /* \"#utility.yul\":16101:16110   */\n      dup4\n        /* \"#utility.yul\":16097:16115   */\n      add\n        /* \"#utility.yul\":16090:16138   */\n      mstore\n        /* \"#utility.yul\":16155:16230   */\n      tag_299\n        /* \"#utility.yul\":16225:16229   */\n      dup2\n        /* \"#utility.yul\":16216:16222   */\n      dup6\n        /* \"#utility.yul\":16155:16230   */\n      tag_128\n      jump\t// in\n    tag_299:\n        /* \"#utility.yul\":16147:16230   */\n      swap1\n      pop\n        /* \"#utility.yul\":16277:16286   */\n      dup2\n        /* \"#utility.yul\":16271:16275   */\n      dup2\n        /* \"#utility.yul\":16267:16287   */\n      sub\n        /* \"#utility.yul\":16262:16264   */\n      0x60\n        /* \"#utility.yul\":16251:16260   */\n      dup4\n        /* \"#utility.yul\":16247:16265   */\n      add\n        /* \"#utility.yul\":16240:16288   */\n      mstore\n        /* \"#utility.yul\":16305:16380   */\n      tag_300\n        /* \"#utility.yul\":16375:16379   */\n      dup2\n        /* \"#utility.yul\":16366:16372   */\n      dup5\n        /* \"#utility.yul\":16305:16380   */\n      tag_128\n      jump\t// in\n    tag_300:\n        /* \"#utility.yul\":16297:16380   */\n      swap1\n      pop\n        /* \"#utility.yul\":15579:16387   */\n      swap6\n      swap5\n      pop\n      pop\n      pop\n      pop\n      pop\n      jump\t// out\n        /* \"#utility.yul\":16393:17017   */\n    tag_83:\n        /* \"#utility.yul\":16582:16586   */\n      0x00\n        /* \"#utility.yul\":16620:16622   */\n      0x60\n        /* \"#utility.yul\":16609:16618   */\n      dup3\n        /* \"#utility.yul\":16605:16623   */\n      add\n        /* \"#utility.yul\":16597:16623   */\n      swap1\n      pop\n        /* \"#utility.yul\":16633:16704   */\n      tag_302\n        /* \"#utility.yul\":16701:16702   */\n      0x00\n        /* \"#utility.yul\":16690:16699   */\n      dup4\n        /* \"#utility.yul\":16686:16703   */\n      add\n        /* \"#utility.yul\":16677:16683   */\n      dup7\n        /* \"#utility.yul\":16633:16704   */\n      tag_91\n      jump\t// in\n    tag_302:\n        /* \"#utility.yul\":16751:16760   */\n      dup2\n        /* \"#utility.yul\":16745:16749   */\n      dup2\n        /* \"#utility.yul\":16741:16761   */\n      sub\n        /* \"#utility.yul\":16736:16738   */\n      0x20\n        /* \"#utility.yul\":16725:16734   */\n      dup4\n        /* \"#utility.yul\":16721:16739   */\n      add\n        /* \"#utility.yul\":16714:16762   */\n      mstore\n        /* \"#utility.yul\":16779:16857   */\n      tag_303\n        /* \"#utility.yul\":16852:16856   */\n      dup2\n        /* \"#utility.yul\":16843:16849   */\n      dup6\n        /* \"#utility.yul\":16779:16857   */\n      tag_96\n      jump\t// in\n    tag_303:\n        /* \"#utility.yul\":16771:16857   */\n      swap1\n      pop\n        /* \"#utility.yul\":16904:16913   */\n      dup2\n        /* \"#utility.yul\":16898:16902   */\n      dup2\n        /* \"#utility.yul\":16894:16914   */\n      sub\n        /* \"#utility.yul\":16889:16891   */\n      0x40\n        /* \"#utility.yul\":16878:16887   */\n      dup4\n        /* \"#utility.yul\":16874:16892   */\n      add\n        /* \"#utility.yul\":16867:16915   */\n      mstore\n        /* \"#utility.yul\":16932:17010   */\n      tag_304\n        /* \"#utility.yul\":17005:17009   */\n      dup2\n        /* \"#utility.yul\":16996:17002   */\n      dup5\n        /* \"#utility.yul\":16932:17010   */\n      tag_96\n      jump\t// in\n    tag_304:\n        /* \"#utility.yul\":16924:17010   */\n      swap1\n      pop\n        /* \"#utility.yul\":16393:17017   */\n      swap5\n      swap4\n      pop\n      pop\n      pop\n      pop\n      jump\t// out\n\n    auxdata: 0xa2646970667358221220272df9b4de8358dccaf1c64193a2b7f83a92c212dd82458722b7c82c596604bc64736f6c634300081a0033\n}\n",
				"bytecode": {
					"linkReferences": {},
					"object": "60806040525f6001556002805560038055348015601a575f80fd5b5061102c806100285f395ff3fe608060405234801561000f575f80fd5b5060043610610060575f3560e01c806381d12c581461006457806399cc7f6014610097578063b5a127e5146100b5578063cfb0ac99146100d3578063df89f819146100ef578063e00dd1611461010b575b5f80fd5b61007e60048036038101906100799190610719565b610129565b60405161008e94939291906107c3565b60405180910390f35b61009f6102f5565b6040516100ac919061081b565b60405180910390f35b6100bd6102fb565b6040516100ca919061081b565b60405180910390f35b6100ed60048036038101906100e89190610960565b610301565b005b610109600480360381019061010491906109ba565b61051d565b005b6101136106cf565b604051610120919061081b565b60405180910390f35b5f8181548110610137575f80fd5b905f5260205f2090600602015f91509050805f01549080600101805461015c90610a5d565b80601f016020809104026020016040519081016040528092919081815260200182805461018890610a5d565b80156101d35780601f106101aa576101008083540402835291602001916101d3565b820191905f5260205f20905b8154815290600101906020018083116101b657829003601f168201915b5050505050908060020180546101e890610a5d565b80601f016020809104026020016040519081016040528092919081815260200182805461021490610a5d565b801561025f5780601f106102365761010080835404028352916020019161025f565b820191905f5260205f20905b81548152906001019060200180831161024257829003601f168201915b50505050509080600301805461027490610a5d565b80601f01602080910402602001604051908101604052809291908181526020018280546102a090610a5d565b80156102eb5780601f106102c2576101008083540402835291602001916102eb565b820191905f5260205f20905b8154815290600101906020018083116102ce57829003601f168201915b5050505050905084565b60035481565b60025481565b5f80838154811061031557610314610a8d565b5b905f5260205f20906006020190506001816005015f3373ffffffffffffffffffffffffffffffffffffffff1673ffffffffffffffffffffffffffffffffffffffff1681526020019081526020015f2054146103a5576040517f08c379a000000000000000000000000000000000000000000000000000000000815260040161039c90610b2a565b60405180910390fd5b6002816005015f3373ffffffffffffffffffffffffffffffffffffffff1673ffffffffffffffffffffffffffffffffffffffff1681526020019081526020015f20819055505f805b80610451575f836004015f8481526020019081526020015f20805461041190610a5d565b90500361043e576001905083836004015f8481526020019081526020015f20908161043c9190610ce5565b505b818061044990610de1565b9250506103ed565b5f805b600354811015610514578580519060200120856004015f8381526020019081526020015f206040516104869190610ec4565b60405180910390200361050757818061049e90610de1565b925050600254821061050657858560030190816104bb9190610ce5565b507f51f1e1f00d186e79f8ea7c82be079fcdd49fe881904a9cdc1903345eb69d3831855f01548660010187600201886003016040516104fd9493929190610f5b565b60405180910390a15b5b8080600101915050610454565b50505050505050565b5f8060018160018154018082558091505003905f5260205f2090600602019050600154815f0181905550828160010190816105589190610ce5565b508181600201908161056a9190610ce5565b506001816005015f736c2339b46f41a06f09ca0051ddad54d1e582ba7773ffffffffffffffffffffffffffffffffffffffff1673ffffffffffffffffffffffffffffffffffffffff1681526020019081526020015f20819055506001816005015f73b5346cf224c02186606e5f89eacc21ec2539807773ffffffffffffffffffffffffffffffffffffffff1673ffffffffffffffffffffffffffffffffffffffff1681526020019081526020015f20819055506001816005015f73a2997f1ca363d11a0a35bb1ac0ff7849bc13e91473ffffffffffffffffffffffffffffffffffffffff1673ffffffffffffffffffffffffffffffffffffffff1681526020019081526020015f20819055507f0312239616abfb14f7ffa065155abb0ca047274d86c965890db4c8a48b8ce4b660015484846040516106ab93929190610fb3565b60405180910390a160015f8154809291906106c590610de1565b9190505550505050565b60015481565b5f604051905090565b5f80fd5b5f80fd5b5f819050919050565b6106f8816106e6565b8114610702575f80fd5b50565b5f81359050610713816106ef565b92915050565b5f6020828403121561072e5761072d6106de565b5b5f61073b84828501610705565b91505092915050565b61074d816106e6565b82525050565b5f81519050919050565b5f82825260208201905092915050565b8281835e5f83830152505050565b5f601f19601f8301169050919050565b5f61079582610753565b61079f818561075d565b93506107af81856020860161076d565b6107b88161077b565b840191505092915050565b5f6080820190506107d65f830187610744565b81810360208301526107e8818661078b565b905081810360408301526107fc818561078b565b90508181036060830152610810818461078b565b905095945050505050565b5f60208201905061082e5f830184610744565b92915050565b5f80fd5b5f80fd5b7f4e487b71000000000000000000000000000000000000000000000000000000005f52604160045260245ffd5b6108728261077b565b810181811067ffffffffffffffff821117156108915761089061083c565b5b80604052505050565b5f6108a36106d5565b90506108af8282610869565b919050565b5f67ffffffffffffffff8211156108ce576108cd61083c565b5b6108d78261077b565b9050602081019050919050565b828183375f83830152505050565b5f6109046108ff846108b4565b61089a565b9050828152602081018484840111156109205761091f610838565b5b61092b8482856108e4565b509392505050565b5f82601f83011261094757610946610834565b5b81356109578482602086016108f2565b91505092915050565b5f8060408385031215610976576109756106de565b5b5f61098385828601610705565b925050602083013567ffffffffffffffff8111156109a4576109a36106e2565b5b6109b085828601610933565b9150509250929050565b5f80604083850312156109d0576109cf6106de565b5b5f83013567ffffffffffffffff8111156109ed576109ec6106e2565b5b6109f985828601610933565b925050602083013567ffffffffffffffff811115610a1a57610a196106e2565b5b610a2685828601610933565b9150509250929050565b7f4e487b71000000000000000000000000000000000000000000000000000000005f52602260045260245ffd5b5f6002820490506001821680610a7457607f821691505b602082108103610a8757610a86610a30565b5b50919050565b7f4e487b71000000000000000000000000000000000000000000000000000000005f52603260045260245ffd5b7f4f7261636c65206e6f7420617574686f72697a6564206f7220616c72656164795f8201527f20766f7465640000000000000000000000000000000000000000000000000000602082015250565b5f610b1460268361075d565b9150610b1f82610aba565b604082019050919050565b5f6020820190508181035f830152610b4181610b08565b9050919050565b5f819050815f5260205f209050919050565b5f6020601f8301049050919050565b5f82821b905092915050565b5f60088302610ba47fffffffffffffffffffffffffffffffffffffffffffffffffffffffffffffffff82610b69565b610bae8683610b69565b95508019841693508086168417925050509392505050565b5f819050919050565b5f610be9610be4610bdf846106e6565b610bc6565b6106e6565b9050919050565b5f819050919050565b610c0283610bcf565b610c16610c0e82610bf0565b848454610b75565b825550505050565b5f90565b610c2a610c1e565b610c35818484610bf9565b505050565b5b81811015610c5857610c4d5f82610c22565b600181019050610c3b565b5050565b601f821115610c9d57610c6e81610b48565b610c7784610b5a565b81016020851015610c86578190505b610c9a610c9285610b5a565b830182610c3a565b50505b505050565b5f82821c905092915050565b5f610cbd5f1984600802610ca2565b1980831691505092915050565b5f610cd58383610cae565b9150826002028217905092915050565b610cee82610753565b67ffffffffffffffff811115610d0757610d0661083c565b5b610d118254610a5d565b610d1c828285610c5c565b5f60209050601f831160018114610d4d575f8415610d3b578287015190505b610d458582610cca565b865550610dac565b601f198416610d5b86610b48565b5f5b82811015610d8257848901518255600182019150602085019450602081019050610d5d565b86831015610d9f5784890151610d9b601f891682610cae565b8355505b6001600288020188555050505b505050505050565b7f4e487b71000000000000000000000000000000000000000000000000000000005f52601160045260245ffd5b5f610deb826106e6565b91507fffffffffffffffffffffffffffffffffffffffffffffffffffffffffffffffff8203610e1d57610e1c610db4565b5b600182019050919050565b5f81905092915050565b5f819050815f5260205f209050919050565b5f8154610e5081610a5d565b610e5a8186610e28565b9450600182165f8114610e745760018114610e8957610ebb565b60ff1983168652811515820286019350610ebb565b610e9285610e32565b5f5b83811015610eb357815481890152600182019150602081019050610e94565b838801955050505b50505092915050565b5f610ecf8284610e44565b915081905092915050565b5f8154610ee681610a5d565b610ef0818661075d565b9450600182165f8114610f0a5760018114610f2057610f52565b60ff198316865281151560200286019350610f52565b610f2985610b48565b5f5b83811015610f4a57815481890152600182019150602081019050610f2b565b808801955050505b50505092915050565b5f608082019050610f6e5f830187610744565b8181036020830152610f808186610eda565b90508181036040830152610f948185610eda565b90508181036060830152610fa88184610eda565b905095945050505050565b5f606082019050610fc65f830186610744565b8181036020830152610fd8818561078b565b90508181036040830152610fec818461078b565b905094935050505056fea2646970667358221220272df9b4de8358dccaf1c64193a2b7f83a92c212dd82458722b7c82c596604bc64736f6c634300081a0033",
					"opcodes": "PUSH1 0x80 PUSH1 0x40 MSTORE PUSH0 PUSH1 0x1 SSTORE PUSH1 0x2 DUP1 SSTORE PUSH1 0x3 DUP1 SSTORE CALLVALUE DUP1 ISZERO PUSH1 0x1A JUMPI PUSH0 DUP1 REVERT JUMPDEST POP PUSH2 0x102C DUP1 PUSH2 0x28 PUSH0 CODECOPY PUSH0 RETURN INVALID PUSH1 0x80 PUSH1 0x40 MSTORE CALLVALUE DUP1 ISZERO PUSH2 0xF JUMPI PUSH0 DUP1 REVERT JUMPDEST POP PUSH1 0x4 CALLDATASIZE LT PUSH2 0x60 JUMPI PUSH0 CALLDATALOAD PUSH1 0xE0 SHR DUP1 PUSH4 0x81D12C58 EQ PUSH2 0x64 JUMPI DUP1 PUSH4 0x99CC7F60 EQ PUSH2 0x97 JUMPI DUP1 PUSH4 0xB5A127E5 EQ PUSH2 0xB5 JUMPI DUP1 PUSH4 0xCFB0AC99 EQ PUSH2 0xD3 JUMPI DUP1 PUSH4 0xDF89F819 EQ PUSH2 0xEF JUMPI DUP1 PUSH4 0xE00DD161 EQ PUSH2 0x10B JUMPI JUMPDEST PUSH0 DUP1 REVERT JUMPDEST PUSH2 0x7E PUSH1 0x4 DUP1 CALLDATASIZE SUB DUP2 ADD SWAP1 PUSH2 0x79 SWAP2 SWAP1 PUSH2 0x719 JUMP JUMPDEST PUSH2 0x129 JUMP JUMPDEST PUSH1 0x40 MLOAD PUSH2 0x8E SWAP5 SWAP4 SWAP3 SWAP2 SWAP1 PUSH2 0x7C3 JUMP JUMPDEST PUSH1 0x40 MLOAD DUP1 SWAP2 SUB SWAP1 RETURN JUMPDEST PUSH2 0x9F PUSH2 0x2F5 JUMP JUMPDEST PUSH1 0x40 MLOAD PUSH2 0xAC SWAP2 SWAP1 PUSH2 0x81B JUMP JUMPDEST PUSH1 0x40 MLOAD DUP1 SWAP2 SUB SWAP1 RETURN JUMPDEST PUSH2 0xBD PUSH2 0x2FB JUMP JUMPDEST PUSH1 0x40 MLOAD PUSH2 0xCA SWAP2 SWAP1 PUSH2 0x81B JUMP JUMPDEST PUSH1 0x40 MLOAD DUP1 SWAP2 SUB SWAP1 RETURN JUMPDEST PUSH2 0xED PUSH1 0x4 DUP1 CALLDATASIZE SUB DUP2 ADD SWAP1 PUSH2 0xE8 SWAP2 SWAP1 PUSH2 0x960 JUMP JUMPDEST PUSH2 0x301 JUMP JUMPDEST STOP JUMPDEST PUSH2 0x109 PUSH1 0x4 DUP1 CALLDATASIZE SUB DUP2 ADD SWAP1 PUSH2 0x104 SWAP2 SWAP1 PUSH2 0x9BA JUMP JUMPDEST PUSH2 0x51D JUMP JUMPDEST STOP JUMPDEST PUSH2 0x113 PUSH2 0x6CF JUMP JUMPDEST PUSH1 0x40 MLOAD PUSH2 0x120 SWAP2 SWAP1 PUSH2 0x81B JUMP JUMPDEST PUSH1 0x40 MLOAD DUP1 SWAP2 SUB SWAP1 RETURN JUMPDEST PUSH0 DUP2 DUP2 SLOAD DUP2 LT PUSH2 0x137 JUMPI PUSH0 DUP1 REVERT JUMPDEST SWAP1 PUSH0 MSTORE PUSH1 0x20 PUSH0 KECCAK256 SWAP1 PUSH1 0x6 MUL ADD PUSH0 SWAP2 POP SWAP1 POP DUP1 PUSH0 ADD SLOAD SWAP1 DUP1 PUSH1 0x1 ADD DUP1 SLOAD PUSH2 0x15C SWAP1 PUSH2 0xA5D JUMP JUMPDEST DUP1 PUSH1 0x1F ADD PUSH1 0x20 DUP1 SWAP2 DIV MUL PUSH1 0x20 ADD PUSH1 0x40 MLOAD SWAP1 DUP2 ADD PUSH1 0x40 MSTORE DUP1 SWAP3 SWAP2 SWAP1 DUP2 DUP2 MSTORE PUSH1 0x20 ADD DUP3 DUP1 SLOAD PUSH2 0x188 SWAP1 PUSH2 0xA5D JUMP JUMPDEST DUP1 ISZERO PUSH2 0x1D3 JUMPI DUP1 PUSH1 0x1F LT PUSH2 0x1AA JUMPI PUSH2 0x100 DUP1 DUP4 SLOAD DIV MUL DUP4 MSTORE SWAP2 PUSH1 0x20 ADD SWAP2 PUSH2 0x1D3 JUMP JUMPDEST DUP3 ADD SWAP2 SWAP1 PUSH0 MSTORE PUSH1 0x20 PUSH0 KECCAK256 SWAP1 JUMPDEST DUP2 SLOAD DUP2 MSTORE SWAP1 PUSH1 0x1 ADD SWAP1 PUSH1 0x20 ADD DUP1 DUP4 GT PUSH2 0x1B6 JUMPI DUP3 SWAP1 SUB PUSH1 0x1F AND DUP3 ADD SWAP2 JUMPDEST POP POP POP POP POP SWAP1 DUP1 PUSH1 0x2 ADD DUP1 SLOAD PUSH2 0x1E8 SWAP1 PUSH2 0xA5D JUMP JUMPDEST DUP1 PUSH1 0x1F ADD PUSH1 0x20 DUP1 SWAP2 DIV MUL PUSH1 0x20 ADD PUSH1 0x40 MLOAD SWAP1 DUP2 ADD PUSH1 0x40 MSTORE DUP1 SWAP3 SWAP2 SWAP1 DUP2 DUP2 MSTORE PUSH1 0x20 ADD DUP3 DUP1 SLOAD PUSH2 0x214 SWAP1 PUSH2 0xA5D JUMP JUMPDEST DUP1 ISZERO PUSH2 0x25F JUMPI DUP1 PUSH1 0x1F LT PUSH2 0x236 JUMPI PUSH2 0x100 DUP1 DUP4 SLOAD DIV MUL DUP4 MSTORE SWAP2 PUSH1 0x20 ADD SWAP2 PUSH2 0x25F JUMP JUMPDEST DUP3 ADD SWAP2 SWAP1 PUSH0 MSTORE PUSH1 0x20 PUSH0 KECCAK256 SWAP1 JUMPDEST DUP2 SLOAD DUP2 MSTORE SWAP1 PUSH1 0x1 ADD SWAP1 PUSH1 0x20 ADD DUP1 DUP4 GT PUSH2 0x242 JUMPI DUP3 SWAP1 SUB PUSH1 0x1F AND DUP3 ADD SWAP2 JUMPDEST POP POP POP POP POP SWAP1 DUP1 PUSH1 0x3 ADD DUP1 SLOAD PUSH2 0x274 SWAP1 PUSH2 0xA5D JUMP JUMPDEST DUP1 PUSH1 0x1F ADD PUSH1 0x20 DUP1 SWAP2 DIV MUL PUSH1 0x20 ADD PUSH1 0x40 MLOAD SWAP1 DUP2 ADD PUSH1 0x40 MSTORE DUP1 SWAP3 SWAP2 SWAP1 DUP2 DUP2 MSTORE PUSH1 0x20 ADD DUP3 DUP1 SLOAD PUSH2 0x2A0 SWAP1 PUSH2 0xA5D JUMP JUMPDEST DUP1 ISZERO PUSH2 0x2EB JUMPI DUP1 PUSH1 0x1F LT PUSH2 0x2C2 JUMPI PUSH2 0x100 DUP1 DUP4 SLOAD DIV MUL DUP4 MSTORE SWAP2 PUSH1 0x20 ADD SWAP2 PUSH2 0x2EB JUMP JUMPDEST DUP3 ADD SWAP2 SWAP1 PUSH0 MSTORE PUSH1 0x20 PUSH0 KECCAK256 SWAP1 JUMPDEST DUP2 SLOAD DUP2 MSTORE SWAP1 PUSH1 0x1 ADD SWAP1 PUSH1 0x20 ADD DUP1 DUP4 GT PUSH2 0x2CE JUMPI DUP3 SWAP1 SUB PUSH1 0x1F AND DUP3 ADD SWAP2 JUMPDEST POP POP POP POP POP SWAP1 POP DUP5 JUMP JUMPDEST PUSH1 0x3 SLOAD DUP2 JUMP JUMPDEST PUSH1 0x2 SLOAD DUP2 JUMP JUMPDEST PUSH0 DUP1 DUP4 DUP2 SLOAD DUP2 LT PUSH2 0x315 JUMPI PUSH2 0x314 PUSH2 0xA8D JUMP JUMPDEST JUMPDEST SWAP1 PUSH0 MSTORE PUSH1 0x20 PUSH0 KECCAK256 SWAP1 PUSH1 0x6 MUL ADD SWAP1 POP PUSH1 0x1 DUP2 PUSH1 0x5 ADD PUSH0 CALLER PUSH20 0xFFFFFFFFFFFFFFFFFFFFFFFFFFFFFFFFFFFFFFFF AND PUSH20 0xFFFFFFFFFFFFFFFFFFFFFFFFFFFFFFFFFFFFFFFF AND DUP2 MSTORE PUSH1 0x20 ADD SWAP1 DUP2 MSTORE PUSH1 0x20 ADD PUSH0 KECCAK256 SLOAD EQ PUSH2 0x3A5 JUMPI PUSH1 0x40 MLOAD PUSH32 0x8C379A000000000000000000000000000000000000000000000000000000000 DUP2 MSTORE PUSH1 0x4 ADD PUSH2 0x39C SWAP1 PUSH2 0xB2A JUMP JUMPDEST PUSH1 0x40 MLOAD DUP1 SWAP2 SUB SWAP1 REVERT JUMPDEST PUSH1 0x2 DUP2 PUSH1 0x5 ADD PUSH0 CALLER PUSH20 0xFFFFFFFFFFFFFFFFFFFFFFFFFFFFFFFFFFFFFFFF AND PUSH20 0xFFFFFFFFFFFFFFFFFFFFFFFFFFFFFFFFFFFFFFFF AND DUP2 MSTORE PUSH1 0x20 ADD SWAP1 DUP2 MSTORE PUSH1 0x20 ADD PUSH0 KECCAK256 DUP2 SWAP1 SSTORE POP PUSH0 DUP1 JUMPDEST DUP1 PUSH2 0x451 JUMPI PUSH0 DUP4 PUSH1 0x4 ADD PUSH0 DUP5 DUP2 MSTORE PUSH1 0x20 ADD SWAP1 DUP2 MSTORE PUSH1 0x20 ADD PUSH0 KECCAK256 DUP1 SLOAD PUSH2 0x411 SWAP1 PUSH2 0xA5D JUMP JUMPDEST SWAP1 POP SUB PUSH2 0x43E JUMPI PUSH1 0x1 SWAP1 POP DUP4 DUP4 PUSH1 0x4 ADD PUSH0 DUP5 DUP2 MSTORE PUSH1 0x20 ADD SWAP1 DUP2 MSTORE PUSH1 0x20 ADD PUSH0 KECCAK256 SWAP1 DUP2 PUSH2 0x43C SWAP2 SWAP1 PUSH2 0xCE5 JUMP JUMPDEST POP JUMPDEST DUP2 DUP1 PUSH2 0x449 SWAP1 PUSH2 0xDE1 JUMP JUMPDEST SWAP3 POP POP PUSH2 0x3ED JUMP JUMPDEST PUSH0 DUP1 JUMPDEST PUSH1 0x3 SLOAD DUP2 LT ISZERO PUSH2 0x514 JUMPI DUP6 DUP1 MLOAD SWAP1 PUSH1 0x20 ADD KECCAK256 DUP6 PUSH1 0x4 ADD PUSH0 DUP4 DUP2 MSTORE PUSH1 0x20 ADD SWAP1 DUP2 MSTORE PUSH1 0x20 ADD PUSH0 KECCAK256 PUSH1 0x40 MLOAD PUSH2 0x486 SWAP2 SWAP1 PUSH2 0xEC4 JUMP JUMPDEST PUSH1 0x40 MLOAD DUP1 SWAP2 SUB SWAP1 KECCAK256 SUB PUSH2 0x507 JUMPI DUP2 DUP1 PUSH2 0x49E SWAP1 PUSH2 0xDE1 JUMP JUMPDEST SWAP3 POP POP PUSH1 0x2 SLOAD DUP3 LT PUSH2 0x506 JUMPI DUP6 DUP6 PUSH1 0x3 ADD SWAP1 DUP2 PUSH2 0x4BB SWAP2 SWAP1 PUSH2 0xCE5 JUMP JUMPDEST POP PUSH32 0x51F1E1F00D186E79F8EA7C82BE079FCDD49FE881904A9CDC1903345EB69D3831 DUP6 PUSH0 ADD SLOAD DUP7 PUSH1 0x1 ADD DUP8 PUSH1 0x2 ADD DUP9 PUSH1 0x3 ADD PUSH1 0x40 MLOAD PUSH2 0x4FD SWAP5 SWAP4 SWAP3 SWAP2 SWAP1 PUSH2 0xF5B JUMP JUMPDEST PUSH1 0x40 MLOAD DUP1 SWAP2 SUB SWAP1 LOG1 JUMPDEST JUMPDEST DUP1 DUP1 PUSH1 0x1 ADD SWAP2 POP POP PUSH2 0x454 JUMP JUMPDEST POP POP POP POP POP POP POP JUMP JUMPDEST PUSH0 DUP1 PUSH1 0x1 DUP2 PUSH1 0x1 DUP2 SLOAD ADD DUP1 DUP3 SSTORE DUP1 SWAP2 POP POP SUB SWAP1 PUSH0 MSTORE PUSH1 0x20 PUSH0 KECCAK256 SWAP1 PUSH1 0x6 MUL ADD SWAP1 POP PUSH1 0x1 SLOAD DUP2 PUSH0 ADD DUP2 SWAP1 SSTORE POP DUP3 DUP2 PUSH1 0x1 ADD SWAP1 DUP2 PUSH2 0x558 SWAP2 SWAP1 PUSH2 0xCE5 JUMP JUMPDEST POP DUP2 DUP2 PUSH1 0x2 ADD SWAP1 DUP2 PUSH2 0x56A SWAP2 SWAP1 PUSH2 0xCE5 JUMP JUMPDEST POP PUSH1 0x1 DUP2 PUSH1 0x5 ADD PUSH0 PUSH20 0x6C2339B46F41A06F09CA0051DDAD54D1E582BA77 PUSH20 0xFFFFFFFFFFFFFFFFFFFFFFFFFFFFFFFFFFFFFFFF AND PUSH20 0xFFFFFFFFFFFFFFFFFFFFFFFFFFFFFFFFFFFFFFFF AND DUP2 MSTORE PUSH1 0x20 ADD SWAP1 DUP2 MSTORE PUSH1 0x20 ADD PUSH0 KECCAK256 DUP2 SWAP1 SSTORE POP PUSH1 0x1 DUP2 PUSH1 0x5 ADD PUSH0 PUSH20 0xB5346CF224C02186606E5F89EACC21EC25398077 PUSH20 0xFFFFFFFFFFFFFFFFFFFFFFFFFFFFFFFFFFFFFFFF AND PUSH20 0xFFFFFFFFFFFFFFFFFFFFFFFFFFFFFFFFFFFFFFFF AND DUP2 MSTORE PUSH1 0x20 ADD SWAP1 DUP2 MSTORE PUSH1 0x20 ADD PUSH0 KECCAK256 DUP2 SWAP1 SSTORE POP PUSH1 0x1 DUP2 PUSH1 0x5 ADD PUSH0 PUSH20 0xA2997F1CA363D11A0A35BB1AC0FF7849BC13E914 PUSH20 0xFFFFFFFFFFFFFFFFFFFFFFFFFFFFFFFFFFFFFFFF AND PUSH20 0xFFFFFFFFFFFFFFFFFFFFFFFFFFFFFFFFFFFFFFFF AND DUP2 MSTORE PUSH1 0x20 ADD SWAP1 DUP2 MSTORE PUSH1 0x20 ADD PUSH0 KECCAK256 DUP2 SWAP1 SSTORE POP PUSH32 0x312239616ABFB14F7FFA065155ABB0CA047274D86C965890DB4C8A48B8CE4B6 PUSH1 0x1 SLOAD DUP5 DUP5 PUSH1 0x40 MLOAD PUSH2 0x6AB SWAP4 SWAP3 SWAP2 SWAP1 PUSH2 0xFB3 JUMP JUMPDEST PUSH1 0x40 MLOAD DUP1 SWAP2 SUB SWAP1 LOG1 PUSH1 0x1 PUSH0 DUP2 SLOAD DUP1 SWAP3 SWAP2 SWAP1 PUSH2 0x6C5 SWAP1 PUSH2 0xDE1 JUMP JUMPDEST SWAP2 SWAP1 POP SSTORE POP POP POP POP JUMP JUMPDEST PUSH1 0x1 SLOAD DUP2 JUMP JUMPDEST PUSH0 PUSH1 0x40 MLOAD SWAP1 POP SWAP1 JUMP JUMPDEST PUSH0 DUP1 REVERT JUMPDEST PUSH0 DUP1 REVERT JUMPDEST PUSH0 DUP2 SWAP1 POP SWAP2 SWAP1 POP JUMP JUMPDEST PUSH2 0x6F8 DUP2 PUSH2 0x6E6 JUMP JUMPDEST DUP2 EQ PUSH2 0x702 JUMPI PUSH0 DUP1 REVERT JUMPDEST POP JUMP JUMPDEST PUSH0 DUP2 CALLDATALOAD SWAP1 POP PUSH2 0x713 DUP2 PUSH2 0x6EF JUMP JUMPDEST SWAP3 SWAP2 POP POP JUMP JUMPDEST PUSH0 PUSH1 0x20 DUP3 DUP5 SUB SLT ISZERO PUSH2 0x72E JUMPI PUSH2 0x72D PUSH2 0x6DE JUMP JUMPDEST JUMPDEST PUSH0 PUSH2 0x73B DUP5 DUP3 DUP6 ADD PUSH2 0x705 JUMP JUMPDEST SWAP2 POP POP SWAP3 SWAP2 POP POP JUMP JUMPDEST PUSH2 0x74D DUP2 PUSH2 0x6E6 JUMP JUMPDEST DUP3 MSTORE POP POP JUMP JUMPDEST PUSH0 DUP2 MLOAD SWAP1 POP SWAP2 SWAP1 POP JUMP JUMPDEST PUSH0 DUP3 DUP3 MSTORE PUSH1 0x20 DUP3 ADD SWAP1 POP SWAP3 SWAP2 POP POP JUMP JUMPDEST DUP3 DUP2 DUP4 MCOPY PUSH0 DUP4 DUP4 ADD MSTORE POP POP POP JUMP JUMPDEST PUSH0 PUSH1 0x1F NOT PUSH1 0x1F DUP4 ADD AND SWAP1 POP SWAP2 SWAP1 POP JUMP JUMPDEST PUSH0 PUSH2 0x795 DUP3 PUSH2 0x753 JUMP JUMPDEST PUSH2 0x79F DUP2 DUP6 PUSH2 0x75D JUMP JUMPDEST SWAP4 POP PUSH2 0x7AF DUP2 DUP6 PUSH1 0x20 DUP7 ADD PUSH2 0x76D JUMP JUMPDEST PUSH2 0x7B8 DUP2 PUSH2 0x77B JUMP JUMPDEST DUP5 ADD SWAP2 POP POP SWAP3 SWAP2 POP POP JUMP JUMPDEST PUSH0 PUSH1 0x80 DUP3 ADD SWAP1 POP PUSH2 0x7D6 PUSH0 DUP4 ADD DUP8 PUSH2 0x744 JUMP JUMPDEST DUP2 DUP2 SUB PUSH1 0x20 DUP4 ADD MSTORE PUSH2 0x7E8 DUP2 DUP7 PUSH2 0x78B JUMP JUMPDEST SWAP1 POP DUP2 DUP2 SUB PUSH1 0x40 DUP4 ADD MSTORE PUSH2 0x7FC DUP2 DUP6 PUSH2 0x78B JUMP JUMPDEST SWAP1 POP DUP2 DUP2 SUB PUSH1 0x60 DUP4 ADD MSTORE PUSH2 0x810 DUP2 DUP5 PUSH2 0x78B JUMP JUMPDEST SWAP1 POP SWAP6 SWAP5 POP POP POP POP POP JUMP JUMPDEST PUSH0 PUSH1 0x20 DUP3 ADD SWAP1 POP PUSH2 0x82E PUSH0 DUP4 ADD DUP5 PUSH2 0x744 JUMP JUMPDEST SWAP3 SWAP2 POP POP JUMP JUMPDEST PUSH0 DUP1 REVERT JUMPDEST PUSH0 DUP1 REVERT JUMPDEST PUSH32 0x4E487B7100000000000000000000000000000000000000000000000000000000 PUSH0 MSTORE PUSH1 0x41 PUSH1 0x4 MSTORE PUSH1 0x24 PUSH0 REVERT JUMPDEST PUSH2 0x872 DUP3 PUSH2 0x77B JUMP JUMPDEST DUP2 ADD DUP2 DUP2 LT PUSH8 0xFFFFFFFFFFFFFFFF DUP3 GT OR ISZERO PUSH2 0x891 JUMPI PUSH2 0x890 PUSH2 0x83C JUMP JUMPDEST JUMPDEST DUP1 PUSH1 0x40 MSTORE POP POP POP JUMP JUMPDEST PUSH0 PUSH2 0x8A3 PUSH2 0x6D5 JUMP JUMPDEST SWAP1 POP PUSH2 0x8AF DUP3 DUP3 PUSH2 0x869 JUMP JUMPDEST SWAP2 SWAP1 POP JUMP JUMPDEST PUSH0 PUSH8 0xFFFFFFFFFFFFFFFF DUP3 GT ISZERO PUSH2 0x8CE JUMPI PUSH2 0x8CD PUSH2 0x83C JUMP JUMPDEST JUMPDEST PUSH2 0x8D7 DUP3 PUSH2 0x77B JUMP JUMPDEST SWAP1 POP PUSH1 0x20 DUP2 ADD SWAP1 POP SWAP2 SWAP1 POP JUMP JUMPDEST DUP3 DUP2 DUP4 CALLDATACOPY PUSH0 DUP4 DUP4 ADD MSTORE POP POP POP JUMP JUMPDEST PUSH0 PUSH2 0x904 PUSH2 0x8FF DUP5 PUSH2 0x8B4 JUMP JUMPDEST PUSH2 0x89A JUMP JUMPDEST SWAP1 POP DUP3 DUP2 MSTORE PUSH1 0x20 DUP2 ADD DUP5 DUP5 DUP5 ADD GT ISZERO PUSH2 0x920 JUMPI PUSH2 0x91F PUSH2 0x838 JUMP JUMPDEST JUMPDEST PUSH2 0x92B DUP5 DUP3 DUP6 PUSH2 0x8E4 JUMP JUMPDEST POP SWAP4 SWAP3 POP POP POP JUMP JUMPDEST PUSH0 DUP3 PUSH1 0x1F DUP4 ADD SLT PUSH2 0x947 JUMPI PUSH2 0x946 PUSH2 0x834 JUMP JUMPDEST JUMPDEST DUP2 CALLDATALOAD PUSH2 0x957 DUP5 DUP3 PUSH1 0x20 DUP7 ADD PUSH2 0x8F2 JUMP JUMPDEST SWAP2 POP POP SWAP3 SWAP2 POP POP JUMP JUMPDEST PUSH0 DUP1 PUSH1 0x40 DUP4 DUP6 SUB SLT ISZERO PUSH2 0x976 JUMPI PUSH2 0x975 PUSH2 0x6DE JUMP JUMPDEST JUMPDEST PUSH0 PUSH2 0x983 DUP6 DUP3 DUP7 ADD PUSH2 0x705 JUMP JUMPDEST SWAP3 POP POP PUSH1 0x20 DUP4 ADD CALLDATALOAD PUSH8 0xFFFFFFFFFFFFFFFF DUP2 GT ISZERO PUSH2 0x9A4 JUMPI PUSH2 0x9A3 PUSH2 0x6E2 JUMP JUMPDEST JUMPDEST PUSH2 0x9B0 DUP6 DUP3 DUP7 ADD PUSH2 0x933 JUMP JUMPDEST SWAP2 POP POP SWAP3 POP SWAP3 SWAP1 POP JUMP JUMPDEST PUSH0 DUP1 PUSH1 0x40 DUP4 DUP6 SUB SLT ISZERO PUSH2 0x9D0 JUMPI PUSH2 0x9CF PUSH2 0x6DE JUMP JUMPDEST JUMPDEST PUSH0 DUP4 ADD CALLDATALOAD PUSH8 0xFFFFFFFFFFFFFFFF DUP2 GT ISZERO PUSH2 0x9ED JUMPI PUSH2 0x9EC PUSH2 0x6E2 JUMP JUMPDEST JUMPDEST PUSH2 0x9F9 DUP6 DUP3 DUP7 ADD PUSH2 0x933 JUMP JUMPDEST SWAP3 POP POP PUSH1 0x20 DUP4 ADD CALLDATALOAD PUSH8 0xFFFFFFFFFFFFFFFF DUP2 GT ISZERO PUSH2 0xA1A JUMPI PUSH2 0xA19 PUSH2 0x6E2 JUMP JUMPDEST JUMPDEST PUSH2 0xA26 DUP6 DUP3 DUP7 ADD PUSH2 0x933 JUMP JUMPDEST SWAP2 POP POP SWAP3 POP SWAP3 SWAP1 POP JUMP JUMPDEST PUSH32 0x4E487B7100000000000000000000000000000000000000000000000000000000 PUSH0 MSTORE PUSH1 0x22 PUSH1 0x4 MSTORE PUSH1 0x24 PUSH0 REVERT JUMPDEST PUSH0 PUSH1 0x2 DUP3 DIV SWAP1 POP PUSH1 0x1 DUP3 AND DUP1 PUSH2 0xA74 JUMPI PUSH1 0x7F DUP3 AND SWAP2 POP JUMPDEST PUSH1 0x20 DUP3 LT DUP2 SUB PUSH2 0xA87 JUMPI PUSH2 0xA86 PUSH2 0xA30 JUMP JUMPDEST JUMPDEST POP SWAP2 SWAP1 POP JUMP JUMPDEST PUSH32 0x4E487B7100000000000000000000000000000000000000000000000000000000 PUSH0 MSTORE PUSH1 0x32 PUSH1 0x4 MSTORE PUSH1 0x24 PUSH0 REVERT JUMPDEST PUSH32 0x4F7261636C65206E6F7420617574686F72697A6564206F7220616C7265616479 PUSH0 DUP3 ADD MSTORE PUSH32 0x20766F7465640000000000000000000000000000000000000000000000000000 PUSH1 0x20 DUP3 ADD MSTORE POP JUMP JUMPDEST PUSH0 PUSH2 0xB14 PUSH1 0x26 DUP4 PUSH2 0x75D JUMP JUMPDEST SWAP2 POP PUSH2 0xB1F DUP3 PUSH2 0xABA JUMP JUMPDEST PUSH1 0x40 DUP3 ADD SWAP1 POP SWAP2 SWAP1 POP JUMP JUMPDEST PUSH0 PUSH1 0x20 DUP3 ADD SWAP1 POP DUP2 DUP2 SUB PUSH0 DUP4 ADD MSTORE PUSH2 0xB41 DUP2 PUSH2 0xB08 JUMP JUMPDEST SWAP1 POP SWAP2 SWAP1 POP JUMP JUMPDEST PUSH0 DUP2 SWAP1 POP DUP2 PUSH0 MSTORE PUSH1 0x20 PUSH0 KECCAK256 SWAP1 POP SWAP2 SWAP1 POP JUMP JUMPDEST PUSH0 PUSH1 0x20 PUSH1 0x1F DUP4 ADD DIV SWAP1 POP SWAP2 SWAP1 POP JUMP JUMPDEST PUSH0 DUP3 DUP3 SHL SWAP1 POP SWAP3 SWAP2 POP POP JUMP JUMPDEST PUSH0 PUSH1 0x8 DUP4 MUL PUSH2 0xBA4 PUSH32 0xFFFFFFFFFFFFFFFFFFFFFFFFFFFFFFFFFFFFFFFFFFFFFFFFFFFFFFFFFFFFFFFF DUP3 PUSH2 0xB69 JUMP JUMPDEST PUSH2 0xBAE DUP7 DUP4 PUSH2 0xB69 JUMP JUMPDEST SWAP6 POP DUP1 NOT DUP5 AND SWAP4 POP DUP1 DUP7 AND DUP5 OR SWAP3 POP POP POP SWAP4 SWAP3 POP POP POP JUMP JUMPDEST PUSH0 DUP2 SWAP1 POP SWAP2 SWAP1 POP JUMP JUMPDEST PUSH0 PUSH2 0xBE9 PUSH2 0xBE4 PUSH2 0xBDF DUP5 PUSH2 0x6E6 JUMP JUMPDEST PUSH2 0xBC6 JUMP JUMPDEST PUSH2 0x6E6 JUMP JUMPDEST SWAP1 POP SWAP2 SWAP1 POP JUMP JUMPDEST PUSH0 DUP2 SWAP1 POP SWAP2 SWAP1 POP JUMP JUMPDEST PUSH2 0xC02 DUP4 PUSH2 0xBCF JUMP JUMPDEST PUSH2 0xC16 PUSH2 0xC0E DUP3 PUSH2 0xBF0 JUMP JUMPDEST DUP5 DUP5 SLOAD PUSH2 0xB75 JUMP JUMPDEST DUP3 SSTORE POP POP POP POP JUMP JUMPDEST PUSH0 SWAP1 JUMP JUMPDEST PUSH2 0xC2A PUSH2 0xC1E JUMP JUMPDEST PUSH2 0xC35 DUP2 DUP5 DUP5 PUSH2 0xBF9 JUMP JUMPDEST POP POP POP JUMP JUMPDEST JUMPDEST DUP2 DUP2 LT ISZERO PUSH2 0xC58 JUMPI PUSH2 0xC4D PUSH0 DUP3 PUSH2 0xC22 JUMP JUMPDEST PUSH1 0x1 DUP2 ADD SWAP1 POP PUSH2 0xC3B JUMP JUMPDEST POP POP JUMP JUMPDEST PUSH1 0x1F DUP3 GT ISZERO PUSH2 0xC9D JUMPI PUSH2 0xC6E DUP2 PUSH2 0xB48 JUMP JUMPDEST PUSH2 0xC77 DUP5 PUSH2 0xB5A JUMP JUMPDEST DUP2 ADD PUSH1 0x20 DUP6 LT ISZERO PUSH2 0xC86 JUMPI DUP2 SWAP1 POP JUMPDEST PUSH2 0xC9A PUSH2 0xC92 DUP6 PUSH2 0xB5A JUMP JUMPDEST DUP4 ADD DUP3 PUSH2 0xC3A JUMP JUMPDEST POP POP JUMPDEST POP POP POP JUMP JUMPDEST PUSH0 DUP3 DUP3 SHR SWAP1 POP SWAP3 SWAP2 POP POP JUMP JUMPDEST PUSH0 PUSH2 0xCBD PUSH0 NOT DUP5 PUSH1 0x8 MUL PUSH2 0xCA2 JUMP JUMPDEST NOT DUP1 DUP4 AND SWAP2 POP POP SWAP3 SWAP2 POP POP JUMP JUMPDEST PUSH0 PUSH2 0xCD5 DUP4 DUP4 PUSH2 0xCAE JUMP JUMPDEST SWAP2 POP DUP3 PUSH1 0x2 MUL DUP3 OR SWAP1 POP SWAP3 SWAP2 POP POP JUMP JUMPDEST PUSH2 0xCEE DUP3 PUSH2 0x753 JUMP JUMPDEST PUSH8 0xFFFFFFFFFFFFFFFF DUP2 GT ISZERO PUSH2 0xD07 JUMPI PUSH2 0xD06 PUSH2 0x83C JUMP JUMPDEST JUMPDEST PUSH2 0xD11 DUP3 SLOAD PUSH2 0xA5D JUMP JUMPDEST PUSH2 0xD1C DUP3 DUP3 DUP6 PUSH2 0xC5C JUMP JUMPDEST PUSH0 PUSH1 0x20 SWAP1 POP PUSH1 0x1F DUP4 GT PUSH1 0x1 DUP2 EQ PUSH2 0xD4D JUMPI PUSH0 DUP5 ISZERO PUSH2 0xD3B JUMPI DUP3 DUP8 ADD MLOAD SWAP1 POP JUMPDEST PUSH2 0xD45 DUP6 DUP3 PUSH2 0xCCA JUMP JUMPDEST DUP7 SSTORE POP PUSH2 0xDAC JUMP JUMPDEST PUSH1 0x1F NOT DUP5 AND PUSH2 0xD5B DUP7 PUSH2 0xB48 JUMP JUMPDEST PUSH0 JUMPDEST DUP3 DUP2 LT ISZERO PUSH2 0xD82 JUMPI DUP5 DUP10 ADD MLOAD DUP3 SSTORE PUSH1 0x1 DUP3 ADD SWAP2 POP PUSH1 0x20 DUP6 ADD SWAP5 POP PUSH1 0x20 DUP2 ADD SWAP1 POP PUSH2 0xD5D JUMP JUMPDEST DUP7 DUP4 LT ISZERO PUSH2 0xD9F JUMPI DUP5 DUP10 ADD MLOAD PUSH2 0xD9B PUSH1 0x1F DUP10 AND DUP3 PUSH2 0xCAE JUMP JUMPDEST DUP4 SSTORE POP JUMPDEST PUSH1 0x1 PUSH1 0x2 DUP9 MUL ADD DUP9 SSTORE POP POP POP JUMPDEST POP POP POP POP POP POP JUMP JUMPDEST PUSH32 0x4E487B7100000000000000000000000000000000000000000000000000000000 PUSH0 MSTORE PUSH1 0x11 PUSH1 0x4 MSTORE PUSH1 0x24 PUSH0 REVERT JUMPDEST PUSH0 PUSH2 0xDEB DUP3 PUSH2 0x6E6 JUMP JUMPDEST SWAP2 POP PUSH32 0xFFFFFFFFFFFFFFFFFFFFFFFFFFFFFFFFFFFFFFFFFFFFFFFFFFFFFFFFFFFFFFFF DUP3 SUB PUSH2 0xE1D JUMPI PUSH2 0xE1C PUSH2 0xDB4 JUMP JUMPDEST JUMPDEST PUSH1 0x1 DUP3 ADD SWAP1 POP SWAP2 SWAP1 POP JUMP JUMPDEST PUSH0 DUP2 SWAP1 POP SWAP3 SWAP2 POP POP JUMP JUMPDEST PUSH0 DUP2 SWAP1 POP DUP2 PUSH0 MSTORE PUSH1 0x20 PUSH0 KECCAK256 SWAP1 POP SWAP2 SWAP1 POP JUMP JUMPDEST PUSH0 DUP2 SLOAD PUSH2 0xE50 DUP2 PUSH2 0xA5D JUMP JUMPDEST PUSH2 0xE5A DUP2 DUP7 PUSH2 0xE28 JUMP JUMPDEST SWAP5 POP PUSH1 0x1 DUP3 AND PUSH0 DUP2 EQ PUSH2 0xE74 JUMPI PUSH1 0x1 DUP2 EQ PUSH2 0xE89 JUMPI PUSH2 0xEBB JUMP JUMPDEST PUSH1 0xFF NOT DUP4 AND DUP7 MSTORE DUP2 ISZERO ISZERO DUP3 MUL DUP7 ADD SWAP4 POP PUSH2 0xEBB JUMP JUMPDEST PUSH2 0xE92 DUP6 PUSH2 0xE32 JUMP JUMPDEST PUSH0 JUMPDEST DUP4 DUP2 LT ISZERO PUSH2 0xEB3 JUMPI DUP2 SLOAD DUP2 DUP10 ADD MSTORE PUSH1 0x1 DUP3 ADD SWAP2 POP PUSH1 0x20 DUP2 ADD SWAP1 POP PUSH2 0xE94 JUMP JUMPDEST DUP4 DUP9 ADD SWAP6 POP POP POP JUMPDEST POP POP POP SWAP3 SWAP2 POP POP JUMP JUMPDEST PUSH0 PUSH2 0xECF DUP3 DUP5 PUSH2 0xE44 JUMP JUMPDEST SWAP2 POP DUP2 SWAP1 POP SWAP3 SWAP2 POP POP JUMP JUMPDEST PUSH0 DUP2 SLOAD PUSH2 0xEE6 DUP2 PUSH2 0xA5D JUMP JUMPDEST PUSH2 0xEF0 DUP2 DUP7 PUSH2 0x75D JUMP JUMPDEST SWAP5 POP PUSH1 0x1 DUP3 AND PUSH0 DUP2 EQ PUSH2 0xF0A JUMPI PUSH1 0x1 DUP2 EQ PUSH2 0xF20 JUMPI PUSH2 0xF52 JUMP JUMPDEST PUSH1 0xFF NOT DUP4 AND DUP7 MSTORE DUP2 ISZERO ISZERO PUSH1 0x20 MUL DUP7 ADD SWAP4 POP PUSH2 0xF52 JUMP JUMPDEST PUSH2 0xF29 DUP6 PUSH2 0xB48 JUMP JUMPDEST PUSH0 JUMPDEST DUP4 DUP2 LT ISZERO PUSH2 0xF4A JUMPI DUP2 SLOAD DUP2 DUP10 ADD MSTORE PUSH1 0x1 DUP3 ADD SWAP2 POP PUSH1 0x20 DUP2 ADD SWAP1 POP PUSH2 0xF2B JUMP JUMPDEST DUP1 DUP9 ADD SWAP6 POP POP POP JUMPDEST POP POP POP SWAP3 SWAP2 POP POP JUMP JUMPDEST PUSH0 PUSH1 0x80 DUP3 ADD SWAP1 POP PUSH2 0xF6E PUSH0 DUP4 ADD DUP8 PUSH2 0x744 JUMP JUMPDEST DUP2 DUP2 SUB PUSH1 0x20 DUP4 ADD MSTORE PUSH2 0xF80 DUP2 DUP7 PUSH2 0xEDA JUMP JUMPDEST SWAP1 POP DUP2 DUP2 SUB PUSH1 0x40 DUP4 ADD MSTORE PUSH2 0xF94 DUP2 DUP6 PUSH2 0xEDA JUMP JUMPDEST SWAP1 POP DUP2 DUP2 SUB PUSH1 0x60 DUP4 ADD MSTORE PUSH2 0xFA8 DUP2 DUP5 PUSH2 0xEDA JUMP JUMPDEST SWAP1 POP SWAP6 SWAP5 POP POP POP POP POP JUMP JUMPDEST PUSH0 PUSH1 0x60 DUP3 ADD SWAP1 POP PUSH2 0xFC6 PUSH0 DUP4 ADD DUP7 PUSH2 0x744 JUMP JUMPDEST DUP2 DUP2 SUB PUSH1 0x20 DUP4 ADD MSTORE PUSH2 0xFD8 DUP2 DUP6 PUSH2 0x78B JUMP JUMPDEST SWAP1 POP DUP2 DUP2 SUB PUSH1 0x40 DUP4 ADD MSTORE PUSH2 0xFEC DUP2 DUP5 PUSH2 0x78B JUMP JUMPDEST SWAP1 POP SWAP5 SWAP4 POP POP POP POP JUMP INVALID LOG2 PUSH5 0x6970667358 0x22 SLT KECCAK256 0x27 0x2D 0xF9 0xB4 0xDE DUP4 PC 0xDC 0xCA CALL 0xC6 COINBASE SWAP4 LOG2 0xB7 0xF8 GASPRICE SWAP3 0xC2 SLT 0xDD DUP3 GASLIMIT DUP8 0x22 0xB7 0xC8 0x2C MSIZE PUSH7 0x4BC64736F6C63 NUMBER STOP ADDMOD BYTE STOP CALLER "
				},
				"gasEstimates": {
					"creation": {
						"codeDepositCost": "828000",
						"executionCost": "50079",
						"totalCost": "878079"
					},
					"external": {
						"createRequest(string,string)": "infinite",
						"currentId()": "2513",
						"minQuorum()": "2447",
						"requests(uint256)": "infinite",
						"totalOracleCount()": "2425",
						"updateRequest(uint256,string)": "infinite"
					}
				},
				"methodIdentifiers": {
					"createRequest(string,string)": "df89f819",
					"currentId()": "e00dd161",
					"minQuorum()": "b5a127e5",
					"requests(uint256)": "81d12c58",
					"totalOracleCount()": "99cc7f60",
					"updateRequest(uint256,string)": "cfb0ac99"
				}
			},
			"storageLayout": {
				"storage": [
					{
						"astId": 5,
						"contract": "contracts/Oracle.sol:Oracle",
						"label": "requests",
						"offset": 0,
						"slot": "0",
						"type": "t_array(t_struct(Request)31_storage)dyn_storage"
					},
					{
						"astId": 8,
						"contract": "contracts/Oracle.sol:Oracle",
						"label": "currentId",
						"offset": 0,
						"slot": "1",
						"type": "t_uint256"
					},
					{
						"astId": 11,
						"contract": "contracts/Oracle.sol:Oracle",
						"label": "minQuorum",
						"offset": 0,
						"slot": "2",
						"type": "t_uint256"
					},
					{
						"astId": 14,
						"contract": "contracts/Oracle.sol:Oracle",
						"label": "totalOracleCount",
						"offset": 0,
						"slot": "3",
						"type": "t_uint256"
					}
				],
				"types": {
					"t_address": {
						"encoding": "inplace",
						"label": "address",
						"numberOfBytes": "20"
					},
					"t_array(t_struct(Request)31_storage)dyn_storage": {
						"base": "t_struct(Request)31_storage",
						"encoding": "dynamic_array",
						"label": "struct Oracle.Request[]",
						"numberOfBytes": "32"
					},
					"t_mapping(t_address,t_uint256)": {
						"encoding": "mapping",
						"key": "t_address",
						"label": "mapping(address => uint256)",
						"numberOfBytes": "32",
						"value": "t_uint256"
					},
					"t_mapping(t_uint256,t_string_storage)": {
						"encoding": "mapping",
						"key": "t_uint256",
						"label": "mapping(uint256 => string)",
						"numberOfBytes": "32",
						"value": "t_string_storage"
					},
					"t_string_storage": {
						"encoding": "bytes",
						"label": "string",
						"numberOfBytes": "32"
					},
					"t_struct(Request)31_storage": {
						"encoding": "inplace",
						"label": "struct Oracle.Request",
						"members": [
							{
								"astId": 16,
								"contract": "contracts/Oracle.sol:Oracle",
								"label": "id",
								"offset": 0,
								"slot": "0",
								"type": "t_uint256"
							},
							{
								"astId": 18,
								"contract": "contracts/Oracle.sol:Oracle",
								"label": "urlToQuery",
								"offset": 0,
								"slot": "1",
								"type": "t_string_storage"
							},
							{
								"astId": 20,
								"contract": "contracts/Oracle.sol:Oracle",
								"label": "attributeToFetch",
								"offset": 0,
								"slot": "2",
								"type": "t_string_storage"
							},
							{
								"astId": 22,
								"contract": "contracts/Oracle.sol:Oracle",
								"label": "agreedValue",
								"offset": 0,
								"slot": "3",
								"type": "t_string_storage"
							},
							{
								"astId": 26,
								"contract": "contracts/Oracle.sol:Oracle",
								"label": "answers",
								"offset": 0,
								"slot": "4",
								"type": "t_mapping(t_uint256,t_string_storage)"
							},
							{
								"astId": 30,
								"contract": "contracts/Oracle.sol:Oracle",
								"label": "quorum",
								"offset": 0,
								"slot": "5",
								"type": "t_mapping(t_address,t_uint256)"
							}
						],
						"numberOfBytes": "192"
					},
					"t_uint256": {
						"encoding": "inplace",
						"label": "uint256",
						"numberOfBytes": "32"
					}
				}
			},
			"userdoc": {
				"kind": "user",
				"methods": {},
				"version": 1
			}
		}
	}
}